:020000040800F2
:1000000000100020312F0008812F0008812F0008E8
:1000100000000000000000000000000000000000E0
:10002000000000000000000000000000812F000818
:100030000000000000000000812F00082D160008BD
:10004000812F000800000000812F0008812F000888
:10005000812F00081D1600080D160008F71500086E
:1000600000000000812F0008812F0008812F000868
:10007000812F0008E9140008812F0008000000000B
:10008000D51400080000000000000000C1140008A2
:1000900000000000AD14000897140008812F00082C
:1000A00000000000812F000800000000531200082B
:1000B0000000000000000000000000000000000040
:1000C00010B5064C2378002B07D1054B002B02D02E
:1000D000044800E000BF0123237010BD1001002080
:1000E0000000000020340008084B10B5002B03D09E
:1000F0000749084800E000BF07480368002B00D10B
:1001000010BD064B002BFBD09847F9E7000000001C
:10011000140100202034000810010020000000001D
:10012000C8207047FA2080007047C8204000704700
:1001300032207047F0B5364B364C1B682278677812
:100140009200D3400F2285B01340FFB20293002FDC
:100150002FD1002B2DD03900032000F0FFFE3900F5
:10016000022000F0FBFE3900380000F0F7FE3900F5
:10017000012000F0F3FE284D23780121EB5C0635C9
:100180005E080393AB5DAD191800019300F0E6FE25
:100190006E780121300000F0E1FE0123039D1D4037
:1001A00014D03900019801F0ADFF0121300001F0B9
:1001B000A9FF6378029A93420EDA63780133DBB2C7
:1001C00063706378032B18DC05B0F0BD0121019842
:1001D00001F098FF2900E9E70021032000F0BEFEAE
:1001E0000021022000F0BAFE0021080000F0B6FE57
:1001F0000021012000F0B2FEDFE7002262702378C8
:100200000133DBB223702378052BDDDD2270DBE7C1
:10021000340100202C0100203834000870B500287B
:1002200015DB642800DD642006244443642120009B
:1002300002F02CF8002304211D001E00834209DA7D
:100240000E009A00964001333543DBB2F5E70024F7
:10025000260025002000642102F0FEF80800192184
:1002600002F014F8B600B040014B2843186070BD8E
:100270003401002070B5032914D0042914D00229B8
:100280000CD1144B144A1968144C106809191268DF
:10029000814204D91A600122114B9A7070BD2D322F
:1002A000FF32F7E70222F7E70B4D0E4B2A689A421E
:1002B000F4D964242000FFF7B1FF042001F0ECFE24
:1002C000013CF7D20322084B1A702A68074B1A60C8
:1002D000E4E7C046D8010020BC050020B80B0000B0
:1002E0002C0100208813000030010020C8010020EC
:1002F00010B50021032000F031FE0021022000F0A3
:100300002DFE0021080000F029FE0021012000F050
:1003100025FE0022014B1A6010BDC04634010020AA
:1003200010B5FFF7E5FF0021062001F0EBFE0021EC
:10033000072001F0E7FE00210C2000F00FFE10BDA9
:1003400070B5194E316800292BD0B369002B28D025
:10035000164A00201268914222D8643093421FD975
:1003600000231C00052B1CDC0133DBB29900715803
:10037000002901D1062BF7DDA0003558AA42F0D3A1
:100380008A42EED2521B181B5043491B000101F058
:10039000F3FE050064200621604301F077FF281872
:1003A00070BD01204042FBE79C0100209401002029
:1003B0000523F0B5A1B0019300230093019B013BFD
:1003C0000193002B00D1A0E200244C2200210DA8B3
:1003D00002F010FE0B4904AB0C3111205C8001F0DF
:1003E000FAF80D90A04211D10023074A12680C2A96
:1003F00005D00B2A00D985E20C218A1AD340009A35
:10040000D318DAE738340008080000208023DB0521
:100410000E930423C2271E941293DB4C023B1B93C2
:100420000F3323701E9BFF371797002B1DD11F938F
:10043000D64B984209D18020D54A8000916901436A
:100440009161936903400593059B012001F0F6F843
:100450000F23227808A91A400E3B934008930323E8
:10046000099300230A9301F0F3FB1E9BDB0600D5E2
:10047000BCE104230D9CA2681A4000D0B6E11E988E
:10048000C449023B0840034303201E93A368039121
:100490000340012B00D04DE22168194203D1E368EB
:1004A0001B0400D446E2E368BB49159D0B40E360A2
:1004B000139B6E039903149BDB030B431A99481E8D
:1004C000411E88410103109803431E43119B029370
:1004D000022B00D10422199B580002933043169B33
:1004E00008430243012B05D1002D00D06AE180238F
:1004F0005B021A43179BBB4203D018990B4302912E
:100500001A43E3681B9E1343E36080235B059E420E
:1005100002D0731E062B07D80723616999436161D6
:10052000616933400B436361E3689C490B409A4225
:1005300000D04FE1002503221F951E9B984F934347
:100540001A00390001230C31134311201E9301F0CE
:1005500035F80003C00E0138102800D849E1002307
:100560001DAA06931378012B00D13DE701231370D8
:10057000A268520700D55FE1AB40A26A1343A362B1
:1005800080235B059E420ED0013E062E0BD907222A
:1005900063691340022B06D06369934363610223AE
:1005A0006269134363612B00103B012B00D826E1E5
:1005B000012303211DAC23700D9B9A680A40012A78
:1005C00007D11968114200D0C3E1DA68120400D5DE
:1005D000BFE11E99039A0320114002220A431E9292
:1005E000DA68D9688143D960802198680906014397
:1005F00099606C490D689868002800DA21E10321B0
:10060000D8680A400243DA6001231E9A8A431343E2
:100610001E93002300222270934200D0E4E60D9D39
:10062000AA68520700D5DFE601222270149A0292CE
:10063000012A00D00FE11E9B5B4A1A4080235B0019
:1006400013431E931C2200231F9323702A60A96862
:10065000183A0A431299AA60082900D033E1514A96
:1006600016682B680B4000D137E180231E9A9B004F
:1006700013431E93C023EA681B011A4214D1159B31
:100680000293002B10D12B681B070DD5AB685B07BD
:1006900000D52AE10C226B6893436B601E9B434A92
:1006A0001A40012313431E93139B0293002B01D185
:1006B0000C332B601E9B9B0503D52B6C04AA9BB2AD
:1006C000538001250DA8257001F0AEFB002809D14B
:1006D0000DA801F0D1FB002804D11E9B334A134022
:1006E0001D431E9500221DAB1A70904200D07BE680
:1006F00002231E9A0DA813431E9301F095FB0028B8
:1007000000D0FBE00DA801F0B7FB012800D16BE69B
:1007100001231E939F210D9B254C5A688A435A60E2
:100720001960DA6823490A400721DA601A699200E1
:1007300092081A615A698A435A611A6A1E490A4024
:100740001A629A6A1D49D20CD2049A620A6822403F
:100750000A600E4A93420CD180220D4B9200D96858
:10076000174C0A43DA60D9682140D9609A6922405F
:100770009A6100231F931E93984200D034E604AB85
:1007800002331B889BB230E60400002000240140A5
:1007900000100240FDFEFFFF1902FEFFE7FF3F834E
:1007A00038340008BC050020FEF0FFFFFEFEFFFF0E
:1007B000FFFF3FFF00023E8300F000F008270140EA
:1007C000FFFDFFFF20211E9801431E911F990B433F
:1007D0001F938FE612221E9B93431A00102313438C
:1007E0001E9301231F9A13431F93FDE51E9A1023A6
:1007F00024E03C373D5C112D00D9F5E5AFE6584AC1
:1008000080211368102D15D0C9030B431360102DE0
:1008100000D0CDE6534B5449186801F0ADFC0A23D3
:1008200058430690069B002B00D1C1E6069B013B76
:100830000693F7E70904E8E720231E9A13431E9363
:10084000D2E50868401B022800D8D4E612221E9B7D
:1008500093431A00CBE703220793AB681340012BA5
:1008600007D12A681A4200D0E5E6EB681B0400D5E0
:10087000E1E6AA683D4B1A4201D01E9AAEE7012379
:10088000AA6839491343AB60364B186801F074FC11
:100890000790079B002B12D10120354A16682B6860
:1008A000034000D0C7E61168891B0229F7D910213F
:1008B0001E9A11431E911F9A02431F9295E5079BB2
:1008C000013B0793E5E7EA680C21D20700D4C6E6AE
:1008D00020221E990A431E9287E51068801B0A2871
:1008E00000D8BEE61E990422F4E720231E9A134383
:1008F0001E9301231F9A13431F93D5E6012800D0AE
:1009000008E771E50C3A934079E5009B9808194B8C
:100910005843194BD969DB69090E1B0CDBB209027C
:10092000C918164B89B2994200D1154901F024FC2F
:1009300021B0F0BD1821E3688B430F990B43E360AE
:10094000236902919B000E999B080B43029123613E
:10095000A9E520231E9A13431E9301235AE6C0469D
:1009600008270140A800002040420F001700008027
:10097000BC050020C05D000000200240FFFF000019
:100980002F0C000070B505000C00081E07D001F008
:10099000E1FB2B6802005B6821002800984770BDCE
:1009A00030B5040087B0002000F048FE1D49050066
:1009B000092000F003FE802310229B0001934300D6
:1009C0001340093A024013430322029303094004EF
:1009D000400E1340059001A928000492039301F0F2
:1009E00037F9114D11492800FFF7CCFF002C15DA1B
:1009F0002D21280000F0ECF90A226142280000F0C5
:100A000067FA0B492800FFF7BDFF280000F09DF9A9
:100A10000221082000F0A2FA07B030BD0A2221000E
:100A2000ECE7C0467035000870040020A0350008CF
:100A3000A5350008F0B58DB0A14E300000F0ACF93E
:100A4000002809D0300000F09AF9C0B2232803D062
:100A5000300000F083F9EFE706AC182200212000F7
:100A600002F0C8FA974B069304236360964BE36049
:100A700001232361059301F099FA0190002800DA1F
:100A8000A1E006A8036882689C4601999B5C994294
:100A90003ED14368013282609A4247D1001B8B4F9E
:100AA00080104743002F00D08DE001F07FFA00282E
:100AB00003DB202801D0C3B20093009B502B55D0FC
:100AC000303BDBB2172B03D8814ADA40D3074DD431
:100AD000002400982538312875D801F043FB7A743A
:100AE000747474747474747474CDCDCDCDCDCDCD57
:100AF0007474747474747474747476E98083D776BF
:100B0000A376707474E5747480AB74C1BC7D747822
:100B1000002A0BD002926146029B019D013BC95CF9
:100B20008D421CD1002B06D1059B83600C300CAB91
:100B30009842A7D19FE70021D51A654403956546E1
:100B40006D5C2F00039D6D5C0495049DAF4202D146
:100B500001318B42F3D88B4203D1029BE5E7002B96
:100B6000E3D00293D7E7300000F0F8F801F036FA4E
:100B70000028ADDB2D2803D00300303B092BF2D831
:100B800000242500012809D02D2816D00300303B71
:100B9000092B03D80A235C432418303C300000F0B2
:100BA000DDF801F01BFA0300303B092BEAD90128DC
:100BB000F4D0002D8DD064428BE70125EEE7454B44
:100BC0001868FFF7EDFE0DB0F0BD0220F9E7424BCB
:100BD000F6E7FFF7B5FBF4E7404B1878F1E70120A3
:100BE0004042EEE70A253E4B1A683E4B1A60290048
:100BF000200001F031FCFF230B40042B00DD042119
:100C00000F26B80086408140374A2000136801371C
:100C1000B34319431160290001F038FB0400062F8B
:100C2000E5D1D0E72E4B20001A682E4B1A60FFF753
:100C3000F5FAC8E7E117091BC90F062001F062FAAF
:100C40002A4B1A78012ABED101321A70244B1A6835
:100C5000274B1A60B7E7FFF763FB0422234BF4E747
:100C60000021072001F04EFA0A2001F015FA0121B7
:100C7000072001F047FAA6E7184B1B78022BA2D1F8
:100C8000009B1C4A303B9B009C509CE7144B19680E
:100C900000239C4204DB184A2300944200D913002D
:100CA000164A5B1813608EE70D4B1A68134BD0E79A
:100CB000134CA078FFF774FE0023A37083E7C046AF
:100CC00070040020A0350008A6350008ABAAAAAA27
:100CD0007F00B000FC3F0008940100209801002034
:100CE000BC050020D4010020340100203001002088
:100CF000C80100209C01002010270000DC0100201A
:100D00002C010020F7B506000D000C008B18019394
:100D1000019B671B9C4207D0336821781B68300019
:100D2000984701340028F3D13800FEBD02003F216E
:100D30009A321388983001330B401380138800884F
:100D4000C01A4342584140427047037C002B04D0F4
:100D5000FE30C28D038E9A42FCD170470200FE32F3
:100D6000D18C138D994207D0FC30416AC85C3F2179
:100D700001330B401385704701204042FBE703001D
:100D8000FE33DA8C1B8D9A4203D0FC30426AD05C71
:100D9000704701204042FBE7FE30C38C008D40339A
:100DA000181A3F231840704710B50448FFF7F4FFA6
:100DB000002801D0FFF73EFE10BDC04670040020A1
:100DC000002303817047014B18687047BC05002061
:100DD000F8B5020001233F250374FE320400D08DD4
:100DE000C3182B40158EAB42FCD025002600FC35E5
:100DF000ED6A09362954FF36D3853378164D9B00AA
:100E00005A59200011006A326931097812789430F9
:100E10000A43212A1DD01149114A27009950114A2D
:100E20001F3798500020FF370021385600F0C0FFD0
:100E30000020385600F0ECFF230029342F33FF3315
:100E4000FF341B882168C91833789B00585901F07A
:100E5000F5F80120F8BDC046F40100202D0D000872
:100E6000380200201802002070B5041E27D00300AD
:100E700074331B78124A9B009858030002006933B0
:100E80006A321B7811780B43222B18D0210013787B
:100E900075310D78202B01D101F038F822003F2167
:100EA0009032138801330B402100923109888B4224
:100EB00005D08C34118820689BB24554138070BDD6
:100EC000F401002010B5080001F0F0F810BDFEE7B5
:100ED000F0B58BB06B4615000022053306000F00FD
:100EE000DA77012D00DC0A2509AC2900380001F071
:100EF00043F901006943791AC9B20B003733013C49
:100F0000DBB2092901D83031CBB22370071EECD1F6
:100F100021003000FFF736FD0BB0F0BDF7B507003C
:100F20000D000024C31D061D019331780A222800FC
:100F3000FFF7CEFF2B6800901B682E2128009847F2
:100F4000009B0136C018019B2418B342EDD1F979FA
:100F500028000A22FFF7BCFF2018FEBDF8B50F00DD
:100F600011282DD81B4B1C56631C29D01A4E20006B
:100F7000310000F044FD250900280AD00F232A0083
:100F80001A409200B618012223409A4033689343D6
:100F90003360032F09D8380001F0E4F80218131663
:100FA00000221100200000F013FD0F231D401C4003
:100FB0000E3BA340094AAD00AD182A6813432B60CD
:100FC000F8BD01220021EDE70222FBE7002201210A
:100FD000E8E7C04648350008E0010020C0050020D1
:100FE0000120704716220120014B40421A607047D1
:100FF0007C060020FEE7F0B5704B85B01B680C0046
:1010000009206F490292039300F0E5FA002800D10D
:10101000B4E06C4E00223500143591004959D3B22A
:10102000002902D0096888422AD00132082AF4D166
:10103000654D2B0074331B78072B1FD9634B5FE082
:1010400090425CD11B785BB22A00893213702B006E
:1010500009218833197096232A009B01AB6700236E
:101060000832D36728002A1DEB67D36700F02CFBFA
:101070002B0074331B78072B00D97FE074352B7855
:101080009B00F6187369190069310A78202A6DD11E
:10109000002C6BD06A461289002A67D080209E6897
:1010A0004001864204D11869002801D1E0075DD4CF
:1010B000180068300578012D58D0012505700020F2
:1010C000D866213008703D490968019119005031F6
:1010D0000A804A802100180052300288002A15D167
:1010E00040251A68354ED16929404ED01A0020217A
:1010F000693211700022683302981A703FE00C3395
:101100005A68002A9CD101235B429DE70288013A7C
:1011100092B2028029481A6884468025D069284006
:101120000CD08020400186422BD11869002828D19C
:1011300008880231C005C00D1085CCE76546019FC7
:101140002D68ED1BFA27BF00BD42E6D91168204D7E
:10115000294011609168A335FF35A94391601A00B9
:101160002021693211705170013A1070134A0399AD
:101170001268521A17498A4200D884E7002005B045
:10118000F0BD087801311085A5E7019F3068C01BCC
:10119000FA27BF00B842A6D910680D4D284010604C
:1011A0009068A335FF35A84390601A00202069326B
:1011B00010705070013A1170D8E7C046BC0500208D
:1011C00070350008E00100200C0000208835000880
:1011D0005FFEFFFFE703000000207047002070471C
:1011E0000120704780239B0100204B607047012045
:1011F00040427047094B0200596B002901D1084950
:1012000059636946586B82188A4205D90C2201201D
:10121000044B40421A6070475A63FCE7E00100202B
:10122000800600207C060020036882B0DA69D207BD
:1012300003D59B8C9BB2019308E0DA699207F8D43E
:10124000DA695207F5D4DA691207F2D4019B02B0C9
:101250007047F8B58021C0237B4A09055B00D15057
:101260000F217A4D6C692368DA691868114008D13A
:101270002026324205D0304203D0200000F0C9FBC6
:10128000F8BD9E6800297CD001210E4003D1902733
:101290007F00384275D00A4205D0C50503D51962D2
:1012A000E56E2943E16602210A4206D0002E04D0F1
:1012B0001962E56E49182943E16604210A4206D005
:1012C000002E04D01962E56E02392943E166110748
:1012D00008D5810601D4002E04D008211962E36EDE
:1012E0001943E166E36E002BCAD020231A4204D0D2
:1012F000184202D0200000F08CFBE26E2368120737
:1013000003D440229D68154036D01A6850492020E9
:101310000A401A60012299689143996021006A315C
:10132000087099680018014222D099688143606E64
:10133000996000281CD0474B841C4363E37F022B39
:1013400004D00423836300F09BF899E70E2503681B
:101350001968A94319601968056C91431960110057
:10136000A940C36B5960E2770022431CDA77EAE7B1
:101370002000FFF759FF83E72000FFF755FFE566E0
:101380007EE780210A422DD008422BD0220069320C
:101390001278212A00D073E7200052300288002AF8
:1013A00007D11A688A431A60402219680A431A60F2
:1013B00066E78021A5684901E26C8D420DD1216963
:1013C00000290AD111880232C905C90D1985E264C4
:1013D0000388013B9BB2038052E7511CE164127801
:1013E0001A85F5E740210A4200D149E7084200D1B9
:1013F00046E71A688A431A602300202269331A706C
:101400002A0000231432990089588C4203D00133FA
:10141000082BF8D134E7DBB29B00EB189C6B9B6D7B
:1014200020009847431C00D12AE7230022009A336A
:1014300094321B8811687434C91823789B00ED1806
:10144000686900F0FBFD1BE700E100E0E00100201F
:10145000DFFEFFFF8114000810B507480400183CA8
:10146000E3681438002B02D0032201009847034B95
:1014700020009C42F2D110BD70040020F002002038
:10148000406A0023020010B55A321380083A1380D4
:10149000FFF7CAFE10BD044B10B5186C002801D030
:1014A00000F004FB10BDC04658020020034B10B5ED
:1014B000D86B002801D000F0F9FA10BD58020020C6
:1014C000034B10B5586B002801D000F0EFFA10BDA7
:1014D00058020020034B10B59868002801D000F096
:1014E000E5FA10BD58020020034B10B5186800281B
:1014F00001D000F0DBFA10BD58020020836C10B55B
:10150000021F002B05D0017F012902D1002110000C
:10151000984710BD0023421C0DD00B4A0D3390425A
:1015200009D00AD8094A0333904204D0084A033349
:10153000904200D0002318007047064A15239042BD
:10154000F9D0054A0133F3E7002C014000040040C4
:101550000020004000440140004801400121114B9F
:1015600011481A680A431A605A6802405A601A6899
:101570000E4802401A601A680D4802401A605A6804
:101580000C4802400F205A60DA6A8243DA621A6B12
:10159000094802401A635A6B8A435A6300229A60D0
:1015A0007047C046001002400CB8FF08FFFFF6FE6F
:1015B000FFFFFBFFFFFFC0FFECFEFFFF0200431C2D
:1015C00006D000200856431C02D0824201D1886810
:1015D00070470C31F5E70023421C06D11800704714
:1015E000984201D14B68F9E70C310023CB565A1CC5
:1015F000F6D10023F2E770B50C241025A8B2013C07
:1016000000F008FB6D00002CF8D170BD10B504206F
:1016100000F000FB082000F0FDFA10BD10B501201D
:1016200000F0F8FA022000F0F5FA10BD024A136843
:10163000013313607047C046BC0500207FB500230E
:10164000042810D81B4B80215A6900F08BFD030F32
:1016500018212A0089020A435A615B690B400193F1
:10166000019B9023DB05180007B000BDC9020A43A7
:101670005A615B690B400293029B0F4BF3E709032E
:101680000A435A615B690B400393039B0B4BEAE7E8
:1016900049030A435A615B690B400493049B084B5E
:1016A000E1E7C9030A435A615B690B400593059B57
:1016B000044BD8E70010024000040048000800482E
:1016C000000C004800140048F0B5040089B0002860
:1016D00000D14AE188208925A7492056FFF77BFFE2
:1016E00065570600A5492800FFF775FF002800D1BF
:1016F0003BE1002E00D138E13300864200D00023C8
:101700002360002B00D130E19D4A9E4E934215D1BB
:101710008022F368D2011343F360F3689A490B40C7
:10172000F360B3691343B361B36913400293029B3F
:101730002300002274331A701B329A750F27280970
:101740003840FFF77BFF8925009065578B492800BB
:10175000FFF734FF01233D40AB40102203934300C9
:101760001340093A024013430493032303220693D0
:101770000309134005937F23000A184003A907902B
:101780002500009800F064FA0020883528560009EA
:101790003840FFF753FF00902D7877496DB228004D
:1017A000FFF70CFF01233D40AB40102203934300A1
:1017B0001340093A02401343049303230322069380
:1017C0000309134005937F23000A1840079003A9DB
:1017D000009800F03DFA230074331B786B49221DFA
:1017E0009B005A50D06F0432D76F0C22A2610022A6
:1017F000E26122622200E36F2568A16F6D326560AD
:10180000A1600193E3602061676100921278D2B217
:10181000002A04D16C239C46A44463461A702422F7
:10182000009B1A7001232A689A43019B2A603B435C
:101830000C272A683B43564F3A4013432B606B6892
:10184000544A1340184368600320AB68524A13405F
:10185000626A1343AB60336B504A0340D05C082884
:1018600000D982E000F07EFC058110811381818126
:10187000830073685B055B0FD318494A1B791068B6
:10188000D8404B08C01808E04808464BFAE700F07B
:101890008FF9A368A1685B08181800F06DFC80B28E
:1018A000E860A26A6368002A49D0D10705D5596863
:1018B0003D480140E06A01435960910705D55968E8
:1018C0003A480140206B01435960510705D55968DA
:1018D00037480140606B01435960110705D55968CD
:1018E00034480140A06B01435960D10605D5996881
:1018F00031480140E06B01439960910605D5996834
:101900002E480140206C0143996051060FD559685B
:101910002B4D606C29400143596080214903884266
:1019200005D1596827480140A06C0143596012064F
:1019300005D55A6824490A40E16C0A435A605A683E
:1019400022490A4008215A609A688A439A60012213
:1019500019680A431A6000232022009923670A703D
:1019600021006C346E310A70237009B0F0BD802301
:1019700048081B0286E7C046703500088835000815
:101980000038014000100240FFBFFFFFF4010020BB
:10199000F369FFFFFFCFFFFFFFF4FFFFD034000824
:1019A000A800002000127A00FFFFFDFFFFFFFEFFEE
:1019B000FFFFFBFFFF7FFFFFFFEFFFFFFFDFFFFFEB
:1019C000FFFFEFFFFFFF9FFFFFFFF7FFFFF7FFFFA7
:1019D000F0B50F270400000987B038400E0015004D
:1019E000FFF72CFE01233C40A3400193032301A9F0
:1019F00004930296039500F02BF907B0F0BD0F2277
:101A0000030913409B00024058580123D04018405E
:101A10007047010070B56A310A780368222A33D111
:101A2000020080245C3215889A8C64012A40856803
:101A3000436DA5420FD10469002C0CD11A800233EA
:101A4000436502005A321388013B9BB21380002B7E
:101A500005D000201DE05C1C44651A70F1E70268A7
:101A60000F4D14682C40146094682335FF35AC4347
:101A7000946020220A700B499A008C58A04209D029
:101A80000133082BF8D1E4E70822022099690A43C0
:101A90009A6170BD044B9B189A6F986D9047D8E778
:101AA000DFFEFFFFF401002058020020022203683D
:101AB00010B51969040011420DD0D96811420AD03D
:101AC000053A1A61043202779B699B0701D1FFF73F
:101AD00015FD00232377042223681969114210D0D1
:101AE000D96811420DD0093A1A61073222779A69F2
:101AF000C0239B001A4202D12000FFF7FFFC002305
:101B0000237708222368196911420ED0D96811423F
:101B10000BD0113A1A610D322277DB699B0702D193
:101B20002000FFF7EBFC00232377102223681969BC
:101B3000114210D0D96811420DD0213A1A611932E0
:101B40002277DA69C0239B001A4202D12000FFF7F6
:101B5000D5FC00232377012223681969114209D09B
:101B6000D968114206D0033A201F1A61836C002BFA
:101B700000D09847802223681969114205D0D9689E
:101B8000114202D0023AFF3A1A6140221969114209
:101B900004D0D968114201D0813A1A612022196912
:101BA000114204D0D968114201D0413A1A6110BDE6
:101BB00070B5144C88B004AD10222100280001F04B
:101BC00035FA210010221031684601F02FFA0C225C
:101BD0000D4E73681A40082A11D10F20990C01404C
:101BE0006C5C6946F26A0240895CDB0305D50748F4
:101BF00000F0C2FA604308B070BD0548FAE7034838
:101C0000F9E7C046DC3400080010024000127A00F8
:101C100000093D000C4B10B55A69104212D05861B2
:101C20000023012803D001334008DBB2F9E7182272
:101C30005343064A181D80188168002902D0D21823
:101C40001369984710BDC04600040140F00200200F
:101C5000F0B50B6887B0029300230191029ADA4035
:101C600001D107B0F0BD01229A4003920399029A74
:101C70000A40009200D18CE0019A102152681600AF
:101C80008E43022E0ED107251D40AD000139A9401B
:101C9000DC08A4000419276A8F4301990969A94047
:101CA0000F43276203245F00BC40E4430568013E04
:101CB0002540AC4603251540BD4061460D430560F7
:101CC000012E0FD801998668CD682640BD40354366
:101CD00085604668039915098E4301210D409D409A
:101CE00035434560C56801992C408D688021BD4011
:101CF00049052C43C4600A424BD00121264C0326DF
:101D0000A5691E400D43A561A4699D080C4005947A
:101D1000059C0F242149AD00B6006D18B4409021F8
:101D2000AF68C905A743002488420CD01C49013480
:101D3000884208D01B490134884204D01A49033430
:101D4000884200D1023CB44000993C430E00AC6094
:101D5000164CCD4327683E43D10301D43E002E40AC
:101D600026606768009E3E43910301D43E002E40EA
:101D70006660A768009E3E43D10201D43E002E401B
:101D8000A660E668009F3743920201D42E403700D8
:101D9000E760013362E7C0460010024000000140E6
:101DA0000004004800080048000C004800040140FE
:101DB00070B58901002812DB8308134A03249B00B5
:101DC0009B18FF222040A0401400C02584401140F1
:101DD0008140AD005E59A6433143595170BD032483
:101DE0000F23C0B203402040A040FC342500214016
:101DF00085408140083B054A9B089B009B18DA6997
:101E0000AA431143D961E9E700E100E000ED00E0F9
:101E1000002805DB1F2318401E3B8340014A136046
:101E20007047C04600E100E00422036830B59968BD
:101E3000114201D1002030BD9968114206D09A6844
:101E4000920703D4102299680A439A60042409492E
:101E50000D689A682242EDD00A68521B022AF8D90E
:101E60001023426C134343640123826C1A4382643F
:101E70001800E0E7BC0500200321036830B59A682C
:101E80000A40012A01D0002030BD1968114202D158
:101E9000DA681204F7D505219A680A40012A14D19C
:101EA00002219C682143996003210D4C196025682B
:101EB00099681142E7D02168491B0229F8D91023FB
:101EC000416C0B434364836C05E01023426C134365
:101ED00043640123826C1A4382640120D4E7C04624
:101EE000BC05002010B501F097F810BD10B501F049
:101EF00093F810BD10B501F08FF810BD10B501F0CA
:101F000081F810BD10B501F07DF810BD802230B50C
:101F1000846803005201944205D10269002A02D16B
:101F20000120014228D11A00683215780220012DC3
:101F300022D0013810705965190058310880488046
:101F4000802149018C421AD11969002915D10F4805
:101F500019005C3108801900002022246A31D866FB
:101F60000C70107001221B6899680A439A609022D5
:101F7000196852000A431A6030BDFF20E8E7002CC0
:101F8000E9D119690029F8D07F20E1E7FF010000BD
:101F90000100054810B5826C5468002C02D03C301A
:101FA000C27AA04710BDC0467005002070B5094D2B
:101FB000094CEB6CE3602000FEF7D0FE002807DA46
:101FC000E268EB6C9B1AA2689342F4D30120404272
:101FD00070BDC046700500207004002070B5094D2A
:101FE000094CEB6CE3602000FEF7C9FE002807DA1D
:101FF000E268EB6C9B1AA2689342F4D30120404242
:1020000070BDC0467005002070040020FA21094B05
:1020100010B51868890000F0AFF800F0C3FEC022C8
:10202000054912060B6A00201B021B0A13430B62B0
:1020300010BDC046A800002000ED00E030B505004E
:1020400069352B7802000220202B24D10138002989
:1020500021D0802390685B01984205D11369002B41
:1020600002D10120014216D11400683423780220E5
:10207000012B10D0D1641100012350310B804B8013
:1020800000232121D36629702370116880220868FB
:10209000024318000A6030BD034AD16CD36C5B1A4E
:1020A0008342FBD37047C0467005002070B51128ED
:1020B0001FD8124D2B004C331C56631C19D01049ED
:1020C00020005031FFF79BFC002398420FD00F21D6
:1020D00022090A40042A0ED801200C40A040920098
:1020E000AA18136E1B690340581E8341DBB2180007
:1020F00070BD0023FBE71B69FFDEC046FC3400080F
:102100007005002070B50D0011281BD80F4E33004C
:102110004C331C56631C15D00D4920005031FFF77D
:102120006EFC00280ED00F22230913400021042B3F
:1021300002D89B00F318196E01231440A340002D10
:1021400001D08B6170BD8B62FCE7C046FC34000897
:10215000700500200023C25C0133002AFBD1581E09
:102160007047000002B4714649084900095C490003
:102170008E4402BC7047C046002243088B4274D391
:1021800003098B425FD3030A8B4244D3030B8B4278
:1021900028D3030C8B420DD3FF22090212BA030C81
:1021A0008B4202D31212090265D0030B8B4219D362
:1021B00000E0090AC30B8B4201D3CB03C01A524182
:1021C000830B8B4201D38B03C01A5241430B8B42CA
:1021D00001D34B03C01A5241030B8B4201D30B03B3
:1021E000C01A5241C30A8B4201D3CB02C01A5241DA
:1021F000830A8B4201D38B02C01A5241430A8B429D
:1022000001D34B02C01A5241030A8B4201D30B0285
:10221000C01A5241CDD2C3098B4201D3CB01C01A9F
:10222000524183098B4201D38B01C01A52414309A9
:102230008B4201D34B01C01A524103098B4201D397
:102240000B01C01A5241C3088B4201D3CB00C01A04
:10225000524183088B4201D38B00C01A524143087C
:102260008B4201D34B00C01A5241411A00D20146A1
:10227000524110467047FFE701B5002000F0F0F82A
:1022800002BDC0460029F7D076E7704703460B43EE
:102290007FD4002243088B4274D303098B425FD35F
:1022A000030A8B4244D3030B8B4228D3030C8B428B
:1022B0000DD3FF22090212BA030C8B4202D3121271
:1022C000090265D0030B8B4219D300E0090AC30B46
:1022D0008B4201D3CB03C01A5241830B8B4201D3F3
:1022E0008B03C01A5241430B8B4201D34B03C01ADC
:1022F0005241030B8B4201D30B03C01A5241C30A54
:102300008B4201D3CB02C01A5241830A8B4201D3C4
:102310008B02C01A5241430A8B4201D34B02C01AAE
:102320005241030A8B4201D30B02C01A5241CDD253
:10233000C3098B4201D3CB01C01A524183098B429E
:1023400001D38B01C01A524143098B4201D34B0187
:10235000C01A524103098B4201D30B01C01A5241EA
:10236000C3088B4201D3CB00C01A524183088B4271
:1023700001D38B00C01A524143088B4201D34B005A
:10238000C01A5241411A00D20146524110467047CC
:102390005DE0CA0F00D04942031000D340425340D1
:1023A00000229C4603098B422DD3030A8B4212D391
:1023B000FC22890112BA030A8B420CD389019211C3
:1023C0008B4208D3890192118B4204D389013AD000
:1023D000921100E08909C3098B4201D3CB01C01AD5
:1023E000524183098B4201D38B01C01A52414309E8
:1023F0008B4201D34B01C01A524103098B4201D3D6
:102400000B01C01A5241C3088B4201D3CB00C01A42
:10241000524183088B4201D38B00C01A5241D9D25A
:1024200043088B4201D34B00C01A5241411A00D2DB
:102430000146634652415B10104601D34042002BD7
:1024400000D54942704763465B1000D3404201B556
:10245000002000F005F802BD0029F8D016E770470B
:102460007047C046F0B5012187B00C20FEF776FD1D
:1024700001210720FEF772FD01210620FEF76EFD07
:1024800000210D20FEF76AFD00210720FFF73AFE2C
:1024900002210A20FEF762FD02210B20FEF75EFDFD
:1024A000B24CE122230025000026FC335202B04842
:1024B000FF351A61DE619E615E61FFF705F96B7A97
:1024C000AC4F9B00DA5911006A32693109781278F1
:1024D0000A43222A19D01F20A749A84A9950A84A7E
:1024E000A349995028563100FFF762FC1F20285657
:1024F000FFF78EFC6B7A9B00D85903006A331B7878
:10250000202B02D19F49FFF701FD02252000A56085
:10251000FEF71BFC08202900FEF720FD9A4C9B4B80
:10252000E068436008230289FF3313430381036893
:10253000DB689847002801D0FFF7AEFD0026FA219E
:10254000934F944B944D3B65944B3E7018687E605E
:10255000BD608900FFF710FE0123BB613B0080B224
:102560008008FD6038617E61FE613E6249331B7800
:10257000DBB2B3421DD13A00802048321370884A42
:10258000800291690143916193693A000340059388
:10259000059B844B0C322800DA63FEF7BBFF0F214A
:1025A00040B2FFF705FCF868FEF7B4FF40B2FFF752
:1025B0002FFC3B00022249331A707B49FB681A68E2
:1025C0008B4202D07948834208D1702082437869D7
:1025D00002438B420AD07548834207D07448834235
:1025E00004D0AB4202D07348834203D17248024008
:1025F000F869024380208243786A02431A60BA690C
:10260000DA623A699A628B4204D0AB4202D0694ADC
:10261000934201D13A6A1A633900012249315A6161
:102620000A70D9681143D96019680A431A600C22EC
:10263000624B1A60FDF7BCFE78660A20FFF736FD94
:102640000023984206D00B20FFF730FD0300581EF0
:10265000834101333A0068321370002B18D0012BEC
:1026600043D000233A0019006C32995004331C2BDC
:10267000FBD101210C20FFF745FD00252800013585
:10268000662D53D0FDF7CAFD0420FFF705FDF5E7E1
:1026900002237A6E4A494B485D1F012D20D90D0057
:1026A0005D43AA421CD905005D43AA4218D8DBB29B
:1026B00038000022444D6C305159594311500432B6
:1026C0001C2AF9D1002BD4D10125322420007D60B1
:1026D000FFF7E2FCFDF70CFE2000FFF7DDFCF5E75D
:1026E0000133082BD8D10023E2E702237A6E374961
:1026F00037485D1F012D14D90D005D43AA4210D942
:1027000005005D43AA420CD8DBB23D0000222E48F2
:102710006C351C3011585943515104321C2AF9D1DF
:10272000D0E70133082BE4D10023EEE7FDF7E0FD0D
:102730000321284B284A2848D16093609C225200EC
:102740000261254D25486861254D1D60254D1D60A0
:10275000254D59609A602968DA68002A46D11A69BD
:10276000824200D109E1186144E0C04670040020B3
:1027700004050020F4010020690E0008D0020020AA
:10278000B002002079050020AC0500207502000889
:10279000300100203501000800440140A80000205D
:1027A0000010024058020020002C014000040040AC
:1027B0000020004000480140FFFCFFFF080000200F
:1027C000AC0D00009A10000088340008680B00006F
:1027D000420E000000300040B0010020FF0F00005A
:1027E000CCCC000055550000BC0500202A68521AC8
:1027F000272AB1D901210720FFF784FC01232A6889
:10280000BC493B708A610193BA4BBB4A9B68E06844
:102810001A60036802259B69984786B2E0682178B0
:102820000368DB699847C3B20293A37A2B4200D1B5
:10283000A6E06388E068F31A9BB2039303681B6801
:102840009847039B834200DAA2E0A37AAB43A372CA
:10285000E37A022B00D1D4E0E06803899B0719D00A
:1028600003689B689847A37A7F2B05D9A388F31A3E
:102870009BB2834200DB89E1E06803689B6898476C
:102880000821A27A0A4205D0A388F31A9BB2834298
:1028900000DB83E10425E06803892B420BD0A37A97
:1028A000019A02991A40914205D02B4203D020226E
:1028B000134200D175E1E06803891B0717D5A27A9E
:1028C000019B02991340994211D053070FD5402123
:1028D00003680A4200D198E025895B69751BADB297
:1028E0009847854203DB0520FFF752FB2681E37AF8
:1028F000029A93424CD06B461B7AA27AE3720299F9
:10290000019B1340994206D0042300201343E68024
:10291000A372FFF73DFBA37A019A02991A409142F4
:1029200036D1E0680289920700D04DE1A27A930681
:1029300004D5E3681989019B490615D4530604D5CB
:10294000E3681989019B09060ED4130704D5E368CF
:102950001989019BC90607D40023D10604D5E36871
:1029600001991B895B090B4074218A43A272002BD9
:102970000ED10198FFF70CFB0AE05F4A1A6039E7B5
:10298000E27A02998A4200D162E71D43A57266800D
:10299000584E019AF369594D134202D12B68F261E6
:1029A00033622B68326A9B1A052B10D92B687A6E1A
:1029B000336261235A430292FDF7FAFC03000320BD
:1029C0005843029B6421C018FFF7D6FB78663B781A
:1029D000022B5CD0032B00D1ABE0012B00D019E11E
:1029E000B2692B689B1AFA22D200934200D811E1F7
:1029F00001990620FFF786FB02233B702B68B36129
:102A000008E16B461B7AE372C2E7E5881B69751B18
:102A1000ADB29847854200DA69E74022A37A1343B2
:102A2000A37260E7E06803899B0705D5A37A1A07BC
:102A300012D410229343A372A37A0822D90600D598
:102A4000CFE01A43A272E268A6801289D2051AD595
:102A5000782252421343C5E00368A5889B689847D3
:102A6000751BADB2A37A8542E3DA5AB2002A02DAC4
:102A70007F221340A3721023A27A03201343A37270
:102A8000FFF786FAD8E70220FFF782FA4EE7726A6C
:102A90002B689B1AFA22D200934200D8B4E0B26AA3
:102AA0002B6802929A4205D02B689B1A144A9342D3
:102AB00000D899E0FDF744FC092800D894E0029B77
:102AC0002A68D21A0F4B9A4200D89DE0019B002839
:102AD0000EDB062364215843FFF7D8FB031CC0B26A
:102AE000052800D90523DBB2019A9B009A40130008
:102AF0007B6089E0B0010020AAAA0000BC0500208C
:102B0000B70B0000B80B000009280FDCFA21286879
:102B10008900FFF7B7FB414B994273D82868C82159
:102B2000FFF7B0FB63296DD80423E1E7FDF776FBDF
:102B30006AE03B4B28689B693A49C01A0293FFF749
:102B4000A1FB08006421FFF717FBC1B2052804D8D8
:102B50000B1C052907D9052305E00A22521A131C6C
:102B6000D2B2052AF7D80422DBB29B009A407A60E1
:102B70002B68F26A9A4205D3029B2A68D21A2A4B22
:102B80009A4247D9FDF7CCFB042336E70220FFF732
:102B9000FFF97F22A37A1340A3726DE68A43A272E3
:102BA00078E6E388F31A9BB203930368DB689847DF
:102BB000039B834200DA7EE62022A37A2800134397
:102BC000A372FFF7E5F976E65A0709D5E5880368A9
:102BD000751B5B68ADB29847854200DA22E7A37A9D
:102BE00008229343A372A1E6FDF7AAFB00288BDA23
:102BF000FA2128688900FFF745FBF423FF3364209E
:102C0000994293D9FDF774FBFDF79AFB0323002843
:102C100000D1F2E6FEF7C8F8F6E5C046570200001C
:102C2000B00100204C04000010270000102370B5F4
:102C3000514D524C2A6813432B60FFF7E7F90C21E2
:102C400062682B000A4206D062680A40082A3CD11A
:102C50006268D20339D42268F82122688A431100BD
:102C600078220A430C21226062680A40082A3AD07E
:102C700080202268424980040A402260414A156847
:102C80002168014230D10F20E16A8143E16261682D
:102C90003D480840A02189030143616080212068EC
:102CA00049040143802021601568800421680142A5
:102CB0001FD001201968014220D0F02061688143B3
:102CC00061602168890121D4FEE701220220216888
:102CD0000A432C4922600D6822680242BCD10A686E
:102CE000521B022AF8D9FEE71168491B0229C7D9ED
:102CF000F9E71168491B0229D8D9F4E7196881431B
:102D00000143196019680142DED0D6E703206168EB
:102D10001E4E81430800022101430C2061601568AA
:102D200061680140082922D11B68194A6368134071
:102D30006360FEF73DFF6368164A1B061B0FD35CFA
:102D4000154CD8402060FFF761F9FA21206889000E
:102D5000FFF712FA00F026F80423104A11680B431B
:102D600013600F4A136A1B021B0A136270BD1168BD
:102D7000491BB142D4D9A7E700200240001002400D
:102D8000FFFFFFFEBC050020FFFFC2FF881300000D
:102D9000FFF8FFFFC0340008A800002010E000E0AA
:102DA00000ED00E0094A431E012093420DD8C021E6
:102DB000074A08485360036A09061B021B0A0B43B3
:102DC000036200200723906013607047FFFFFF003D
:102DD00010E000E000ED00E04E4B0521180070B55A
:102DE0003030197019760131017018000024083054
:102DF000C4671800484A1D008C300260180048352E
:102E0000297090300131017018009C300460180066
:102E1000A43002601800A83001701800B4300460BB
:102E20001800BC3002601800C03001701800CC30AF
:102E300004601800D43002601800D83001701D0002
:102E400018006035E430297004601D0018007835E2
:102E5000EC30297002601D001800FF35F030DC6096
:102E60005A615C62DA62DC635A645C65DA65DC666E
:102E70005A6701706972902518006D005955183510
:102E8000595518355955183559557631FC30FF319B
:102E90000460826084610262046382638464026508
:102EA0000466826684675A5020001C4A1C4900F060
:102EB00068F8FA221B4B92009A601B4A0A20110004
:102EC000083119601900FF318877013848771800F8
:102ED0001900FC3011315C60416219005133C3624A
:102EE000124B28321A631A003032FE319A641A00EB
:102EF000CC840C85CC850C860D213C3211700B39AD
:102F0000DC875C631C875B1854709472D172DC8719
:102F100070BDC046F002002000001110000000202B
:102F20005914000870040020FC34000870050020CB
:102F30000D4885460D480E490E4A002302E0D4583C
:102F4000C4500433C4188C42F9D30B4A0B4C0023F1
:102F500001E013600432A242FBD3FEF7FFFA00F057
:102F600025F8FFF77FFAFEE70010002000000020A0
:102F700010010020283600081001002080060020E3
:102F8000FEE70B0010B50100180000F001F810BDBD
:102F900070B5054C05001300201E04D00A00022065
:102FA000290000E000BF70BD0000000070B50026E1
:102FB0000C4D0D4C641BA410A64209D1002600F054
:102FC0002FFA0A4D0A4C641BA410A64205D170BD0D
:102FD000B300EB5898470136EEE7B300EB5898473B
:102FE0000136F2E7083600080836000808360008FF
:102FF0002436000803008218934200D170471970EC
:103000000133F9E710B5034B0100186800F062F8CE
:1030100010BDC046AC00002010B5034B010018687D
:1030200000F00EF810BDC046AC000020002310B523
:103030009A4200D110BDCC5CC4540133F8E70000C3
:1030400070B50500002910D00C1F2368002B00DA92
:10305000E418280000F0AEF81D4A1368002B05D1D3
:1030600063601460280000F0A6F870BDA34209D97F
:10307000216860188342F3D118685B6841182160A9
:10308000EEE713005A68002A01D0A242F9D9196864
:103090005818A0420BD120680918581819608242AC
:1030A000E0D110685268411819605A60DAE7A0420E
:1030B00002D90C232B60D5E721686018824203D126
:1030C000106852684118216062605C60CAE7C046BF
:1030D000D4050020032370B5CD1C9D4308350600A0
:1030E0000C2D1ED20C25A9421DD8300000F062F82C
:1030F000254A14682100002919D1244C2368002B8B
:1031000003D1300000F044F820602900300000F0C6
:103110003FF8431C2CD10C233000336000F04BF8F7
:1031200003E0002DDFDA0C233360002070BD0B6854
:103130005B1B1AD40B2B03D90B60CC18256003E062
:103140008C420ED163681360300000F034F8200028
:1031500007220B30231D9043C31AE7D05A42E25096
:10316000E4E74B6863600C00EEE70C004968C2E7D7
:103170000323C41C9C43A042E0D0211A300000F07D
:1031800007F8431CDAD1C6E7D4050020D805002093
:10319000002370B5064C050008002360FEF72AF8EE
:1031A000431C03D12368002B00D02B6070BDC046A8
:1031B0007C060020704770470123214A116819429C
:1031C00000D113601F4A1168194200D11360012316
:1031D0001D4A1168194200D113601C4A1168194236
:1031E00000D1136001231A4A1168194200D11360FB
:1031F000184A1168194200D113600123164A116858
:10320000194200D11360154A1168194200D11360A8
:103210000123134A1168194200D11360114A116841
:10322000194200D1136001230F4A1168194200D1DD
:1032300013600E4A1168194200D113607047C046EE
:10324000080600200406002000060020FC050020DF
:10325000F8050020F4050020F0050020EC05002012
:10326000E8050020E4050020E0050020DC05002042
:103270000123214A1168194200D113601F4A1168C5
:10328000194200D1136001231D4A1168194200D16F
:1032900013601C4A1168194200D1136001231A4AB5
:1032A0001168194200D11360184A1168194200D1FF
:1032B00013600123164A1168194200D11360154AA0
:1032C0001168194200D113600123134A1168194291
:1032D00000D11360114A1168194200D11360012313
:1032E0000F4A1168194200D113600E4A1168194241
:1032F00000D113607047C046380600203406002015
:10330000300600202C06002028060020240600207D
:10331000200600201C0600201806002014060020AD
:10332000100600200C0600200123164A11681942DD
:1033300000D11360144A1168194200D113600123AF
:10334000124A1168194200D11360114A11681942DA
:1033500000D1136001230F4A1168194200D1136094
:103360000D4A1168194200D1136001230B4A1168FC
:10337000194200D113600A4A1168194200D1136042
:103380007047C04658060020540600205006002012
:103390004C0600204806002044060020400600207D
:1033A0003C0600200123164A1168194200D113601F
:1033B000144A1168194200D113600123124A11689E
:1033C000194200D11360114A1168194200D11360EB
:1033D00001230F4A1168194200D113600D4A116888
:1033E000194200D1136001230B4A1168194200D120
:1033F00013600A4A1168194200D113607047C04631
:103400007806002074060020700600206C0600205C
:103410006806002064060020600600205C0600208C
:10342000F8B5C046F8BC08BC9E467047F8B5C04623
:08343000F8BC08BC9E46704781
:10343800010003050402030200010000040000006B
:1034480000240140030002000500000000240140A0
:1034580003800200110000000024014003800400E2
:10346800FF0000000000000000000000010203044B
:1034780005060708090A0B0C0D0E0F1011000000B5
:10348800AC0D0000420E0000740E0000A60E0000F5
:10349800F10E00006E0F000068100000680B0000BD
:1034A800440C0000800C0000940C0000A80C0000E4
:1034B800BC0C0000100E000000000000000000001E
:1034C80001020304060708090004080200000000BE
:1034D8000102030402030405060708090A0B0C0D80
:1034E8000E0F10100102030405060708090A0B0C49
:1034F8000D0E0F100000000000000000D10D0008A4
:10350800050D0008990D00085D0D00087F0D0008E5
:103518004B0D000800000000000000003101000809
:10352800210100082B0100082501000825010008D9
:1035380021010008C70D0008C50E0008C10D0008CC
:103548000001020304050607090A0D0E4041110493
:103558000511000000000048000400480008004869
:10356800000C004800140048090000000038014021
:1035780012010000FF000000000000000000000031
:103588000A0000000038014012010000FF0000009E
:10359800000000000000000023232320000D0A0083
:1035A8000000000000000000000000000000000013
:1035B8000000000000000000000000000000000003
:1035C80000000000000000000000000000000000F3
:1035D80000000000000000000000000000000000E3
:1035E80000000000000000000000000000000000D3
:1035F80000000000000000000000000000000000C3
:103608002D2C0008E9000008D92D0008B931000860
:0C3618007132000829330008A5330008B7
:04362400C1000008D9
:1036280000000000FF0000000A0000000000000089
:103638000000000000000000000000000000000082
:103648000000000000000000000000000000000072
:103658000000000000000000000000000000000062
:103668000000000000000000000000000000000052
:103678000000000000000000000000000000000042
:103688000000000000000000000000000000000032
:103698000000000000000000000000000000000022
:1036A800080000000000000000000000000000000A
:1036B8000000000000000000000000000000000002
:1036C800000000000000000000127A00B000002096
:1036D80000000000C8350008E8350008A8350008D3
:1036E80000000000000000000000000000000000D2
:1036F80000000000000000000000000000000000C2
:1037080000000000000000000000000000000000B1
:1037180000000000000000000000000000000000A1
:103728000000000000000000000000000000000091
:043FFC0001000000C0
:0400000508002F318F
:00000001FF
