:020000040800F2
:10000000001000209D300008ED300008ED300008A1
:1000100000000000000000000000000000000000E0
:10002000000000000000000000000000ED300008AB
:100030000000000000000000ED300008990A0008F0
:10004000ED30000800000000ED300008ED30000841
:10005000ED3000085B0A00084B0A0008350A00086A
:1000600000000000ED300008ED300008ED30000821
:10007000ED3000083D040008ED30000800000000ED
:10008000290400080000000000000000110400081E
:1000900000000000F9030008E1030008ED3000084B
:1000A00000000000ED30000800000000DB01000847
:1000B0000000000000000000000000000000000040
:1000C00010B5064C2378002B07D1054B002B02D02E
:1000D000044800E000BF0123237010BDAC000020E5
:1000E00000000000EC330008084B10B5002B03D0D3
:1000F0000749084800E000BF07480368002B00D10B
:1001000010BD064B002BFBD09847F9E7000000001C
:10011000B0000020EC330008AC000020000000001C
:1001200010B507480400183CE3681438002B02D0CF
:10013000032201009847034B20009C42F2D110BDDE
:100140001404002094020020012070471622012090
:10015000014B40421A60704718060020FEE700205D
:100160007047002070470120704780239B010020CA
:100170004B6070470120404270470A4B02001968EB
:10018000002901D1084919606946186882188A4215
:1001900005D90C220120054B40421A6070471A60B5
:1001A000FCE7C04680010020200600201806002041
:1001B000036882B0DA69D20703D59B8C9BB20193A6
:1001C00008E0DA699207F8D4DA695207F5D4DA69F7
:1001D0001207F2D4019B02B07047F8B58021C0230A
:1001E0007B4A09055B00D1500F217A4D6C6823686A
:1001F000DA691868114008D12026324205D0304211
:1002000003D0200001F09EFCF8BD9E6800297CD040
:1002100001210E4003D190277F00384275D00A4259
:1002200005D0C50503D51962E56E2943E1660221B3
:100230000A4206D0002E04D01962E56E49182943FF
:10024000E16604210A4206D0002E04D01962E56E50
:1002500002392943E166110708D5810601D4002E31
:1002600004D008211962E36E1943E166E36E002BA6
:10027000CAD020231A4204D0184202D0200001F034
:1002800061FCE26E2368120703D440229D6815408A
:1002900036D01A68504920200A401A600122996815
:1002A0009143996021006A310870996800180142F1
:1002B00022D099688143606E996000281CD0474B1A
:1002C000841C4363E37F022B04D00423836301F087
:1002D000C1FB99E70E2503681968A94319601968DD
:1002E000056C914319601100A940C36B5960E27716
:1002F0000022431CDA77EAE72000FFF759FF83E783
:100300002000FFF755FFE5667EE780210A422DD0E9
:1003100008422BD0220069321278212A00D073E7DC
:10032000200052300288002A07D11A688A431A60D6
:10033000402219680A431A6066E78021A5684901CE
:10034000E26C8D420DD1216900290AD11188023257
:10035000C905C90D1985E2640388013B9BB203807E
:1003600052E7511CE16412781A85F5E740210A42F0
:1003700000D149E7084200D146E71A688A431A606B
:100380002300202269331A7000232A1D99008958FE
:100390008C4203D00133082BF8D135E7DBB29B0048
:1003A000EB185C6A5B6C20009847431C00D12BE77C
:1003B000230022009A3394321B8811687434C918C0
:1003C00023789B00ED18686801F0BEFE1CE7C0466C
:1003D00000E100E080010020DFFEFFFF551A000869
:1003E000044B10B5A4331868002801D001F0F8FBC5
:1003F00010BDC04680010020044B10B5A033186822
:10040000002801D001F0ECFB10BDC04680010020A7
:10041000044B10B598331868002801D001F0E0FBB8
:1004200010BDC04680010020034B10B5D86E0028D7
:1004300001D001F0D5FB10BD80010020034B10B5A9
:10044000586E002801D001F0CBFB10BD80010020C8
:10045000836C10B5021F002B05D0017F012902D14A
:1004600000211000984710BD0023421C0DD00B4AFC
:100470000D33904209D00AD8094A0333904204D080
:10048000084A0333904200D0002318007047064A00
:1004900015239042F9D0054A0133F3E7002C0140BF
:1004A000000400400020004000440140004801409A
:1004B0000121114B11481A680A431A605A68024018
:1004C0005A601A680E4802401A601A680D480240C5
:1004D0001A605A680C4802400F205A60DA6A824358
:1004E000DA621A6B094802401A635A6B8A435A63EC
:1004F00000229A607047C046001002400CB8FF0806
:10050000FFFFF6FEFFFFFBFFFFFFC0FFECFEFFFF5C
:100510000200431C06D000200856431C02D0824231
:1005200001D1886870470C31F5E70023421C06D1E1
:1005300018007047984201D14B68F9E70C3100234D
:10054000CB565A1CF6D10023F2E7F0B5040089B06F
:10055000002800D14BE188208925A8492056FFF7C3
:10056000E4FF65570600A6492800FFF7DEFF0028D4
:1005700000D13CE1002E00D139E13300864200D0A9
:1005800000232360002B00D131E19E4A9E4E93420E
:1005900015D18022F368D2011343F360F3689B49BD
:1005A0000B40F360B3691343B361B3691340029323
:1005B000029B2300002274331A701B329A750F2796
:1005C0002809384001F06EFA8925009065578C495A
:1005D0002800FFF79DFF01233D40AB40102203930D
:1005E00043001340093A02401343049303230322B8
:1005F00006930309134005937F23000A184003A9BB
:1006000007902500009801F0BDFB00208835285692
:100610000009384001F046FA00902D7877496DB214
:100620002800FFF775FF01233D40AB4010220393E4
:1006300043001340093A0240134304930323032267
:1006400006930309134005937F23000A184007907F
:1006500003A9009801F096FB230074331A786C4BC1
:1006600092009B18221D5A60D06F0432D76F0C2263
:10067000A2610022E26122622200E36F2568A16F7D
:100680006D326560A1600193E36020616761009253
:100690001278D2B2002A04D16C239C46A44463464B
:1006A0001A702422009B1A7001232A689A43019B26
:1006B0002A603B430C272A683B43564F3A4013437A
:1006C0002B606B68544A1340184368600320AB6882
:1006D000524A1340626A1343AB60336B504A034083
:1006E000D05C082800D982E001F0C2FD05811081AC
:1006F00013818181830073685B055B0FD318494ABE
:100700001B791068D8404B08C01808E04808464BD1
:10071000FAE701F0E7FAA368A1685B08181801F08E
:10072000B1FD80B2E860A26A6368002A49D0D107AF
:1007300005D559683D480140E06A01435960910779
:1007400005D559683A480140206B0143596051076B
:1007500005D5596837480140606B0143596011075E
:1007600005D5596834480140A06B01435960D10652
:1007700005D5996831480140E06B014399609106C5
:1007800005D599682E480140206C014399605106B7
:100790000FD559682B4D606C294001435960802169
:1007A0004903884205D1596827480140A06C01439C
:1007B0005960120605D55A6824490A40E16C0A437B
:1007C0005A605A6822490A4008215A609A688A4346
:1007D0009A60012219680A431A60002320220099B6
:1007E00023670A7021006C346E310A70237009B0DF
:1007F000F0BD802348081B0286E7C0463C35000850
:10080000543500080038014000100240FFBFFFFFD0
:1008100080010020F369FFFFFFCFFFFFFFF4FFFF20
:100820003C340008A800002000127A00FFFFFDFF02
:10083000FFFFFEFFFFFFFBFFFF7FFFFFFFEFFFFF5D
:10084000FFDFFFFFFFFFEFFFFFFF9FFFFFFFF7FF50
:10085000FFF7FFFFF0B5704B85B01B680C00092057
:100860006E4902920393FFF760FE002800D1B3E0C7
:1008700000226B4E351D91004959D3B2002902D098
:10088000096888422AD00132082AF4D1654D2B002C
:1008900074331B78072B1FD9634B5FE090425CD108
:1008A0001B785BB22A00893213702B000921883330
:1008B000197096232A009B01AB6700230832D36787
:1008C00028002A1DEB67D367FFF73FFE2B00743328
:1008D0001B78072B00D97FE074352B789B00F61826
:1008E0007368190069310A78202A6DD1002C6BD009
:1008F0006A461289002A67D080209E68400186429D
:1009000004D11869002801D1E0075DD418006830CF
:100910000578012D58D0012505700020D8662130BA
:1009200008703D4909680191190050310A804A80D8
:100930002100180052300288002A15D140251A687B
:10094000354ED16929404ED01A00202169321170EC
:100950000022683302981A703FE00C335A68002A6C
:100960009CD101235B429DE70288013A92B202804A
:1009700029481A6884468025D06928400CD08020F8
:10098000400186422BD11869002828D108880231FD
:10099000C005C00D1085CCE76546019F2D68ED1B95
:1009A000FA27BF00BD42E6D91168204D29401160E9
:1009B0009168A335FF35A94391601A00202169325F
:1009C00011705170013A1070134A03991268521A4B
:1009D00017498A4200D884E7002005B0F0BD0878A6
:1009E00001311085A5E7019F3068C01BFA27BF00C1
:1009F000B842A6D910680D4D284010609068A33504
:100A0000FF35A84390601A002020693210705070A2
:100A1000013A1170D8E7C046600500203C35000857
:100A20008001002004000020543500085FFEFFFF15
:100A3000E703000070B50C241025A8B2013C01F0BA
:100A400083F96D00002CF8D170BD10B5042001F0C1
:100A50007BF9082001F078F910BD10B5012001F0F4
:100A600073F9022001F070F910BDF0B50F270400F2
:100A7000000987B038400E00150001F013F801237B
:100A80003C40A3400193032301A9049302960395DC
:100A900001F078F907B0F0BD024A13680133136022
:100AA0007047C04660050020F7B506000D000C0039
:100AB0008B180193019B671B9C4207D033682178F8
:100AC0001B683000984701340028F3D13800FEBD80
:100AD00002003F219A321388983001330B40138073
:100AE00013880088C01A4342584140427047037C33
:100AF000002B04D0FE30C28D038E9A42FCD1704789
:100B00000200FE32D18C138D994207D0FC30416A2D
:100B1000C85C3F2101330B401385704701204042E0
:100B2000FBE70300FE33DA8C1B8D9A4203D0FC30C6
:100B3000426AD05C704701204042FBE7FE30C38C24
:100B4000008D4033181A3F231840704710B50448F1
:100B5000FFF7F4FF002801D000F0B4FA10BDC04642
:100B600014040020002303817047014B186870476C
:100B700060050020F8B5020001233F250374FE3212
:100B80000400D08DC3182B40158EAB42FCD025003D
:100B90002600FC35ED6A09362954FF36D3853378B3
:100BA000164D9B005A59200011006A3269310978AC
:100BB000127894300A43212A1DD01149114A270086
:100BC0009950114A1F3798500020FF37002138569E
:100BD00001F088F90020385601F0B4F923002934D7
:100BE0002F33FF33FF341B882168C91833789B00EB
:100BF000585901F0A9FA0120F8BDC046840100202F
:100C0000D10A0008C4010020A401002070B5041E10
:100C100027D0030074331B78124A9B0098580300B6
:100C2000020069336A321B7811780B43222B18D0EB
:100C30002100137875310D78202B01D101F0ECF9EA
:100C400022003F219032138801330B402100923162
:100C500009888B4205D08C34118820689BB245549A
:100C6000138070BD8401002010B5080001F0A4FAC3
:100C700010BDFEE7F0B58BB06B46150000220533C2
:100C800006000F00DA77012D00DC0A2509AC2900E7
:100C9000380001F0F7FA01006943791AC9B20B0074
:100CA0003733013CDBB2092901D83031CBB2237094
:100CB000071EECD12100300000F0ACF90BB0F0BD04
:100CC000F7B507000D000024C31D061D0193317800
:100CD0000A222800FFF7CEFF2B6800901B682E2108
:100CE00028009847009B0136C018019B2418B34286
:100CF000EDD1F97928000A22FFF7BCFF2018FEBDCC
:100D0000C8207047FA2080007047C8204000704714
:100D100032207047F0B5364B364C1B682278677826
:100D20009200D3400F2285B01340FFB20293002FF0
:100D30002FD1002B2DD03900032000F079FB390092
:100D4000022000F075FB3900380000F071FB39001B
:100D5000012000F06DFB284D23780121EB5C063566
:100D60005E080393AB5DAD191800019300F060FBC2
:100D70006E780121300000F05BFB0123039D1D40D4
:100D800014D03900019801F043FA0121300001F03C
:100D90003FFA6378029A93420EDA63780133DBB24A
:100DA00063706378032B18DC05B0F0BD0121019856
:100DB00001F02EFA2900E9E70021032000F038FBBA
:100DC0000021022000F034FB0021080000F030FB7D
:100DD0000021012000F02CFBDFE700226270237865
:100DE0000133DBB223702378052BDDDD2270DBE7D6
:100DF000CC0000203C0200205834000870B50028C8
:100E000015DB642800DD64200624444364212000AF
:100E100001F0C2FA002304211D001E00834209DAFA
:100E20000E009A00964001333543DBB2F5E700240B
:100E3000260025002000642101F094FB0800192100
:100E400001F0AAFAB600B040014B2843186070BD0B
:100E5000CC00002070B5032914D0042914D0022935
:100E60000CD1144B144A1968144C106809191268F3
:100E7000814204D91A600122114B9A7070BD2D3243
:100E8000FF32F7E70222F7E70B4D0E4B2A689A4232
:100E9000F4D964242000FFF7B1FF042001F082F9A7
:100EA000013CF7D20322084B1A702A68074B1A60DC
:100EB000E4E7C0467801002060050020B80B000080
:100EC0003C02002088130000C800002068010020B8
:100ED00010B50021032000F0ABFA0021022000F041
:100EE000A7FA0021080000F0A3FA0021012000F079
:100EF0009FFA0022014B1A6010BDC046CC000020B2
:100F000010B5FFF7E5FF0021062001F081F900216F
:100F1000072001F07DF900210C2000F089FA10BDB6
:100F200070B51A4E3468002C2CD0B169002929D034
:100F3000174B00201A685209944222D8643091421B
:100F40001FD900231C00052B1CDC0133DBB29900E8
:100F50007158002901D1062BF7DDA0003558AA42AF
:100F6000F0D38A42EED2521B181B5043491B00019A
:100F700001F088F9050064200621604301F00CFAB5
:100F8000281870BD01204042FBE7C0463C0100200C
:100F90003401002070B505250024013D002D04D04A
:100FA000052000F087FA2418F7E70548A4086043F5
:100FB000044901F067F9030064205843400170BD03
:100FC0001009050030F87C0070B505250024013DAE
:100FD000002D04D00E2000F06DFA2418F7E7094B1D
:100FE0000948D969DB69090E1B0CDBB20902C91873
:100FF000064BA40889B26043994200D1044901F02C
:1010000041F970BD0020024000B80B00FFFF000056
:101010002F0C000070B505000C00081E07D001F071
:101020001FF92B6802005B6821002800984770BDFB
:1010300030B5040087B0002000F034FD1D490500E4
:101040000920FFF765FA802310229B0001934300DB
:101050001340093A02401343032202930309400458
:10106000400E1340059001A928000492039300F05C
:1010700089FE114D11492800FFF7CCFF002C15DA2D
:101080002D212800FFF776FD0A2261422800FFF794
:10109000F1FD0B492800FFF7BDFF2800FFF727FDF2
:1010A0000221082000F0C4F907B030BD0A22210057
:1010B000ECE7C0463C350008140400206C350008FD
:1010C00071350008F0B58DB0AD4E3000FFF736FD3C
:1010D000002809D03000FFF724FDC0B2232803D038
:1010E0003000FFF70DFDEFE706AC182200212000CD
:1010F00002F036F8A34B069304236360A24BE3602F
:1011000001232361059300F0D7FF0190002800DA46
:10111000BCE006A8036882689C4601999B5C9942E2
:1011200058D14368013282609A4261D1001B974FC7
:1011300080104743002F00D0A8E000F0BDFF00283A
:1011400003DB202801D0C3B20093009B502B6FD04B
:10115000303BDBB2172B03D88D4ADA40D30767D474
:10116000002400982538312800D98FE001F000FADA
:1011700098008E008E008E008E008E008E008E00F5
:101180008E008E008E0030013001300130013001C0
:10119000300130018E008E008E008E008E008E0099
:1011A0008E008E008E008E0090004D019E00C800C3
:1011B0003B019200E80090008A008E008E004901F9
:1011C0008E008E00A000F0008E00240102019B0022
:1011D0008E009400002A0BD002926146029B019D72
:1011E000013BC95C8D421CD1002B06D1059B83605D
:1011F0000C300CAB98428DD185E70021D51A65449F
:10120000039565466D5C2F00039D6D5C0495049D00
:10121000AF4202D101318B42F3D88B4203D1029B02
:10122000E5E7002BE3D00293D7E73000FFF768FC37
:1012300000F05AFF002893DB2D2803D00300303B39
:10124000092BF2D800242500012809D02D2817D019
:101250000300303B092B03D80A235C432418303C9D
:101260003000FFF74DFC00F03FFF0300303B092B3F
:10127000EAD90128F4D0002D00D172E7644270E76A
:101280000125EDE7434B1868FFF7D2FE0DB0F0BD26
:101290000220F9E70320F7E73F4B18684009F3E71E
:1012A000FFF73EFEF0E73D4B1878EDE73C4BF4E7E7
:1012B0000021042000F0BCF800F0D7FB040000F08F
:1012C000D4FB23000A338342F9D805250024013DCD
:1012D000002D04D0042000F0EDF82418F7E70121D8
:1012E000042000F0A5F82900042000F091FF03205D
:1012F0007421A4086043494201F04EF84E30C3E720
:101300000A25284B1A68284B1A602900200001F092
:1013100029F9FF230B40042B00DD04210F26B80020
:1013200086408140214A200013680137B3431943A6
:101330001160290001F030F80400062FE5D1A5E77F
:10134000184B20001A68184B1A60FFF757FD9DE7ED
:10135000E117091BC90F062000F05AFF144B1A7839
:10136000012A00D092E701321A700E4B1A68114B15
:101370001A608BE7FFF7C4FD04220D4BF4E7C0466B
:10138000140400206C35000872350008ABAAAAAA24
:101390007F00B000FC3F00082C0100203801002035
:1013A000300100206005002074010020CC000020E6
:1013B000C8000020680100200021072000F028FF5D
:1013C0000A2000F0EFFE0121072000F021FF5DE779
:1013D000114B1B78022B00D058E7009B0F4A303B83
:1013E0009B009C5052E70E4B196800239C4204DB83
:1013F0000C4A2300944200D913000B4A5B18136077
:1014000044E7074B1A68084BB2E7084CA078FFF78F
:101410000FFE0023A37039E7380100203C010020B3
:1014200060050020102700007C0100203C02002005
:10143000F8B50F0011282DD81B4B1C56631C29D062
:101440001A4E2000310000F073FB250900280AD055
:101450000F232A001A409200B618012223409A4016
:10146000336893433360032F09D8380000F000FF3E
:1014700002181316002211002000FFF7F6FA0F23BE
:101480001D401C400E3BA340094AAD00AD182A6820
:1014900013432B60F8BD01220021EDE70222FBE798
:1014A00000220121E8E7C046143500084002002070
:1014B00064050020F0B500249FB0112820D8022830
:1014C00000D80F30104B00241F567B1C18D04C2224
:1014D00021000BA801F044FE02AB0C493800DC806F
:1014E000FFF723F80B90A04214D10024084B5B684F
:1014F0000C2B05D00B2B00D987E20C22D31ADC4031
:1015000020001FB0F0BDC046143500086434000848
:10151000A00000208023DB050C930423C225109338
:101520001C94023B1993D94E1C9BFF3515953770BF
:10153000002B1ED11D93D64B984209D18020D54A4D
:101540008000916901439161936903400493049B76
:101550000F243809204000F0A5FA0123327806A9AB
:10156000224093400693032307930023089300F03F
:1015700009FC1C9BDB0600D5BAE104230B9CA26886
:101580001A4000D0B4E11C98C349023B0840034311
:1015900003201C93A36801910340012B00D037E284
:1015A0002168194203D1E3681B0400D430E2E368E8
:1015B000BA49139E0B40E360119B9903129BDB0316
:1015C0000B4371038C461899481E411E8841010344
:1015D0000E980343604603430F980090022800D101
:1015E00004221798009040001843149B08430243BC
:1015F000012B05D1002E00D066E180235B021A4347
:10160000159BAB4203D016990B4300911A43E36834
:10161000199E1343E36080235B059E4202D0731E34
:10162000062B07D8072361699943616161693340DB
:101630000B436361E3689A490B409A4200D04BE147
:10164000002503221D951C9B964993431A000123F4
:10165000380013431C93FEF75BFF0003C00E0138F4
:10166000102800D847E100231BAF05933B78012BDE
:1016700000D13AE701233B70A268520700D55EE132
:10168000AB40A26A1343A36280235B059E420ED047
:10169000013E062E0BD9072263691340022B06D0A8
:1016A00063699343636102236269134363612B009F
:1016B000103B012B00D825E1012303220B9D3B7039
:1016C000AB681340012B07D12A681A4200D0AEE163
:1016D000EB681B0400D5AAE11C9A019B03211A4068
:1016E000022313431C93EB68EA688A43EA60802272
:1016F000A96812060A436C49AA600868AA68002A09
:1017000000DA21E10322E96813400B43EB601C9BE4
:1017100093431A00012313431C93002300223A70C1
:10172000934200D0E1E6AA68520700D5DDE6012227
:101730003A70129A0092012A00D00FE11C9B5B4A7A
:1017400000241A4080235B0013431C931C231D9428
:101750003C702B60AA68183B10991343AB600829B2
:1017600000D033E1504A10682C680C4000D137E1BA
:1017700080231C9A9B0013431C93C023EA681B011F
:101780001A4214D1139B0093002B10D12B681B0716
:101790000DD5AB685B0700D52AE10C226B6893433B
:1017A0006B601C9B424A1A40012313431C93119BFC
:1017B0000093002B01D10C332B601C9B9B0503D5A0
:1017C0002B6C02AA9BB2D38001240BA83C7000F0C2
:1017D000C5FB002809D10BA800F0E8FB002804D1C4
:1017E0001C9B334A13401C431C9400233B709842BB
:1017F00000D07AE61C9A023313430BA81C9300F026
:10180000ADFB002800D0FCE00BA800F0CFFB0128C6
:1018100000D16AE601231C939F210B9B254C5A683B
:101820008A435A601960DA6823490A400721DA605E
:101830001A69920092081A615A698A435A611A6AAF
:101840001E490A401A629A6A1D49D20CD2049A6251
:101850000A6822400A600E4A93420CD180220D4B46
:101860009200D968174C0A43DA60D9682140D960E0
:101870009A6922409A6100231D931C93984200D0DC
:1018800033E602ABDC88A4B230E6C046A0000020FC
:101890000024014000100240FDFEFFFF1902FEFF80
:1018A000E7FF3F836434000860050020FEF0FFFF7F
:1018B000FEFEFFFFFFFF3FFF00023E8300F000F04F
:1018C00008270140FFFDFFFF20211C9801431C91C8
:1018D0001D990B431D9393E612221C9B93431A0000
:1018E000102313431C9301231D9A13431D93FCE5FE
:1018F0001C9A102325E0514B30331D5C112D00D96B
:10190000F3E5B0E64E4B80211A68102D15D0C903BF
:101910000A431A60102D00D0CEE64A4B4A49186897
:1019200000F0B0FC0A2358430590059B002B00D122
:10193000C2E6059B013B0593F7E70904E8E720238E
:101940001C9A13431C93D0E50A68121A022A00D885
:10195000D4E612221C9B93431A00CAE70322069383
:10196000AB681340012B07D12A681A4200D0E5E684
:10197000EB681B0400D5E1E6AA68344B1A4201D09B
:101980001C9AADE70123AA682F491343AB602D4B86
:10199000186800F077FC0690069B002B12D10121FD
:1019A0002B4B18682C680C4000D0C7E61A68121A36
:1019B000022AF7D910221C9B1A431C921D9B0B4331
:1019C0001D9393E5069B013B0693E5E7EB680C212D
:1019D000DB0700D4C6E620231C9A13431C9385E53D
:1019E00013681B1A0A2B00D8BEE61C9A0423F4E7DE
:1019F00020231C9A13431C9301231D9A13431D9308
:101A0000D5E6012800D007E76FE50C3B9C4077E561
:101A10001821E3688B430D990B43E3602369009120
:101A20009B000C999B080B4300912361BFE5202389
:101A30001C9A13431C93012370E6C04664340008CB
:101A400008270140A800002040420F001700008036
:101A500060050020406A0023020010B55A3213804E
:101A6000083A1380FEF7A4FB10BD0C4B70B51A6842
:101A70000B4A1468586899681D68401AED0303D52D
:101A8000146858689A68801AFA25AD006843596846
:101A900000F0F8FB6C43001970BDC04610E000E098
:101AA000600500207FB50023042810D81B4B80213F
:101AB0005A6900F0DDFB030F18212A0089020A434E
:101AC0005A615B690B400193019B9023DB05180071
:101AD00007B000BDC9020A435A615B690B4002931B
:101AE000029B0F4BF3E709030A435A615B690B4002
:101AF0000393039B0B4BEAE749030A435A615B6973
:101B00000B400493049B084BE1E7C9030A435A6165
:101B10005B690B400593059B044BD8E7001002401E
:101B20000004004800080048000C00480014004869
:101B30000F22030913409B00024058580123D04054
:101B400018407047010070B56A310A780368222A8C
:101B500033D1020080245C3215889A8C64012A40BB
:101B60008568436DA5420FD10469002C0CD11A8001
:101B70000233436502005A321388013B9BB2138043
:101B8000002B05D000201DE05C1C44651A70F1E7B5
:101B90000268104D14682C40146094682335FF359A
:101BA000AC43946020220A700B499A008C58A042E2
:101BB00009D00133082BF8D1E4E708220220996903
:101BC0000A439A6170BD054B9918096AD058884735
:101BD000D8E7C046DFFEFFFF84010020540200204A
:101BE0000222036810B51969040011420DD0D968AA
:101BF00011420AD0053A1A61043202779B699B07A9
:101C000001D1FEF725FC00232377042223681969FC
:101C1000114210D0D96811420DD0093A1A61073229
:101C200022779A69C0239B001A4202D12000FEF756
:101C30000FFC0023237708222368196911420ED074
:101C4000D96811420BD0113A1A610D322277DB6943
:101C50009B0702D12000FEF7FBFB00232377102215
:101C600023681969114210D0D96811420DD0213A68
:101C70001A6119322277DA69C0239B001A4202D115
:101C80002000FEF7E5FB0023237701222368196972
:101C9000114209D0D968114206D0033A201F1A61B7
:101CA000836C002B00D09847802223681969114269
:101CB00005D0D968114202D0023AFF3A1A61402297
:101CC0001969114204D0D968114201D0813A1A61D0
:101CD00020221969114204D0D968114201D0413A39
:101CE0001A6110BD70B5144C88B004AD10222100EB
:101CF000280001F03DFA210010221031684601F061
:101D000037FA0C220D4E73681A40082A11D10F20A1
:101D1000990C01406C5C6946F26A0240895CDB0305
:101D200005D5074800F0AEFA604308B070BD05481D
:101D3000FAE70348F9E7C046A5340008001002405E
:101D400000127A0000093D000C4B10B55A69104290
:101D500012D058610023012803D001334008DBB2C0
:101D6000F9E718225343064A181D80188168002994
:101D700002D0D2181369984710BDC0460004014034
:101D800094020020F0B50B6887B002930023019104
:101D9000029ADA4001D107B0F0BD01229A400392C5
:101DA0000399029A0A40009200D18CE0019A102116
:101DB000526816008E43022E0ED107251D40AD003D
:101DC0000139A940DC08A4000419276A8F4301994E
:101DD0000969A9400F43276203245F00BC40E44324
:101DE0000568013E2540AC4603251540BD406146CF
:101DF0000D430560012E0FD801998668CD682640F5
:101E0000BD40354385604668039915098E4301211D
:101E10000D409D4035434560C56801992C408D6853
:101E20008021BD4049052C43C4600A424BD00121AA
:101E3000264C0326A5691E400D43A561A4699D0893
:101E40000C400594059C0F242149AD00B6006D1887
:101E5000B4409021AF68C905A743002488420CD044
:101E60001C490134884208D01B490134884204D0FF
:101E70001A490334884200D1023CB44000993C43E3
:101E80000E00AC60164CCD4327683E43D10301D40D
:101E90003E002E4026606768009E3E43910301D4B9
:101EA0003E002E406660A768009E3E43D10201D4EA
:101EB0003E002E40A660E668009F3743920201D4A0
:101EC0002E403700E760013362E7C0460010024051
:101ED000000001400004004800080048000C0048D1
:101EE0000004014070B58901002812DB8308134A01
:101EF00003249B009B18FF222040A0401400C02513
:101F0000844011408140AD005E59A6433143595190
:101F100070BD03240F23C0B203402040A040FC3416
:101F20002500214085408140083B054A9B089B00D5
:101F30009B18DA69AA431143D961E9E700E100E09F
:101F400000ED00E0002805DB1F2318401E3B834006
:101F5000014A13607047C04600E100E004220368B4
:101F600030B59968114201D1002030BD9968114205
:101F700006D09A68920703D4102299680A439A609F
:101F8000042409490D689A682242EDD00A68521B60
:101F9000022AF8D91023426C134343640123826C54
:101FA0001A4382641800E0E76005002003210368FB
:101FB00030B59A680A40012A01D0002030BD196866
:101FC000114202D1DA681204F7D505219A680A4055
:101FD000012A14D102219C682143996003210D4CF0
:101FE0001960256899681142E7D02168491B0229C8
:101FF000F8D91023416C0B434364836C05E0102334
:10200000426C134343640123826C1A4382640120AF
:10201000D4E7C04660050020802230B58468030004
:102020005201944205D10269002A02D101200142E5
:1020300028D11A00683215780220012D22D00138EB
:102040001070596519005831088048808021490175
:102050008C421AD11969002915D10F4819005C3139
:1020600008801900002022246A31D8660C70107094
:1020700001221B6899680A439A60902219685200ED
:102080000A431A6030BDFF20E8E7002CE9D1196946
:102090000029F8D07F20E1E7FF010000010005489A
:1020A00010B5826C5468002C02D03C30C27AA04734
:1020B00010BDC0461405002070B5094D094CEB6CED
:1020C000E3602000FEF71CFD002807DAE268EB6CF5
:1020D0009B1AA2689342F4D30120404270BDC046CF
:1020E000140500201404002070B5094D094CEB6C58
:1020F000E3602000FEF715FD002807DAE268EB6CCC
:102100009B1AA2689342F4D30120404270BDC0469E
:102110001405002014040020FA21094B10B518689A
:10212000890000F0AFF800F0F3FEC0220549120666
:102130000B6A00201B021B0A13430B6210BDC04632
:10214000A800002000ED00E030B5050069352B78CF
:1021500002000220202B24D10138002921D0802325
:1021600090685B01984205D11369002B02D10120D0
:10217000014216D11400683423780220012B10D0BC
:10218000D1641100012350310B804B8000232121A9
:10219000D3662970237011688022086802431800F2
:1021A0000A6030BD034AD16CD36C5B1A8342FBD307
:1021B0007047C0461405002070B511281FD8124D75
:1021C0002B004C331C56631C19D010492000503191
:1021D000FFF7AEFC002398420FD00F2122090A40DE
:1021E000042A0ED801200C40A0409200AA18136EB9
:1021F0001B690340581E8341DBB2180070BD0023E9
:10220000FBE71B69FFDEC046C83400081405002048
:1022100070B50D0011281BD80F4E33004C331C56DF
:10222000631C15D00D4920005031FFF781FC0028B8
:102230000ED00F22230913400021042B02D89B004B
:10224000F318196E01231440A340002D01D08B61B7
:1022500070BD8B62FCE7C046C8340008140500203E
:102260000023C25C0133002AFBD1581E70470000D6
:1022700002B4714649084900095C49008E4402BC19
:102280007047C046002243088B4274D303098B4237
:102290005FD3030A8B4244D3030B8B4228D3030C36
:1022A0008B420DD3FF22090212BA030C8B4202D3D8
:1022B0001212090265D0030B8B4219D300E0090A00
:1022C000C30B8B4201D3CB03C01A5241830B8B4209
:1022D00001D38B03C01A5241430B8B4201D34B03F2
:1022E000C01A5241030B8B4201D30B03C01A524157
:1022F000C30A8B4201D3CB02C01A5241830A8B42DC
:1023000001D38B02C01A5241430A8B4201D34B02C4
:10231000C01A5241030A8B4201D30B02C01A524128
:10232000CDD2C3098B4201D3CB01C01A52418309DC
:102330008B4201D38B01C01A524143098B4201D316
:102340004B01C01A524103098B4201D30B01C01A41
:102350005241C3088B4201D3CB00C01A52418308BB
:102360008B4201D38B00C01A524143088B4201D3E8
:102370004B00C01A5241411A00D201465241104648
:102380007047FFE701B5002000F0F0F802BDC0463D
:102390000029F7D076E7704703460B437FD400222D
:1023A00043088B4274D303098B425FD3030A8B42E9
:1023B00044D3030B8B4228D3030C8B420DD3FF2253
:1023C000090212BA030C8B4202D31212090265D021
:1023D000030B8B4219D300E0090AC30B8B4201D3D4
:1023E000CB03C01A5241830B8B4201D38B03C01A1B
:1023F0005241430B8B4201D34B03C01A5241030B92
:102400008B4201D30B03C01A5241C30A8B4201D342
:10241000CB02C01A5241830A8B4201D38B02C01AED
:102420005241430A8B4201D34B02C01A5241030A64
:102430008B4201D30B02C01A5241CDD2C3098B4249
:1024400001D3CB01C01A524183098B4201D38B01C6
:10245000C01A524143098B4201D34B01C01A524169
:1024600003098B4201D30B01C01A5241C3088B42AE
:1024700001D3CB00C01A524183088B4201D38B0099
:10248000C01A524143088B4201D34B00C01A52413B
:10249000411A00D201465241104670475DE0CA0F12
:1024A00000D04942031000D34042534000229C46D2
:1024B00003098B422DD3030A8B4212D3FC228901DC
:1024C00012BA030A8B420CD3890192118B4208D3B2
:1024D000890192118B4204D389013AD0921100E014
:1024E0008909C3098B4201D3CB01C01A5241830928
:1024F0008B4201D38B01C01A524143098B4201D355
:102500004B01C01A524103098B4201D30B01C01A7F
:102510005241C3088B4201D3CB00C01A52418308F9
:102520008B4201D38B00C01A5241D9D243088B424F
:1025300001D34B00C01A5241411A00D201466346F2
:1025400052415B10104601D34042002B00D5494256
:10255000704763465B1000D3404201B5002000F095
:1025600005F802BD0029F8D016E770477047C0464D
:1025700003B47146490840004900095A49008E4495
:1025800003BC7047F0B5012187B00C20FEF750FF67
:1025900001210720FEF74CFF01210620FEF748FF2E
:1025A00000210D20FEF744FF01210420FEF740FF2B
:1025B00000210420FFF72CFE00210720FFF728FE52
:1025C00002210A20FEF734FF02210B20FEF730FF24
:1025D000B54CE122230025000026FC335202B3480B
:1025E000FF351A61DE619E615E61FDF7AEFF6B7AB9
:1025F000AF4F9B00DA5911006A32693109781278BD
:102600000A43222A19D01F20AA49AB4A9950AB4A43
:10261000A649995028563100FFF764FC1F20285620
:10262000FFF790FC6B7A9B00D85903006A331B7844
:10263000202B02D1A249FFF7EFFC02252000A56064
:10264000FEF755FA08202900FEF7F2FE9D4F9E4B3B
:10265000F868436008230289FF331343038103684A
:10266000DB689847002801D0FFF79CFD0026FA217F
:10267000964C974B974D2365974B2670186866606C
:10268000A5608900FFF7FEFD0123A361230080B24E
:102690008008E56020616661E661266249331B7847
:1026A000DBB2B3421DD122008020483213708B4A26
:1026B000800291690143916193692200034005936F
:1026C000059B874B0C322800DA63FDF7CDFE0F2106
:1026D00040B2FFF707FCE068FDF7C6FE40B2FFF727
:1026E00031FC2300022249331A707E49E3681A68DC
:1026F0008B4202D07C48834208D1702082436069BB
:1027000002438B420AD07848834207D077488342FD
:1027100004D0AB4202D07648834203D175480240D0
:10272000E069024380208243606A02431A60A26922
:10273000DA6222699A628B4204D0AB4202D06C4AC0
:10274000934201D1226A1A632100012249315A6160
:102750000A70D9681143D96019680A431A600C22BB
:10276000654B1A60FEF730FC6066FEF713FC636E83
:10277000A0660A20E366FFF71FFD0023984206D0FB
:102780000B20FFF719FD0300581E8341013322007F
:1027900070321370002B18D0012B44D0002322007C
:1027A00019007432995004331C2BFBD101210C20E9
:1027B000FFF72EFD002528000135662D55D0FEF7C8
:1027C0001DFB0420FFF7EEFCF5E7E36E4B495A09C9
:1027D00002234B485D1F012D20D90D005D43AA4205
:1027E0001CD905005D43AA4218D8DBB220000022A4
:1027F000444D743051595943115004321C2AF9D1B7
:10280000002BD3D10126322528006660FFF7CAFCD1
:10281000FEF75EFB2800FFF7C5FCF5E70133082B48
:10282000D8D10023E2E7E36E37495A09022337483B
:102830005D1F012D14D90D005D43AA4210D905007A
:102840005D43AA420CD8DBB2250000222D48743526
:102850001C3011585943515104321C2AF9D1CFE789
:102860000133082BE4D10023EEE7FEF731FB03210F
:10287000274B284A2748516113619C2252008261EC
:10288000244D2548E861254D1D60254D1D60254DD1
:1028900059609A602968DA68002A45D11A6982422B
:1028A00000D108E1186143E014040020A8040020CE
:1028B000840100200D0C0008740200205402002046
:1028C0001D05002050050020550E0008C8000020FE
:1028D000150D000800440140A8000020001002402F
:1028E000E4010020002C01400004004000200040D2
:1028F00000480140FFFCFFFFA4000020AC0D0000D9
:102900009A10000004340008680B0000420E00001A
:102910000030004048010020FF0F0000CCCC000038
:1029200055550000600500202A68521A272AB2D99E
:1029300001210720FFF76CFC01232A68C749237097
:102940000A620193C54BC64A1B69F8681A6003689E
:1029500002259B69984786B2F86839780368DB6975
:102960009847C3B20293BB7A2B4200D1A6E07B8882
:10297000F868F31A9BB2039303681B689847039B9C
:10298000834200DAA2E0BB7AAB43BB72FB7A022B34
:1029900000D1E9E0F86803899B0719D003689B68B8
:1029A0009847BB7A7F2B05D9BB88F31A9BB2834229
:1029B00000DBA1E1F86803689B6898470821BA7AB0
:1029C0000A4205D0BB88F31A9BB2834200DB9BE12D
:1029D0000425F86803892B420BD0BB7A019A02992F
:1029E0001A40914205D02B4203D02022134200D13D
:1029F0008DE1F86803891B0717D5BA7A019B029904
:102A00001340994211D053070FD5402103680A4261
:102A100000D1ADE03D895B69751BADB29847854239
:102A200003DB0520FFF73AFB3E81FB7A029A9342D3
:102A30004CD06B461B7ABA7AFB720299019B134009
:102A4000994206D0042300201343FE80BB72FFF797
:102A500025FBBB7A019A02991A40914236D1F86857
:102A60000289920700D065E1BA7A930604D5FB6823
:102A70001989019B490615D4530604D5FB681989A9
:102A8000019B09060ED4130704D5FB681989019B25
:102A9000C90607D40023D10604D5FB6801991B8918
:102AA0005B090B4074218A43BA72002B0ED1019846
:102AB000FFF7F4FA0AE06A4A1A6039E7FA7A0299EB
:102AC0008A4200D162E71D43BD727E80634E019948
:102AD000726A644B0A4202D11A687162B2621A6861
:102AE000B16A521A052A24D95F251B68B362636E46
:102AF0006B430293FEF768FA05235843029B642157
:102B0000C018FFF7BFFBA36E60665D43FEF742FA95
:102B10000523584364214019FFF7B4FBFA21E36E03
:102B2000A066514889005843636EC018FFF7AAFB9E
:102B3000E06623784B4D022B5CD0032B00D1AEE036
:102B4000012B00D01CE1326A2B689B1AFA22D200BA
:102B5000934200D814E101990620FFF759FB0223A4
:102B600023702B6833620BE16B461B7AFB72ADE777
:102B7000FD881B69751BADB29847854200DA54E7A2
:102B80004022BB7A1343BB724BE7F86803899B076B
:102B900005D5BB7A1A0712D410229343BB72BB7AB5
:102BA0000822D90600D5D2E01A43BA72FA68BE806C
:102BB0001289D2051AD5782252421343C8E003681D
:102BC000BD889B689847751BADB2BB7A8542E3DA36
:102BD0005AB2002A02DA7F221340BB721023BA7A5B
:102BE00003201343BB72FFF759FAD8E70220FFF71F
:102BF00055FA39E7F26A2B689B1AFA22D2009342FF
:102C000000D8B7E0326B2B6802929A4205D02B684D
:102C10009B1A164A934200D89CE0FEF781F90928D6
:102C200000D897E0029B2A68D21A114B9A4200D82A
:102C3000A0E0019B00280EDB062364215843FFF728
:102C4000ABFB031CC0B2052800D90523DBB2019AF7
:102C50009B009A40130063608CE0C046480100204E
:102C6000AAAA000060050020E7030000B70B0000DF
:102C7000B80B000009280FDCFA2128688900FFF74B
:102C800087FB414B994273D82868C821FFF780FB26
:102C900063296DD80423DEE7FEF7B0F86AE03B4B0A
:102CA00028681B6A3A49C01A0293FFF771FB0800B3
:102CB0006421FFF7E7FAC1B2052804D80B1C0529E7
:102CC00007D9052305E00A22521A131CD2B2052A9D
:102CD000F7D80422DBB29B009A4062602B68726BCB
:102CE0009A4205D3029B2A68D21A2A4B9A4247D9A4
:102CF000FEF706F9042333E70220FFF7CFF97F221E
:102D0000BB7A1340BB7255E68A43BA7260E6FB8811
:102D1000F31A9BB203930368DB689847039B8342D3
:102D200000DA66E62022BB7A28001343BB72FFF765
:102D3000B5F95EE65A0709D5FD880368751B5B681F
:102D4000ADB29847854200DA1FE7BB7A0822934369
:102D5000BB7289E6FEF7E4F800288BDAFA212868CE
:102D60008900FFF715FBF423FF336420994293D9C0
:102D7000FEF7AEF8FEF7D4F80323002800D1EFE603
:102D8000FDF7E4FEDEE5C0465702000048010020E2
:102D90004C04000010270000102370B5514D524C18
:102DA0002A6813432B60FFF7B7F90C2162682B00E8
:102DB0000A4206D062680A40082A3CD16268D203FF
:102DC00039D42268F82122688A43110078220A4304
:102DD0000C21226062680A40082A3AD080202268CA
:102DE000424980040A402260414A15682168014234
:102DF00030D10F20E16A8143E16261683D480840BB
:102E0000A0218903014361608021206849040143B6
:102E10008020216015688004216801421FD00120B4
:102E20001968014220D0F020616881436160216807
:102E3000890121D4FEE70122022021680A432C499E
:102E400022600D6822680242BCD10A68521B022A25
:102E5000F8D9FEE71168491B0229C7D9F9E71168BB
:102E6000491B0229D8D9F4E7196881430143196045
:102E700019680142DED0D6E7032061681E4E814307
:102E80000800022101430C2061601568616801405F
:102E9000082922D11B68194A636813406360FEF752
:102EA00021FF6368164A1B061B0FD35C154CD840E4
:102EB0002060FFF731F9FA2120688900FFF7E2F975
:102EC00000F026F80423104A11680B4313600F4AE0
:102ED000136A1B021B0A136270BD1168491BB142C1
:102EE000D4D9A7E70020024000100240FFFFFFFEF8
:102EF00060050020FFFFC2FF88130000FFF8FFFFFE
:102F000048340008A800002010E000E000ED00E0D8
:102F1000094A431E012093420DD8C021074A0848A0
:102F20005360036A09061B021B0A0B43036200205D
:102F30000723906013607047FFFFFF0010E000E080
:102F400000ED00E04E4B0521180070B530301970CF
:102F5000197601310170180000240830C467180088
:102F6000484A1D008C3002601800483529709030A6
:102F70000131017018009C3004601800A430026018
:102F80001800A83001701800B43004601800BC307C
:102F900002601800C03001701800CC3004601800C6
:102FA000D43002601800D83001701D001800603560
:102FB000E430297004601D0018007835EC30297069
:102FC00002601D001800FF35F030DC605A615C6261
:102FD000DA62DC635A645C65DA65DC665A67017044
:102FE0006972902518006D005955183559551835D6
:102FF0005955183559557631FC30FF3104608260DF
:10300000846102620463826384640265046682668A
:1030100084675A5020001C4A1C4900F068F8FA22C4
:103020001B4B92009A601B4A0A201100083119605C
:103030001900FF3188770138487718001900FC30F3
:1030400011315C60416219005133C362124B283266
:103050001A631A003032FE319A641A00CC840C854F
:10306000CC850C860D213C3211700B39DC875C63FA
:103070001C875B1854709472D172DC8770BDC04697
:10308000940200200000111000000020210100081F
:1030900014040020C8340008140500200D4885469B
:1030A0000D480E490E4A002302E0D458C4500433A0
:1030B000C4188C42F9D30B4A0B4C002301E0136077
:1030C0000432A242FBD3FDF7F3F900F025F8FFF735
:1030D00059FAFEE70010002000000020AC0000209C
:1030E00094350008AC0000201C060020FEE70B0011
:1030F00010B50100180000F001F810BD70B5054CC6
:1031000005001300201E04D00A000220290000E060
:1031100000BF70BD0000000070B500260C4D0D4CC6
:10312000641BA410A64209D1002600F05FF90A4DE5
:103130000A4C641BA410A64205D170BDB300EB5825
:1031400098470136EEE7B300EB5898470136F2E7AF
:10315000743500087435000874350008903500088F
:1031600003008218934200D1704719700133F9E7C8
:10317000002310B59A4200D110BDCC5CC454013379
:10318000F8E700000123214A1168194200D11360B9
:103190001F4A1168194200D1136001231D4A1168AA
:1031A000194200D113601C4A1168194200D1136002
:1031B00001231A4A1168194200D11360184A116894
:1031C000194200D113600123164A1168194200D137
:1031D0001360154A1168194200D113600123134A84
:1031E0001168194200D11360114A1168194200D1C7
:1031F000136001230F4A1168194200D113600E4A6F
:103200001168194200D113607047C046A405002020
:10321000A00500209C0500209805002094050020B2
:10322000900500208C0500208805002084050020E2
:10323000800500207C050020780500200123214A1C
:103240001168194200D113601F4A1168194200D158
:10325000136001231D4A1168194200D113601C4AF2
:103260001168194200D1136001231A4A11681942EA
:1032700000D11360184A1168194200D1136001236C
:10328000164A1168194200D11360154A1168194293
:1032900000D113600123134A1168194200D1136051
:1032A000114A1168194200D1136001230F4A1168B5
:1032B000194200D113600E4A1168194200D11360FF
:1032C0007047C046D4050020D0050020CC05002062
:1032D000C8050020C4050020C0050020BC05002052
:1032E000B8050020B4050020B0050020AC05002082
:1032F000A80500200123164A1168194200D1136065
:10330000144A1168194200D113600123124A11684E
:10331000194200D11360114A1168194200D113609B
:1033200001230F4A1168194200D113600D4A116838
:10333000194200D1136001230B4A1168194200D1D0
:1033400013600A4A1168194200D113607047C046E1
:10335000F4050020F0050020EC050020E805002021
:10336000E4050020E0050020DC050020D805002051
:103370000123164A1168194200D11360144A1168DA
:10338000194200D113600123124A1168194200D179
:103390001360114A1168194200D1136001230F4ACA
:1033A0001168194200D113600D4A1168194200D109
:1033B000136001230B4A1168194200D113600A4AB5
:1033C0001168194200D113607047C04614060020EE
:1033D000100600200C06002008060020040600202D
:1033E00000060020FC050020F8050020F8B5C046C6
:1033F000F8BC08BC9E467047F8B5C046F8BC08BC8F
:043400009E4670472D
:10340400AC0D0000420E0000740E0000A60E000079
:10341400F10E00006E0F000068100000680B000041
:10342400440C0000800C0000940C0000A80C000068
:10343400BC0C0000100E0000000408020000000094
:103444000102030400000000000000000102030464
:103454000607080901000305040203020001000035
:1034640004000000002401400300020005000000E5
:1034740000240140038002001100000000240140E8
:1034840003800400FF0000000000000000000000B2
:103494000102030405060708090A0B0C0D0E0F10A0
:1034A4001102030405060708090A0B0C0D0E0F1080
:1034B400100102030405060708090A0B0C0D0E0F80
:1034C400100000000000000000000000750B000860
:1034D400A90A00083D0B0008010B0008230B000893
:1034E400EF0A00080000000000000000110D0008B1
:1034F400010D00080B0D0008050D0008050D00085E
:10350400010D00086B0B0008690C0008650B00082E
:103514000001020304050607090A0D0E40411104C7
:10352400051100000000004800040048000800489D
:10353400000C004800140048090000000038014055
:1035440012010000FF000000000000000000000065
:103554000A0000000038014012010000FF000000D2
:10356400000000000000000023232320000D0A00B7
:10357400992D0008E9000008452F0008853100084E
:0C3584003D320008F532000871330008E9
:04359000C10000086E
:103594000000000000000000000000000000000027
:1035A4000000000000000000000000000000000017
:1035B4000000000000000000000000000000000007
:1035C40000000000000000000000000000000000F7
:1035D40000000000000000000000000000000000E7
:1035E40000000000000000000000000000000000D7
:1035F40000000000000000000000000000000000C7
:1036040000000000000000000800000000000000AE
:1036140000000000000000000000000000000000A6
:103624000000000000000000000000000000000096
:0C363400FF0000000A00000000127A00F5
:043FFC0001000000C0
:040000050800309D22
:00000001FF
