:020000040800F2
:1000000000100020F52F000845300008453000089A
:1000100000000000000000000000000000000000E0
:100020000000000000000000000000004530000853
:100030000000000000000000453000082D1E0008F0
:100040004530000800000000453000084530000839
:1000500045300008EF1D0008DF1D0008C91D00081D
:100060000000000045300008453000084530000819
:1000700045300008B51900084530000800000000B0
:10008000A119000800000000000000008D19000800
:1000900000000000791900086519000845300008C3
:1000A000000000004530000800000000371700087D
:1000B0000000000000000000000000000000000040
:1000C00010B5064C2378002B07D1054B002B02D02E
:1000D000044800E000BF0123237010BD1001002080
:1000E00000000000E4340008084B10B5002B03D0DA
:1000F0000749084800E000BF07480368002B00D10B
:1001000010BD064B002BFBD09847F9E7000000001C
:1001100014010020E4340008100100200000000059
:10012000406A0023020010B55A321380083A138047
:1001300001F0ECFA10BD7FB50023042810D81C4B49
:1001400080215A6902F054F8030F18212A0089020D
:100150000A435A615B690B400193019B9023DB05C5
:10016000180007B000BDC9020A435A615B690B4021
:100170000293029B0F4BF3E709030A435A615B6941
:100180000B400393039B0C4BEAE749030A435A6174
:100190005B690B400493049B084BE1E7C9030A43E6
:1001A0005A615B690B400593059B054BD8E7C04638
:1001B000001002400004004800080048000C0048FD
:1001C000001400480F22030913409B0002405858B6
:1001D0000123D04018407047010070B56A310A7899
:1001E0000368222A33D1020080245C3215889A8C5D
:1001F00064012A408568436DA5420FD10469002C33
:100200000CD11A800233436502005A321388013B35
:100210009BB21380002B05D000201DE05C1C4465C0
:100220001A70F1E70268104D14682C40146094684D
:100230002335FF35AC43946020220A700B499A00A5
:100240008C58A04209D00133082BF8D1E4E70822EA
:10025000022099690A439A6170BD054B9918096A91
:10026000D0588847D8E7C046DFFEFFFF380200209D
:10027000E00100200222036810B519690400114250
:100280000DD0D96811420AD0053A1A6104320277BA
:100290009B699B0701D101F097FB00232377042280
:1002A00023681969114210D0D96811420DD0093A5A
:1002B0001A61073222779A69C0239B001A4202D141
:1002C000200001F081FB00232377082223681969AD
:1002D00011420ED0D96811420BD0113A1A610D3279
:1002E0002277DB699B0702D1200001F06DFB002320
:1002F0002377102223681969114210D0D96811425E
:100300000DD0213A1A6119322277DA69C0239B0095
:100310001A4202D1200001F057FB0023237701226B
:1003200023681969114209D0D968114206D0033AED
:10033000201F1A61836C002B00D09847802223680D
:100340001969114205D0D968114202D0023AFF3A28
:100350001A6140221969114204D0D968114201D0B2
:10036000813A1A6120221969114204D0D9681142D8
:1003700001D0413A1A6110BD70B5144C88B004AD7B
:1003800010222100280002F0B3FE210010221031BB
:10039000684602F0ADFE0C220D4E73681A40082A22
:1003A00011D10F20990C01406C5C6946F26A024041
:1003B000895CDB0305D5074801F024FF604308B0E2
:1003C00070BD0548FAE70348F9E7C0463435000830
:1003D0000010024000127A0000093D000C4B10B5DD
:1003E0005A69104212D058610023012803D001330A
:1003F0004008DBB2F9E718225343064A181D80185B
:100400008168002902D0D2181369984710BDC046F0
:1004100000040140F4020020F0B50B6887B002939D
:1004200000230191029ADA4001D107B0F0BD012208
:100430009A4003920399029A0A40009200D18CE0FC
:10044000019A1021526816008E43022E0ED1072504
:100450001D40AD000139A940DC08A4000419276A39
:100460008F4301990969A9400F43276203245F0064
:10047000BC40E4430568013E2540AC4603251540D9
:10048000BD4061460D430560012E0FD80199866875
:10049000CD682640BD4035438560466803991509FF
:1004A0008E4301210D409D4035434560C56801994B
:1004B0002C408D688021BD4049052C43C4600A4210
:1004C0004BD00121264C0326A5691E400D43A56192
:1004D000A4699D080C400594059C0F242149AD009A
:1004E000B6006D18B4409021AF68C905A743002439
:1004F00088420CD01C490134884208D01B49013481
:10050000884204D01A490334884200D1023CB440E6
:1005100000993C430E00AC60164CCD4327683E4327
:10052000D10301D43E002E4026606768009E3E4302
:10053000910301D43E002E406660A768009E3E43B2
:10054000D10201D43E002E40A660E668009F3743EA
:10055000920201D42E403700E760013362E7C046C3
:10056000001002400000014000040048000800485C
:10057000000C004800040140F0B507000024A1B0C1
:100580004C2200210DA802F097FDDD4904AB20317B
:100590003800DC8001F085FA0D90A04200D1F4E132
:1005A0008023DB050E930423C2221293023B1B938C
:1005B000D44B1E941F701E9BFF3217920292A342CF
:1005C0001DD11F93D04B984209D18020CF4A800083
:1005D000916901439161936903400693069B0F243F
:1005E00038092040FFF7A7FD032301223C40A24029
:1005F0000993002308A908920A93FFF70DFF1E9B99
:10060000DB0600D5B8E104230D9CA2681A4000D097
:10061000B2E11E98BE49023B0840034303201E93EB
:10062000A36803910340012B00D034E221681942F2
:1006300003D1E3681B0400D42DE2E368B549159D9E
:100640000B40E360139B6E039903149BDB030B4386
:100650001A99481E411E88410103109803431E4306
:10066000119B0193022B00D10422199B5800019386
:100670003043169B08430243012B05D1002D00D0C7
:1006800066E180235B021A43179B02998B4203D0D9
:1006900018990B4301911A43E3681B9E1343E360CF
:1006A00080235B059E4202D0731E062B07D80723CA
:1006B000616999436161616933400B436361E36838
:1006C00095490B409A4200D04AE1002503221F952C
:1006D0001E9B8B4993431A0001232031134338009A
:1006E0001E9301F0D1F90003C00E0138102800D884
:1006F00045E100231DAF07933B78012B00D144E176
:1007000001233B70A268520700D55DE1AB40A26AAD
:100710001343A36280235B059E420ED0013E062E4A
:100720000BD9072263691340022B06D063699343F8
:10073000636102236269134363612B00103B012B49
:1007400000D824E1012303220D9C3B70A3681340D1
:10075000012B07D122681A4200D0ABE1E3681B04E9
:1007600000D5A7E11E9A039B03211A4002231343DD
:100770001E93E368E2688A43E2608022A168120661
:100780000A436649A2600868A268002A00DA20E1EC
:100790000322E16813400B43E3601E9B93431A005E
:1007A000012313431E93002300223A70934200D08A
:1007B000EBE0A268520700D5E7E001223A70149AF4
:1007C0000192012A00D00EE11E9B554A00201A40DA
:1007D00080235B0013431E931C231F9038702360FB
:1007E000A268183B12991343A360082900D033E193
:1007F0004A4A15682068084000D137E180231E9AD4
:100800009B0013431E93C023E2681B011A4214D1BC
:10081000159B0193002B10D123681B070DD5A368EE
:100820005B0700D52AE10C226368934363601E9B3B
:100830003C4A1A40012313431E93139B0193002B40
:1008400001D10C3323601E9B9B0503D5236C04AAA6
:100850009BB2D38001240DA83C7001F04FFC00280E
:1008600009D10DA801F072FC002804D11E9B2D4A6D
:1008700013401C431E9400233B70984200D084E038
:100880001E9A023313430DA81E9301F037FC002873
:1008900000D0FCE00DA801F059FC012875D001231F
:1008A0001E939F210D9B204C5A688A435A60196001
:1008B000DA681E490A400721DA601A699200920834
:1008C0001A615A698A435A611A6A19490A401A62B6
:1008D0009A6A1849D20CD2049A620A6822400A60C5
:1008E000094A93422BD18022084B9200D968124CBE
:1008F0000A43DA60D9682140D9609A6922401DE034
:100900003435000808000020002401400010024097
:10091000FDFEFFFF1902FEFFE7FF3F83C005002039
:10092000FEF0FFFFFEFEFFFFFFFF3FFF00023E83E2
:1009300000F000F008270140FFFDFFFF9A6100234F
:100940001F931E93984220D104ABD88880B27DE0DB
:1009500020211E9801431E911F990B431F9393E67C
:1009600012221E9B93431A00102313431E9301234C
:100970001F9A13431F9308E01E9A102326E0504B42
:1009800050331D5C112D00D8B3E600205EE04D4BC6
:1009900080211A68102D15D0C9030A431A60102D42
:1009A00000D0CFE6484B4949186801F02BFC0A23D8
:1009B00058430790079B002B00D1C3E6079B013BE0
:1009C0000793F7E70904E8E720231E9A13431E93D1
:1009D000DBE70A68121A022A00D8D5E612221E9B0B
:1009E00093431A00C9E703220893A3681340012B1D
:1009F00007D122681A4200D0E6E6E3681B0400D55E
:100A0000E2E6A268324B1A4201D01E9AACE70123FB
:100A1000A2682E491343A3602B4B186801F0F2FB28
:100A20000890089B002B13D101212A4B1D682068D8
:100A3000084000D0C8E61A68521B022AF7D91022D3
:100A40001E9B1A431E921F9B0B431F9321B0F0BDA8
:100A5000089B013B0893E4E7E3680C21DB0700D423
:100A6000C6E620231E9A13431E93EFE713685B1B11
:100A70000A2B00D8BEE61E9A0423F4E720231E9A10
:100A800013431E9301231F9A13431F93D5E6012896
:100A900000D17AE705E71821E3688B430F990B43F0
:100AA000E360236901919B000E999B080B43019120
:100AB0002361C2E520231E9A13431E93012373E68C
:100AC0003435000808270140A800002040420F00EC
:100AD00017000080C0050020C8207047FA20800061
:100AE0007047C8204000704732207047F0B5364B41
:100AF000364C1B68227867789200D3400F2285B06D
:100B00001340FFB20293002F2FD1002B2DD03900BC
:100B1000042000F095FC3900032000F091FC39001E
:100B2000022000F08DFC3900012000F089FC284DE6
:100B300023780121EB5C06355E080393AB5DAD19AC
:100B40001800019300F07CFC6E780121300000F069
:100B500077FC0123039D1D4014D03900019801F05A
:100B600069FA0121300001F065FA6378029A934234
:100B70000EDA63780133DBB263706378032B18DC21
:100B800005B0F0BD0121019801F054FA2900E9E710
:100B90000021042000F054FC0021032000F050FC50
:100BA0000021022000F04CFC0021012000F048FC54
:100BB000DFE70022627023780133DBB223702378F1
:100BC000052BDDDD2270DBE7300100202002002054
:100BD0009535000870B5002815DB642800DD642019
:100BE000062444436421200001F096FB00230421E5
:100BF0001D001E00834209DA0E009A009640013360
:100C00003543DBB2F5E700242600250020006421EF
:100C100001F068FC0800192101F07EFBB600B0402D
:100C2000014B2843186070BD3001002070B50329C6
:100C300014D0042914D002290CD1144B144A196879
:100C4000144C106809191268814204D91A600122F3
:100C5000114B9A7070BD2D32FF32F7E70222F7E791
:100C60000B4D0E4B2A689A42F4D964242000FFF7FA
:100C7000B1FF042001F0A8F9013CF7D20322084B90
:100C80001A702A68074B1A60E4E7C046D8010020B2
:100C9000C0050020B80B00002002002088130000CF
:100CA0002C010020C801002010B50021042000F014
:100CB000C7FB0021032000F0C3FB0021022000F04D
:100CC000BFFB0021012000F0BBFB0022014B1A609A
:100CD00010BDC0463001002010B5FFF7E5FF002130
:100CE000062001F0A7F90021072001F0A3F9002157
:100CF0000C2000F0A5FB10BD70B51A4E3468002C16
:100D00002CD0B169002929D0174B00201A6852094C
:100D1000944222D8643091421FD900231C00052B35
:100D20001CDC0133DBB299007158002901D1062B7C
:100D3000F7DDA0003558AA42F0D38A42EED2521B0A
:100D4000181B5043491B000101F05CFA05006420A8
:100D50000621604301F0E0FA281870BD01204042EE
:100D6000FBE7C0469C0100209001002070B50525DE
:100D700000240C26013D002D0FD00520FFF7FCFBC1
:100D80000B4B1B680C2B03D00B2B03D8F31AD8404A
:100D90002418EFE70C3B9840FAE70648A4086043A4
:100DA000054901F02FFA030064205843400170BD4B
:100DB00004000020100905002A5E1D0070B50525FD
:100DC00000240C26013D002D0FD01120FFF7D4FB8D
:100DD0000F4B1B680C2B03D00B2B03D8F31AD840F6
:100DE0002418EFE70C3B9840FAE70A4B0A48D96908
:100DF000DB69090E1B0CDBB20902C918074BA408FA
:100E000089B26043994200D1054901F0FBF970BDF8
:100E1000040000200020024000B80B00FFFF00008B
:100E20002F0C000070B505000C00081E07D001F063
:100E3000D7F92B6802005B6821002800984770BD35
:100E400030B5040087B00020FFF775F91D49050093
:100E5000092000F019FE802310229B00019343001B
:100E60001340093A0240134303220293030940044A
:100E7000400E1340059001A9280004920393FFF748
:100E8000CBFA114D11492800FFF7CCFF002C15DAE1
:100E90002D21280000F00EFA0A226142280000F0FD
:100EA00089FA0B492800FFF7BDFF280000F0BFF9C1
:100EB0000221082000F0C4FA07B030BD0A22210048
:100EC000ECE7C046303600087404002060360008A5
:100ED00065360008F0B58DB0AD4E300000F0CEF9AB
:100EE000002809D0300000F0BCF9C0B2232803D09C
:100EF000300000F0A5F9EFE706AC18220021200031
:100F000002F0DAF8A34B069304236360A24BE3607C
:100F100001232361059300F0E1FF0190002800DA2E
:100F2000BBE006A8036882689C4601999B5C9942D5
:100F300058D14368013282609A4261D1001B974FB9
:100F400080104743002F00D0A7E000F0C7FF002823
:100F500003DB202801D0C3B20093009B502B6FD03D
:100F6000303BDBB2172B03D88D4ADA40D30767D466
:100F7000002400982538312800D98EE001F0B8FA15
:100F800098008D008D008D008D008D008D008D00EE
:100F90008D008D008D00EC00EC00EC00EC00EC000E
:100FA000EC00EC008D008D008D008D008D008D001B
:100FB0008D008D008D008D0092002A019E00A20000
:100FC000F6009200C2008A008F008D008D0004019F
:100FD0008D008D00A000CA008D00E000DB009B00AA
:100FE0008D009400002A0BD002926146029B019D65
:100FF000013BC95C8D421CD1002B06D1059B83604F
:101000000C300CAB98428DD185E70021D51A654490
:10101000039565466D5C2F00039D6D5C0495049DF2
:10102000AF4202D101318B42F3D88B4203D1029BF4
:10103000E5E7002BE3D00293D7E7300000F000F99A
:1010400000F064FF002893DB2D2803D00300303B21
:10105000092BF2D800242500012809D02D2817D00B
:101060000300303B092B03D80A235C432418303C8F
:10107000300000F0E5F800F049FF0300303B092B99
:10108000EAD90128F4D0002D00D172E7644270E75C
:101090000125EDE70120FFF7D3FE0DB0F0BD414B78
:1010A0001868F8E70220F6E73F4B18684009F2E7B6
:1010B000FFF722FEEFE73D4B1878ECE73C4BF4E7F7
:1010C0001920E8E70A253B4B1A683B4B1A602900B8
:1010D000200001F007FAFF230B40042B00DD042160
:1010E0000F26B80086408140344A2000136801373B
:1010F000B34319431160290001F00EF90400062FD3
:10110000E5D1CAE72B4B20001A682B4B1A60FFF77A
:1011100061FDC2E7E117091BC90F062000F08AFF35
:10112000274B1A78012AB8D101321A70214B1A685C
:10113000244B1A60B1E7FFF7CFFD0422204BF4E700
:101140000021072000F076FF0A2000F03DFF01217A
:10115000072000F06FFFA0E7144B1B78022B9CD1F7
:10116000009B194A303B9B009C5096E7114B196835
:1011700000239C4204DB154A2300944200D913004B
:10118000134A5B18136088E70A4B1A68104BD0E7C4
:10119000740400206036000866360008ABAAAAAACC
:1011A0007F00B000FC3F0008900100209801002063
:1011B00094010020C0050020D4010020300100204F
:1011C0002C010020C80100209C01002010270000F5
:1011D000DC010020034CA078FFF732FE0023A3704F
:1011E0005BE7C04620020020F7B506000D000C00AA
:1011F0008B180193019B671B9C4207D033682178B1
:101200001B683000984701340028F3D13800FEBD38
:1012100002003F219A321388983001330B4013802B
:1012200013880088C01A4342584140427047037CEB
:10123000002B04D0FE30C28D038E9A42FCD1704741
:101240000200FE32D18C138D994207D0FC30416AE6
:10125000C85C3F2101330B40138570470120404299
:10126000FBE70300FE33DA8C1B8D9A4203D0FC307F
:10127000426AD05C704701204042FBE7FE30C38CDD
:10128000008D4033181A3F231840704710B50448AA
:10129000FFF7F4FF002801D0FFF71CFE10BDC04689
:1012A00074040020002303817047014B18687047C5
:1012B000C0050020F8B5020001233F250374FE326B
:1012C0000400D08DC3182B40158EAB42FCD02500F6
:1012D0002600FC35ED6A09362954FF36D38533786C
:1012E000164D9B005A59200011006A326931097865
:1012F000127894300A43212A1DD01149114A27003F
:101300009950114A1F3798500020FF370021385656
:1013100000F0B8FE0020385600F0E4FE2300293427
:101320002F33FF33FF341B882168C91833789B00A3
:10133000585900F01BFE0120F8BDC04638020020BD
:10134000111200087C0200205C02002070B5041E0F
:1013500027D0030074331B78124A9B00985803006F
:10136000020069336A321B7811780B43222B18D0A4
:101370002100137875310D78202B01D100F05EFD2E
:1013800022003F219032138801330B40210092311B
:1013900009888B4205D08C34118820689BB2455453
:1013A000138070BD3802002010B5080000F016FE52
:1013B00010BDFEE7F0B58BB06B461500002205337B
:1013C00006000F00DA77012D00DC0A2509AC2900A0
:1013D000380000F017FF01006943791AC9B20B0009
:1013E0003733013CDBB2092901D83031CBB223704D
:1013F000071EECD121003000FFF714FD0BB0F0BD4B
:10140000F7B507000D000024C31D061D01933178B8
:101410000A222800FFF7CEFF2B6800901B682E21C0
:1014200028009847009B0136C018019B2418B3423E
:10143000EDD1F97928000A22FFF7BCFF2018FEBD84
:10144000F8B50F0011282DD81B4B1C56631C29D052
:101450001A4E20003100FEF7B5FE250900280AD0FB
:101460000F232A001A409200B618012223409A4006
:10147000336893433360032F09D8380000F0B8FE77
:101480000218131600221100200000F0B8FC0F23F0
:101490001D401C400E3BA340094AAD00AD182A6810
:1014A00013432B60F8BD01220021EDE70222FBE788
:1014B00000220121E8E7C046083600082402002087
:1014C000C40500200120704716220120014B404234
:1014D0001A60704780060020FEE7F0B5704B85B0BB
:1014E0001B680C0009206F490292039300F0D9FA9F
:1014F000002800D1B4E06C4E002235001435910074
:101500004959D3B2002902D0096888422AD0013251
:10151000082AF4D1654D2B0074331B78072B1FD993
:10152000634B5FE090425CD11B785BB22A0089324A
:1015300013702B0009218833197096232A009B0110
:10154000AB6700230832D36728002A1DEB67D367F7
:1015500000F0B7FA2B0074331B78072B00D97FE01B
:1015600074352B789B00F6187369190069310A7875
:10157000202A6DD1002C6BD06A461289002A67D0D0
:1015800080209E684001864204D11869002801D15C
:10159000E0075DD4180068300578012D58D001258A
:1015A00005700020D866213008703D490968019116
:1015B000190050310A804A802100180052300288F8
:1015C000002A15D140251A68354ED16929404ED0E0
:1015D0001A002021693211700022683302981A70B3
:1015E0003FE00C335A68002A9CD101235B429DE7FF
:1015F0000288013A92B2028029481A6884468025FE
:10160000D06928400CD08020400186422BD1186937
:10161000002828D108880231C005C00D1085CCE70C
:101620006546019F2D68ED1BFA27BF00BD42E6D934
:101630001168204D294011609168A335FF35A943F9
:1016400091601A002021693211705170013A1070B6
:10165000134A03991268521A17498A4200D884E73C
:10166000002005B0F0BD087801311085A5E7019F85
:101670003068C01BFA27BF00B842A6D910680D4DCC
:10168000284010609068A335FF35A84390601A0089
:101690002020693210705070013A1170D8E7C046AE
:1016A000C005002030360008240200200C00002075
:1016B000483600085FFEFFFFE70300000020704788
:1016C000002070470120704780239B0100204B6061
:1016D0007047012040427047094B0200596B0029B6
:1016E00001D1084959636946586B82188A4205D965
:1016F0000C220120044B40421A6070475A63FCE7F9
:10170000240200208806002080060020036882B0A2
:10171000DA69D20703D59B8C9BB2019308E0DA69A2
:101720009207F8D4DA695207F5D4DA691207F2D4CD
:10173000019B02B07047F8B58021C0237B4A0905A0
:101740005B00D1500F217A4D6C692368DA69186803
:10175000114008D12026324205D0304203D020006B
:10176000FEF73AFDF8BD9E6800297CD001210E40AD
:1017700003D190277F00384275D00A4205D0C505B5
:1017800003D51962E56E2943E16602210A4206D0BB
:10179000002E04D01962E56E49182943E166042140
:1017A0000A4206D0002E04D01962E56E02392943A0
:1017B000E166110708D5810601D4002E04D0082166
:1017C0001962E36E1943E166E36E002BCAD0202351
:1017D0001A4204D0184202D02000FEF7FDFCE26E4F
:1017E0002368120703D440229D68154036D01A683A
:1017F000504920200A401A6001229968914399605B
:1018000021006A31087099680018014222D0996855
:101810008143606E996000281CD0474B841C436351
:10182000E37F022B04D004238363FEF779FC99E75E
:101830000E2503681968A94319601968056C91435E
:1018400019601100A940C36B5960E2770022431C64
:10185000DA77EAE72000FFF759FF83E72000FFF778
:1018600055FFE5667EE780210A422DD008422BD045
:10187000220069321278212A00D073E7200052300A
:101880000288002A07D11A688A431A604022196820
:101890000A431A6066E78021A5684901E26C8D421F
:1018A0000DD1216900290AD111880232C905C90D5B
:1018B0001985E2640388013B9BB2038052E7511C07
:1018C000E16412781A85F5E740210A4200D149E720
:1018D000084200D146E71A688A431A602300202292
:1018E00069331A702A0000231432990089588C42F7
:1018F00003D00133082BF8D134E7DBB29B00EB189F
:101900009C6B9B6D20009847431C00D12AE7230065
:1019100022009A3394321B8811687434C9182378D2
:101920009B00ED18686900F021FB1BE700E100E077
:1019300024020020DFFEFFFF2101000810B5074848
:101940000400183CE3681438002B02D00322010085
:101950009847034B20009C42F2D110BD7404002034
:10196000F4020020034B10B5186C002801D0FEF7DC
:1019700081FC10BD9C020020034B10B5D86B0028E1
:1019800001D0FEF777FC10BD9C020020034B10B580
:10199000586B002801D0FEF76DFC10BD9C020020A2
:1019A000034B10B59868002801D0FEF763FC10BD0A
:1019B0009C020020034B10B51868002801D0FEF7E8
:1019C00059FC10BD9C020020836C10B5021F002B37
:1019D00005D0017F012902D100211000984710BDD8
:1019E0000023421C0DD00B4A0D33904209D00AD877
:1019F000094A0333904204D0084A0333904200D08E
:101A0000002318007047064A15239042F9D0054A72
:101A10000133F3E7002C01400004004000200040A7
:101A200000440140004801400121114B11481A684F
:101A30000A431A605A6802405A601A680E48024007
:101A40001A601A680D4802401A605A680C48024031
:101A50000F205A60DA6A8243DA621A6B0948024040
:101A60001A635A6B8A435A6300229A607047C046D1
:101A7000001002400CB8FF08FFFFF6FEFFFFFBFF5F
:101A8000FFFFC0FFECFEFFFF0200431C06D000205A
:101A90000856431C02D0824201D1886870470C313D
:101AA000F5E70023421C06D118007047984201D187
:101AB0004B68F9E70C310023CB565A1CF6D10023B2
:101AC000F2E7F0B5040089B0002800D14AE188208F
:101AD0008925A7492056FFF7E4FF65570600A54969
:101AE0002800FFF7DEFF002800D13BE1002E00D1E7
:101AF00038E13300864200D000232360002B00D160
:101B000030E19D4A9D4E934215D18022F368D20167
:101B10001343F360F3689A490B40F360B3691343CE
:101B2000B361B36913400293029B23000022743314
:101B30001A701B329A750F2728093840FEF7FBFAF6
:101B40008925009065578B492800FFF79DFF0123E9
:101B50003D40AB401022039343001340093A02403A
:101B600013430493032303220693030913400593AD
:101B70007F23000A184003A9079025000098FEF76C
:101B80004BFC00208835285600093840FEF7D3FA70
:101B900000902D7876496DB22800FFF775FF01237C
:101BA0003D40AB401022039343001340093A0240EA
:101BB000134304930323032206930309134005935D
:101BC0007F23000A1840079003A90098FEF724FC21
:101BD000230074331B786B49221D9B005A50D06F31
:101BE0000432D76F0C22A2610022E261226222003D
:101BF000E36F2568A16F6D326560A1600193E360BA
:101C00002061676100921278D2B2002A04D16C235D
:101C10009C46A44463461A702422009B1A70012338
:101C20002A689A43019B2A603B430C272A683B435E
:101C3000554F3A4013432B606B68544A1340184386
:101C400068600320AB68524A1340626A1343AB607A
:101C5000336B504A0340D05C082800D982E000F082
:101C6000C7FA0581108113818181830073685B0548
:101C70005B0FD318484A1B791068D8404B08C0182E
:101C800008E04808454BFAE7FEF776FBA368A16831
:101C90005B08181800F0B6FA80B2E860A26A6368C0
:101CA000002A49D0D10705D559683D480140E06A6E
:101CB00001435960910705D559683A480140206BA6
:101CC00001435960510705D5596837480140606B99
:101CD00001435960110705D5596834480140A06B8C
:101CE00001435960D10605D5996831480140E06B40
:101CF00001439960910605D599682E480140206CF2
:101D00000143996051060FD559682B4D606C2940ED
:101D10000143596080214903884205D15968274809
:101D20000140A06C01435960120605D55A68244948
:101D30000A40E16C0A435A605A6822490A40082165
:101D40005A609A688A439A60012219680A431A60A5
:101D500000232022009923670A7021006C346E3121
:101D60000A70237009B0F0BD802348081B0286E783
:101D700030360008483600080038014000100240A4
:101D8000FFBFFFFF38020020F369FFFFFFCFFFFF17
:101D9000FFF4FFFFAF350008A800002000127A0012
:101DA000FFFFFDFFFFFFFEFFFFFFFBFFFF7FFFFFCA
:101DB000FFEFFFFFFFDFFFFFFFFFEFFFFFFF9FFFD3
:101DC000FFFFF7FFFFF7FFFF70B50C241025A8B247
:101DD000013CFEF703FB6D00002CF8D170BD10B57F
:101DE0000420FEF7FBFA0820FEF7F8FA10BD10B544
:101DF0000120FEF7F3FA0220FEF7F0FA10BDF0B56D
:101E00000F270400000987B038400E001500FEF7C8
:101E100092F901233C40A3400193032301A90493B9
:101E200002960395FEF7F8FA07B0F0BD024A136870
:101E3000013313607047C046C0050020802230B5D2
:101E4000846803005201944205D10269002A02D13C
:101E50000120014228D11A00683215780220012D94
:101E600022D0013810705965190058310880488017
:101E7000802149018C421AD11969002915D10F48D6
:101E800019005C3108801900002022246A31D866CC
:101E90000C70107001221B6899680A439A609022A6
:101EA000196852000A431A6030BDFF20E8E7002C91
:101EB000E9D119690029F8D07F20E1E7FF0100008E
:101EC0000100054810B5826C5468002C02D03C30EB
:101ED000C27AA04710BDC0467405002070B5094DF8
:101EE000094CEB6CE3602000FFF7AAF9002807DA41
:101EF000E268EB6C9B1AA2689342F4D30120404243
:101F000070BDC046740500207404002070B5094DF2
:101F1000094CEB6CE3602000FFF7A3F9002807DA17
:101F2000E268EB6C9B1AA2689342F4D30120404212
:101F300070BDC0467405002074040020FA21094BCE
:101F400010B51868890000F05DF901F039F8C02279
:101F5000054912060B6A00201B021B0A13430B6281
:101F600010BDC046A800002000ED00E030B505001F
:101F700069352B7802000220202B24D1013800295A
:101F800021D0802390685B01984205D11369002B12
:101F900002D10120014216D11400683423780220B6
:101FA000012B10D0D1641100012350310B804B80E4
:101FB00000232121D36629702370116880220868CC
:101FC000024318000A6030BD034AD16CD36C5B1A1F
:101FD0008342FBD37047C0467405002070B51128BA
:101FE0001FD8124D2B004C331C56631C19D01049BE
:101FF00020005031FEF7E6F8002398420FD00F2161
:1020000022090A40042A0ED801200C40A040920068
:10201000AA18136E1B690340581E8341DBB21800D7
:1020200070BD0023FBE71B69FFDEC046BC3500081E
:102030007405002070B50D0011281BD80F4E330019
:102040004C331C56631C15D00D4920005031FEF74F
:10205000B9F800280ED00F22230913400021042BC9
:1020600002D89B00F318196E01231440A340002DE1
:1020700001D08B6170BD8B62FCE7C046BC350008A7
:102080007405002070B58901002812DB8308134A0B
:1020900003249B009B18FF222040A0401400C02571
:1020A000844011408140AD005E59A64331435951EF
:1020B00070BD03240F23C0B203402040A040FC3475
:1020C0002500214085408140083B054A9B089B0034
:1020D0009B18DA69AA431143D961E9E700E100E0FE
:1020E00000ED00E0002805DB1F2318401E3B834065
:1020F000014A13607047C04600E100E00422036813
:1021000030B59968114201D1002030BD9968114263
:1021100006D09A68920703D4102299680A439A60FD
:10212000042409490D689A682242EDD00A68521BBE
:10213000022AF8D91023426C134343640123826CB2
:102140001A4382641800E0E7C005002003210368F9
:1021500030B59A680A40012A01D0002030BD1968C4
:10216000114202D1DA681204F7D505219A680A40B3
:10217000012A14D102219C682143996003210D4C4E
:102180001960256899681142E7D02168491B022926
:10219000F8D91023416C0B434364836C05E0102392
:1021A000426C134343640123826C1A43826401200E
:1021B000D4E7C046C005002010B500F08FFF10BD69
:1021C00010B500F08BFF10BD10B500F087FF10BDFB
:1021D00010B500F079FF10BD10B500F075FF10BD0F
:1021E0000023C25C0133002AFBD1581E7047000057
:1021F00002B4714649084900095C49008E4402BC9A
:102200007047C046002243088B4274D303098B42B7
:102210005FD3030A8B4244D3030B8B4228D3030CB6
:102220008B420DD3FF22090212BA030C8B4202D358
:102230001212090265D0030B8B4219D300E0090A80
:10224000C30B8B4201D3CB03C01A5241830B8B4289
:1022500001D38B03C01A5241430B8B4201D34B0372
:10226000C01A5241030B8B4201D30B03C01A5241D7
:10227000C30A8B4201D3CB02C01A5241830A8B425C
:1022800001D38B02C01A5241430A8B4201D34B0245
:10229000C01A5241030A8B4201D30B02C01A5241A9
:1022A000CDD2C3098B4201D3CB01C01A524183095D
:1022B0008B4201D38B01C01A524143098B4201D397
:1022C0004B01C01A524103098B4201D30B01C01AC2
:1022D0005241C3088B4201D3CB00C01A524183083C
:1022E0008B4201D38B00C01A524143088B4201D369
:1022F0004B00C01A5241411A00D2014652411046C9
:102300007047FFE701B5002000F0F0F802BDC046BD
:102310000029F7D076E7704703460B437FD40022AD
:1023200043088B4274D303098B425FD3030A8B4269
:1023300044D3030B8B4228D3030C8B420DD3FF22D3
:10234000090212BA030C8B4202D31212090265D0A1
:10235000030B8B4219D300E0090AC30B8B4201D354
:10236000CB03C01A5241830B8B4201D38B03C01A9B
:102370005241430B8B4201D34B03C01A5241030B12
:102380008B4201D30B03C01A5241C30A8B4201D3C3
:10239000CB02C01A5241830A8B4201D38B02C01A6E
:1023A0005241430A8B4201D34B02C01A5241030AE5
:1023B0008B4201D30B02C01A5241CDD2C3098B42CA
:1023C00001D3CB01C01A524183098B4201D38B0147
:1023D000C01A524143098B4201D34B01C01A5241EA
:1023E00003098B4201D30B01C01A5241C3088B422F
:1023F00001D3CB00C01A524183088B4201D38B001A
:10240000C01A524143088B4201D34B00C01A5241BB
:10241000411A00D201465241104670475DE0CA0F92
:1024200000D04942031000D34042534000229C4652
:1024300003098B422DD3030A8B4212D3FC2289015C
:1024400012BA030A8B420CD3890192118B4208D332
:10245000890192118B4204D389013AD0921100E094
:102460008909C3098B4201D3CB01C01A52418309A8
:102470008B4201D38B01C01A524143098B4201D3D5
:102480004B01C01A524103098B4201D30B01C01A00
:102490005241C3088B4201D3CB00C01A524183087A
:1024A0008B4201D38B00C01A5241D9D243088B42D0
:1024B00001D34B00C01A5241411A00D20146634673
:1024C00052415B10104601D34042002B00D54942D7
:1024D000704763465B1000D3404201B5002000F016
:1024E00005F802BD0029F8D016E770477047C046CE
:1024F00003B47146490840004900095A49008E4416
:1025000003BC7047F0B5012187B00C20FEF798FF9F
:1025100001210720FEF794FF01210620FEF790FF1E
:1025200000210800FEF78CFF00210720FFF782FD45
:1025300002210A20FEF784FF02210B20FEF780FF14
:10254000B44CE122230025000026FC335202B2489D
:10255000FF351A61DE619E615E61FFF7B2FA6B7A48
:10256000AE4F9B00DA5911006A326931097812784E
:102570000A43222A19D01F20A949AA4A9950AA4AD7
:10258000A549995028563100FFF77CFD1F20285699
:10259000FFF7A8FD6B7A9B00D85903006A331B78BC
:1025A000202B02D1A149FFF749FC02252000A5609C
:1025B000FEF73DFE08202900FEF742FF9C4C9D4B94
:1025C000E068436008230289FF33134303810368F3
:1025D000DB689847002801D0FFF7F6FC0026FA21B7
:1025E000954F964B964D3B65964B3E7018687E60B6
:1025F000BD608900FFF706FE0123BB613B0080B28E
:102600008008FD6038617E61FE613E6249331B785F
:10261000DBB2B3421DD13A008020483213708A4A9F
:10262000800291690143916193693A0003400593E7
:10263000059B864B0C322800DA63FFF7D1F90F2196
:1026400040B2FFF71FFDF868FFF7CAF940B2FFF785
:1026500049FD3B00022249331A707D49FB681A6824
:102660008B4202D07B48834208D170208243786934
:1026700002438B420AD07748834207D07648834290
:1026800004D0AB4202D07548834203D17448024063
:10269000F869024380208243786A02431A60BA696B
:1026A000DA623A699A628B4204D0AB4202D06B4A3A
:1026B000934201D13A6A1A633900012249315A61C1
:1026C0000A70D9681143D96019680A431A600C224C
:1026D000644B1A60FEF772FB7866FEF747FBB8663C
:1026E0000A20FFF77BFC0023984206D00B20FFF75F
:1026F00075FC0300581E834101333A006C3213709D
:10270000002B18D0012B44D000233A00190070325E
:10271000995004331C2BFBD101210C20FFF78AFCBC
:10272000002528000135662D55D0FEF753FA042008
:10273000FFF74AFCF5E77B6E4B495A0902234B48E9
:102740005D1F012D20D90D005D43AA421CD9050053
:102750005D43AA4218D8DBB238000022444D7030E5
:1027600051595943115004321C2AF9D1002BD3D1AD
:102770000125322420007D60FFF726FCFEF794FA45
:102780002000FFF721FCF5E70133082BD8D1002307
:10279000E2E77B6E37495A09022337485D1F012D56
:1027A00014D90D005D43AA4210D905005D43AA4229
:1027B0000CD8DBB23D0000222D4870351C3011587A
:1027C0005943515104321C2AF9D1CFE70133082B68
:1027D000E4D10023EEE7FEF767FA0321274B284AEE
:1027E00027481161D3609C2252004261244D254844
:1027F000A861254D1D60254D1D60254D59609A60CD
:102800002968DA68002A45D11A69824200D108E1B4
:10281000186143E0740400200805002038020020FD
:102820004D13000800020020E00100207D0500207B
:10283000B00500202D0C00082C010020ED0A000836
:1028400000440140A8000020001002409C0200202B
:10285000002C0140000400400020004000480140DE
:10286000FFFCFFFF04000020AC0D00009A100000E8
:10287000FC340008680B0000420E000000300040ED
:10288000AC010020FF0F0000CCCC0000555500002B
:10289000C00500202A68521A272AB2D90121072030
:1028A000FFF7C8FB01232A68C3493B70CA61019343
:1028B000C14BC24ADB68E0681A60036802259B6965
:1028C000984786B2E06821780368DB699847C3B20D
:1028D0000293A37A2B4200D1A6E06388E068F31A42
:1028E0009BB2039303681B689847039B834200DAFB
:1028F000A2E0A37AAB43A372E37A022B00D1E1E01A
:10290000E06803899B0719D003689B689847A37AFE
:102910007F2B05D9A388F31A9BB2834200DB99E190
:10292000E06803689B6898470821A27A0A4205D0AC
:10293000A388F31A9BB2834200DB93E10425E0688D
:1029400003892B420BD0A37A019A02991A40914233
:1029500005D02B4203D02022134200D185E1E0684C
:1029600003891B0717D5A27A019B0299134099424C
:1029700011D053070FD5402103680A4200D1A5E0CA
:1029800025895B69751BADB29847854203DB05203D
:10299000FFF796FA2681E37A029A93424CD06B466F
:1029A0001B7AA27AE3720299019B1340994206D0E6
:1029B000042300201343E680A372FFF781FAA37A71
:1029C000019A02991A40914236D1E0680289920731
:1029D00000D05DE1A27A930604D5E3681989019BD2
:1029E000490615D4530604D5E3681989019B0906E5
:1029F0000ED4130704D5E3681989019BC90607D4CF
:102A00000023D10604D5E36801991B895B090B40BB
:102A100074218A43A272002B0ED10198FFF750FA5D
:102A20000AE0664A1A6039E7E27A02998A4200D1DE
:102A300062E71D43A57266805F4E019A336A604D5E
:102A4000134202D12B68326273622B68726A9B1A3E
:102A5000052B1DD92B687A6E73625A4B5A4302922A
:102A6000FEF7ACF9FA21029B89001818FFF7CAFBA0
:102A70005F23BA6E78665A430292FEF777F9030035
:102A800005205843029B6421C018FFF7BBFBB866C2
:102A90003B78022B5CD0032B00D1AEE0012B00D0A1
:102AA0001CE1F2692B689B1AFA22D200934200D8EB
:102AB00014E101990620FFF7BDFA02233B702B6851
:102AC000F3610BE16B461B7AE372B5E7E5881B699E
:102AD000751BADB29847854200DA5CE74022A37AC5
:102AE0001343A37253E7E06803899B0705D5A37AD4
:102AF0001A0712D410229343A372A37A0822D9068C
:102B000000D5D2E01A43A272E268A6801289D205EB
:102B10001AD5782252421343C8E00368A5889B68FF
:102B20009847751BADB2A37A8542E3DA5AB2002A00
:102B300002DA7F221340A3721023A27A03201343E8
:102B4000A372FFF7BDF9D8E70220FFF7B9F941E713
:102B5000B26A2B689B1AFA22D200934200D8B7E0DF
:102B6000F26A2B6802929A4205D02B689B1A164A89
:102B7000934200D89CE0FEF7BFF8092800D897E000
:102B8000029B2A68D21A114B9A4200D8A0E0019BFE
:102B900000280EDB062364215843FFF7BDFB031C0E
:102BA000C0B2052800D90523DBB2019A9B009A40E8
:102BB00013007B608CE0C046AC010020AAAA000094
:102BC000C0050020E7030000B70B0000B80B0000B1
:102BD00009280FDCFA2128688900FFF799FB414B8F
:102BE000994273D82868C821FFF792FB63296DD8F2
:102BF0000423DEE7FDF7EEFF6AE03B4B2868DB6964
:102C00003A49C01A0293FFF783FB08006421FFF7DB
:102C1000F9FAC1B2052804D80B1C052907D90523E8
:102C200005E00A22521A131CD2B2052AF7D8042250
:102C3000DBB29B009A407A602B68326B9A4205D3D4
:102C4000029B2A68D21A2A4B9A4247D9FEF744F8C7
:102C5000042333E70220FFF733F97F22A37A1340DE
:102C6000A3725DE68A43A27268E6E388F31A9BB218
:102C700003930368DB689847039B834200DA6EE6A0
:102C80002022A37A28001343A372FFF719F966E6FE
:102C90005A0709D5E5880368751B5B68ADB298478C
:102CA000854200DA1FE7A37A08229343A37291E6D4
:102CB000FEF722F800288BDAFA2128688900FFF74E
:102CC00027FBF423FF336420994293D9FDF7ECFFEF
:102CD000FEF712F80323002800D1EFE6FEF7D6FA3C
:102CE000E6E5C04657020000AC0100204C0400009D
:102CF00010270000102370B5514D524C2A68134321
:102D00002B60FFF71BF90C2162682B000A4206D0EA
:102D100062680A40082A3CD16268D20339D422682A
:102D2000F82122688A43110078220A430C2122608C
:102D300062680A40082A3AD080202268424980040A
:102D40000A402260414A15682168014230D10F20B3
:102D5000E16A8143E16261683D480840A02189033E
:102D60000143616080212068490401438020216083
:102D700015688004216801421FD0012019680142B2
:102D800020D0F0206168814361602168890121D4ED
:102D9000FEE70122022021680A432C4922600D68C7
:102DA00022680242BCD10A68521B022AF8D9FEE707
:102DB0001168491B0229C7D9F9E71168491B022983
:102DC000D8D9F4E7196881430143196019680142B1
:102DD000DED0D6E7032061681E4E81430800022141
:102DE00001430C206160156861680140082922D107
:102DF0001B68194A636813406360FDF7BDFA636896
:102E0000164A1B061B0FD35C154CD8402060FFF7F9
:102E100095F8FA2120688900FFF7F4F900F0D0F85E
:102E20000423104A11680B4313600F4A136A1B02F4
:102E30001B0A136270BD1168491BB142D4D9A7E7C0
:102E40000020024000100240FFFFFFFEC0050020EE
:102E5000FFFFC2FF88130000FFF8FFFF9F35000847
:102E6000A800002010E000E000ED00E04D4B05213F
:102E7000180070B5303019701976013101701800E2
:102E800000240830C4671800474A1D008C300260D7
:102E900018004835297090300131017018009C30BD
:102EA00004601800A43002601800A83001701800F7
:102EB000B43004601800BC3002601800C0300170EB
:102EC0001800CC3004601800D43002601800D830EC
:102ED00001701D0018006035E430297004601D0089
:102EE00018007835EC30297002601D001800FF359D
:102EF000F030DC605A615C62DA62DC635A645C6503
:102F0000DA65DC665A6701706972902518006D00F9
:102F1000595518355955183559551835595576316B
:102F2000FC30FF310460826084610262046382636A
:102F3000846402650466826684675A5020001B4AD6
:102F40001B4900F080F8FA221A4B92009A601A4A44
:102F50000A201100083119601900FF318877013803
:102F6000487718001900FC3011315C60416219008B
:102F70005133C362114B28321A631A00FE313032CA
:102F8000CC849A640C85CC850C861A0002213C32D4
:102F9000DC875C631C875B18147054709472D17268
:102FA000DC8770BDF402002000001110000000203A
:102FB0003D19000874040020BC3500087405002089
:102FC000094A431E012093420DD8C021074A0848F0
:102FD0005360036A09061B021B0A0B4303620020AD
:102FE0000723906013607047FFFFFF0010E000E0D0
:102FF00000ED00E00D4885460D480E490E4A0023BD
:1030000002E0D458C4500433C4188C42F9D30B4A9C
:103010000B4C002301E013600432A242FBD3FEF705
:1030200003FD00F025F8FFF76DFAFEE70010002021
:103030000000002010010020E836000810010020E8
:1030400084060020FEE70B0010B50100180000F018
:1030500001F810BD70B5054C05001300201E04D00A
:103060000A000220290000E000BF70BD000000003F
:1030700070B500260C4D0D4C641BA410A64209D15E
:10308000002600F02FFA0A4D0A4C641BA410A64239
:1030900005D170BDB300EB5898470136EEE7B30099
:1030A000EB5898470136F2E7C8360008C8360008E2
:1030B000C8360008E436000803008218934200D1A5
:1030C000704719700133F9E710B5034B0100186818
:1030D00000F062F810BDC046AC00002010B5034BF4
:1030E0000100186800F00EF810BDC046AC000020CA
:1030F000002310B59A4200D110BDCC5CC4540133FA
:10310000F8E7000070B50500002910D00C1F2368F7
:10311000002B00DAE418280000F0AEF81D4A13680E
:10312000002B05D163601460280000F0A6F870BD84
:10313000A34209D9216860188342F3D118685B68FB
:1031400041182160EEE713005A68002A01D0A2421C
:10315000F9D919685818A0420BD1206809185818D5
:1031600019608242E0D110685268411819605A60B3
:10317000DAE7A04202D90C232B60D5E7216860185A
:10318000824203D1106852684118216062605C601D
:10319000CAE7C046D8050020032370B5CD1C9D4367
:1031A000083506000C2D1ED20C25A9421DD8300072
:1031B00000F062F8254A14682100002919D1244C36
:1031C0002368002B03D1300000F044F82060290070
:1031D000300000F03FF8431C2CD10C23300033604A
:1031E00000F04BF803E0002DDFDA0C233360002001
:1031F00070BD0B685B1B1AD40B2B03D90B60CC186A
:10320000256003E08C420ED163681360300000F04B
:1032100034F8200007220B30231D9043C31AE7D057
:103220005A42E250E4E74B6863600C00EEE70C00A2
:103230004968C2E70323C41C9C43A042E0D0211A82
:10324000300000F007F8431CDAD1C6E7D8050020AB
:10325000DC050020002370B5064C05000800236043
:10326000FEF73AFA431C03D12368002B00D02B60F1
:1032700070BDC04680060020704770470123214A78
:103280001168194200D113601F4A1168194200D118
:10329000136001231D4A1168194200D113601C4AB2
:1032A0001168194200D1136001231A4A11681942AA
:1032B00000D11360184A1168194200D1136001232C
:1032C000164A1168194200D11360154A1168194253
:1032D00000D113600123134A1168194200D1136011
:1032E000114A1168194200D1136001230F4A116875
:1032F000194200D113600E4A1168194200D11360BF
:103300007047C0460C060020080600200406002076
:1033100000060020FC050020F8050020F405002030
:10332000F0050020EC050020E8050020E405002061
:10333000E00500200123214A1168194200D11360E1
:103340001F4A1168194200D1136001231D4A1168F8
:10335000194200D113601C4A1168194200D1136050
:1033600001231A4A1168194200D11360184A1168E2
:10337000194200D113600123164A1168194200D185
:103380001360154A1168194200D113600123134AD2
:103390001168194200D11360114A1168194200D115
:1033A000136001230F4A1168194200D113600E4ABD
:1033B0001168194200D113607047C0463C060020D6
:1033C0003806002034060020300600202C0600209D
:1033D0002806002024060020200600201C060020CD
:1033E0001806002014060020100600200123164AAB
:1033F0001168194200D11360144A1168194200D1B2
:1034000013600123124A1168194200D11360114A56
:103410001168194200D1136001230F4A1168194243
:1034200000D113600D4A1168194200D113600123C5
:103430000B4A1168194200D113600A4A11681942F7
:1034400000D113607047C0465C060020580600207B
:1034500054060020500600204C060020480600209C
:1034600044060020400600200123164A1168194234
:1034700000D11360144A1168194200D1136001236E
:10348000124A1168194200D11360114A1168194299
:1034900000D1136001230F4A1168194200D1136053
:1034A0000D4A1168194200D1136001230B4A1168BB
:1034B000194200D113600A4A1168194200D1136001
:1034C0007047C0467C060020780600207406002065
:1034D000700600206C0600206806002064060020AC
:1034E00060060020F8B5C046F8BC08BC9E46704790
:0C34F000F8B5C046F8BC08BC9E4670470A
:1034FC00AC0D0000420E0000740E0000A60E000081
:10350C00F10E00006E0F000068100000680B000048
:10351C00440C0000800C0000940C0000A80C00006F
:10352C00BC0C0000100E000002030405060708097D
:10353C000A0B0C0D0E0F10100102030405060708F0
:10354C00090A0B0C0D0E0F100400000000240140A2
:10355C00030002000500000000240140038002006B
:10356C00110000000024014003800400FF00000053
:10357C00000000000000000001020304050607081B
:10358C00090A0B0C0D0E0F101101000305040204A7
:10359C000302010000000000000000010203040609
:1035AC0007080900040802000000000102030400DF
:1035BC000000000000000000B5120008E91100082E
:1035CC007D12000841120008631200082F12000837
:1035DC000000000000000000E90A0008D90A0008F9
:1035EC00E30A0008DD0A0008DD0A0008D90A000811
:1035FC00AB120008A9130008A51200080001020371
:10360C0004050607090A0D0E4041110405110000BE
:10361C00000000480004004800080048000C004866
:10362C00001400480900000000380140120100009D
:10363C00FF00000000000000000000000A00000075
:10364C000038014012010000FF00000000000000E3
:10365C000000000023232320000D0A0000000000BE
:10366C00000000000000000000000000000000004E
:10367C00000000000000000000000000000000003E
:10368C00000000000000000000000000000000002E
:10369C00000000000000000000000000000000001E
:1036AC00000000000000000000000000000000000E
:0C36BC0000000000000000000000000002
:1036C800F52C0008E90000086D2E00087D3200087E
:0C36D80035330008ED33000869340008A9
:0436E400C100000819
:1036E800000000000A000000FF00000000000000C9
:1036F80000000000000000000000000000000000C2
:1037080000000000000000000000000000000000B1
:1037180000000000000000000000000000000000A1
:103728000000000000000000000000000000000091
:103738000000000000000000000000000000000081
:103748000000000000000000000000000000000071
:103758000000000000000000000000000000000061
:103768000800000000000000000000000000000049
:103778000000000000000000000000000000000041
:10378800000000000000000000127A00B0000020D5
:103798000000000088360008A836000868360008CF
:1037A8000000000000000000000000000000000011
:1037B8000000000000000000000000000000000001
:1037C80000000000000000000000000000000000F1
:1037D80000000000000000000000000000000000E1
:1037E80000000000000000000000000000000000D1
:043FFC0001000000C0
:0400000508002FF5CB
:00000001FF
