:020000040800F2
:1000000000100020912F0008E12F0008E12F0008C8
:1000100000000000000000000000000000000000E0
:10002000000000000000000000000000E12F0008B8
:100030000000000000000000E12F000891160008F9
:10004000E12F000800000000E12F0008E12F000868
:10005000E12F000881160008711600085B160008E1
:1000600000000000E12F0008E12F0008E12F000848
:10007000E12F00084D150008E12F000800000000E6
:1000800039150008000000000000000025150008D8
:100090000000000011150008FB140008E12F000803
:1000A00000000000E12F000800000000B712000867
:1000B0000000000000000000000000000000000040
:1000C00010B5064C2378002B07D1054B002B02D02E
:1000D000044800E000BF0123237010BD1001002080
:1000E0000000000080340008084B10B5002B03D03E
:1000F0000749084800E000BF07480368002B00D10B
:1001000010BD064B002BFBD09847F9E7000000001C
:1001100014010020803400081001002000000000BD
:10012000C8207047FA2080007047C8204000704700
:1001300032207047F0B5364B364C1B682278677812
:100140009200D3400F2285B01340FFB20293002FDC
:100150002FD1002B2DD03900032000F031FF3900C2
:10016000022000F02DFF3900380000F029FF39008F
:10017000012000F025FF284D23780121EB5C063596
:100180005E080393AB5DAD191800019300F018FFF2
:100190006E780121300000F013FF0123039D1D4004
:1001A00014D03900019801F0DFFF0121300001F087
:1001B000DBFF6378029A93420EDA63780133DBB295
:1001C00063706378032B18DC05B0F0BD0121019842
:1001D00001F0CAFF2900E9E70021032000F0F0FE4A
:1001E0000021022000F0ECFE0021080000F0E8FEF3
:1001F0000021012000F0E4FEDFE700226270237896
:100200000133DBB223702378052BDDDD2270DBE7C1
:10021000340100202C0100209834000870B500281B
:1002200015DB642800DD642006244443642120009B
:1002300002F05EF8002304211D001E00834209DA4B
:100240000E009A00964001333543DBB2F5E70024F7
:10025000260025002000642102F030F90800192151
:1002600002F046F8B600B040014B2843186070BD5C
:100270003401002070B503290BD004290BD00229CA
:1002800006D10F4B1A680F4B1A6001220E4B9A7061
:1002900070BD0222FAE70A4D0C4B2A689A42F7D940
:1002A00064242000FFF7BAFF042001F027FF013C7F
:1002B000F7D20322064B1A702A68064B1A60E7E74A
:1002C000B8050020D40100202C0100208813000074
:1002D00030010020C401002010B50021032000F0EF
:1002E0006FFE0021022000F06BFE0021080000F0EC
:1002F00067FE0021012000F063FE0022014B1A601E
:1003000010BDC0463401002010B5FFF7E5FF002105
:10031000062001F029FF0021072001F025FF002120
:100320000C2000F04DFE10BD10B50A2001F0F0FECB
:1003300003000020834205D00B3001F0E9FE431E8C
:100340009841013010BD70B5194E316800292BD08D
:10035000B369002B28D0174A00201268914222D896
:10036000643093421FD900231C00052B1CDC013391
:10037000DBB299007158002901D1062BF7DDA000EE
:100380003558AA42F0D38A42EED2521B181B504372
:10039000491B000101F022FF050064200621604393
:1003A00001F0A6FF281870BD01204042FBE7C046BF
:1003B00098010020940100200523F0B5A1B001931D
:1003C00000230093019B013B0193002B00D1A0E28D
:1003D00000244C2200210DA802F03CFE0B4904AB86
:1003E0000C3111205C8001F028F90D90A04211D150
:1003F0000023074A12680C2A05D00B2A00D985E28F
:100400000C218A1AD340009AD318DAE798340008EE
:10041000080000208023DB050E930423C2271E94CE
:100420001293DB4C023B1B930F3323701E9BFF3751
:100430001797002B1DD11F93D64B984209D18020CE
:10044000D54A800091690143916193690340059306
:10045000059B012001F024F90F23227808A91A40F6
:100460000E3B934008930323099300230A9301F062
:1004700021FC1E9BDB0600D5BCE104230D9CA26879
:100480001A4000D0B6E11E98C449023B084003431D
:1004900003201E93A36803910340012B00D04DE27B
:1004A0002168194203D1E3681B0400D446E2E368E3
:1004B000BB49159D0B40E360139B6E039903149B8E
:1004C000DB030B431A99481E411E88410103109813
:1004D00003431E43119B0293022B00D10422199B5C
:1004E000580002933043169B08430243012B05D169
:1004F000002D00D06AE180235B021A43179BBB42A8
:1005000003D018990B4302911A43E3681B9E1343CF
:10051000E36080235B059E4202D0731E062B07D842
:100520000723616999436161616933400B436361EA
:10053000E3689C490B409A4200D04FE1002503221A
:100540001F951E9B984F93431A00390001230C31CD
:10055000134311201E9301F063F80003C00E01380D
:10056000102800D849E100231DAA06931378012B17
:1005700000D13DE701231370A268520700D55FE167
:10058000AB40A26A1343A36280235B059E420ED058
:10059000013E062E0BD9072263691340022B06D0B9
:1005A00063699343636102236269134363612B00B0
:1005B000103B012B00D826E1012303211DAC237041
:1005C0000D9B9A680A40012A07D11968114200D090
:1005D000C3E1DA68120400D5BFE11E99039A032033
:1005E000114002220A431E92DA68D9688143D96019
:1005F000802198680906014399606C490D689868E4
:10060000002800DA21E10321D8680A400243DA60B9
:1006100001231E9A8A4313431E9300230022227053
:10062000934200D0E4E60D9DAA68520700D5DFE6AC
:1006300001222270149A0292012A00D00FE11E9B1F
:100640005B4A1A4080235B0013431E931C22002345
:100650001F9323702A60A968183A0A431299AA6066
:10066000082900D033E1514A16682B680B4000D1AD
:1006700037E180231E9A9B0013431E93C023EA6830
:100680001B011A4214D1159B0293002B10D12B6829
:100690001B070DD5AB685B0700D52AE10C226B6800
:1006A00093436B601E9B434A1A40012313431E93DE
:1006B000139B0293002B01D10C332B601E9B9B05D7
:1006C00003D52B6C04AA9BB2538001250DA825707D
:1006D00001F0DCFB002809D10DA801F0FFFB002888
:1006E00004D11E9B334A13401D431E9500221DABAF
:1006F0001A70904200D07BE602231E9A0DA8134385
:100700001E9301F0C3FB002800D0FBE00DA801F010
:10071000E5FB012800D16BE601231E939F210D9B71
:10072000254C5A688A435A601960DA6823490A409E
:100730000721DA601A69920092081A615A698A439D
:100740005A611A6A1E490A401A629A6A1D49D20CF5
:10075000D2049A620A6822400A600E4A93420CD17F
:1007600080220D4B9200D968174C0A43DA60D96891
:100770002140D9609A6922409A6100231F931E93F9
:10078000984200D034E604AB02331B889BB230E6BB
:10079000040000200024014000100240FDFEFFFF85
:1007A0001902FEFFE7FF3F8398340008B8050020D8
:1007B000FEF0FFFFFEFEFFFFFFFF3FFF00023E8354
:1007C00000F000F008270140FFFDFFFF20211E98E8
:1007D00001431E911F990B431F938FE612221E9B0C
:1007E00093431A00102313431E9301231F9A1343AC
:1007F0001F93FDE51E9A102324E03C373D5C112D2C
:1008000000D9F5E5AFE6584A80211368102D15D0C0
:10081000C9030B431360102D00D0CDE6534B544950
:10082000186801F0DBFC0A2358430690069B002B56
:1008300000D1C1E6069B013B0693F7E70904E8E710
:1008400020231E9A13431E93D2E50868401B0228FA
:1008500000D8D4E612221E9B93431A00CBE7032252
:100860000793AB681340012B07D12A681A4200D0C6
:10087000E5E6EB681B0400D5E1E6AA683D4B1A42A9
:1008800001D01E9AAEE70123AA6839491343AB6031
:10089000364B186801F0A2FC0790079B002B12D181
:1008A0000120354A16682B68034000D0C7E611685E
:1008B000891B0229F7D910211E9A11431E911F9AF4
:1008C00002431F9295E5079B013B0793E5E7EA6822
:1008D0000C21D20700D4C6E620221E990A431E929C
:1008E00087E51068801B0A2800D8BEE61E990422FE
:1008F000F4E720231E9A13431E9301231F9A1343E8
:100900001F93D5E6012800D008E771E50C3A934023
:1009100079E5009B9808194B5843194BD969DB6955
:10092000090E1B0CDBB20902C918164B89B2994299
:1009300000D1154901F052FC21B0F0BD1821E36847
:100940008B430F990B43E360236902919B000E993F
:100950009B080B4302912361A9E520231E9A1343B0
:100960001E9301235AE6C04608270140A800002034
:1009700040420F0017000080B8050020C05D000055
:1009800000200240FFFF00002F0C000070B50500A2
:100990000C00081E07D001F00FFC2B6802005B68FA
:1009A00021002800984770BD30B5040087B00020B2
:1009B00000F076FE1D490500092000F031FE80237D
:1009C00010229B00019343001340093A0240134355
:1009D0000322029303094004400E1340059001A92D
:1009E00028000492039301F065F9114D1149280084
:1009F000FFF7CCFF002C15DA2D21280000F01AFAA1
:100A00000A226142280000F095FA0B492800FFF7FE
:100A1000BDFF280000F0CBF90021082000F0D0FA3B
:100A200007B030BD0A222100ECE7C046D0350008EF
:100A30006C0400200036000805360008F0B58DB0C3
:100A4000A24800F0DBF9002809D0A04800F0C9F95D
:100A5000C0B2232803D09D4800F0B2F9F0E706ACFD
:100A600018220021200002F0F5FA994B0693042386
:100A70006360984BE36001232361059301F0C8FA9A
:100A80000190002838DB06A8036887689C46019A15
:100A9000DB5D9A4232D14368013787609F423BD188
:100AA000001B8D4F80104743002F25D101F0B0FA75
:100AB000002802DB202800D0C6B2502E00D167E00B
:100AC0003300303BDBB2172B03D8844ADA40D3071C
:100AD0005ED4462E00D1D0E049D8412E00D1C8E0E6
:100AE00037D8252E00D1CAE006D33300303BDBB225
:100AF0000024062B00D881E00DB0F0BD002F0BD0F4
:100B000002976246029B0199013BD25C91421CD143
:100B1000002B06D1059B83600C300CAB9842B3D1FF
:100B2000ACE70022F91A614403916146895C0D002B
:100B30000399895C049104998D4202D10132934258
:100B4000F3D8934203D1029BE5E7002BE3D0029355
:100B5000D7E7442E00D198E000D9F9E0422ECBD15E
:100B60005F4CA078FFF720FF0023A370C4E7522E4C
:100B700000D1DDE074D84C2E00D1E5E0502E00D13C
:100B8000BEE0472EB8D1002462E0504800F018F9CA
:100B900001F056FA00289CDB2D2803D00300303BDF
:100BA000092BF2D800242500012809D02D2830D0A7
:100BB0000300303B092B03D80A235C432418303C44
:100BC000424800F0FDF801F03BFA0300303B092BEE
:100BD000EAD90128F4D0002D00D06442462E4CD032
:100BE0002BD8412E45D017D8252E48D000D283E7E8
:100BF0003300303BDBB2062B00D97DE7FFF794FBD7
:100C0000022800D078E73300364A303B9B009C50E6
:100C100072E701231D00D3E7442E37D09ED9324B13
:100C20001A6800239C4204DB304923008C4200D91F
:100C30000B009B182E4A13605EE7522E78D00FD817
:100C40004C2E00D180E0502E5BD0472E00D053E7D1
:100C5000254B20001A68274B1A60FFF7DFFA4BE795
:100C6000542E0FD05FD3562E00D045E7224B186884
:100C700000E00120FFF798FE3EE70220FAE7FFF7C9
:100C800062FBF7E7FFF750FBF4E700240A25164B59
:100C90001A68184B1A602900200001F00FFCFF238E
:100CA0000B40042B00DD04210F26B8008640814054
:100CB000124A200013680137B34319431160290019
:100CC00001F016FB0400062FE5D115E76C040020A7
:100CD0000036000806360008ABAAAAAA7F00B000BA
:100CE0002C01002098010020B805002010270000EA
:100CF000D8010020D0010020940100203401002000
:100D00000024E117091BC90F062001F02DFA124B30
:100D10001A78012A00D0EFE601321A700F4B1A68D8
:100D20000F4B1A60E8E6FFF7EFFA04220A4BF4E7EC
:100D30000021072001F018FA0A2001F0DFF9012153
:100D4000072001F011FAD7E6044B1A68054BE8E7D3
:100D5000024B00241A6867E730010020B805002024
:100D6000C4010020D8010020F7B506000D000C00DA
:100D70008B180193019B671B9C4207D03368217835
:100D80001B683000984701340028F3D13800FEBDBD
:100D900002003F219A321388983001330B401380B0
:100DA00013880088C01A4342584140427047037C70
:100DB000002B04D0FE30C28D038E9A42FCD17047C6
:100DC0000200FE32D18C138D994207D0FC30416A6B
:100DD000C85C3F2101330B4013857047012040421E
:100DE000FBE70300FE33DA8C1B8D9A4203D0FC3004
:100DF000426AD05C704701204042FBE7FE30C38C62
:100E0000008D4033181A3F231840704710B504482E
:100E1000FFF7F4FF002801D0FFF710FE10BDC04619
:100E20006C040020002303817047014B1868704751
:100E3000B8050020F8B5020001233F250374FE32F7
:100E40000400D08DC3182B40158EAB42FCD025007A
:100E50002600FC35ED6A09362954FF36D3853378F0
:100E6000164D9B005A59200011006A3269310978E9
:100E7000127894300A43212A1DD01149114A2700C3
:100E80009950114A1F3798500020FF3700213856DB
:100E900000F0C0FF0020385600F0ECFF230029349A
:100EA0002F33FF33FF341B882168C91833789B0028
:100EB000585901F0F5F80120F8BDC046F0010020B6
:100EC000910D0008340200201402002070B5041EA9
:100ED00027D0030074331B78124A9B0098580300F4
:100EE000020069336A321B7811780B43222B18D029
:100EF0002100137875310D78202B01D101F038F8DD
:100F000022003F219032138801330B40210092319F
:100F100009888B4205D08C34118820689BB24554D7
:100F2000138070BDF001002010B5080001F0F0F84A
:100F300010BDFEE7F0B58BB06B46150000220533FF
:100F400006000F00DA77012D00DC0A2509AC290024
:100F5000380001F043F901006943791AC9B20B0066
:100F60003733013CDBB2092901D83031CBB22370D1
:100F7000071EECD121003000FFF708FD0BB0F0BDDB
:100F8000F7B507000D000024C31D061D019331783D
:100F90000A222800FFF7CEFF2B6800901B682E2145
:100FA00028009847009B0136C018019B2418B342C3
:100FB000EDD1F97928000A22FFF7BCFF2018FEBD09
:100FC000F8B50F0011282DD81B4B1C56631C29D0D7
:100FD0001A4E2000310000F044FD250900280AD0F7
:100FE0000F232A001A409200B618012223409A408B
:100FF000336893433360032F09D8380001F0E4F8D5
:101000000218131600221100200000F013FD0F2318
:101010001D401C400E3BA340094AAD00AD182A6894
:1010200013432B60F8BD01220021EDE70222FBE70C
:1010300000220121E8E7C046A8350008DC010020B5
:10104000BC0500200120704716220120014B4042C0
:101050001A60704778060020FEE7F0B5704B85B047
:101060001B680C0009206F490292039300F0E5FA17
:10107000002800D1B4E06C4E0022350014359100F8
:101080004959D3B2002902D0096888422AD00132D6
:10109000082AF4D1654D2B0074331B78072B1FD918
:1010A000634B5FE090425CD11B785BB22A008932CF
:1010B00013702B0009218833197096232A009B0195
:1010C000AB6700230832D36728002A1DEB67D3677C
:1010D00000F02CFB2B0074331B78072B00D97FE02A
:1010E00074352B789B00F6187369190069310A78FA
:1010F000202A6DD1002C6BD06A461289002A67D055
:1011000080209E684001864204D11869002801D1E0
:10111000E0075DD4180068300578012D58D001250E
:1011200005700020D866213008703D49096801919A
:10113000190050310A804A8021001800523002887C
:10114000002A15D140251A68354ED16929404ED064
:101150001A002021693211700022683302981A7037
:101160003FE00C335A68002A9CD101235B429DE783
:101170000288013A92B2028029481A688446802582
:10118000D06928400CD08020400186422BD11869BC
:10119000002828D108880231C005C00D1085CCE791
:1011A0006546019F2D68ED1BFA27BF00BD42E6D9B9
:1011B0001168204D294011609168A335FF35A9437E
:1011C00091601A002021693211705170013A10703B
:1011D000134A03991268521A17498A4200D884E7C1
:1011E000002005B0F0BD087801311085A5E7019F0A
:1011F0003068C01BFA27BF00B842A6D910680D4D51
:10120000284010609068A335FF35A84390601A000D
:101210002020693210705070013A1170D8E7C04632
:10122000B8050020D0350008DC0100200C000020AB
:10123000E83500085FFEFFFFE7030000002070476D
:10124000002070470120704780239B0100204B60E5
:101250007047012040427047094B0200596B00293A
:1012600001D1084959636946586B82188A4205D9E9
:101270000C220120044B40421A6070475A63FCE77D
:10128000DC0100208006002078060020036882B080
:10129000DA69D20703D59B8C9BB2019308E0DA6927
:1012A0009207F8D4DA695207F5D4DA691207F2D452
:1012B000019B02B07047F8B58021C0237B4A090525
:1012C0005B00D1500F217A4D6C692368DA69186888
:1012D000114008D12026324205D0304203D02000F0
:1012E00000F0C9FBF8BD9E6800297CD001210E40AA
:1012F00003D190277F00384275D00A4205D0C5053A
:1013000003D51962E56E2943E16602210A4206D03F
:10131000002E04D01962E56E49182943E1660421C4
:101320000A4206D0002E04D01962E56E0239294324
:10133000E166110708D5810601D4002E04D00821EA
:101340001962E36E1943E166E36E002BCAD02023D5
:101350001A4204D0184202D0200000F08CFBE26E4A
:101360002368120703D440229D68154036D01A68BE
:10137000504920200A401A600122996891439960DF
:1013800021006A31087099680018014222D09968DA
:101390008143606E996000281CD0474B841C4363D6
:1013A000E37F022B04D00423836300F09BF899E7CA
:1013B0000E2503681968A94319601968056C9143E3
:1013C00019601100A940C36B5960E2770022431CE9
:1013D000DA77EAE72000FFF759FF83E72000FFF7FD
:1013E00055FFE5667EE780210A422DD008422BD0CA
:1013F000220069321278212A00D073E7200052308F
:101400000288002A07D11A688A431A6040221968A4
:101410000A431A6066E78021A5684901E26C8D42A3
:101420000DD1216900290AD111880232C905C90DDF
:101430001985E2640388013B9BB2038052E7511C8B
:10144000E16412781A85F5E740210A4200D149E7A4
:10145000084200D146E71A688A431A602300202216
:1014600069331A702A0000231432990089588C427B
:1014700003D00133082BF8D134E7DBB29B00EB1823
:101480009C6B9B6D20009847431C00D12AE72300EA
:1014900022009A3394321B8811687434C918237857
:1014A0009B00ED18686900F0FBFD1BE700E100E020
:1014B000DC010020DFFEFFFFE514000810B507483F
:1014C0000400183CE3681438002B02D0032201000A
:1014D0009847034B20009C42F2D110BD6C040020C1
:1014E000EC020020406A0023020010B55A3213803B
:1014F000083A1380FFF7CAFE10BD044B10B5186CF4
:10150000002801D000F004FB10BDC04654020020AA
:10151000034B10B5D86B002801D000F0F9FA10BDCC
:1015200054020020034B10B5586B002801D000F086
:10153000EFFA10BD54020020034B10B59868002844
:1015400001D000F0E5FA10BD54020020034B10B5A5
:101550001868002801D000F0DBFA10BD540200200A
:10156000836C10B5021F002B05D0017F012902D129
:1015700000211000984710BD0023421C0DD00B4ADB
:101580000D33904209D00AD8094A0333904204D05F
:10159000084A0333904200D0002318007047064ADF
:1015A00015239042F9D0054A0133F3E7002C01409E
:1015B0000004004000200040004401400048014079
:1015C0000121114B11481A680A431A605A680240F7
:1015D0005A601A680E4802401A601A680D480240A4
:1015E0001A605A680C4802400F205A60DA6A824337
:1015F000DA621A6B094802401A635A6B8A435A63CB
:1016000000229A607047C046001002400CB8FF08E4
:10161000FFFFF6FEFFFFFBFFFFFFC0FFECFEFFFF3B
:101620000200431C06D000200856431C02D0824210
:1016300001D1886870470C31F5E70023421C06D1C0
:1016400018007047984201D14B68F9E70C3100232C
:10165000CB565A1CF6D10023F2E770B50C241025A6
:10166000A8B2013C00F008FB6D00002CF8D170BD61
:1016700010B5042000F000FB082000F0FDFA10BDBA
:1016800010B5012000F0F8FA022000F0F5FA10BDC4
:10169000024A1368013313607047C046B805002042
:1016A0007FB50023042810D81B4B80215A6900F015
:1016B0008BFD030F18212A0089020A435A615B69D6
:1016C0000B400193019B9023DB05180007B000BD80
:1016D000C9020A435A615B690B400293029B0F4B9C
:1016E000F3E709030A435A615B690B400393039BC9
:1016F0000B4BEAE749030A435A615B690B400493C9
:10170000049B084BE1E7C9030A435A615B690B403C
:101710000593059B044BD8E70010024000040048E5
:1017200000080048000C004800140048F0B5040010
:1017300089B0002800D14AE188208925A749205690
:10174000FFF77BFF65570600A5492800FFF775FFE7
:10175000002800D13BE1002E00D138E13300864261
:1017600000D000232360002B00D130E19D4A9E4E23
:10177000934215D18022F368D2011343F360F368DA
:101780009A490B40F360B3691343B361B3691340E3
:101790000293029B2300002274331A701B329A7545
:1017A0000F2728093840FFF77BFF892500906557F0
:1017B0008B492800FFF734FF01233D40AB40102246
:1017C000039343001340093A024013430493032355
:1017D000032206930309134005937F23000A184050
:1017E00003A907902500009800F064FA00208835CE
:1017F000285600093840FFF753FF00902D787749AD
:101800006DB22800FFF70CFF01233D40AB401022D2
:10181000039343001340093A024013430493032304
:10182000032206930309134005937F23000A1840FF
:10183000079003A9009800F03DFA230074331B7849
:101840006B49221D9B005A50D06F0432D76F0C2277
:10185000A2610022E26122622200E36F2568A16F8B
:101860006D326560A1600193E36020616761009261
:101870001278D2B2002A04D16C239C46A444634659
:101880001A702422009B1A7001232A689A43019B34
:101890002A603B430C272A683B43564F3A40134388
:1018A0002B606B68544A1340184368600320AB6890
:1018B000524A1340626A1343AB60336B504A034091
:1018C000D05C082800D982E000F07EFC0581108100
:1018D00013818181830073685B055B0FD318494ACC
:1018E0001B791068D8404B08C01808E04808464BE0
:1018F000FAE700F08FF9A368A1685B08181800F0F8
:101900006DFC80B2E860A26A6368002A49D0D10702
:1019100005D559683D480140E06A01435960910787
:1019200005D559683A480140206B01435960510779
:1019300005D5596837480140606B0143596011076C
:1019400005D5596834480140A06B01435960D10660
:1019500005D5996831480140E06B014399609106D3
:1019600005D599682E480140206C014399605106C5
:101970000FD559682B4D606C294001435960802177
:101980004903884205D1596827480140A06C0143AA
:101990005960120605D55A6824490A40E16C0A4389
:1019A0005A605A6822490A4008215A609A688A4354
:1019B0009A60012219680A431A60002320220099C4
:1019C00023670A7021006C346E310A70237009B0ED
:1019D000F0BD802348081B0286E7C046D0350008CA
:1019E000E83500080038014000100240FFBFFFFF4B
:1019F000F0010020F369FFFFFFCFFFFFFFF4FFFFBF
:101A000030350008A800002000127A00FFFFFDFF1B
:101A1000FFFFFEFFFFFFFBFFFF7FFFFFFFEFFFFF6B
:101A2000FFDFFFFFFFFFEFFFFFFF9FFFFFFFF7FF5E
:101A3000FFF7FFFFF0B50F270400000987B038401B
:101A40000E001500FFF72CFE01233C40A34001933C
:101A5000032301A904930296039500F02BF907B024
:101A6000F0BD0F22030913409B0002405858012388
:101A7000D04018407047010070B56A310A78036899
:101A8000222A33D1020080245C3215889A8C6401AA
:101A90002A408568436DA5420FD10469002C0CD102
:101AA0001A800233436502005A321388013B9BB20D
:101AB0001380002B05D000201DE05C1C44651A70CB
:101AC000F1E702680F4D14682C40146094682335C8
:101AD000FF35AC43946020220A700B499A008C5861
:101AE000A04209D00133082BF8D1E4E708220220F4
:101AF00099690A439A6170BD044B9B189A6F986D5F
:101B00009047D8E7DFFEFFFFF001002054020020DD
:101B10000222036810B51969040011420DD0D9687A
:101B200011420AD0053A1A61043202779B699B0779
:101B300001D1FFF715FD00232377042223681969DB
:101B4000114210D0D96811420DD0093A1A610732FA
:101B500022779A69C0239B001A4202D12000FFF726
:101B6000FFFC0023237708222368196911420ED055
:101B7000D96811420BD0113A1A610D322277DB6914
:101B80009B0702D12000FFF7EBFC002323771022F4
:101B900023681969114210D0D96811420DD0213A39
:101BA0001A6119322277DA69C0239B001A4202D1E6
:101BB0002000FFF7D5FC0023237701222368196951
:101BC000114209D0D968114206D0033A201F1A6188
:101BD000836C002B00D0984780222368196911423A
:101BE00005D0D968114202D0023AFF3A1A61402268
:101BF0001969114204D0D968114201D0813A1A61A1
:101C000020221969114204D0D968114201D0413A09
:101C10001A6110BD70B5144C88B004AD10222100BB
:101C2000280001F033FA210010221031684601F03B
:101C30002DFA0C220D4E73681A40082A11D10F207C
:101C4000990C01406C5C6946F26A0240895CDB03D6
:101C500005D5074800F0C2FA604308B070BD0548DA
:101C6000FAE70348F9E7C0463C3500080010024097
:101C700000127A0000093D000C4B10B55A69104261
:101C800012D058610023012803D001334008DBB291
:101C9000F9E718225343064A181D80188168002965
:101CA00002D0D2181369984710BDC0460004014005
:101CB000EC020020F0B50B6887B00293002301917D
:101CC000029ADA4001D107B0F0BD01229A40039296
:101CD0000399029A0A40009200D18CE0019A1021E7
:101CE000526816008E43022E0ED107251D40AD000E
:101CF0000139A940DC08A4000419276A8F4301991F
:101D00000969A9400F43276203245F00BC40E443F4
:101D10000568013E2540AC4603251540BD4061469F
:101D20000D430560012E0FD801998668CD682640C5
:101D3000BD40354385604668039915098E430121EE
:101D40000D409D4035434560C56801992C408D6824
:101D50008021BD4049052C43C4600A424BD001217B
:101D6000264C0326A5691E400D43A561A4699D0864
:101D70000C400594059C0F242149AD00B6006D1858
:101D8000B4409021AF68C905A743002488420CD015
:101D90001C490134884208D01B490134884204D0D0
:101DA0001A490334884200D1023CB44000993C43B4
:101DB0000E00AC60164CCD4327683E43D10301D4DE
:101DC0003E002E4026606768009E3E43910301D48A
:101DD0003E002E406660A768009E3E43D10201D4BB
:101DE0003E002E40A660E668009F3743920201D471
:101DF0002E403700E760013362E7C0460010024022
:101E0000000001400004004800080048000C0048A1
:101E10000004014070B58901002812DB8308134AD1
:101E200003249B009B18FF222040A0401400C025E3
:101E3000844011408140AD005E59A6433143595161
:101E400070BD03240F23C0B203402040A040FC34E7
:101E50002500214085408140083B054A9B089B00A6
:101E60009B18DA69AA431143D961E9E700E100E070
:101E700000ED00E0002805DB1F2318401E3B8340D7
:101E8000014A13607047C04600E100E00422036885
:101E900030B59968114201D1002030BD99681142D6
:101EA00006D09A68920703D4102299680A439A6070
:101EB000042409490D689A682242EDD00A68521B31
:101EC000022AF8D91023426C134343640123826C25
:101ED0001A4382641800E0E7B80500200321036874
:101EE00030B59A680A40012A01D0002030BD196837
:101EF000114202D1DA681204F7D505219A680A4026
:101F0000012A14D102219C682143996003210D4CC0
:101F10001960256899681142E7D02168491B022998
:101F2000F8D91023416C0B434364836C05E0102304
:101F3000426C134343640123826C1A438264012080
:101F4000D4E7C046B805002010B501F095F810BDE3
:101F500010B501F091F810BD10B501F08DF810BD6D
:101F600010B501F07FF810BD10B501F07BF810BD81
:101F7000802230B5846803005201944205D1026981
:101F8000002A02D10120014228D11A0068321578B6
:101F90000220012D22D001381070596519005831E6
:101FA00008804880802149018C421AD11969002992
:101FB00015D10F4819005C31088019000020222437
:101FC0006A31D8660C70107001221B6899680A4348
:101FD0009A609022196852000A431A6030BDFF20AF
:101FE000E8E7002CE9D119690029F8D07F20E1E762
:101FF000FF0100000100054810B5826C5468002CF8
:1020000002D03C30C27AA04710BDC0466C0500200B
:1020100070B5094D094CEB6CE3602000FEF7D0FE73
:10202000002807DAE268EB6C9B1AA2689342F4D3AB
:102030000120404270BDC0466C0500206C040020A9
:1020400070B5094D094CEB6CE3602000FEF7C9FE4A
:10205000002807DAE268EB6C9B1AA2689342F4D37B
:102060000120404270BDC0466C0500206C04002079
:10207000FA21094B10B51868890000F0AFF800F09C
:10208000C1FEC022054912060B6A00201B021B0A72
:1020900013430B6210BDC046A800002000ED00E015
:1020A00030B5050069352B7802000220202B24D1A1
:1020B0000138002921D0802390685B01984205D126
:1020C0001369002B02D10120014216D1140068349B
:1020D00023780220012B10D0D1641100012350314C
:1020E0000B804B8000232121D36629702370116857
:1020F00080220868024318000A6030BD034AD16C90
:10210000D36C5B1A8342FBD37047C0466C0500203A
:1021100070B511281FD8124D2B004C331C56631C70
:1021200019D0104920005031FFF79BFC0023984242
:102130000FD00F2122090A40042A0ED801200C409A
:10214000A0409200AA18136E1B690340581E8341D9
:10215000DBB2180070BD0023FBE71B69FFDEC04641
:102160005C3500086C05002070B50D0011281BD8E7
:102170000F4E33004C331C56631C15D00D49200004
:102180005031FFF76EFC00280ED00F2223091340B8
:102190000021042B02D89B00F318196E0123144070
:1021A000A340002D01D08B6170BD8B62FCE7C0465F
:1021B0005C3500086C0500200023C25C0133002A56
:1021C000FBD1581E7047000002B47146490849000F
:1021D000095C49008E4402BC7047C0460022430897
:1021E0008B4274D303098B425FD3030A8B4244D3DF
:1021F000030B8B4228D3030C8B420DD3FF22090221
:1022000012BA030C8B4202D31212090265D0030BDF
:102210008B4219D300E0090AC30B8B4201D3CB03D5
:10222000C01A5241830B8B4201D38B03C01A524117
:10223000430B8B4201D34B03C01A5241030B8B4219
:1022400001D30B03C01A5241C30A8B4201D3CB0204
:10225000C01A5241830A8B4201D38B02C01A5241E9
:10226000430A8B4201D34B02C01A5241030A8B42EC
:1022700001D30B02C01A5241CDD2C3098B4201D304
:10228000CB01C01A524183098B4201D38B01C01A82
:10229000524143098B4201D34B01C01A52410309F9
:1022A0008B4201D30B01C01A5241C3088B4201D3A8
:1022B000CB00C01A524183088B4201D38B00C01A55
:1022C000524143088B4201D34B00C01A5241411A7C
:1022D00000D20146524110467047FFE701B5002089
:1022E00000F0F0F802BDC0460029F7D076E770474D
:1022F00003460B437FD4002243088B4274D3030967
:102300008B425FD3030A8B4244D3030B8B4228D307
:10231000030C8B420DD3FF22090212BA030C8B422D
:1023200002D31212090265D0030B8B4219D300E0CD
:10233000090AC30B8B4201D3CB03C01A5241830B52
:102340008B4201D38B03C01A5241430B8B4201D302
:102350004B03C01A5241030B8B4201D30B03C01A2B
:102360005241C30A8B4201D3CB02C01A5241830AA5
:102370008B4201D38B02C01A5241430A8B4201D3D4
:102380004B02C01A5241030A8B4201D30B02C01AFE
:102390005241CDD2C3098B4201D3CB01C01A524165
:1023A00083098B4201D38B01C01A524143098B42EE
:1023B00001D34B01C01A524103098B4201D30B01D7
:1023C000C01A5241C3088B4201D3CB00C01A5241FC
:1023D00083088B4201D38B00C01A524143088B42C1
:1023E00001D34B00C01A5241411A00D2014652415A
:1023F000104670475DE0CA0F00D04942031000D379
:102400004042534000229C4603098B422DD3030ACD
:102410008B4212D3FC22890112BA030A8B420CD3DD
:10242000890192118B4208D3890192118B4204D306
:1024300089013AD0921100E08909C3098B4201D386
:10244000CB01C01A524183098B4201D38B01C01AC0
:10245000524143098B4201D34B01C01A5241030937
:102460008B4201D30B01C01A5241C3088B4201D3E6
:10247000CB00C01A524183088B4201D38B00C01A93
:102480005241D9D243088B4201D34B00C01A52416A
:10249000411A00D20146634652415B10104601D3F7
:1024A0004042002B00D54942704763465B1000D381
:1024B000404201B5002000F005F802BD0029F8D027
:1024C00016E770477047C046F0B5012187B00C2071
:1024D000FEF776FD01210720FEF772FD012106209F
:1024E000FEF76EFD00210D20FEF76AFD002107209A
:1024F000FFF73AFE02210A20FEF762FD02210B20BF
:10250000FEF75EFDB04CE122230025000026FC33DF
:102510005202AE48FF351A61DE619E615E61FFF7CF
:1025200005F96B7AAA4F9B00DA5911006A326931BA
:10253000097812780A43222A19D01F20A549A64AF1
:102540009950A64AA149995028563100FFF762FCDC
:102550001F202856FFF78EFC6B7A9B00D85903008A
:102560006A331B78202B02D19D49FFF701FD02231E
:102570002000A360FEF71BFC08200021FEF720FDD1
:10258000984C994BE0684360072302891343038109
:102590000368DB689847002801D0FFF7AFFD0026ED
:1025A000FA21924F924B934D3B65934B3E701868C6
:1025B0007E60BD608900FFF711FE0123BB613B0017
:1025C00080B28008FD6038617E61FE613E62493301
:1025D0001B78DBB2B3421DD13A0080204832137021
:1025E000864A800291690143916193693A000340F0
:1025F0000593059B824B0C322800DA63FEF7BCFF83
:102600000F2140B2FFF706FCF868FEF7B5FF40B2B5
:10261000FFF730FC3B00022249331A707949FB680E
:102620001A688B4202D07848834208D170208243D6
:10263000786902438B420AD07348834207D07348BB
:10264000834204D0AB4202D07148834203D1714827
:102650000240F869024380208243786A02431A608C
:10266000BA69DA623A699A628B4204D0AB4202D00C
:10267000674A934201D13A6A1A633A000125493206
:102680005D611570DA6806212A43DA601A682A4308
:102690001A60614B1868FFF727FEFA2089008D4009
:1026A00080007D60FFF72AFD0C225C4B1A60FDF76D
:1026B00083FE7866FDF738FE002818D0012843D045
:1026C00000233A0019006832995004331C2BFBD1C7
:1026D00001210C20FFF748FD002528000135662D5B
:1026E00053D0FDF79BFD0420FFF708FDF5E702231B
:1026F0007A6E4B494B485D1F012D20D90D005D437B
:10270000AA421CD905005D43AA4218D8DBB23800A2
:102710000022454D683051595943115004321C2A4A
:10272000F9D1002BD4D10125322420007D60FFF7A0
:10273000E5FCFDF7D1FD2000FFF7E0FCF5E70133F4
:10274000082BD8D10023E2E702237A6E37493848B4
:102750005D1F012D14D90D005D43AA4210D905005B
:102760005D43AA420CD8DBB23D0000222E486835FA
:102770001C3011585943515104321C2AF9D1D0E769
:102780000133082BE4D10023EEE7FDF7A5FD03217B
:10279000284B294A2848916053609C225200C2600D
:1027A000254D26482861264D1D60264D1D60264D6D
:1027B00059609A602968DA68002A47D11A6982420A
:1027C00000D10AE1186145E06C04002000050020FA
:1027D000F0010020CD0E0008CC020020AC02002049
:1027E00075050020A80500207502000830010020B2
:1027F0003501000800440140A800002000100240FC
:1028000054020020002C0140000400400020004041
:1028100000480140FFFCFFFFFC3F000808000020CB
:10282000AC0D00009A100000E8340008680B0000AE
:10283000420E000000300040B0010020FF0F0000F9
:10284000CCCC000055550000B80500202A68521A6B
:10285000272AB0D901210720FFF786FC01232A6827
:10286000BC493B704A610193BA4BBB4A5B68E06864
:102870001A60036802259B69984786B2E068217850
:102880000368DB699847C3B20293A37A2B4200D155
:10289000A6E06388E068F31A9BB2039303681B68A1
:1028A0009847039B834200DAA2E0A37AAB43A3726A
:1028B000E37A022B00D1D4E0E06803899B0719D0AA
:1028C00003689B689847A37A7F2B05D9A388F31ADE
:1028D0009BB2834200DB89E1E06803689B6898470C
:1028E0000821A27A0A4205D0A388F31A9BB2834238
:1028F00000DB83E10425E06803892B420BD0A37A37
:10290000019A02991A40914205D02B4203D020220D
:10291000134200D175E1E06803891B0717D5A27A3D
:10292000019B02991340994211D053070FD54021C2
:1029300003680A4200D198E025895B69751BADB236
:102940009847854203DB0520FFF754FB2681E37A95
:10295000029A93424CD06B461B7AA27AE372029998
:10296000019B1340994206D0042300201343E680C4
:10297000A372FFF73FFBA37A019A02991A40914292
:1029800036D1E0680289920700D04DE1A27A930621
:1029900004D5E3681989019B490615D4530604D56B
:1029A000E3681989019B09060ED4130704D5E3686F
:1029B0001989019BC90607D40023D10604D5E36811
:1029C00001991B895B090B4074218A43A272002B79
:1029D0000ED10198FFF70EFB0AE05F4A1A6039E753
:1029E000E27A02998A4200D162E71D43A5726680AD
:1029F000584E019AB369594D134202D12B68B26106
:102A0000F3612B68F2699B1A052B10D92B687A6E3B
:102A1000F36161235A430292FDF7CEFC03000320C9
:102A20005843029B6421C018FFF7D8FB78663B78B7
:102A3000022B5CD0032B00D1ABE0012B00D019E1BD
:102A400072692B689B1AFA22D200934200D811E1D6
:102A500001990620FFF788FB02233B702B68736106
:102A600008E16B461B7AE372C2E7E5881B69751BB8
:102A7000ADB29847854200DA69E74022A37A134352
:102A8000A37260E7E06803899B0705D5A37A1A075C
:102A900012D410229343A372A37A0822D90600D538
:102AA000CFE01A43A272E268A6801289D2051AD535
:102AB000782252421343C5E00368A5889B68984773
:102AC000751BADB2A37A8542E3DA5AB2002A02DA64
:102AD0007F221340A3721023A27A03201343A37210
:102AE000FFF788FAD8E70220FFF784FA4EE7326A48
:102AF0002B689B1AFA22D200934200D8B4E0726A83
:102B00002B6802929A4205D02B689B1A144A934272
:102B100000D899E0FDF717FC092800D894E0029B43
:102B20002A68D21A0F4B9A4200D89DE0019B0028D8
:102B30000EDB062364215843FFF7DAFB031CC0B207
:102B4000052800D90523DBB2019A9B009A401300A7
:102B50007B6089E0B0010020AAAA0000B80500202F
:102B6000B70B0000B80B000009280FDCFA21286819
:102B70008900FFF7B9FB414B994273D82868C821F7
:102B8000FFF7B2FB63296DD80423E1E7FDF746FBAD
:102B90006AE03B4B28685B693A49C01A0293FFF729
:102BA000A3FB08006421FFF719FBC1B2052804D874
:102BB0000B1C052907D9052305E00A22521A131C0C
:102BC000D2B2052AF7D80422DBB29B009A407A6081
:102BD0002B68B26A9A4205D3029B2A68D21A2A4B02
:102BE0009A4247D9FDF790FB042336E70220FFF70E
:102BF00001FA7F22A37A1340A3726DE68A43A27280
:102C000078E6E388F31A9BB203930368DB6898477E
:102C1000039B834200DA7EE62022A37A2800134336
:102C2000A372FFF7E7F976E65A0709D5E588036846
:102C3000751B5B68ADB29847854200DA22E7A37A3C
:102C400008229343A372A1E6FDF77DFB00288BDAEF
:102C5000FA2128688900FFF747FBF423FF3364203B
:102C6000994293D9FDF738FBFDF76DFB032300284C
:102C700000D1F2E6FEF7CAF8F6E5C04657020000BA
:102C8000B00100204C04000010270000102370B594
:102C9000514D524C2A6813432B60FFF7E9F90C2180
:102CA00062682B000A4206D062680A40082A3CD1BA
:102CB0006268D20339D42268F82122688A4311005D
:102CC00078220A430C21226062680A40082A3AD01E
:102CD00080202268424980040A402260414A1568E7
:102CE0002168014230D10F20E16A8143E1626168CD
:102CF0003D480840A021890301436160802120688C
:102D00004904014380202160156880042168014244
:102D10001FD001201968014220D0F0206168814352
:102D200061602168890121D4FEE701220220216827
:102D30000A432C4922600D6822680242BCD10A680D
:102D4000521B022AF8D9FEE71168491B0229C7D98C
:102D5000F9E71168491B0229D8D9F4E719688143BA
:102D60000143196019680142DED0D6E7032061688B
:102D70001E4E81430800022101430C20616015684A
:102D800061680140082922D11B68194A6368134011
:102D90006360FEF73FFF6368164A1B061B0FD35C98
:102DA000154CD8402060FFF763F9FA2120688900AC
:102DB000FFF714FA00F026F80423104A11680B43B9
:102DC00013600F4A136A1B021B0A136270BD11685D
:102DD000491BB142D4D9A7E70020024000100240AD
:102DE000FFFFFFFEB8050020FFFFC2FF88130000B1
:102DF000FFF8FFFF20350008A800002010E000E0E9
:102E000000ED00E0094A431E012093420DD8C02185
:102E1000074A08485360036A09061B021B0A0B4352
:102E2000036200200723906013607047FFFFFF00DC
:102E300010E000E000ED00E04E4B0521180070B5F9
:102E400030301970197601310170180000240830F3
:102E5000C4671800484A1D008C30026018004835CD
:102E6000297090300131017018009C300460180006
:102E7000A43002601800A83001701800B43004605B
:102E80001800BC3002601800C03001701800CC304F
:102E900004601800D43002601800D83001701D00A2
:102EA00018006035E430297004601D001800783582
:102EB000EC30297002601D001800FF35F030DC6036
:102EC0005A615C62DA62DC635A645C65DA65DC660E
:102ED0005A6701706972902518006D0059551835B0
:102EE000595518355955183559557631FC30FF313B
:102EF00004608260846102620463826384640265A8
:102F00000466826684675A5020001C4A1C4900F0FF
:102F100068F8FA221B4B92009A601B4A0A201100A3
:102F2000083119601900FF31887701384877180097
:102F30001900FC3011315C60416219005133C362E9
:102F4000124B28321A631A003032FE319A641A008A
:102F5000CC840C85CC850C860D213C3211700B394C
:102F6000DC875C631C875B1854709472D172DC87B9
:102F700070BDC046EC0200200000111000000020CF
:102F8000BD1400086C0400205C3500086C050020AE
:102F90000D4885460D480E490E4A002302E0D458DC
:102FA000C4500433C4188C42F9D30B4A0B4C002391
:102FB00001E013600432A242FBD3FEF701FB00F0F4
:102FC00025F8FFF781FAFEE700100020000000203E
:102FD0001001002088360008100100207C06002027
:102FE000FEE70B0010B50100180000F001F810BD5D
:102FF00070B5054C05001300201E04D00A00022005
:10300000290000E000BF70BD0000000070B5002680
:103010000C4D0D4C641BA410A64209D1002600F0F3
:103020002FFA0A4D0A4C641BA410A64205D170BDAC
:10303000B300EB5898470136EEE7B300EB589847DA
:103040000136F2E76836000868360008683600087E
:103050008436000803008218934200D1704719702B
:103060000133F9E710B5034B0100186800F062F86E
:1030700010BDC046AC00002010B5034B010018681D
:1030800000F00EF810BDC046AC000020002310B5C3
:103090009A4200D110BDCC5CC4540133F8E7000063
:1030A00070B50500002910D00C1F2368002B00DA32
:1030B000E418280000F0AEF81D4A1368002B05D173
:1030C00063601460280000F0A6F870BDA34209D91F
:1030D000216860188342F3D118685B684118216049
:1030E000EEE713005A68002A01D0A242F9D9196804
:1030F0005818A0420BD1206809185818196082424C
:10310000E0D110685268411819605A60DAE7A042AD
:1031100002D90C232B60D5E721686018824203D1C5
:10312000106852684118216062605C60CAE7C0465E
:10313000D0050020032370B5CD1C9D430835060043
:103140000C2D1ED20C25A9421DD8300000F062F8CB
:10315000254A14682100002919D1244C2368002B2A
:1031600003D1300000F044F820602900300000F066
:103170003FF8431C2CD10C233000336000F04BF897
:1031800003E0002DDFDA0C233360002070BD0B68F4
:103190005B1B1AD40B2B03D90B60CC18256003E002
:1031A0008C420ED163681360300000F034F82000C8
:1031B00007220B30231D9043C31AE7D05A42E25036
:1031C000E4E74B6863600C00EEE70C004968C2E777
:1031D0000323C41C9C43A042E0D0211A300000F01D
:1031E00007F8431CDAD1C6E7D0050020D40500203B
:1031F000002370B5064C050008002360FEF72CF88C
:10320000431C03D12368002B00D02B6070BDC04647
:1032100078060020704770470123214A116819423F
:1032200000D113601F4A1168194200D113600123B5
:103230001D4A1168194200D113601C4A11681942D5
:1032400000D1136001231A4A1168194200D113609A
:10325000184A1168194200D113600123164A1168F7
:10326000194200D11360154A1168194200D1136048
:103270000123134A1168194200D11360114A1168E1
:10328000194200D1136001230F4A1168194200D17D
:1032900013600E4A1168194200D113607047C0468E
:1032A0000406002000060020FC050020F805002090
:1032B000F4050020F0050020EC050020E8050020C2
:1032C000E4050020E0050020DC050020D8050020F2
:1032D0000123214A1168194200D113601F4A116865
:1032E000194200D1136001231D4A1168194200D10F
:1032F00013601C4A1168194200D1136001231A4A55
:103300001168194200D11360184A1168194200D19E
:1033100013600123164A1168194200D11360154A3F
:103320001168194200D113600123134A1168194230
:1033300000D11360114A1168194200D113600123B2
:103340000F4A1168194200D113600E4A11681942E0
:1033500000D113607047C0463406002030060020BC
:103360002C0600202806002024060020200600202D
:103370001C0600201806002014060020100600205D
:103380000C060020080600200123164A1168194285
:1033900000D11360144A1168194200D1136001234F
:1033A000124A1168194200D11360114A116819427A
:1033B00000D1136001230F4A1168194200D1136034
:1033C0000D4A1168194200D1136001230B4A11689C
:1033D000194200D113600A4A1168194200D11360E2
:1033E0007047C04654060020500600204C060020BE
:1033F0004806002044060020400600203C0600202D
:10340000380600200123164A1168194200D11360C2
:10341000144A1168194200D113600123124A11683D
:10342000194200D11360114A1168194200D113608A
:1034300001230F4A1168194200D113600D4A116827
:10344000194200D1136001230B4A1168194200D1BF
:1034500013600A4A1168194200D113607047C046D0
:1034600074060020700600206C060020680600200C
:1034700064060020600600205C060020580600203C
:10348000F8B5C046F8BC08BC9E467047F8B5C046C3
:08349000F8BC08BC9E46704721
:10349800010003050402030200010000040000000B
:1034A8000024014003000200050000000024014040
:1034B8000380020011000000002401400380040082
:1034C800FF000000000000000000000001020304EB
:1034D80005060708090A0B0C0D0E0F101100000055
:1034E800AC0D0000420E0000740E0000A60E000095
:1034F800F10E00006E0F000068100000680B00005D
:10350800440C0000800C0000940C0000A80C000083
:10351800BC0C0000100E00000000000000000000BD
:10352800010203040607080900040802000000005D
:103538000102030402030405060708090A0B0C0D1F
:103548000E0F10100102030405060708090A0B0CE8
:103558000D0E0F100000000000000000350E0008DE
:10356800690D0008FD0D0008C10D0008E30D0008F5
:10357800AF0D000800000000000000003101000845
:10358800210100082B010008250100082501000879
:10359800210100082B0E0008290F0008250E00083D
:1035A8000001020304050607090A0D0E4041110433
:1035B8000511000000000048000400480008004809
:1035C800000C0048001400480900000000380140C1
:1035D80012010000FF0000000000000000000000D1
:1035E8000A0000000038014012010000FF0000003E
:1035F800000000000000000023232320000D0A0023
:1036080000000000000000000000000000000000B2
:1036180000000000000000000000000000000000A2
:103628000000000000000000000000000000000092
:103638000000000000000000000000000000000082
:103648000000000000000000000000000000000072
:103658000000000000000000000000000000000062
:103668008D2C0008E9000008392E000819320008DE
:0C367800D1320008893300080534000836
:04368400C100000879
:1036880000000000FF0000000A0000000000000029
:103698000000000000000000000000000000000022
:1036A8000000000000000000000000000000000012
:1036B8000000000000000000000000000000000002
:1036C80000000000000000000000000000000000F2
:1036D80000000000000000000000000000000000E2
:1036E80000000000000000000000000000000000D2
:1036F80000000000000000000000000000000000C2
:1037080008000000000000000000000000000000A9
:1037180000000000000000000000000000000000A1
:10372800000000000000000000127A00B000002035
:10373800000000002836000848360008083600084F
:103748000000000000000000000000000000000071
:103758000000000000000000000000000000000061
:103768000000000000000000000000000000000051
:103778000000000000000000000000000000000041
:103788000000000000000000000000000000000031
:043FFC0001000000C0
:0400000508002F912F
:00000001FF
