:020000040800F2
:1000000000100020F52200084523000845230008C1
:1000100000000000000000000000000000000000E0
:100020000000000000000000000000004523000860
:10003000000000000000000045230008DB0100086C
:100040004523000800000000452300084523000860
:100050004523000827170008171700080117000894
:100060000000000045230008452300084523000840
:10007000452300082901000845230008000000006E
:100080002701000800000000000000002501000812
:10009000000000002301000821010008452300089A
:1000A0000000000045230008000000004F13000876
:1000B0000000000000000000000000000000000040
:1000C00010B5064C2378002B07D1054B002B02D02E
:1000D000044800E000BF0123237010BD1001002080
:1000E00000000000CC340008084B10B5002B03D0F2
:1000F0000749084800E000BF07480368002B00D10B
:1001000010BD064B002BFBD09847F9E7000000001C
:1001100014010020CC340008100100200000000071
:1001200070477047704770477047836C10B5021F67
:10013000002B05D0017F012902D100211000984732
:1001400010BD0121104B11481A680A431A605A6801
:1001500002405A601A680E4802401A601A680D4838
:1001600002401A605A680C4802400F205A60DA6A4E
:100170008243DA621A6B094802401A635A6B8A4357
:100180005A6300229A607047001002400CB8FF08C2
:10019000FFFFF6FEFFFFFBFFFFFFC0FFECFEFFFFD0
:1001A0000200431C06D000200856431C02D08242A5
:1001B00001D1886870470C31F5E70023421C06D155
:1001C00018007047984201D14B68F9E70C310023C1
:1001D000CB565A1CF6D10023F2E7024A13680133CA
:1001E00013607047A80400207FB50023042810D8AE
:1001F0001B4B80215A6901F0BBFA030F18212A001A
:1002000089020A435A615B690B400193019B902369
:10021000DB05180007B000BDC9020A435A615B69DB
:100220000B400293029B0F4BF3E709030A435A6109
:100230005B690B400393039B0B4BEAE749030A43BB
:100240005A615B690B400493049B084BE1E7C903C7
:100250000A435A615B690B400593059B044BD8E741
:10026000001002400004004800080048000C00484C
:1002700000140048F0B5040089B0002812D088208E
:100280008925AB492056FFF798FF65570600A94915
:100290002800FFF792FF002801D0002E04D1A648C5
:1002A00002F05EFB09B0F0BD3300864200D00023AF
:1002B0002360002B01D1A148F2E7A14AA14E93424D
:1002C00015D18022F368D2011343F360F3689E498D
:1002D0000B40F360B3691343B361B36913400293F6
:1002E000029B2300002274331A701B329A750F2769
:1002F00028093840FFF778FF8925009065578D4918
:100300002800FFF74DFF01233D40AB40102203932F
:1003100043001340093A024013430493032303228A
:1003200006930309134005937F23000A184003A98D
:1003300007902500009800F0FFFD00208835285622
:1003400000093840FFF750FF00902D7878496DB2D2
:100350002800FFF725FF01233D40AB401022039307
:1003600043001340093A024013430493032303223A
:1003700006930309134005937F23000A1840079052
:1003800003A9009800F0D8FD230074331B786F494F
:10039000221D9B005A50D06F0432D76F0C22A261ED
:1003A0000022E26122622200E36F2568A16F6D32B4
:1003B0006560A1600193E36020616761009212783B
:1003C000D2B2002A04D16C239C46A44463461A701E
:1003D0002422009B1A7001232A689A43019B2A60F9
:1003E0003B430C272A683B43594F3A4013432B6049
:1003F0006B68584A1340184368600320AB68564A3C
:100400001340626A1343AB60336B544A0340D05CC1
:10041000082800D946E701F041FA090045FF140019
:1004200045FF170045FF45FF45FF860073685B05E4
:100430005B0FD3184A4A1B791068D8404B08C01884
:1004400008E04808474BFAE700F026FDA368A168DA
:100450005B08181801F096F980B2E860A26A636838
:10046000002A49D0D10705D559683F480140E06AC4
:1004700001435960910705D559683C480140206BFC
:1004800001435960510705D5596839480140606BEF
:1004900001435960110705D5596836480140A06BE2
:1004A00001435960D10605D5996833480140E06B96
:1004B00001439960910605D5996830480140206C48
:1004C0000143996051060FD559682D4D606C294044
:1004D0000143596080214903884205D15968294860
:1004E0000140A06C01435960120605D55A6826499F
:1004F0000A40E16C0A435A605A6824490A400821BC
:100500005A609A688A439A60012219680A431A60FD
:1005100000232022009923670A7021006C346E3179
:100520000A702370BEE6802348081B0287E7C04696
:10053000D0350008E8350008223600085236000899
:100540000038014000100240FFBFFFFF40010020C3
:10055000F369FFFFFFCFFFFFFFF4FFFF1C3500082B
:10056000A800002000127A00FFFFFDFFFFFFFEFF42
:10057000FFFFFBFFFF7FFFFFFFEFFFFFFFDFFFFF3F
:10058000FFFFEFFFFFFF9FFFFFFFF7FFFFF7FFFFFB
:10059000F0B50F270400000987B038400E001500A1
:1005A000FFF722FE01233C40A3400193032301A94E
:1005B00004930296039500F0BFFC07B0F0BDF0B5C0
:1005C00095B003910F2800D9DAE0724B1D566B1CD1
:1005D00000D1D5E00F222B0913406F4F9B00FF186D
:1005E00002933B682A40D3400192DB070BD50023DE
:1005F0006A4E0C369A57511C0ED10123019A934032
:100600003A689A433A60039B032B00D9AFE0180085
:1006100001F0AEF8A8BDB8BB0C339542EAD1310069
:100620002800FFF7CAFD041EE7D031002800FFF7BD
:10063000B7FD0303DB0E023B022B45D8574E603655
:10064000F35C002B07D0042B05D0082B03D00C2B18
:1006500001D0182BD1D1524A524EC10236D50420B6
:100660009840216A81432162236A2362236A1342EC
:1006700007D1216A4C4B194203D1636C4B490B40A3
:100680006364236A134207D1216A474B194203D19D
:10069000012123688B4323603D2104ABC918022349
:1006A0000B70236A134207D1226A3F4B1A4203D1CF
:1006B0000122236893432360B44232D13C4A3D482F
:1006C00093690340936134E00023C4E7012098401C
:1006D000216A81432162236A2362B44205D0364BEA
:1006E0009C4202D0354B9C420AD1236A134207D167
:1006F000216A2D4B194203D1636C2C490B40636472
:10070000236A134207D1216A274B194203D10121E1
:1007100023688B4323603D23012104A81B18197013
:10072000BAE7274B9C4207D10220214AD369834371
:10073000D36100230B7060E7224B9C4204D11C4A1A
:100740002148D3690340F3E71B4B9C4203D1184A6D
:100750001E489369B5E7194B9C42EAD1144A1C48DC
:100760009369AEE7002211002800FFF711FF029AFB
:10077000184B0199D31801228A4019680A431A605C
:1007800015B0F0BD01220021EEE70222FBE70022B6
:100790000121E9E700360008A00100201C3500080F
:1007A00011110000002C014044040000FF7FFFFFF6
:1007B00000100240FFF7FFFF0044014000480140E5
:1007C0000004004000200040FFFEFFFFFFFFFDFF90
:1007D000FFFFFBFF2C0100200120704716220120A3
:1007E000014B40421A60704778050020FEE7F0B5E3
:1007F0006E4B85B01B680C0009206D490292039373
:10080000FFF7DBFC002800D1B1E00023694E99001E
:100810007158DAB2002902D0096888422AD001331F
:10082000082BF4D1644D2B0074331B78072B1FD990
:10083000624B5EE090425BD11B785BB22A0089324A
:1008400013702B0009218833197096232A009B010D
:10085000AB6700230832D36728002A1DEB67D367F4
:10086000FFF708FD2B0074331B78072B00D97EE0BF
:1008700074352A789200B358190069310A78202A11
:100880006DD1002C6BD06A461289002A67D0802077
:100890009E684001864204D11869002801D1E00712
:1008A0005DD4180068300578012D58D001250570F9
:1008B0000020D866213008703C4909680191190070
:1008C00050310A804A802100180052300288002AE4
:1008D00015D140251A68354ED16929404ED01A00ED
:1008E0002021693211700022683302981A703FE0AB
:1008F0000C335A68002A9DD101235B429EE702888F
:10090000013A92B2028029481A6884468025D0694B
:1009100028400CD08020400186422BD11869002845
:1009200028D108880231C005C00D1085CCE7654686
:10093000019F2D68ED1BFA27BF00BD42E6D9116863
:100940001F4D294011609168A335FF35A94391607F
:100950001A002021693211705170013A1070134A47
:1009600003991268521A17498A4200D884E7002076
:1009700005B0F0BD087801311085A5E7019F30680A
:10098000C01BFA27BF00B842A6D910680C4D2840FA
:1009900010609068A335FF35A84390601A002020AE
:1009A000693210705070013A1170D8E7A804002025
:1009B000D0350008400100200C000020E835000878
:1009C0005FFEFFFFE7030000002070470020704734
:1009D0000120704780239B0100204B60704701205D
:1009E00040427047094B02005969002901D108496A
:1009F00059616946586982188A4205D90C2201203A
:100A0000044B40421A6070475A61FCE7A001002085
:100A10008005002078050020F7B506000D000C00C9
:100A20008B180193019B671B9C4207D03368217888
:100A30001B683000984701340028F3D13800FEBD10
:100A400002003F219A321388983001330B40138003
:100A500013880088C01A4342584140427047037CC3
:100A6000002B04D0FE30C28D038E9A42FCD1704719
:100A70000200FE32D18C138D994207D0FC30416ABE
:100A8000C85C3F2101330B40138570470120404271
:100A9000FBE70300FE33DA8C1B8D9A4203D0FC3057
:100AA000426AD05C704701204042FBE7FE30C38CB5
:100AB000008D4033181A3F2318407047054B10B57E
:100AC000002B06D00448FFF7F1FF002801D000E01A
:100AD00000BF10BD0000000078030020F8B5020040
:100AE00001233F250374FE320400D08DC3182B4030
:100AF000158EAB42FCD025002600FC35ED6A093688
:100B00002954FF36D3853378194D9B005A5921005B
:100B100010006A3269300078127894310243212A39
:100B200024D0144A1448270098500020D3181F37A7
:100B30001962FF373856002100F066FB0023FB5690
:100B4000002B06DB1F2213401E3A9A4013000B4A6B
:100B50001360230029342F33FF33FF341B882168AF
:100B6000C91833789B00E85800F09CFD0120F8BDBF
:100B700040010020B8010020410A000800E100E027
:100B800070B5041E27D0030074331B78124A9B00F3
:100B900098580300020069336A321B7811780B43BE
:100BA000222B18D02100137875310D78202B01D11C
:100BB00000F0E6FC22003F219032138801330B4005
:100BC0002100923109888B4205D08C34118820682D
:100BD0009BB24554138070BD40010020406A002341
:100BE000020010B55A321380083A138000F09AFBC5
:100BF00010BDFEE770B505000C00081E07D000F020
:100C0000AFFD2B6802005B6821002800984770BD8B
:100C1000F0B58BB06B4615000022053306000F00BF
:100C2000DA77012D00DC0A2509AC2900380000F034
:100C3000A9FD01006943791AC9B20B003733013CA1
:100C4000DBB2092901D83031CBB22370071EECD1B9
:100C500021003000FFF7CEFF0BB0F0BDF7B5070065
:100C60000D000024C31D061D019331780A222800BF
:100C7000FFF7CEFF2B6800901B682E2128009847B5
:100C8000009B0136C018019B2418B342EDD1F979BD
:100C900028000A22FFF7BCFF2018FEBD010070B536
:100CA0006A310A780368222A33D1020080245C3238
:100CB00015889A8C64012A408568436DA5420FD13E
:100CC0000469002C0CD11A800233436502005A32A9
:100CD0001388013B9BB21380002B05D000201DE040
:100CE0005C1C44651A70F1E70268104D14682C40D2
:100CF000146094682335FF35AC43946020220A7059
:100D00000B499A008C58A04209D00133082BF8D126
:100D1000E4E70822022099690A439A6170BD0549F7
:100D2000054B5058D3589847D8E7C046DFFEFFFF21
:100D300040010020800100206001002070B5060005
:100D400000F060FC00281DD120250F4B0F4CD8610E
:100D500023692B432361402322691343236100F05D
:100D600051FC2369AB43236100280BD12369103D5B
:100D70002B432361064BB6B21E8000F043FC23696F
:100D8000AB43236170BDC046B00400200020024088
:100D900000F8FF1F0222036810B519690400114210
:100DA0000DD0D96811420AD0053A1A61043202778F
:100DB0009B699B0701D1FFF7B8F900232377042231
:100DC00023681969114210D0D96811420DD0093A2F
:100DD0001A61073222779A69C0239B001A4202D116
:100DE0002000FFF7A2F9002323770822236819695E
:100DF00011420ED0D96811420BD0113A1A610D324E
:100E00002277DB699B0702D12000FFF78EF90023D0
:100E10002377102223681969114210D0D968114232
:100E20000DD0213A1A6119322277DA69C0239B006A
:100E30001A4202D12000FFF778F90023237701221C
:100E400023681969114209D0D968114206D0033AC2
:100E5000201F1A61836C002B00D0984780222368E2
:100E60001969114205D0D968114202D0023AFF3AFD
:100E70001A6140221969114204D0D968114201D087
:100E8000813A1A6120221969114204D0D9681142AD
:100E900001D0413A1A6110BD70B5144C88B004AD50
:100EA00010222100280002F05AF8210010221031EF
:100EB000684602F054F80C220D4E73681A40082A56
:100EC00011D10F20990C01406C5C6946F26A024016
:100ED000895CDB0305D5074800F054FC604308B08B
:100EE00070BD0548FAE70348F9E7C0468F350008AA
:100EF0000010024000127A0000093D000C4B10B5B2
:100F00005A69104212D058610023012803D00133DE
:100F10004008DBB2F9E718225343064A181D80182F
:100F20008168002902D0D2181369984710BDC046C5
:100F300000040140F8010020F0B50B6887B002936F
:100F400000230191029ADA4001D107B0F0BD0122DD
:100F50009A4003920399029A0A40009200D18CE0D1
:100F6000019A1021526816008E43022E0ED10725D9
:100F70001D40AD000139A940DC08A4000419276A0E
:100F80008F4301990969A9400F43276203245F0039
:100F9000BC40E4430568013E2540AC4603251540AE
:100FA000BD4061460D430560012E0FD8019986684A
:100FB000CD682640BD4035438560466803991509D4
:100FC0008E4301210D409D4035434560C568019920
:100FD0002C408D688021BD4049052C43C4600A42E5
:100FE0004BD00121264C0326A5691E400D43A56167
:100FF000A4699D080C400594059C0F242149AD006F
:10100000B6006D18B4409021AF68C905A74300240D
:1010100088420CD01C490134884208D01B49013455
:10102000884204D01A490334884200D1023CB440BB
:1010300000993C430E00AC60164CCD4327683E43FC
:10104000D10301D43E002E4026606768009E3E43D7
:10105000910301D43E002E406660A768009E3E4387
:10106000D10201D43E002E40A660E668009F3743BF
:10107000920201D42E403700E760013362E7C04698
:101080000010024000000140000400480008004831
:10109000000C004800040140062270B5114CBB252D
:1010A000E3691340022B03D01135042B00D0223DFD
:1010B00000F0A8FA002813D120260B4BD861236931
:1010C00033432361402322691343236100F09AFADA
:1010D0002369B3432361002802D1E8B2FFF72EFE53
:1010E00070BDC04600200240B0040020F7B5434C5C
:1010F0000500237E0220012B2BD0013820762B689F
:1011000003423ED0AB683E4E01936B68376A834220
:1011100020D100F077FA002819D1E061FFF7BCFF79
:10112000002814D1019B32699F431023FFB213435F
:101130003361FF2F05D0334A13891F40178100F018
:1011400061FA1022336993433361002819D00023D8
:101150002376FEBD00F056FA0028F8D1E061FFF7D3
:101160009BFF0028F3D1019B32693B43DFB2102380
:1011700013433361FF2FE4D0224B1A8917431F8199
:10118000DDE72B689B0704D5287BFFF7D7FD0028F8
:10119000DDD12B685B0718D56B7B019300F032FA29
:1011A0000028D4D11027164EE0613369019A3B43E1
:1011B000336188231A431300124A538000F022FA45
:1011C0003369BB4333610028C1D12B681B07BED5EF
:1011D0002B6901932E7D00F015FA0028B7D1102756
:1011E000074DE0612B69B6B23B432B61019B1E802A
:1011F00000F008FA2B69BB432B61A8E7B00400207C
:101200000020024000F8FF1F70B58901002812DBA2
:101210008308134A03249B009B18FF222040A04010
:101220001400C025844011408140AD005E59A643A2
:101230003143595170BD03240F23C0B203402040F5
:10124000A040FC342500214085408140083B054AF0
:101250009B089B009B18DA69AA431143D961E9E70F
:1012600000E100E000ED00E00422036830B5996879
:10127000114201D1002030BD9968114206D09A6810
:10128000920703D4102299680A439A6004240949FA
:101290000D689A682242EDD00A68521B022AF8D9DA
:1012A0001023426C134343640123826C1A4382640B
:1012B0001800E0E7A80400200321036830B59A680D
:1012C0000A40012A01D0002030BD1968114202D124
:1012D000DA681204F7D505219A680A40012A14D168
:1012E00002219C682143996003210D4C19602568F7
:1012F00099681142E7D02168491B0229F8D91023C7
:10130000416C0B434364836C05E01023426C134330
:1013100043640123826C1A4382640120D4E7C046EF
:10132000A8040020036882B0DA69D20703D59B8C39
:101330009BB2019308E0DA699207F8D4DA695207A0
:10134000F5D4DA691207F2D4019B02B07047F8B500
:101350008021C0237A4A09055B00D1500F21794DC5
:101360002C682368DA691868114008D120263242B7
:1013700005D0304203D02000FFF790FCF8BD9E68F6
:1013800000297CD001210E4003D190277F003842F4
:1013900075D00A4205D0C50503D51962E56E29430B
:1013A000E16602210A4206D0002E04D01962E56EE1
:1013B00049182943E16604210A4206D0002E04D0D0
:1013C0001962E56E02392943E166110708D58106E5
:1013D00001D4002E04D008211962E36E1943E1669E
:1013E000E36E002BCAD020231A4204D0184202D048
:1013F0002000FFF753FCE26E2368120703D440225B
:101400009D68154036D01A684F4920200A401A605E
:10141000012299689143996021006A3108709968A6
:101420000018014222D099688143606E99600028BB
:101430001CD0464B841C4363E37F022B04D004235F
:101440008363FFF7CBFB99E70E2503681968A9436F
:1014500019601968056C914319601100A940C36BAC
:101460005960E2770022431CDA77EAE72000FFF7B1
:1014700059FF83E72000FFF755FFE5667EE78021EF
:101480000A422DD008422BD0220069321278212A3C
:1014900000D073E7200052300288002A07D11A6872
:1014A0008A431A60402219680A431A6066E780215D
:1014B000A5684901E26C8D420DD1216900290AD14C
:1014C00011880232C905C90D1985E2640388013B00
:1014D0009BB2038052E7511CE16412781A85F5E74C
:1014E00040210A4200D149E7084200D146E71A6884
:1014F0008A431A602300202269331A7000239A005D
:10150000AA58944203D00133082BF8D136E7104A89
:10151000DBB29B009C580F4A20009B589847431C05
:1015200000D12BE7230022009A3394321B881168E4
:101530007434C91823789B00E85800F0B3F81DE70D
:1015400000E100E040010020DFFEFFFFDD0B0008AE
:10155000D8010020B801002070B5084C200081306F
:10156000FF300500183DEB681438002B02D0032231
:10157000010098472800A542F3D170BDF801002072
:10158000802230B5846803005201944205D102697B
:10159000002A02D10120014228D11A0068321578B0
:1015A0000220012D22D001381070596519005831E0
:1015B00008804880802149018C421AD1196900298C
:1015C00015D10F4819005C31088019000020222431
:1015D0006A31D8660C70107001221B6899680A4342
:1015E0009A609022196852000A431A6030BDFF20A9
:1015F000E8E7002CE9D119690029F8D07F20E1E75C
:10160000FF010000184970B50A000124174B184E5D
:101610001D6BC868204221D12020CC68044200D034
:10162000C8601021D068084002D1D168490714D59C
:101630001020D4680021044204D05C6D02312143A3
:10164000596501000424D068204204D001205D6D5A
:101650002143284358650120D16070BD186B401BA1
:10166000B042D6D90320F8E70020024078040020D9
:1016700050C30000FA21094B10B51868890000F02A
:1016800081F800F087FDC022054912060B6A002090
:101690001B021B0A13430B6210BDC046A8000020AA
:1016A00000ED00E030B5050069352B78020002201E
:1016B000202B24D10138002921D0802390685B01A0
:1016C000984205D11369002B02D10120014216D1A5
:1016D0001400683423780220012B10D0D16411004B
:1016E000012350310B804B8000232121D3662970C8
:1016F0002370116880220868024318000A6030BD18
:1017000070B50C241025A8B2013CFFF7F7FB6D0063
:10171000002CF8D170BD10B50420FFF7EFFB0820B6
:10172000FFF7ECFB10BD10B50120FFF7E7FB02202F
:10173000FFF7E4FB10BD10B501F0FCFB10BD10B5C8
:1017400001F0F8FB10BD10B501F0F4FB10BD10B5B1
:1017500001F0E6FB10BD10B501F0E2FB10BDC04684
:101760000023C25C0133002AFBD1581E70470000E1
:1017700002B4714649084900095C49008E4402BC24
:101780007047C046002243088B4274D303098B4242
:101790005FD3030A8B4244D3030B8B4228D3030C41
:1017A0008B420DD3FF22090212BA030C8B4202D3E3
:1017B0001212090265D0030B8B4219D300E0090A0B
:1017C000C30B8B4201D3CB03C01A5241830B8B4214
:1017D00001D38B03C01A5241430B8B4201D34B03FD
:1017E000C01A5241030B8B4201D30B03C01A524162
:1017F000C30A8B4201D3CB02C01A5241830A8B42E7
:1018000001D38B02C01A5241430A8B4201D34B02CF
:10181000C01A5241030A8B4201D30B02C01A524133
:10182000CDD2C3098B4201D3CB01C01A52418309E7
:101830008B4201D38B01C01A524143098B4201D321
:101840004B01C01A524103098B4201D30B01C01A4C
:101850005241C3088B4201D3CB00C01A52418308C6
:101860008B4201D38B00C01A524143088B4201D3F3
:101870004B00C01A5241411A00D201465241104653
:101880007047FFE701B5002000F006F802BDC04632
:101890000029F7D076E770477047C04603B4714619
:1018A000490840004900095E49008E4403BC704766
:1018B000F0B50121A5B00C20FEF781FE0121072023
:1018C000FEF77DFE01210620FEF779FE00210800CB
:1018D000FEF775FE02210A20FEF771FE02210B20A1
:1018E000FEF76DFE00210820FEF769FE0123664D1C
:1018F0002A691A4201D0654A93610C23644A654CF7
:10190000136027002300E1220026FC3352026248C4
:10191000FF371A61DE619E615E61FEF7ABFC7B7A88
:101920009B00EB185A6911006A3269310978127804
:101930000A43222A21D01F20584A31005A63564AAE
:101940005A653856FFF760FC1F23FB56B34206DB8F
:101950001F2213401E3A9A401300514A136023007D
:10196000FF335B7A9B00ED18686903006A331B78CC
:10197000202B02D14B49FFF703FE4B4D4B49200072
:10198000FFF738F9E969EB69090E1B0CDBB20902B4
:10199000C91889B20A222000FFF73AF94449200009
:1019A000FFF728F980235B000293002301934C2268
:1019B000002111A800F000FD002206AB3D491120D6
:1019C000DA80FEF7FAFB1190002800D086E00023B1
:1019D0002F4A12680C2A05D00B2A00D9FCE20C21F0
:1019E0008A1AD340019AD3180193029B013B0293B8
:1019F000002BDCD1304E019B3168304A1C0A336821
:101A00005B1A9342FBD9234F2D493800FFF7F2F8B8
:101A10000A2221003800FFF7FBF825493800FFF7BC
:101A2000E9F83168274A33685B1A9342FBD9264BA1
:101A30000BAF0F9308233C75DC4011AE3475802446
:101A4000224A0B93159211932B69234219D0204AF5
:101A5000204B6A606B602969890512D4AA60AB606B
:101A6000FFF71AFB00280CD13800FFF73FFB3000CE
:101A7000FFF73CFB2B69184A13402B612B691C4371
:101A80002C61FFF71BF8FCE72C0100200014004834
:101A900004000020780300200C040020810B0008C3
:101AA00000E100E081040020002002401036000820
:101AB00016360008E4340008A8040020CF07000010
:101AC00019360008E703000004F8FF1F06F8FF1F9F
:101AD00023016745AB89EFCDFFFDFFFF8023DB05C9
:101AE00012930423169300231121C222229302335E
:101AF0001F93D94BFF321971229B1B920492002B2A
:101B00001ED12393D54B984209D18020D44A80001E
:101B1000916901439161936903400893089B0120F7
:101B2000FEF762FBCC4B0BA91A790F231A400E3B30
:101B300093400B9303230C9300230D93FFF7FCF9C1
:101B4000229BDB0600D5C4E10423119CA2681A4045
:101B500000D0BEE12298C349023B08400343032062
:101B60002293A36805910340012B00D037E221683E
:101B7000194203D1E3681B0400D430E2E368BA4998
:101B8000199E0B40E360179B77039903189BDB03B7
:101B90000B431E99481E411E8841010314980343BC
:101BA0001F43159B0393022B00D104221D9B580059
:101BB000039338431A9B08430243012B05D1002E9F
:101BC00000D072E180235B021A431B9B04998B4275
:101BD00003D01C990B4303911A43E3681F9E1343E0
:101BE000E36080235B059E4202D0731E062B07D85C
:101BF0000723616999436161616933400B43636104
:101C0000E3689A490B409A4200D056E10023032230
:101C10002393229B964F93431A00012339001343C9
:101C200011202293FEF7BCFA0003C00E01380023F6
:101C3000102805D805373818C37F112B00D9C6E600
:101C4000002221A909920A78012A00D1BFE60122C7
:101C50000A70A168490700D5A4E19A40A16A0A4325
:101C6000A2628022520596420ED0013E062E0BD96A
:101C7000072162690A40022A06D062698A436261CA
:101C8000022261690A4362611A00103A012A00D8EF
:101C900024E10122032121AB1A70119B9A680A40AA
:101CA000012A07D11968114200D0A6E1DA681204AE
:101CB00000D5A2E12299059A0320114002220A438D
:101CC0002292DA68D9688143D96080219868090630
:101CD0000143996067490C689868002800DA1AE1A6
:101CE0000321D8680A400243DA600123229A8A431A
:101CF000134322930023002121AA1170002B00D04E
:101D000065E6119CA168490700D560E601211170C4
:101D1000189A03928A4200D007E1229B564A21AECC
:101D20001A4080235B0013432293002323933370D4
:101D30001C232360A268183B16991343A36008294B
:101D400000D02AE14B4A176823680B4000D12CE1F0
:101D50008023229A9B0013432293C023E2681B0135
:101D60001A4214D1199B0393002B10D123681B072F
:101D70000DD5A3685B0700D521E10C22636893436E
:101D80006360229B3D4A1A40012313432293179B11
:101D90000393002B01D10C332360229B9B0503D5B9
:101DA000236C06AA9BB2D380012411A83470FFF7DC
:101DB0005BFA002809D111A8FFF77EFA002804D1A8
:101DC000229B2E4A13401C43229400233370002888
:101DD00000D0FCE50223229A11A813432293FFF7B7
:101DE00043FA002800D0F3E011A8FFF765FA0128B4
:101DF00000D1ECE5012322939F21119B204C5A68CE
:101E00008A435A601960DA681E490A400721DA607D
:101E10001A69920092081A615A698A435A611A6AC9
:101E200019490A401A629A6A1849D20CD2049A6275
:101E30000A6822400A60094A93422BD18022084B4B
:101E40009200D968124C0A43DA60D9682140D960FF
:101E50009A6922409A611DE004000020002401409C
:101E600000100240FDFEFFFF1902FEFFE7FF3F8367
:101E7000E4340008A8040020FEF0FFFFFEFEFFFF90
:101E8000FFFF3FFF00023E8300F000F00827014003
:101E9000FFFDFFFF002323932293984200D096E595
:101EA00006AB06331B889BB292E5202122980143A2
:101EB000229123990B43239387E61222229B93437B
:101EC0001A001023134322930123239A13432393CD
:101ED0007DE5229A10231343229378E54A49802016
:101EE0000A68102B15D0C00302430A60102B00D0E3
:101EF000CFE6464B46491868FFF744FC0A2358438F
:101F00000990099B002B00D1C3E6099B013B099373
:101F1000F7E70004E8E70868001B022800D8DBE6C2
:101F20001222229B93431A00D4E703220A93A36848
:101F30001340012B07D122681A4200D0EDE6E36876
:101F40001B0400D5E9E6A268324B1A4201D0229A5E
:101F5000B7E70123A2682E491343A3602B4B1868EF
:101F6000FFF710FC0A900A9B002B12D101202A4A8D
:101F700016682368034000D0CFE61168891B022948
:101F8000F7D91021229A11432291239A02432392D6
:101F90001EE50A9B013B0A93E5E7E3680C21DB079A
:101FA00000D4CFE6229A202395E71068C01B0A28A8
:101FB00000D8C9E6042222990A43229208E5202388
:101FC000229A134322930123239A13432393DEE699
:101FD000012800D010E7FAE40C3A934002E51821FA
:101FE000E3688B4313990B43E360236903919B00E0
:101FF00012999B080B432361C0E52023229A1343C7
:102000002293012377E6C04608270140A80000205C
:1020100040420F0017000080A8040020102370B574
:10202000514D524C2A6813432B60FFF723FB0C21C0
:1020300062682B000A4206D062680A40082A3CD136
:102040006268D20339D42268F82122688A431100D9
:1020500078220A430C21226062680A40082A3AD09A
:1020600080202268424980040A402260414A156863
:102070002168014230D10F20E16A8143E162616849
:102080003D480840A0218903014361608021206808
:1020900049040143802021601568800421680142C1
:1020A0001FD001201968014220D0F02061688143CF
:1020B00061602168890121D4FEE7012202202168A4
:1020C0000A432C4922600D6822680242BCD10A688A
:1020D000521B022AF8D9FEE71168491B0229C7D909
:1020E000F9E71168491B0229D8D9F4E71968814337
:1020F0000143196019680142DED0D6E70320616808
:102100001E4E81430800022101430C2061601568C6
:1021100061680140082922D11B68194A636813408D
:102120006360FEF7B9FE6368164A1B061B0FD35C9B
:10213000154CD8402060FFF79DFAFA2120688900ED
:10214000FFF720FB00F026F80423104A11680B4328
:1021500013600F4A136A1B021B0A136270BD1168D9
:10216000491BB142D4D9A7E7002002400010024029
:10217000FFFFFFFEA8040020FFFFC2FF881300003E
:10218000FFF8FFFF7F350008A800002010E000E006
:1021900000ED00E0094A431E012093420DD8C02102
:1021A000074A08485360036A09061B021B0A0B43CF
:1021B000036200200723906013607047FFFFFF0059
:1021C00010E000E000ED00E0444B0521180070B580
:1021D0003030197019760131017018000024083070
:1021E000C46718003E4A1D008C3002601800483554
:1021F000297090300131017018009C300460180083
:10220000A43002601800A83001701800B4300460D7
:102210001800BC3002601800C03001701800CC30CB
:1022200004601800D43002601800D83001701D001E
:1022300018006035E430297004601D0018007835FE
:10224000EC30297002601D001800FF35F030DC60B2
:102250005A615C62DA62DC635A645C65DA65DC668A
:102260005A6701706972902518006D00595518352C
:10227000595518355955183559557631FC30FF31B7
:102280000460826084610262046382638464026524
:102290000466826684675A502000124A124900F090
:1022A00052F8FA22114B92009A60114A0A21083220
:1022B0001A601A00FF3291770139517719001A001C
:1022C000FC3111324A621A005C60FE325133D48410
:1022D0001485CB62D485148670BDC046F8010020F9
:1022E000000011100000002059150008780300209C
:1022F000B03500080D4885460D480E490E4A0023AA
:1023000002E0D458C4500433C4188C42F9D30B4AA9
:102310000B4C002301E013600432A242FBD3FDF713
:1023200010FF00F025F8FFF7C3FAFEE700100020C9
:1023300000000020100100202837000810010020B4
:102340007C050020FEE70B0010B50100180000F02E
:1023500001F810BD70B5054C05001300201E04D017
:102360000A000220290000E000BF70BD000000004C
:1023700070B500260C4D0D4C641BA410A64209D16B
:10238000002601F0A3F80A4D0A4C641BA410A642D3
:1023900005D170BDB300EB5898470136EEE7B300A6
:1023A000EB5898470136F2E708370008083700086D
:1023B000083700082437000803008218934200D130
:1023C000704719700133F9E7936810B5013B9360CA
:1023D000002B05DA9469A34208DBCBB20A2B05D0A7
:1023E0001368581C10601970C8B210BD00F0D2FA02
:1023F000FBE7F8B506000F001400D518AC4201D178
:10240000002007E021783A003000FFF7DDFF0134BB
:10241000431CF3D1F8BD0000F0B59FB006000F00DB
:1024200014000593002804D08369002B01D100F02B
:1024300075FC7F4B9F425CD17768BB891B0762D5D7
:102440003B69002B5FD0002306AD6B6120336B76B8
:102450001033AB760294029C2378002B5DD1029B53
:10246000E31A04930DD0049B029A39003000FFF761
:10247000C0FF431C00D1CCE06A69049B94466344CE
:102480006B612378002B00D1C3E00122002352426C
:102490006A6002A95432521801342B60EB60AB60C1
:1024A0001370AB6521780522624800F04DFD631C76
:1024B0009C46002835D12968CB0604D5532302AAAF
:1024C00020309B1818700B0704D553232B2002AA29
:1024D0009B18187023782A2B2CD000200A21099BE6
:1024E0002278303A092A00D86BE000282AD00993D4
:1024F00028E0514B9F4201D1B7689EE74F4B9F4266
:102500009BD1F76899E73900300000F099FA00286C
:1025100099D0012040421FB0F0BD252B9FD001343F
:102520009AE7444B2968C01A012383400B432B6070
:102530006446B7E7059B181D1B680590002B3ADB26
:102540000993644623782E2B0BD16378621C2A2BC7
:102550003FD1059B02341A1D1B680592002B35DB09
:10256000079321780322364800F0EEFC002807D0BC
:10257000334B2A68C01A4023834013432B60013435
:102580002178631C06222F480293297600F0DCFC98
:10259000002844D02C4B002B2FD12968059B072203
:1025A000C90528D59B189343083305936B69039A93
:1025B0009B186B614FE75B42EB6002230B432B6080
:1025C000BFE74B4301349B18012089E701235B429D
:1025D000C6E7002314000A201A006B602178303906
:1025E000092903D9002BBCD00792BAE74243013432
:1025F00052180123F2E70733D5E705AB00933A0001
:10260000124B2900300000E000BF0390039B013310
:10261000CCD1BB895B0600D57BE70B987BE705AB8C
:1026200000933A00094B2900300000F07FF8ECE7F6
:10263000C836000874360008E8360008A8360008D6
:102640007A3600087E36000800000000F3230008F8
:10265000F7B5150001938A680B6900900C0093424E
:1026600000DA130022002B6043321278002A01D0D6
:1026700001332B6023689B0602D52B6802332B6045
:10268000062723681F4027D0230043331B785A1E98
:1026900093412268920630D4220001994332009877
:1026A000089EB047431C25D0062320682A68E168AD
:1026B00003400025042B03D18D1AEB43DB171D408B
:1026C000A3682269934201DD9B1AED180027BD42E1
:1026D00020D1002010E00137E3682A689B1A9F424E
:1026E000D2DA22000123193201990098089EB047DE
:1026F000431CF0D101204042FEBD3020E11843319F
:10270000087021005A1C45310978A218433202335F
:102710001170C1E7220001231A3201990098089E26
:10272000B047431CE6D00137D1E70000F0B58BB0CD
:1027300006920A0043320793059004920A7E0C0029
:10274000109B6E2A00D18FE017D8632A2CD008D8AE
:10275000002A00D199E0582A54D02600423632701F
:1027600029E0642A01D0692AF7D121681A6808068D
:1027700023D5111D1960156825E0732A00D188E062
:1027800008D86F2A29D0702AE7D1202209680A4385
:10279000226003E0752A20D0782ADED12200782139
:1027A000453211706C4A30E00E001A684236111D35
:1027B000196013683370012379E04906D9D5111DDA
:1027C00019600023D55E002D03DA2D23049A6D4293
:1027D0001370624B0A2703932FE0206819680506DF
:1027E00003D5081D18600D6805E04006F9D50D6891
:1027F000081D1860ADB2594B082703936F2A18D0F3
:102800000A2716E045310A70544A03921A68216873
:10281000101D18601568080622D5CB0702D52023A5
:10282000194321601027002D03D1202322689A43E9
:1028300022602300002243331A706368A360002BD8
:102840005CDB0422216891432160002D58D1049E55
:10285000002B64D02600039B42361B7833705EE069
:102860004806DAD5ADB2D8E709681A68080605D572
:10287000111D1960136862691A6006E04906F7D5F0
:10288000111D19601368A28A1A800023049E236117
:1028900054E01A68111D1960166800216268300042
:1028A00000F052FB002801D0801B60606368236148
:1028B0000023049A137041E02369320006990598B9
:1028C000079DA847431C43D0236800259B070FD4CE
:1028D000099BE06898423DDA18003BE022000123A2
:1028E000193206990598079EB047431C30D0013530
:1028F000E368099A9B1A9D42F0DBE9E7002DA9D015
:10290000049E28003900FEF7C3FF039B013E5B5C79
:10291000280033703900FEF735FF051EF1D1082F6E
:1029200009D12368DB0706D563682269934202DC7C
:102930003023013E3370049B9B1B2361079B09AA34
:1029400000932100069B0598FFF782FE431CB3D13C
:10295000012040420BB0F0BD9636000885360008D5
:102960000FB40B4B13B51C68002C05D0A369002BCA
:1029700002D1200000F0D2F905AB049AA168200032
:102980000193FFF749FD16BC08BC04B01847C046C8
:10299000AC000020F8B505000E001400002804D09B
:1029A0008369002B01D100F0B9F9224B9C422DD153
:1029B0006C68A369A360A3891B0731D52369002B29
:1029C0002ED023682269F7B2981A6369F6B298424A
:1029D00005DB2100280000F033F9002826D1A36888
:1029E0000130013BA36023685A1C22601F70636999
:1029F000984204D0A389DB071AD50A2E18D12100EA
:102A0000280000F01DF9002812D00FE00A4B9C426C
:102A100001D1AC68CDE7094B9C42CAD1EC68C8E74C
:102A20002100280000F00CF80028CAD001267642C8
:102A30003000F8BDC8360008E8360008A83600089F
:102A4000364B70B51D6806000C00002D05D0AB6933
:102A5000002B02D1280000F061F9314B9C420FD1CC
:102A60006C680C23E25E93B219072DD4D90611D4F9
:102A700009230120336037331343A381404270BDE3
:102A8000284B9C4201D1AC68EBE7274B9C42E8D134
:102A9000EC68E6E75B0713D5616B002908D02300DB
:102AA0004433994202D0300000F062FA002363639D
:102AB0002422A3899343A3810023636023692360B5
:102AC0000823A2891343A3812369002B0BD1A021E2
:102AD0008022A389890092000B40934203D02100F9
:102AE000300000F0D9F90123A289134011D000234E
:102AF000A36063695B42A361002023698342BED166
:102B00000C23E25E1306BAD540231343A381013898
:102B1000B5E7920700D46369A360EDE7AC0000203D
:102B2000C8360008E8360008A8360008F7B58A89D4
:102B300005000C00130760D44B68002B04DC0B6C01
:102B4000002B01DC0020FEBDE76A002FFAD0002335
:102B50002E682B6080235B011A4034D0606DA389FE
:102B60005B0706D56368C01A636B002B01D0236C2A
:102B7000C01A0200216A00232800E76AB847A18929
:102B8000431C06D12B681D2B31D82C4ADA40D307C1
:102B90002DD50023636023692360CB0405D5431C36
:102BA00002D12B68002B00D16065616B2E6000297B
:102BB000C8D023004433994202D0280000F0D8F94D
:102BC00000206063BFE70123216A2800B847431C47
:102BD000C5D12B68002BC2D01D2B01D0162B01D1E3
:102BE0002E60AFE74023A2891343A381ABE74023C4
:102BF0000B430120A3814042A5E70F69002FA1D01C
:102C00000B680F60DB1B01930023920700D14B6917
:102C1000A360019B002B00DC94E7019B3A00216A32
:102C20002800A66AB047002803DC4023A28913438A
:102C3000DFE7019B3F181B1A0193EAE701004020E0
:102C40000B6970B505000C00002B01D1002070BD90
:102C5000002804D08369002B01D100F05FF80B4BF2
:102C60009C4209D16C680C22A35E002BEED021009F
:102C70002800FFF75BFFEAE7054B9C4201D1AC68F7
:102C8000F1E7044B9C42EED1EC68ECE7C836000853
:102C9000E8360008A836000810B5024900F0B2F87E
:102CA00010BDC046412C0008002310B5040003608D
:102CB0004360836081814366C281036143618361B4
:102CC000190008225C30FFF777FB054B2462636232
:102CD000044BA362044BE362044B236310BDC04664
:102CE000E53000080D310008453100087131000859
:102CF00070B568254A1E55430E002900743100F056
:102D000081F9041E08D000212A00016046600C30C1
:102D1000A0606832FFF750FB200070BD836913B5D7
:102D20000400002B28D18364C3640365134B144A49
:102D30001B6882620193984201D1012383612000C4
:102D400000F020F86060200000F01CF8A060200077
:102D500000F018F80022E06004216068FFF7A4FF8B
:102D600001220921A068FFF79FFF02221221E068DB
:102D7000FFF79AFF0123A36113BDC0467036000818
:102D8000992C0008F8B51E4B07001E68B369002B8C
:102D900002D13000FFF7C2FF4836B4687368013BC8
:102DA00004D53368002B07D03668F6E70C22A55E01
:102DB000002D0DD06834F2E704213800FFF798FFAA
:102DC00030600028F0D10C2304003B602000F8BDE7
:102DD000012320005B42E3810233A3816566256005
:102DE000A560656025616561A561082229005C30E8
:102DF000FFF7E2FA6563A563A564E564E6E7C0460C
:102E000070360008F7B50400070000260191483429
:102E1000002C01D13000FEBD6368A5680093009BC3
:102E2000013B009301D52468F2E7AB89012B08D957
:102E30000E22AB5E013304D029003800019B984775
:102E400006436835EBE7000070B50E001D000E2349
:102E5000C95E90B01400002907DA00232B60B38903
:102E60001B0611D48023DB000FE001AA00F0ACF9AF
:102E70000028F2DBF022029B12021340054A9B1845
:102E80005A4253412B60EDE740230020236010B0ED
:102E900070BDC04600E0FFFFF7B502268B89050034
:102EA0000C00334206D02300473323602361012303
:102EB0006361F7BD01AB6A46FFF7C6FF00990700E3
:102EC000280000F09FF8002808D10C22A35E9A0584
:102ED000EFD4032293431E43A681E4E70F4BAB627A
:102EE0008023A28920601343A381009B206163613A
:102EF000019B002B0DD00E23E15E280000F076F937
:102F0000002806D00322A38993431A000123134308
:102F1000A381A0893843A081CBE7C046992C000843
:102F200010B5034B0100186800F06CF810BDC046E6
:102F3000AC00002010B5034B0100186800F018F831
:102F400010BDC046AC000020C9B28218904201D129
:102F50000020704703788B42FBD00130F6E7002356
:102F600010B59A4200D110BDCC5CC4540133F8E7CF
:102F700070B50500002910D00C1F2368002B00DA63
:102F8000E418280000F058F91D4A1368002B05D1F9
:102F900063601460280000F050F970BDA34209D9A5
:102FA000216860188342F3D118685B68411821607A
:102FB000EEE713005A68002A01D0A242F9D9196835
:102FC0005818A0420BD1206809185818196082427D
:102FD000E0D110685268411819605A60DAE7A042DF
:102FE00002D90C232B60D5E721686018824203D1F7
:102FF000106852684118216062605C60CAE7C04690
:10300000D0040020032370B5CD1C9D430835060075
:103010000C2D1ED20C25A9421DD8300000F00CF951
:10302000254A14682100002919D1244C2368002B5B
:1030300003D1300000F044F820602900300000F097
:103040003FF8431C2CD10C233000336000F0F5F81E
:1030500003E0002DDFDA0C233360002070BD0B6825
:103060005B1B1AD40B2B03D90B60CC18256003E033
:103070008C420ED163681360300000F0DEF820004F
:1030800007220B30231D9043C31AE7D05A42E25067
:10309000E4E74B6863600C00EEE70C004968C2E7A8
:1030A0000323C41C9C43A042E0D0211A300000F04E
:1030B00007F8431CDAD1C6E7D0040020D40400206E
:1030C000002370B5064C050008002360FDF78AFC5C
:1030D000431C03D12368002B00D02B6070BDC04679
:1030E0007805002070B50C000E25495F00F0A6F8A9
:1030F000002803DB636D1B18636570BDA389024A5A
:103100001340A381F9E7C046FFEFFFFFF8B51F00AA
:103110008B8905000C001600DB0505D50E23C95E62
:103120000022022300F074F8A389054A2800134006
:10313000A38132000E23E15E3B0000F01FF8F8BDD2
:10314000FFEFFFFF70B50C000E25495F00F060F83F
:10315000A389421C03D1054A1340A38170BD80227C
:1031600052011343A3816065F8E7C046FFEFFFFFFC
:1031700010B50E23C95E00F015F810BD70B505003E
:10318000080011000022064C22601A00FDF72FFBF8
:10319000431C03D12368002B00D02B6070BDC046B8
:1031A00078050020002370B5064C05000800236058
:1031B000FDF715FC431C03D12368002B00D02B60C6
:1031C00070BDC04678050020002370B5064C050090
:1031D000080011002360FDF7FDFB431C03D12368A9
:1031E000002B00D02B6070BD78050020002370B547
:1031F000064C050008002360FDF7EAFB431C03D1E1
:103200002368002B00D02B6070BDC04678050020DD
:1032100070B50500080011000022064C22601A005B
:10322000FDF7D4FB431C03D12368002B00D02B6097
:1032300070BDC046780500207047704770B5050026
:10324000080011000022064C22601A00FDF7BCFBAA
:10325000431C03D12368002B00D02B6070BDC046F7
:10326000780500200123214A1168194200D113601A
:103270001F4A1168194200D1136001231D4A1168C9
:10328000194200D113601C4A1168194200D1136021
:1032900001231A4A1168194200D11360184A1168B3
:1032A000194200D113600123164A1168194200D156
:1032B0001360154A1168194200D113600123134AA3
:1032C0001168194200D11360114A1168194200D1E6
:1032D000136001230F4A1168194200D113600E4A8E
:1032E0001168194200D113607047C04604050020E0
:1032F00000050020FC040020F8040020F404002055
:10330000F0040020EC040020E8040020E404002085
:10331000E0040020DC040020D80400200123214A1E
:103320001168194200D113601F4A1168194200D177
:10333000136001231D4A1168194200D113601C4A11
:103340001168194200D1136001231A4A1168194209
:1033500000D11360184A1168194200D1136001238B
:10336000164A1168194200D11360154A11681942B2
:1033700000D113600123134A1168194200D1136070
:10338000114A1168194200D1136001230F4A1168D4
:10339000194200D113600E4A1168194200D113601E
:1033A0007047C04634050020300500202C05002061
:1033B0002805002024050020200500201C050020F1
:1033C0001805002014050020100500200C05002021
:1033D000080500200123164A1168194200D1136024
:1033E000144A1168194200D113600123124A11686E
:1033F000194200D11360114A1168194200D11360BB
:1034000001230F4A1168194200D113600D4A116857
:10341000194200D1136001230B4A1168194200D1EF
:1034200013600A4A1168194200D113607047C04600
:1034300054050020500500204C05002048050020C0
:1034400044050020400500203C05002038050020F0
:103450000123164A1168194200D11360144A1168F9
:10346000194200D113600123124A1168194200D198
:103470001360114A1168194200D1136001230F4AE9
:103480001168194200D113600D4A1168194200D128
:10349000136001230B4A1168194200D113600A4AD4
:1034A0001168194200D113607047C04674050020AE
:1034B000700500206C0500206805002064050020D0
:1034C000600500205C05002058050020F8B5C046C6
:1034D000F8BC08BC9E467047F8B5C046F8BC08BCAE
:0434E0009E4670474D
:1034E40005000000002401400380020011000000D8
:1034F4000024014003800400FF00000000000000DD
:10350400000000000102030405060708090A0B0C69
:103514000D0E0F101100000000040802000000004E
:103524000102030404000000002000401284000093
:1035340006000000000400401281000007000000A3
:10354400000400401201010009000000002C0140A9
:10355400120201000A000000002C01401282010046
:10356400110000000004004012010200FF000000EE
:10357400000000000000000004080C00000000002F
:1035840000000001020304060708090203040506FB
:103594000708090A0B0C0D0E0F1010010203040595
:1035A400060708090A0B0C0D0E0F1000000000009E
:1035B40000000000DD0A0008190A0008AD0A00082E
:1035C400710A0008930A00085F0A00080900000055
:1035D4000038014012010000FF000000000000005C
:1035E400000000000A000000003801401201000041
:1035F400FF000000000000000000000000010203C2
:1036040004050607090A0D0E404105114F42203AF0
:1036140020000D0A0053746F72696E6720004552D2
:10362400524F523A206174206C65617374206F6E3E
:103634006520554152542070696E20686173206E74
:103644006F207065726970686572616C0A0045521A
:10365400524F523A20554152542070696E73206D76
:1036640069736D617463680A00000000B000002093
:10367400232D302B2000686C4C0065666745464757
:1036840000303132333435363738394142434445DA
:103694004600303132333435363738396162636449
:1036A400656600000000000000000000000000004B
:1036B4000000000000000000000000000000000006
:1036C40000000000000000000000000000000000F6
:1036D40000000000000000000000000000000000E6
:1036E40000000000000000000000000000000000D6
:1036F40000000000000000000000000000000000C6
:0437040000000000C1
:103708001D200008E9000008C921000865320008EA
:0C3718001D330008D533000851340008B0
:04372400C1000008D8
:10372800000000000A000000FF0000000000000088
:103738000000000000000000000000000000000081
:103748000000000000000000000000000000000071
:103758000000000000000000000000000000000061
:103768000000000000000000000000000000000051
:103778000000000000000000000000000000000041
:103788000000000000000000000000000000000031
:103798000000000000000000000000000000000021
:1037A8000800000000000000000000000000000009
:1037B8000000000000000000000000000000000001
:1037C800000000000000000000127A00B000002095
:1037D80000000000C8360008E8360008A8360008CF
:1037E80000000000000000000000000000000000D1
:1037F80000000000000000000000000000000000C1
:1038080000000000000000000000000000000000B0
:1038180000000000000000000000000000000000A0
:103828000000000000000000000000000000000090
:04000005080022F5D8
:00000001FF
