:020000040800F2
:1000000000100020790A0008C90A0008C90A00087F
:1000100000000000000000000000000000000000E0
:10002000000000000000000000000000C90A0008F5
:100030000000000000000000C90A0008D30D0008FD
:10004000C90A000800000000C90A0008C90A00081F
:10005000C90A0008E9290008F9290008092A000846
:1000600000000000C90A0008C90A0008C90A0008FF
:10007000C90A000859110008C90A00080000000058
:100080006D11000800000000000000008111000850
:100090000000000095110008A9110008C90A000815
:1000A00000000000C90A0008000000007D150008DB
:1000B0000000000000000000000000000000000040
:1000C00010B5064C2378002B07D1054B002B02D02E
:1000D000044800E000BF0123237010BD0C01002084
:1000E00000000000083A0008084B10B5002B03D0B0
:1000F0000749084800E000BF07480368002B00D10B
:1001000010BD064B002BFBD09847F9E7000000001C
:1001100010010020083A00080C0100200000000037
:1001200002B4714649084900095C49008E4402BC8A
:100130007047C046002243088B4274D303098B42A8
:100140005FD3030A8B4244D3030B8B4228D3030CA7
:100150008B420DD3FF22090212BA030C8B4202D349
:100160001212090265D0030B8B4219D300E0090A71
:10017000C30B8B4201D3CB03C01A5241830B8B427A
:1001800001D38B03C01A5241430B8B4201D34B0363
:10019000C01A5241030B8B4201D30B03C01A5241C8
:1001A000C30A8B4201D3CB02C01A5241830A8B424D
:1001B00001D38B02C01A5241430A8B4201D34B0236
:1001C000C01A5241030A8B4201D30B02C01A52419A
:1001D000CDD2C3098B4201D3CB01C01A524183094E
:1001E0008B4201D38B01C01A524143098B4201D388
:1001F0004B01C01A524103098B4201D30B01C01AB3
:100200005241C3088B4201D3CB00C01A524183082C
:100210008B4201D38B00C01A524143088B4201D359
:100220004B00C01A5241411A00D2014652411046B9
:100230007047FFE701B5002000F0F0F802BDC046AE
:100240000029F7D076E7704703460B437FD400229E
:1002500043088B4274D303098B425FD3030A8B425A
:1002600044D3030B8B4228D3030C8B420DD3FF22C4
:10027000090212BA030C8B4202D31212090265D092
:10028000030B8B4219D300E0090AC30B8B4201D345
:10029000CB03C01A5241830B8B4201D38B03C01A8C
:1002A0005241430B8B4201D34B03C01A5241030B03
:1002B0008B4201D30B03C01A5241C30A8B4201D3B4
:1002C000CB02C01A5241830A8B4201D38B02C01A5F
:1002D0005241430A8B4201D34B02C01A5241030AD6
:1002E0008B4201D30B02C01A5241CDD2C3098B42BB
:1002F00001D3CB01C01A524183098B4201D38B0138
:10030000C01A524143098B4201D34B01C01A5241DA
:1003100003098B4201D30B01C01A5241C3088B421F
:1003200001D3CB00C01A524183088B4201D38B000A
:10033000C01A524143088B4201D34B00C01A5241AC
:10034000411A00D201465241104670475DE0CA0F83
:1003500000D04942031000D34042534000229C4643
:1003600003098B422DD3030A8B4212D3FC2289014D
:1003700012BA030A8B420CD3890192118B4208D323
:10038000890192118B4204D389013AD0921100E085
:100390008909C3098B4201D3CB01C01A5241830999
:1003A0008B4201D38B01C01A524143098B4201D3C6
:1003B0004B01C01A524103098B4201D30B01C01AF1
:1003C0005241C3088B4201D3CB00C01A524183086B
:1003D0008B4201D38B00C01A5241D9D243088B42C1
:1003E00001D34B00C01A5241411A00D20146634664
:1003F00052415B10104601D34042002B00D54942C8
:10040000704763465B1000D3404201B5002000F006
:1004100005F802BD0029F8D016E770477047C046BE
:1004200070470000F7B50021042000F087FB002191
:10043000032000F083FB0021022000F07FFB00215D
:10044000012000F07BFB1B4B1B4C1B6822789200A9
:10045000D3401B071DD0194A2378194DD35C0121C5
:100460005E08AF5DAD193800019300F067FB6E7850
:1004700001250121300000F061FB019B2B4001931D
:1004800011D00021380000F097FB2900300000F067
:1004900093FB23780133DBB223702378052B01DD36
:1004A00000232370F7BD2900380000F085FB019977
:1004B000ECE7C0462C01002028010020403A00084B
:1004C000463A000800220B4B10B50B4C1A600B4B40
:1004D0000B492000236000F03DFE01F099FCFA2159
:1004E0008900FFF727FE013882B20221200000F0C8
:1004F000CBFD10BD2C010020300100200044014044
:100500002504000810B50021042000F017FB00218D
:10051000032000F013FB0021022000F00FFB00215C
:10052000012000F00BFB0022014B1A6010BDC046F9
:100530002C010020031C052800D90523DBB2072964
:1005400000DD07219B009940014B19607047C046B0
:100550002C01002010B50721FFF7ECFF10BD0000B3
:1005600010B501210C2000F0E9FA0121072000F06C
:10057000E5FA0121062000F0E1FA0021080000F070
:10058000DDFA02210A2000F0D9FA02210B2000F046
:10059000D5FA0021082000F0D1FA0A2000F0C8FAAC
:1005A000144B0024D868144B02894360052313437D
:1005B00003810368DB68984700F042FB01210C20AF
:1005C00000F0FAFA0121062000F0F6FA01210720D6
:1005D00000F0F2FAFFF776FF20000134FFF7BAFFD0
:1005E000E4B2322000F02CFB062CF5D1FFF78AFF95
:1005F00010BDC0468C01002021040008F8B500267B
:10060000B04204DB642800DD642006264643002453
:100610000F4D64212C603000FFF716FE23000721E8
:100620009C002F68834206DA0A00A24001333A4355
:100630002A60DBB2F4E730006421FFF7EBFE07200D
:1006400048436421FFF700FEA04038432860F8BD0E
:100650002C01002010B5094800F072F900F0ECFA06
:10066000FA21C900FFF7ECFD08001421FFF762FD35
:10067000FFF7C4FF0A2000F0E3FA10BD8C01002050
:10068000002310B501221900014800F00FF810BD39
:100690008C0100200170437002210023C17283721B
:1006A00043808380012A00D18272704710B5040014
:1006B0000348E0602000FFF7EDFF200010BDC046BA
:1006C0009C010020F8B5867A0400022530002840FD
:1006D0000FD0E068668803688E1B1B689847B6B227
:1006E0000023864203DBA37AAB43A37201231800E5
:1006F000F8BDE77A01239742F9D03543A5726180AE
:100700000300F4E770B50500C0680C0003689B683F
:1007100098470822AB7A134206D0A988641AA4B27B
:10072000844201DB9343AB7270BDC36810B55B6854
:10073000002B01D0C27A984710BDF8B50400837A27
:1007400001201840824205D00426334202D02027DF
:100750003B4200D0F8BDE068E58803684D1BDB68CC
:10076000ADB298478542F5DBA37A31001F43A772EB
:100770002000FFF7DAFFEDE7F8B50E000121837ADC
:10078000040019408A4212D05A0710D54027C06889
:100790003B420DD025890368751B5B69ADB2984754
:1007A000854204DB05212000FFF7BFFF2681F8BD4D
:1007B000E5880368751B1B69ADB298478542F6DB77
:1007C000A37A1F43A772EDE770B50124857A2C4008
:1007D000A24206D004232B43C18083720021FFF77D
:1007E000A4FF70BD70B5837A04001A0703D41022E9
:1007F0009343A37270BD8588C0684D1B0368ADB27A
:100800009B689847A37A8542F1DA5AB2002A02DA45
:100810007F221340A3721023A27A03211343A372F1
:100820002000FFF782FFE5E770B5837A04000E0031
:100830005A0703D408229343A37270BDC588C068C9
:100840004D1B0368ADB25B689847854201DBA37A14
:10085000F0E7E3681B899B0703D531002000FFF711
:10086000C1FFA37A0822D906E5D41A43A272E2682E
:10087000A6801289D20503D5782252421343DBE7C2
:1008800002212000FFF751FFD7E710B50400837A5B
:10089000012003409A4229D1E3681B899B0726D196
:1008A000A27A930604D5E36819890123490614D472
:1008B000530604D5E3681989012309060DD41307EB
:1008C00004D5E36819890123C90606D40023D1069B
:1008D00003D5E3681B899B06DB0F74218A43A27250
:1008E000002B03D173392000FFF71FFF10BD20003C
:1008F000FFF79AFFD4E770B504000E001500E2720E
:10090000FFF762FF2A0031002000FFF7BEFF70BD35
:1009100070B50400C0680D0003689B689847A37A0F
:100920007F2B0CD9A388ED1AADB2854207DB0221DB
:100930002000FFF7FAFE7F22A37A1340A37270BD56
:1009400070B50400C06803689B69984785B2E06889
:1009500021780368DB699847C6B23200290020007D
:10096000FFF7B0FE002803D0E37A022B01D1E67234
:1009700070BDE3681B899B0707D029002000FFF7A3
:10098000C7FF29002000FFF7BDFEE3681B895B0756
:1009900004D5320029002000FFF7CFFEE3681B8951
:1009A0001B0704D5320029002000FFF7E5FEE37A9B
:1009B000B342DDD0320029002000FFF79CFFD7E7CB
:1009C00032207047C8207047C82040007047FA2086
:1009D00080007047FA2080007047C82070470023CD
:1009E0000381704710B5080000F004F910BD10B580
:1009F00000F022F910BD0000034B044A1A600022E7
:100A00005A601A817047C0469C010020543A000881
:100A10000F2330B591B0089300230D930F93A023BB
:100A2000022401259B0304A8049407950C940E93BB
:100A300000F044FF002800D0FEE707230290039057
:100A4000290068460194009301F04CF9041E00D07F
:100A5000FEE701F0DDF9FA218900FFF76BFB00F0FA
:100A600007FE042000F02CFE01202200210040425D
:100A700000F0C2FD11B030BD0D4885460D480E494D
:100A80000E4A002302E0D458C4500433C4188C42E8
:100A9000F9D30B4A0B4C002301E013600432A2424D
:100AA000FBD300F021FA02F047F801F067FFFEE700
:100AB00000100020000000200C010020783C0008FD
:100AC0000C0100208C050020FEE710B500F0ADF908
:100AD00010BD7047094B02001968002901D108496F
:100AE00019606946186882188A4205D90C220120CB
:100AF000044B40421A6070471A60FCE7A8010020CE
:100B00009005002088050020012040427047802386
:100B10009B0100204B607047012070470020704708
:100B200000207047080010B5110000F033FC10BD24
:100B3000014B18607047C0460400002070B50D00DE
:100B40000F2827D8184B1C56631C23D0174E2000A3
:100B5000310000F083F800280CD01549200000F087
:100B6000A7F9002802D0200000F000F93100200091
:100B700000F08AF8032D09D82800FFF7D1FA0211F6
:100B80000C0F00221100200000F02BF90949200071
:100B900000F06EF870BD01220021F4E70222FBE7AD
:100BA00000220121EFE7C046FC3A0008AC0100201A
:100BB000783A0008C001002070B50D000F2814D845
:100BC0000A4B1C56631C10D00949200000F046F85F
:100BD00000280AD00F262009304000F061F80121DA
:100BE0003440A1402A0000F013F970BDFC3A00081F
:100BF000C001002070B50F2803D90020431E984182
:100C000070BD0B4B1C56631CF7D00A49200000F046
:100C100025F80028F1D00F252009284000F040F8E1
:100C200001212C40A14000F0FBF8C0B2E6E7C0462D
:100C3000FC3A0008C001002010B500F0C5F810BD56
:100C400070B5041E09D000F0BFF80500FFF741FFA2
:100C500000F0BAF8401B8442F8D870BD0F22030997
:100C600013409B00024058580123D0401840704761
:100C70000F220309134010400E3A82409B00CB180C
:100C800019680A431A6070470F2203091340104085
:100C90000E3A82409B00CB18196891431960704747
:100CA0000023042802D8024B8000C3581800704764
:100CB0000C3B00087FB50023042810D81B4B802173
:100CC0005A69FFF72DFA030F18212A0089020A43F7
:100CD0005A615B690B400193019B9023DB0518006F
:100CE00007B000BDC9020A435A615B690B40029319
:100CF000029B0F4BF3E709030A435A615B690B4000
:100D00000393039B0B4BEAE749030A435A615B6970
:100D10000B400493049B084BE1E7C9030A435A6163
:100D20005B690B400593059B044BD8E7001002401C
:100D30000004004800080048000C00480014004867
:100D400010B5064900F0AEF80303DB0E023B0020AD
:100D5000022B01D8024AD05C10BDC046783A000888
:100D6000203B000810B500F051F910BDF0B5144F4C
:100D700091B03900060000F06AF80090002818D001
:100D80003000FFF7DDFF0400182812D80D4B0125B5
:100D9000C340DB070DD53900300000F083F8000DAB
:100DA0002100284207D0684601F0EAF9684601F0C0
:100DB0004FF811B0F0BD684601F078F9F6E7C0468B
:100DC000783A00081111000110B500F00FFC10BDB9
:100DD000704710B500F002FC00F081FCFFF7F8FF4F
:100DE00010BDF0B50F270400000987B038400E0091
:100DF0001500FFF75FFF01233C40A340019303234D
:100E000001A904930296039500F090FC07B0F0BD91
:100E100010B589B2002A00D0012200F03DFD10BDBE
:100E200010B589B200F032FD10BD10B500F0C6FB60
:100E3000FFF7EEFD10BD0023CB565A1C01D1002058
:100E400002E0834201D1486870470C31F3E710B5E6
:100E50000023421C02D0FFF7EEFF0300180010BD74
:100E60004B68002B02D10120404203E0834202D1B3
:100E70000020085670470C31F2E710B5002802D068
:100E8000FFF7EEFF10BD01204042FBE70023CB56E9
:100E90005A1C01D1180002E0834201D188687047D2
:100EA0000C31F3E710B5421C01D0FFF7EFFF10BD86
:100EB0000023421C04D118007047984206D00C3120
:100EC0000023CB565A1CF8D10023F4E70123F2E7A4
:100ED000884204D0002802D0002902D00021080056
:100EE00070470100FBE700000121114B11481A680F
:100EF0000A431A605A6802405A601A680E48024053
:100F00001A601A680D4802401A605A680C4802407C
:100F10000F205A60DA6A8243DA621A6B094802408B
:100F20001A635A6B8A435A6300229A607047C0461C
:100F3000001002400CB8FF08FFFFF6FEFFFFFBFFAA
:100F4000FFFFC0FFECFEFFFF10B50368284A86B024
:100F500093420DD18024274A240191692143916154
:100F6000936923400193019B234B186006B010BD89
:100F7000224A93420BD102241E4AD1692143D161F6
:100F8000D36923400293029B1B4B9860EEE71C4AF7
:100F900093420CD18024174A6400D1692143D16166
:100FA000D36923400393039B134B5863DEE7154A31
:100FB00093420CD180240F4AA4029169214391618C
:100FC000936923400493049B0B4BD863CEE70E4AEE
:100FD0009342CBD18024074AE40291692143916175
:100FE000936923400593059B034B1864BEE7C046F5
:100FF000002C014000100240D401002000040040F9
:101000000020004000440140004801400368144AA9
:10101000934205D1134A144993690B40936107E049
:10102000124A934205D102210E4AD3698B43D36100
:1010300070470F4A934204D10A4A0E49D3690B40C4
:10104000F5E70D4A934203D1064A0C499369E4E758
:101050000B4A9342ECD1034A0A499369DDE7C04643
:10106000002C014000100240FFF7FFFF0004004089
:1010700000200040FFFEFFFF00440140FFFFFDFF96
:1010800000480140FFFFFBFF10B5002810D00368A7
:10109000041D436000238260C3600161436183617A
:1010A000200000F0DDFF002802D1200000F0C6FE85
:1010B00010BD000010B50023421C10D00C4A0D33A7
:1010C00090420CD00DD80B4A0333904207D00A4A05
:1010D0000333904203D0094802F0D8F800231800E7
:1010E00010BD074A15239042F9D0064A0133F0E7B4
:1010F000002C014000040040002000403B3B000861
:10110000004401400048014010B50400FFF71CFFF7
:101110002068FFF7CFFF00220F2140B200F06CFAE9
:101120002068FFF7C7FF40B200F096FA10BD836C4D
:1011300010B5021F002B05D0017F012902D100212B
:101140001000984710BD0438836C10B5002B00D0F8
:10115000984710BD81647047034B10B5186800288C
:1011600001D000F098FE10BDD4010020034B10B553
:101170009868002801D000F08EFE10BDD401002038
:10118000034B10B5586B002801D000F084FE10BD51
:10119000D4010020034B10B5D86B002801D000F01B
:1011A0007AFE10BDD4010020034B10B5186C002846
:1011B00001D000F070FE10BDD4010020F0B5040095
:1011C00089B0002813D0882052492056FFF73FFEEF
:1011D00026000500002089364F493056FFF737FEBC
:1011E000011E01D0002D04D14C4802F04FF809B087
:1011F000F0BD2800FFF76CFE2060002801D14848B0
:10120000F3E7484B984216D18022474BD201D96868
:1012100046481143D960D9680140D96099691143A2
:1012200099619B6913400293029B2300002274334F
:101230001A701B329A7500200F233056251D0009A5
:101240001840FFF737FD0700002033493056FFF7FD
:1012500029FE0F223378032613400E3A9A40039258
:10126000102243001340093A024013430493030938
:10127000334005937F23000A184003A907903800E4
:10128000069600F053FA2300002088330093185686
:101290000F2300091840FFF70DFD01900020009B6F
:1012A0001C491856FFF7FEFD0F22009B03A91B786F
:1012B000069613400E3A9A400392102243001340C0
:1012C000093A0240134304930309334005937F23F3
:1012D000000A18400790019800F028FA2300270020
:1012E00074331B78124A9B009D5023680837636053
:1012F000A36F2800A360E36FE360EB6F2361FB6FD4
:1013000063610C23A3610023E361236201F07CF895
:101310006DE7C046E43A0008CC3A0008533B0008A9
:10132000833B00080038014000100240FFBFFFFF70
:10133000AC02002070B50824124B134D1C57290035
:101340002000FFF784FD00281AD029002000FFF7B5
:101350007EFD0E49FFF791FD0D4B1A00893210708A
:101360001A00883214709622190092019A6700229E
:101370000831CA671800191DDA67CA67FFF71EFF30
:1013800070BDC046FC3A0008E43A0008CC3A0008B8
:101390000C000020F0B5082785B00191039000F003
:1013A00025F9234B0290DF5722493800FFF74FFD04
:1013B0000024A04202D1002005B0F0BD1E4DE3B2D2
:1013C000A60000937359002B11D10134082CF5D1DC
:1013D0001A4C250074352B78072B04D9FFF7AAFF88
:1013E0002B78072BE7D874342378009307E0114952
:1013F0003800FFF72CFD73591B689842E5D1FA2499
:10140000A40006E000F0F2F8029BC01A0C4B9842D0
:10141000D1D86B469A88009B074D9800039923000A
:10142000405901F05FF80028ECD10198C4E7C046AC
:10143000FC3A0008E43A0008AC0200200C0000204E
:10144000E703000010B50123002809D074300378A9
:10145000044A9B00985800F0E3FE21384342434180
:10146000D8B210BDAC02002070B5041E20D005001B
:1014700074352B780F4A9B0099500F4A06009850FC
:1014800000208A3602220021305600F0B5F80020F4
:10149000305600F0E1F8230094349A331B88216819
:1014A0000648C9182B7801229B00185800F07FFECF
:1014B00070BDC0466C0200208C020020AC020020EF
:1014C00010B5082200280AD0002306499C00645861
:1014D000DAB2A04203D00133082BF7D11A00100072
:1014E00010BDC046AC02002010B5FFF7E9FF072889
:1014F00005D8034B034A8000C3588058984710BD55
:101500002C0200204C02002010B5FFF7D9FF07285D
:1015100017D80C4B8000C4580B4BC3582000984779
:10152000431C0ED0230022009A3394321B8811688A
:101530007434C918237805489B000122185800F01C
:1015400036FE10BD8C0200206C020020AC02002090
:10155000036882B0DA69D20703D59B8C9BB20193F2
:1015600008E0DA699207F8D4DA695207F5D4DA6943
:101570001207F2D4019B02B07047000010B51B2087
:1015800000F090F8024B186801F090F810BDC046CA
:10159000AC020020704710B5040000F039FCFA21BD
:1015A0008900FEF7C7FD00F063F80120002221004A
:1015B000404200F021F8002010BD00001023064A30
:1015C00010B5116803200B431360FFF7E4FFFFF72A
:1015D000E1FF002010BDC04600200240024A13680F
:1015E000013313607047C04684050020014B186822
:1015F0007047C0468405002070B58901002812DBC1
:101600008308134A03249B009B18FF222040A0401C
:101610001400C025844011408140AD005E59A643AE
:101620003143595170BD03240F23C0B20340204001
:10163000A040FC342500214085408140083B054AFC
:101640009B089B009B18DA69AA431143D961E9E71B
:1016500000E100E000ED00E0002805DB1F2318405A
:101660001E3B8340014A13607047C04600E100E022
:10167000094A431E012093420DD8C021074A084859
:101680005360036A09061B021B0A0B430362002016
:101690000723906013607047FFFFFF0010E000E039
:1016A00000ED00E0002807DB1F23C02218401E3B8E
:1016B0008340024952008B507047C04600E100E071
:1016C000054B1A68042802D11043186070470421A2
:1016D0008A431A60FAE7C04610E000E0704710B590
:1016E000FFF7FCFF10BD70B5841CE37F022B04D014
:1016F00004238363033B180070BD0E210368056C4F
:101700001A688A431A60012219689143196011000E
:10171000A940C36B5960E27700248318426BDC77E1
:101720001300A242E7D090472300E4E7F0B50B682E
:1017300087B0029300230191029ADA4001D107B0E9
:10174000F0BD01229A4003920399029A0A40009246
:1017500000D18CE0019A1021526816008E43022EAF
:101760000ED107251D40AD000139A940DC08A400B9
:101770000419276A8F4301990969A9400F43276219
:1017800003245F00BC40E4430568013E2540AC46AD
:1017900003251540BD4061460D430560012E0FD85D
:1017A00001998668CD682640BD403543856046680E
:1017B000039915098E4301210D409D403543456035
:1017C000C56801992C408D688021BD4049052C4396
:1017D000C4600A424BD00121264C0326A5691E4055
:1017E0000D43A561A4699D080C400594059C0F2438
:1017F0002149AD00B6006D18B4409021AF68C9050D
:10180000A743002488420CD01C490134884208D0E8
:101810001B490134884204D01A490334884200D15C
:10182000023CB44000993C430E00AC60164CCD43E2
:1018300027683E43D10301D43E002E4026606768EE
:10184000009E3E43910301D43E002E406660A7688F
:10185000009E3E43D10201D43E002E40A660E668C1
:10186000009F3743920201D42E403700E7600133D6
:1018700062E7C0460010024000000140000400483A
:1018800000080048000C00480004014000690840BE
:10189000411E8841C0B27047002A01D08161704763
:1018A0008162FCE7044B10B55A69104202D05861BE
:1018B00001F084F810BDC04600040140F0B5036893
:1018C00085B00500DB072FD42B689B0700D581E08E
:1018D0002B681B0700D5BCE02B685B0700D5DFE059
:1018E0002B68DB061AD56A69B54C0423012A00D09F
:1018F0004BE1616B02260B436363636B1A436263C4
:10190000FFF774FE0700636B334200D136E1F82124
:10191000626BAB698A43DB0013436363296A002966
:1019200000D059E1002013E00C21A54C62680A4068
:10193000042A06D063680B40082B0BD16368DB03D5
:1019400008D523689B03BFD56B68002BBCD1012051
:1019500005B0F0BD6B68012B13D1802322685B02B8
:1019600013432360FFF742FE80260700B602236878
:101970003342A9D1FFF73AFEC01B6428F7D90320F0
:10198000E6E7002B16D123688E4A80261340236099
:1019900023688D4AB60213402360FFF727FE070035
:1019A0002368334200D18FE7FFF720FEC01B642875
:1019B000F6D9E4E7052B05D180232268DB02134327
:1019C0002360CAE723687F4A1340236023687E4A66
:1019D0001340C6E70C227A4C6368134206D0636852
:1019E0001340082B10D16368DB030DD423689B07D9
:1019F00002D5EB68012BAAD1F82122682B698A4312
:101A0000DB001343236063E7EA680123002A0FD059
:101A10002268022613432360FFF7E8FD07002368CE
:101A20003342E9D1FFF7E2FDC01B0228F7D9A6E750
:101A3000226802269A432260FFF7D8FD0700236838
:101A4000334200D144E7FFF7D1FDC01B0228F6D98D
:101A500095E7EA6901235A4C002A10D0626A0226EF
:101A600013436362FFF7C2FD0700636A334200D08D
:101A700032E7FFF7BBFDC01B0228F6D97FE7626A99
:101A800002269A436262FFF7B1FD0700636A3342A0
:101A900000D121E7FFF7AAFDC01B0228F6D96EE7A7
:101AA00080220021464C5205E3690091134208D17F
:101AB000E3691343E361E36913400393039B012349
:101AC00000938027414E7F0033683B4206D0AB68CD
:101AD000012B13D1226A1343236230E033683B4366
:101AE0003360FFF783FD019033683B42EFD1FFF78E
:101AF0007DFD019BC01A6428F6D940E70122002B26
:101B000014D1236A022793432362236A0332934347
:101B10002362FFF76BFD0600236A3B4225D0FFF7E7
:101B200065FD2B4B801B9842F6D928E7052B0BD17E
:101B3000216A013B0B432362236A1A432262FFF7A7
:101B400055FD022706000DE0236A93430422236219
:101B5000236A9343C0E7FFF749FD1D4B801B984262
:101B600000D90CE7236A3B42F5D0009B012B00D043
:101B7000B6E6E369174A1340E361B1E6FFF736FDC5
:101B8000C01B022800D8BEE6F9E6053203D1626B1D
:101B90009A436263BBE6626B0226134301226363CE
:101BA000636B93436363FFF721FD0700636B33426D
:101BB00000D1B3E6FFF71AFDC01B0228F6D9DEE616
:101BC00000100240FFFFFEFFFFFFFBFF0070004020
:101BD00088130000FFFFFFEF0C22264C01206368F2
:101BE0001340082B00D1B3E62368234A1340236037
:101BF00002292FD1FFF7FAFC80260700B6042368DC
:101C0000334221D10F22E36A9343EA6A1343E3622A
:101C1000696AAB6A62680B43184980250A4013431E
:101C20006360802322685B0413432360FFF7DEFCBC
:101C30000600AD0423682B4200D073E6FFF7D6FC04
:101C4000801B0228F6D99AE6FFF7D0FCC01B0228B9
:101C5000D5D994E6FFF7CAFC80250600AD042368B9
:101C60002B4200D15EE6FFF7C1FC801B0228F6D9AB
:101C700085E6C04600100240FFFFFFFEFFFFC2FFE7
:101C800070B5144C88B010222100684600F078FF2F
:101C9000210004AD10221031280000F071FF0C2249
:101CA0000D4E73681A40082A11D10F206A46990C0C
:101CB0000140545CF26A0240A95CDB0305D5074889
:101CC000FEF738FA604308B070BD0548FAE70348EC
:101CD000F9E7C046203A00080010024000127A00DE
:101CE00000093D00F7B50122434C060023680F00B0
:101CF00013408B421CD33268930723D4D30729D4D3
:101D0000012322681A40974267D333683B4C5B0734
:101D10006AD4FFF7B5FF6368394A1B061B0FD35C13
:101D2000D840384B18600320FFF735FC002008E04E
:101D3000236893430B432360236813409942DAD00E
:101D40000120FEBDF0202D494B688343B06803435A
:101D50004B60D3E7294D72682B68012A1AD19B0387
:101D6000EED503216B688B4313436B60FFF73EFC9A
:101D700073680190012B15D10C226B681340042B62
:101D8000BED0FFF733FC019BC01A1F4B9842F3D91A
:101D90000320D6E7022A02D19B01E2D4D0E79B07B9
:101DA000DFD4CDE7022B12D00C226B681342A7D0F0
:101DB000FFF71CFC019BC01A134B9842F4D9E7E7CC
:101DC000FFF714FC019BC01A0F4B9842E0D80C227D
:101DD0006B681340082BF3D192E722689A43226084
:101DE00022681A42ACD190E76368084A1340F2684F
:101DF000134363608DE7C04600200240001002409C
:101E0000233B00080800002088130000FFF8FFFFB4
:101E1000014B18687047C04608000020044B054A73
:101E20005B685B055B0FD35C034A1068D840704762
:101E300000100240333B0008080000200122036824
:101E4000D96800201143D96019680A431A607047A5
:101E500070B5050002233D352B7003680A4A196AE4
:101E60000400114207D1196A084A114203D1012125
:101E70001A688A431A602000FEF774FF00203C3481
:101E80002870207070BDC04611110000440400008D
:101E90007047704770470222036810B51969040043
:101EA00011420ED0D96811420BD0053A1A619B69D4
:101EB000043202779B0700D179E0FFF7E9FF0023A6
:101EC0002377042223681969114210D0D96811427E
:101ED0000DD0093A1A61073222779A69C0239B0014
:101EE00020001A4269D0FFF7D3FF0023237708228E
:101EF0002368196911420ED0D96811420BD0113AEA
:101F00001A61DB690D32227720009B075BD0FFF757
:101F1000BFFF00232377102223681969114210D0D4
:101F2000D96811420DD0213A1A6119322277DA6943
:101F3000C0239B0020001A424BD0FFF7A9FF0023CB
:101F40002377012223681969114207D0D968114209
:101F500004D0033A1A612000FFF7F5F880222368C5
:101F60001969114208D0D968114205D0023AFF3AE6
:101F70001A61200000F009F9402223681969114212
:101F800007D0D968114204D0813A1A612000FFF7C6
:101F900081FF202223681969114207D0D9681142B4
:101FA00004D0413A1A61200000F0EEF810BDFFF7AE
:101FB000BEF82000FFF76DFF81E7FFF7B8F82000BB
:101FC000FFF767FF91E7FFF7B2F82000FFF761FF27
:101FD0009FE7FFF7ACF82000FFF75BFFAFE70000DB
:101FE000194A10B50368904202D0184CA04208D19B
:101FF0007024A3434C68234390420BD0134CA0425F
:1020000008D0134CA04205D0124CA04202D0124C72
:10201000A04203D1114C2340CC6823438024A34326
:102020004C69234303608B68C3620B6883629042F0
:1020300005D0084B984202D0074B984201D10B695A
:1020400003630123436110BD002C014000040040E4
:10205000002000400044014000480140FFFCFFFF19
:1020600070B504000120002C14D025003D352B78DC
:10207000DBB2002B05D122003C3213702000FFF7A9
:1020800043F8022320682B70211DFFF7A9FF0123CD
:1020900000202B7070BD10B501248C408A40036A6B
:1020A000A3430362036A1A43026210BD10B5040021
:1020B00000220068FFF7EFFF2368124A124993429B
:1020C00005D0124A934202D0114A93420AD11A6AA9
:1020D0000A4207D1186A0F4A104203D15A6C0E48BF
:1020E00002405A641A6A0A4207D1196A094A11421F
:1020F00003D101211A688A431A6001233D3400206C
:10210000237010BD002C014011110000004401405B
:102110000048014044040000FF7FFFFF10B5042485
:102120008C408A40036AA3430362036A1A43026233
:1021300010BD000010B5040000220068FFF7EEFF9C
:1021400023680C491A6A0A4207D1186A0A4A1042DF
:1021500003D15A6C094802405A641A6A0A4207D1EC
:10216000196A054A114203D101211A688A431A608B
:10217000002010BD1111000044040000FF7FFFFF8C
:1021800010B5FFF7D7FF10BD7047704703680649C9
:102190001A686A300A401A609A682331FF318A430C
:1021A0009A60202303707047DFFEFFFF704770B511
:1021B00006006936337804000220202B24D1013830
:1021C000002921D0002A1FD08023A5685B019D42F1
:1021D00004D12369002B01D1014215D125006835B6
:1021E0002B780220012B0FD023005033E1645A805A
:1021F0001A80002321222168E366327008685F326A
:10220000024318002B700A6070BD406A0023020070
:1022100010B55A321380083A1380FFF799F910BDB0
:1022200003006A3069331B78007818437047000058
:1022300070B504000568C2698368006929680343B2
:10224000606903433548134301400B432B606B68BF
:102250003349206A0B40E1680B436B60A369A968AE
:102260000343304801400B430321AB602E4B1B6BF3
:102270000B402E49C85C80231B029A422CD10828AF
:1022800027D8FDF74DFF05260B261E262626210002
:10229000FFF7C4FD636840005B0802E0636858080C
:1022A000234BC0186168FDF745FF83B200200F2261
:1022B000190091430A001B0721685B0F1343CB6091
:1022C00070BDFFF7DDFCE5E76368580880235B021B
:1022D000E7E701200023EAE708281DD8FDF720FFE3
:1022E000051C0A1C141C1C1C1700FFF797FD6168D5
:1022F0004B0802E061680F4B4808C018FDF71AFF51
:1023000080B2E8600020DBE7FFF7BAFCEFE780234C
:1023100061681B024808F0E70120D1E7F369FFFF7D
:10232000FFCFFFFFFFF4FFFF001002409E3B0008BD
:102330000024F40000127A00436A30B5DA0706D5AB
:102340000168284C4A682240846A22434A609A07FE
:1023500006D50168244C4A682240C46A22434A6078
:102360005A0706D50168214C4A682240046B224373
:102370004A601A0706D501681D4C4A682240446B22
:1023800022434A60DA0606D501681A4C8A68224060
:10239000846B22438A609A0606D50168164C8A68C7
:1023A0002240C46B22438A605A0610D50168134D3F
:1023B0004A68046C2A4022434A60802252039442B5
:1023C00005D14A680E4C2240446C22434A601B06E9
:1023D00006D502680B4953680B40816C0B43536070
:1023E00030BDC046FFFFFDFFFFFFFEFFFFFFFBFF0D
:1023F000FF7FFFFFFFEFFFFFFFDFFFFFFFFFEFFFAD
:10240000FFFF9FFFFFFFF7FF70B5041E01D1012002
:1024100070BD050069352B78DBB2002B04D10200BA
:1024200068321370FFF7C2FE2423012122682B704B
:10243000136820008B431360FFF7FAFE0128E6D0F3
:10244000636A002B02D02000FFF776FF23680B4958
:102450005A6800200A4008215A609A688A439A60A4
:10246000012219680A431A6022002023E0666A32BA
:1024700068342B7013702070CAE7C046FFF7FFFF67
:10248000F8B504000E0015001F002268D369334020
:102490009B1B59424B41AB4201D0002018E0069BE8
:1024A0000133F3D0069B002B13D123680C491A6823
:1024B00003200A401A609A68A331FF318A439A6068
:1024C0002200202369321370537000236834237074
:1024D000F8BDFFF78BF8069BC01B8342D5D2E4E71B
:1024E0005FFEFFFFF0B5070085B0039369373B78C7
:1024F00004000D0016000220202B46D101380029CF
:1025000043D0002A41D08023A2685B019A4204D1C3
:102510002369002B01D1014237D1230068331A7897
:102520000220012A31D001221A700023E3662133F0
:102530003B70FFF75BF8230050331E805E808026DF
:1025400002907601210052310A8892B2002A0DD100
:10255000039B402100932000029BFFF791FF00287E
:1025600012D1202368343B7020700EE00B880022CB
:10257000013B9BB20B80039B802100932000029BB8
:10258000FFF77EFF002802D0032005B0F0BDA3684E
:102590002268B34208D12369002B05D12B8802356C
:1025A000DB05DB0D1385CDE72B7801351385C9E7F6
:1025B000030030B569331B7802000220212B0FD1B4
:1025C00014005234238811689BB2002B09D10A6889
:1025D0007E3082430A604022086802430A6000207D
:1025E00030BD802095684001D36C85420DD11069C3
:1025F00000280AD118880233C005C00D0885D364AD
:102600002388013B9BB22380E9E7581CD0641B78E8
:102610000B85F5E74021026810B513688B43136002
:102620000300202269331A70FEF76EFF002010BDF0
:10263000020070B56A321178036822292DD1010099
:1026400080245C310D88998C640129408568436D34
:10265000A5421ED10469002C1BD1198002334365A9
:10266000010000245A310B88013B9BB20B80A3422E
:102670000DD103680C4D19682940196099682335FC
:10268000FF35A943996020231370FEF72DFF20002A
:1026900070BD5C1C44651970E2E708229969022448
:1026A0000A439A61F3E7C046DFFEFFFF0F2270B5D1
:1026B00004000068C36901681A4008D120252B4234
:1026C00005D0294203D02000FFF7B2FF70BD856816
:1026D000002A60D00122154003D1902676003142B5
:1026E00059D0134205D0CE0503D50262E66E3243BF
:1026F000E2660222134206D0002D04D00262E66E8A
:1027000092183243E2660422134206D0002D04D010
:102710000262E66E023A3243E2661A0708D58A067A
:1027200001D4002D04D008220262E06E0243E2666A
:10273000E26E002ACAD02022134204D0114202D0F5
:102740002000FFF775FFE36E20001B0704D4236809
:102750009D6840231D401AD0FFF718FD40212368D3
:102760009A680A420FD09A68606E8A439A6000287D
:1027700009D0134B4363FEF7B6FF0028A6D0606E66
:10278000436B9847A2E72000FEF7E2FE9EE7FEF7C4
:10279000DFFEE5669AE78022134205D0114203D09E
:1027A0002000FFF705FF91E74022134200D18DE79B
:1027B000114200D18AE72000FFF72CFF86E7C046D0
:1027C0000B22000802003F219A321388983001330F
:1027D0000B40138013880088C01A4342584140427E
:1027E0007047FE30C38C008D4033181A3F231840C9
:1027F00070470300FE33DA8C1B8D9A4203D0FC3005
:10280000426AD05C704701204042FBE70200FE3282
:10281000D18C138D994207D0FC30416AC85C3F21AE
:1028200001330B401385704701204042FBE7000055
:102830000123020070B53F250374FE32D48DE318E6
:102840002B40158EAB42FCD00500FC35ED6A943070
:102850002955D3850400FEF7F5FD002803D103496F
:102860002000FEF701FE012070BDC046C52700080C
:10287000037C002B04D0FE30C28D038E9A42FCD123
:1028800070470000054B10B5002B06D00448FFF739
:10289000A8FF002801D000E000BF10BD000000002C
:1028A000CC020020010003000022FC3111334B62F6
:1028B0005130ED33DA841A85C862DA851A8670479A
:1028C000002370B54360FA2305009B0083600F4B23
:1028D0000400083303600E4B0E00FF35984209D107
:1028E0000C4B5A7AAA771B7A6B772000FFF7DAFF36
:1028F000200070BD08493000FEF7BFFA0749A877ED
:102900003000FEF7BAFA6877EFE7C046A43B00084C
:10291000CC020020FC3A0008CC3A0008E43A000857
:1029200010B502490248FFF7CBFF10BD0038014047
:10293000CC020020F7B506000D000C008B180193A7
:10294000019B671B9C4207D0336821781B683000CD
:10295000984701340028F3D13800FEBD836810B5D4
:102960000400002B02D0032201009847200010BD74
:10297000704710B5FEF7A9F810BD000010B5FFF7BD
:10298000F7FFFDF7EDFDFDF765FE034B002BFAD0D9
:10299000FFF778FFF7E7C0468528000870B5064CBA
:1029A00020008130FF3005001438183DFFF7D6FFB6
:1029B0002800A542F7D170BDFC030020002310B50C
:1029C000012803D001334008DBB2F9E718214B435B
:1029D000044A181D10188168002902D0D218136902
:1029E000984710BDFC03002010B50120FEF75AFFE8
:1029F0000220FEF757FF10BD10B50420FEF752FF6E
:102A00000820FEF74FFF10BD70B50C241025A8B2AA
:102A1000013CFEF747FF6D00002CF8D170BD0000AF
:102A2000364B70B505211C00197019763034013110
:102A300021701C0000200834E0671C00304A1D0093
:102A40008C3422601C00483529709034013121708B
:102A50001C009C3420601C00A43422601C00A8349C
:102A600021701C00B43420601C00BC3422601C00A7
:102A7000C03421701C00CC3420601C00D43422608F
:102A80001C00D83421701D001C006035E43429700E
:102A900020601D001C007835EC34297022601D0078
:102AA0001C00FF35F0345A61DA625A64DA655A67FD
:102AB000D8605862D8635865D866217069729025CD
:102AC0001C006D005955183559551835595518358C
:102AD00059557631FC34FF31A2602262A26322652F
:102AE000A2665A502060A0612063A0642066A0679F
:102AF000044A054900F00AF870BDC046FC030020F6
:102B000000001110000000209D2900080B0010B5E6
:102B10000100180000F002F810BD000070B5054C6F
:102B200005001300201E04D00A000220290000E046
:102B300000BF70BD0000000070B500260C4D0D4CAC
:102B4000641BA410A64209D1002600F05DFF0A4DC7
:102B50000A4C641BA410A64205D170BDB300EB580B
:102B600098470136EEE7B300EB5898470136F2E795
:102B70005C3C00085C3C00085C3C0008743C0008BD
:102B8000002310B59A4200D110BDCC5CC45401336F
:102B9000F8E703008218934200D17047197001339F
:102BA000F9E7000070B50500002910D00C1F23685C
:102BB000002B00DAE418280000F065FE1D4A1368B7
:102BC000002B05D163601460280000F05DFE70BD2D
:102BD000A34209D9216860188342F3D118685B6861
:102BE00041182160EEE713005A68002A01D0A24282
:102BF000F9D919685818A0420BD12068091858183B
:102C000019608242E0D110685268411819605A6018
:102C1000DAE7A04202D90C232B60D5E721686018BF
:102C2000824203D1106852684118216062605C6082
:102C3000CAE7C0467C050020032370B5CD1C9D4328
:102C4000083506000C2D1ED20C25A9421DD83000D7
:102C500000F019FE254A14682100002919D1244CDE
:102C60002368002B03D1300000F02AFB20602900EC
:102C7000300000F025FB431C2CD10C2330003360C6
:102C800000F002FE03E0002DDFDA0C2333600020A9
:102C900070BD0B685B1B1AD40B2B03D90B60CC18CF
:102CA000256003E08C420ED163681360300000F0B1
:102CB000EBFD200007220B30231D9043C31AE7D001
:102CC0005A42E250E4E74B6863600C00EEE70C0008
:102CD0004968C2E70323C41C9C43A042E0D0211AE8
:102CE000300000F0EDFA431CDAD1C6E77C05002085
:102CF00080050020936810B5013B9360002B05DA36
:102D00009469A34208DBCBB20A2B05D01368581C88
:102D100010601970C8B210BD00F0E4FAFBE7F8B516
:102D200006000F001400D518AC4201D1002007E0C6
:102D300021783A003000FFF7DDFF0134431CF3D166
:102D4000F8BD0000F0B59FB006000F001400059319
:102D5000002804D08369002B01D100F087FC7F4B51
:102D60009F425CD17768BB891B0762D53B69002B0A
:102D70005FD0002306AD6B6120336B761033AB76EA
:102D80000294029C2378002B5DD1029BE31A0493EA
:102D90000DD0049B029A39003000FFF7C0FF431C9E
:102DA00000D1CCE06A69049B944663446B6123784C
:102DB000002B00D1C3E00122002352426A6002A925
:102DC0005432521801342B60EB60AB601370AB656A
:102DD00021780522624800F04BFD631C9C460028C8
:102DE00035D12968CB0604D5532302AA20309B187D
:102DF00018700B0704D553232B2002AA9B181870B8
:102E000023782A2B2CD000200A21099B2278303AE3
:102E1000092A00D86BE000282AD0099328E0514BFA
:102E20009F4201D1B7689EE74F4B9F429BD1F76805
:102E300099E73900300000F0ABFA002899D0012062
:102E400040421FB0F0BD252B9FD001349AE7444B80
:102E50002968C01A012383400B432B606446B7E7FF
:102E6000059B181D1B680590002B3ADB09936446EF
:102E700023782E2B0BD16378621C2A2B3FD1059B24
:102E800002341A1D1B680592002B35DB079321784D
:102E90000322364800F0ECFC002807D0334B2A68A8
:102EA000C01A4023834013432B6001342178631CF4
:102EB00006222F480293297600F0DAFC002844D03D
:102EC0002C4B002B2FD12968059B0722C90528D53B
:102ED0009B189343083305936B69039A9B186B61A6
:102EE0004FE75B42EB6002230B432B60BFE74B4392
:102EF00001349B18012089E701235B42C6E70023C8
:102F000014000A201A006B6021783039092903D98E
:102F1000002BBCD00792BAE7424301345218012378
:102F2000F2E70733D5E705AB00933A00124B2900CF
:102F3000300000E000BF0390039B0133CCD1BB897C
:102F40005B0600D57BE70B987BE705AB00933A0067
:102F5000094B2900300000F07FF8ECE71C3C00082A
:102F6000C83B00083C3C0008FC3B0008CE3B000886
:102F7000D23B0008000000001F2D0008F7B5150027
:102F800001938A680B6900900C00934200DA1300E9
:102F900022002B6043321278002A01D001332B60CB
:102FA00023689B0602D52B6802332B600627236813
:102FB0001F4027D0230043331B785A1E93412268B9
:102FC000920630D42200019943320098089EB047FF
:102FD000431C25D0062320682A68E16803400025A9
:102FE000042B03D18D1AEB43DB171D40A368226924
:102FF000934201DD9B1AED180027BD4220D100202D
:1030000010E00137E3682A689B1A9F42D2DA220057
:103010000123193201990098089EB047431CF0D152
:1030200001204042FEBD3020E118433108702100EC
:103030005A1C45310978A218433202331170C1E796
:10304000220001231A3201990098089EB047431CC0
:10305000E6D00137D1E70000F0B58BB006920A0048
:1030600043320793059004920A7E0C00109B6E2A4F
:1030700000D18FE017D8632A2CD008D8002A00D1BD
:1030800099E0582A54D026004236327029E0642A4A
:1030900001D0692AF7D121681A68080623D5111DC5
:1030A0001960156825E0732A00D188E008D86F2AD6
:1030B00029D0702AE7D1202209680A43226003E060
:1030C000752A20D0782ADED122007821453211706D
:1030D0006C4A30E00E001A684236111D1960136800
:1030E0003370012379E04906D9D5111D19600023F9
:1030F000D55E002D03DA2D23049A6D421370624BC6
:103100000A2703932FE020681968050603D5081DD8
:1031100018600D6805E04006F9D50D68081D1860B7
:10312000ADB2594B082703936F2A18D00A2716E02F
:1031300045310A70544A03921A682168101D1860BC
:103140001568080622D5CB0702D520231943216034
:103150001027002D03D1202322689A4322602300E8
:10316000002243331A706368A360002B5CDB0422E7
:10317000216891432160002D58D1049E002B64D01A
:103180002600039B42361B7833705EE04806DAD592
:10319000ADB2D8E709681A68080605D5111D19608F
:1031A000136862691A6006E04906F7D5111D1960B7
:1031B0001368A28A1A800023049E236154E01A68CF
:1031C000111D1960166800216268300000F050FB84
:1031D000002801D0801B6060636823610023049A8B
:1031E000137041E02369320006990598079DA847AE
:1031F000431C43D0236800259B070FD4099BE0683C
:1032000098423DDA18003BE022000123193206996A
:103210000598079EB047431C30D00135E368099AF2
:103220009B1A9D42F0DBE9E7002DA9D0049E2800FF
:103230003900FDF705F8039B013E5B5C2800337005
:103240003900FCF777FF051EF1D1082F09D123685B
:10325000DB0706D563682269934202DC3023013E16
:103260003370049B9B1B2361079B09AA00932100D9
:10327000069B0598FFF782FE431CB3D10120404214
:103280000BB0F0BDEA3B0008D93B00080FB40B4B74
:1032900013B51C68002C05D0A369002B02D12000B7
:1032A00000F0E4F905AB049AA16820000193FFF750
:1032B00049FD16BC08BC04B01847C046A800002051
:1032C000002370B5064C050008002360FDF702FCE2
:1032D000431C03D12368002B00D02B6070BDC04677
:1032E00088050020F8B505000E001400002804D061
:1032F0008369002B01D100F0B9F9224B9C422DD1FA
:103300006C68A369A360A3891B0731D52369002BCF
:103310002ED023682269F7B2981A6369F6B29842F0
:1033200005DB2100280000F033F9002826D1A3682E
:103330000130013BA36023685A1C22601F7063693F
:10334000984204D0A389DB071AD50A2E18D1210090
:10335000280000F01DF9002812D00FE00A4B9C4213
:1033600001D1AC68CDE7094B9C42CAD1EC68C8E7F3
:103370002100280000F00CF80028CAD0012676426F
:103380003000F8BD1C3C00083C3C0008FC3B000839
:10339000364B70B51D6806000C00002D05D0AB69DA
:1033A000002B02D1280000F061F9314B9C420FD173
:1033B0006C680C23E25E93B219072DD4D90611D4A0
:1033C00009230120336037331343A381404270BD8A
:1033D000284B9C4201D1AC68EBE7274B9C42E8D1DB
:1033E000EC68E6E75B0713D5616B002908D0230082
:1033F0004433994202D03000FFF7D4FB00236363CB
:103400002422A3899343A38100236360236923605B
:103410000823A2891343A3812369002B0BD1A02188
:103420008022A389890092000B40934203D021009F
:10343000300000F0D9F90123A289134011D00023F4
:10344000A36063695B42A361002023698342BED10C
:103450000C23E25E1306BAD540231343A38101383F
:10346000B5E7920700D46369A360EDE7A8000020E8
:103470001C3C00083C3C0008FC3B0008F7B58A896E
:1034800005000C00130760D44B68002B04DC0B6CA8
:10349000002B01DC0020FEBDE76A002FFAD00023DC
:1034A0002E682B6080235B011A4034D0606DA389A5
:1034B0005B0706D56368C01A636B002B01D0236CD1
:1034C000C01A0200216A00232800E76AB847A189D0
:1034D000431C06D12B681D2B31D82C4ADA40D30768
:1034E0002DD50023636023692360CB0405D5431CDD
:1034F00002D12B68002B00D16065616B2E60002922
:10350000C8D023004433994202D02800FFF74AFB79
:1035100000206063BFE70123216A2800B847431CED
:10352000C5D12B68002BC2D01D2B01D0162B01D189
:103530002E60AFE74023A2891343A381ABE740236A
:103540000B430120A3814042A5E70F69002FA1D0C2
:103550000B680F60DB1B01930023920700D14B69BE
:10356000A360019B002B00DC94E7019B3A00216AD9
:103570002800A66AB047002803DC4023A289134331
:10358000DFE7019B3F181B1A0193EAE70100402087
:103590000B6970B505000C00002B01D1002070BD37
:1035A000002804D08369002B01D100F05FF80B4B99
:1035B0009C4209D16C680C22A35E002BEED0210046
:1035C0002800FFF75BFFEAE7054B9C4201D1AC689E
:1035D000F1E7044B9C42EED1EC68ECE71C3C0008A0
:1035E0003C3C0008FC3B000810B5024900F0B2F872
:1035F00010BDC04691350008002310B504000360DB
:103600004360836081814366C2810361436183615A
:10361000190008225C30FFF7BCFA054B2462636294
:10362000044BA362044BE362044B236310BDC0460A
:103630008D380008B5380008ED3800081939000841
:1036400070B568254A1E55430E0029007431FFF7F6
:10365000F3FA041E08D000212A00016046600C30F5
:10366000A0606832FFF795FA200070BD836913B53A
:103670000400002B28D18364C3640365134B144AF0
:103680001B6882620193984201D10123836120006B
:1036900000F020F86060200000F01CF8A06020001E
:1036A00000F018F80022E06004216068FFF7A4FF32
:1036B00001220921A068FFF79FFF02221221E06882
:1036C000FFF79AFF0123A36113BDC046C43B000866
:1036D000E9350008F8B51E4B07001E68B369002BDA
:1036E00002D13000FFF7C2FF4836B4687368013B6F
:1036F00004D53368002B07D03668F6E70C22A55EA8
:10370000002D0DD06834F2E704213800FFF798FF50
:1037100030600028F0D10C2304003B602000F8BD8D
:10372000012320005B42E3810233A38165662560AB
:10373000A560656025616561A561082229005C308E
:10374000FFF727FA6563A563A564E564E6E7C0466D
:10375000C43B0008F7B50400070000260191483477
:10376000002C01D13000FEBD6368A5680093009B6A
:10377000013B009301D52468F2E7AB89012B08D9FE
:103780000E22AB5E013304D029003800019B98471C
:1037900006436835EBE7000070B50E001D000E23F0
:1037A000C95E90B01400002907DA00232B60B389AA
:1037B0001B0611D48023DB000FE001AA00F0D8F82B
:1037C0000028F2DBF022029B12021340054A9B18EC
:1037D0005A4253412B60EDE740230020236010B094
:1037E00070BDC04600E0FFFFF7B502268B890500DB
:1037F0000C00334206D023004733236023610123AA
:103800006361F7BD01AB6A46FFF7C6FF0099070089
:103810002800FFF711FA002808D10C22A35E9A05B0
:10382000EFD4032293431E43A681E4E70F4BAB6220
:103830008023A28920601343A381009B20616361E0
:10384000019B002B0DD00E23E15E280000F0A2F8B2
:10385000002806D00322A38993431A0001231343AF
:10386000A381A0893843A081CBE7C046E935000891
:10387000C9B28218904201D10020704703788B4270
:10388000FBD00130F6E770477047000070B50C00C0
:103890000E25495F00F0A4F8002803DB636D1B18B8
:1038A000636570BDA389024A1340A381F9E7C0464E
:1038B000FFEFFFFFF8B51F008B8905000C00160015
:1038C000DB0505D50E23C95E0022022300F074F843
:1038D000A389054A28001340A38132000E23E15E2C
:1038E0003B0000F01FF8F8BDFFEFFFFF70B50C00C4
:1038F0000E25495F00F060F8A389421C03D1054AF8
:103900001340A38170BD802252011343A3816065DF
:10391000F8E7C046FFEFFFFF10B50E23C95E00F0C9
:1039200015F810BD70B50500080011000022064C06
:1039300022601A00FDF7F6F8431C03D12368002B20
:1039400000D02B6070BDC04688050020002370B5F4
:10395000064C050008002360FDF7D6F8431C03D190
:103960002368002B00D02B6070BDC0468805002066
:10397000002370B5064C0500080011002360FDF718
:10398000C6F8431C03D12368002B00D02B6070BD08
:1039900088050020002370B5064C05000800236050
:1039A000FDF7BAF8431C03D12368002B00D02B602D
:1039B00070BDC0468805002070B5050008001100E4
:1039C0000022064C22601A00FDF7A8F8431C03D120
:1039D0002368002B00D02B6070BDC04688050020F6
:1039E00070B50500080011000022064C22601A0084
:1039F000FDF796F8431C03D12368002B00D02B6001
:103A000070BDC04688050020F8B5C046F8BC08BCAB
:103A10009E467047F8B5C046F8BC08BC9E46704745
:103A200002030405060708090A0B0C0D0E0F1010FF
:103A30000102030405060708090A0B0C0D0E0F10FE
:103A4000010003050402040302010000000000005D
:103A500000000000C1090008C5090008C9090008E4
:103A6000CF090008D5090008DB090008EF090008A4
:103A7000E5090008DF0900080400000000200040FC
:103A800012840000060000000004004012810000C3
:103A900007000000000400401201010009000000BE
:103AA000002C0140120201000A000000002C01401D
:103AB0001282010011000000000400401201020007
:103AC000FF00000000000000000000000A000000ED
:103AD0000038014012010000FF000000000000005B
:103AE0000000000009000000003801401201000041
:103AF000FF000000000000000000000000010203C1
:103B000004050607090A0D0E404105110000004892
:103B10000004004800080048000C00480014004859
:103B200004080C000000000000000001020304066D
:103B3000070809000000000102030454494D3A201F
:103B4000556E6B6E6F776E2074696D657220495289
:103B5000516E004552524F523A206174206C65619B
:103B60007374206F6E6520554152542070696E2029
:103B7000686173206E6F207065726970686572612C
:103B80006C0A004552524F523A205541525420700F
:103B9000696E73206D69736D617463680A00000457
:103BA00008020000000000000000000031280008AA
:103BB00035290008E32700080D280008F32700082E
:103BC00071280008AC000020232D302B2000686CE9
:103BD0004C00656667454647003031323334353630
:103BE0003738394142434445460030313233343569
:103BF0003637383961626364656600000000000092
:103C000000000000000000000000000000000000B4
:103C100000000000000000000000000000000000A4
:103C20000000000000000000000000000000000094
:103C30000000000000000000000000000000000084
:103C40000000000000000000000000000000000074
:0C3C500000000000000000000000000068
:103C5C0073290008E900000881060008F90900082A
:083C6C0021290008212A0008AB
:043C7400C100000883
:103C7800000000000A00000000127A0000000000A6
:103C8800000000000000000000000000000000002C
:103C9800000000000000000000000000000000001C
:103CA800000000000000000000000000000000000C
:103CB80000000000000000000000000000000000FC
:103CC80000000000000000000000000000000000EC
:103CD80000000000000000000000000000000000DC
:103CE80000000000000000000000000000000000CC
:103CF80008000000000000000000000000000000B4
:103D080000000000000000000000000000000000AB
:103D18000000000000000000AC00002000000000CF
:103D28001C3C00083C3C0008FC3B0008000000006C
:103D3800000000000000000000000000000000007B
:103D4800000000000000000000000000000000006B
:103D5800000000000000000000000000000000005B
:103D6800000000000000000000000000000000004B
:0C3D78000000000000000000000000003F
:0400000508000A796C
:00000001FF
