:020000040800F2
:1000000000100020E92F00083930000839300008BE
:1000100000000000000000000000000000000000E0
:10002000000000000000000000000000393000085F
:10003000000000000000000039300008130E000826
:10004000393000080000000039300008393000085D
:1000500039300008DB210008CB210008B521000859
:10006000000000003930000839300008393000083D
:1000700039300008050D0008393000080000000084
:10008000F10C00080000000000000000DD0C00087A
:1000900000000000C90C0008B50C00083930000849
:1000A000000000003930000800000000D31D0008E7
:1000B0000000000000000000000000000000000040
:1000C00010B5064C2378002B07D1054B002B02D02E
:1000D000044800E000BF0123237010BD1001002080
:1000E00000000000D8340008084B10B5002B03D0E6
:1000F0000749084800E000BF07480368002B00D10B
:1001000010BD064B002BFBD09847F9E7000000001C
:1001100014010020D8340008100100200000000065
:10012000002303817047014B18687047C005002009
:10013000C8207047FA2080007047C82040007047F0
:100140003220704710B5080001F054F810BDF0B52A
:10015000364B374C1B68227867789200D3400F22C9
:1001600085B01340FFB20293002F2FD1002B2DD06A
:100170003900042001F092F83900032001F08EF8D4
:100180003900022001F08AF83900012001F086F8D8
:10019000284D23780121EB5C06355E080393AB5DA7
:1001A000AD191800019301F079F86E780121300043
:1001B00001F074F80123039D1D4014D0390001980B
:1001C00001F044F80121300001F040F86378029A10
:1001D00093420EDA63780133DBB263706378032BEA
:1001E00018DC05B0F0BD0121019801F02FF82900BD
:1001F000E9E70021042001F051F80021032001F07B
:100200004DF80021022001F049F80021012001F001
:1002100045F8DFE70022627023780133DBB22370F8
:100220002378052BDDDD2270DBE7C046900100203E
:100230008002002028350008012070471622012086
:10024000014B40421A6070476C060020FEE7F0B593
:100250006E4B85B01B680C0009206D490292039318
:1002600000F0C7FD002800D1B1E00023694E9900DD
:100270007158DAB2002902D0096888422AD00133C5
:10028000082BF4D1644D2B0074331B78072B1FD936
:10029000624B5EE090425BD11B785BB22A008932F0
:1002A00013702B0009218833197096232A009B01B3
:1002B000AB6700230832D36728002A1DEB67D3679A
:1002C00000F0F4FD2B0074331B78072B00D97EE07F
:1002D00074352A789200B358190069310A78202AB7
:1002E0006DD1002C6BD06A461289002A67D080201D
:1002F0009E684001864204D11869002801D1E007B8
:100300005DD4180068300578012D58D0012505709E
:100310000020D866213008703C4909680191190015
:1003200050310A804A802100180052300288002A89
:1003300015D140251A68354ED16929404ED01A0092
:100340002021693211700022683302981A703FE050
:100350000C335A68002A9DD101235B429EE7028834
:10036000013A92B2028029481A6884468025D069F1
:1003700028400CD08020400186422BD118690028EB
:1003800028D108880231C005C00D1085CCE765462C
:10039000019F2D68ED1BFA27BF00BD42E6D9116809
:1003A0001F4D294011609168A335FF35A943916025
:1003B0001A002021693211705170013A1070134AED
:1003C00003991268521A17498A4200D884E700201C
:1003D00005B0F0BD087801311085A5E7019F3068B0
:1003E000C01BFA27BF00B842A6D910680C4D2840A0
:1003F00010609068A335FF35A84390601A00202054
:10040000693210705070013A1170D8E7C0050020B1
:10041000083600082C0100200800002020360008C3
:100420005FFEFFFFE70300000020704700207047D9
:100430000120704780239B0100204B607047012002
:1004400040427047094B02005968002901D1084910
:1004500059606946586882188A4205D90C220120E1
:10046000044B40421A6070475A60FCE7800200204B
:10047000700600206C06002010B5044800F0BBFA9E
:100480000021082000F00AFF10BDC04674040020BF
:1004900010B5002086B000F0C3FC0E49040009200E
:1004A00000F09AFC802310229B000193430013402C
:1004B000093A024013430322029303094004400E09
:1004C0001340059001A920000492039301F022FB40
:1004D00006B010BD0836000870B50500FFF7D8FF5C
:1004E0000B4C0C49200001F035FA002D09DA2800E8
:1004F00001F0D8FD0849200001F02CFAFFF7BCFFFD
:1005000070BD0A222900200000F034FBF2E7C0464B
:1005100074040020523600085736000870B50028D1
:1005200015DB642800DD6420062444436421200098
:1005300001F00CFF002304211D001E00834209DA94
:100540000E009A00964001333543DBB2F5E70024F4
:10055000260025002000642101F0DEFF080019219B
:1005600001F0F4FEB600B040014B2843186070BDA6
:100570009001002010B50021042000F08FFE002122
:10058000032000F08BFE0021022000F087FE0021F6
:10059000012000F083FE0022014B1A6010BDC0460E
:1005A0009001002010B5FFF7E5FF0021062000F0C4
:1005B0004DFE0021072000F049FE00210C2000F034
:1005C0006DFE10BD10B50A2000F014FE03000020DF
:1005D000834205D00B3000F00DFE431E98410130E0
:1005E00010BD70B5194E316800292BD0B369002BAE
:1005F00028D0174A00201268914222D864309342D2
:100600001FD900231C00052B1CDC0133DBB2990031
:100610007158002901D1062BF7DDA0003558AA42F8
:10062000F0D38A42EED2521B181B5043491B0001E3
:1006300001F002FE050064200621604301F086FE01
:10064000281870BD01204042FBE7C0464C02002044
:1006500048020020F0B58DB0B44D280000F0F2F94A
:10066000002809D0280000F0E0F9C0B2232803D008
:10067000280000F0C9F9EFE706AC1822002120009D
:1006800002F014FDAA4B069304236360A94BE360B8
:1006900001232361059301F017FD029000286BDB15
:1006A00006A8036887680193029ADB5D9A4265D1C8
:1006B0004368013787609F4200D06DE0001B9E4F6A
:1006C00080104743002F57D101F0FEFC002802DBC9
:1006D000202800D0C6B2502E0AD030003038C2B226
:1006E000172A00D989E0954BD340DB0700D43FE1BE
:1006F00001F002FD002800DA77E02D2804D0030085
:10070000303B092B00D969E000240094012809D06E
:100710002D2867D00300303B092B03D80A235C4304
:100720002418303C280000F06FF901F0E5FC0300CC
:10073000303B092BEAD90128F4D0009B002B00D0D4
:100740006442FFF7A5FE002C51DA200001F0AAFC5C
:10075000FFF792FE462E00D17CE05DD8412E00D1FD
:1007600074E04CD8252E00D176E005D33300303B21
:10077000DBB2062B00D8BCE00DB0F0BD002F0BD0D3
:100780000397039B019A013BD25C0299914221D1CC
:10079000002B07D1059B83600C300CAB984200D036
:1007A0007FE778E700220092019AF91A89180491EC
:1007B000009A0199895C8C460499895C8C4504D126
:1007C0000099013100918B42F2D8009A934203D1F3
:1007D000039BE0E7002BDED00393D2E7280000F074
:1007E00013F985E7012300939CE70024A9E70A2277
:1007F0002100280000F0BEF9AAE70024AAE7442E51
:1008000031D000D980E0422EB6D14D4C207AFFF78E
:1008100063FE00232372AFE7522E5DD00ED84C2E1C
:1008200000D17FE0502E40D0472EA5D1454B20006F
:100830001A68454B1A60FFF771FE9DE7542E0ED0E3
:1008400045D3562E98D1414B186800E00120FFF7A0
:1008500043FE91E70020FAE7FFF7C3FEF7E7FFF753
:10086000B1FEF4E700240A25364B1A68364B1A60AD
:100870002900200001F050FEFF230B40042B00DD77
:1008800004210F26B80086408140314A20001368B9
:100890000137B34319431160290001F057FD0400EB
:1008A000062FE5D168E70024C0E7E117091BC90F4F
:1008B000062000F0CBFC274B1A78012A00D05BE71A
:1008C00001321A701F4B1A68234B1A6054E7FFF766
:1008D00069FE04221F4BF4E70021072000F0B6FC5C
:1008E0000A2000F07EFC0121072000F0AFFC43E766
:1008F0000024FFF767FE022800D03DE73300174AC7
:10090000303B9B009C5037E70E4B1A6800239C42FB
:1009100004DB134923008C4200D90B009B18114AB9
:10092000136029E7074B1A680E4BCEE774040020CA
:100930005236000858360008ABAAAAAA7F00B000B9
:1009400080020020C0050020740200204802002020
:10095000900100208C010020680200204C02002041
:10096000102700007C020020104B00241A68D0E7FA
:10097000172800D900E701F0D5FDBBFFBBFFBBFF87
:10098000BBFFBBFFBBFFBBFFFFFEFFFEFFFEFFFE8B
:10099000FFFEFFFEFFFEFFFEFFFEFFFE69FF48FFBA
:1009A000FFFE75FFF7FF6DFF96FFC046C0050020F4
:1009B000F7B506000D000C008B180193019B671B17
:1009C0009C4207D0336821781B6830009847013477
:1009D0000028F3D13800FEBD02003F219A3213886F
:1009E000983001330B40138013880088C01A4342AB
:1009F000584140427047037C002B04D0FE30C28D2A
:100A0000038E9A42FCD170470200FE32D18C138DC6
:100A1000994207D0FC30416AC85C3F2101330B404A
:100A20001385704701204042FBE70300FE33DA8C58
:100A30001B8D9A4203D0FC30426AD05C7047012083
:100A40004042FBE7FE30C38C008D4033181A3F2331
:100A50001840704710B50448FFF7F4FF002801D094
:100A6000FFF7F8FD10BDC04674040020F8B5020081
:100A700001233F250374FE320400D08DC3182B40A0
:100A8000158EAB42FCD025002600FC35ED6A0936F8
:100A90002954FF36D3853378164D9B005A592100CF
:100AA00010006A3269300078127894310243212AAA
:100AB0001DD0114A1148270098500020D3181F3725
:100AC0001962FF370021385601F0D4F8002038565B
:100AD00001F000F9230029342F33FF33FF341B8842
:100AE0002168C91833789B00585901F035FB012063
:100AF000F8BDC0462C0100208C020020D909000856
:100B000070B5041E27D0030074331B78124A9B0073
:100B100098580300020069336A321B7811780B433E
:100B2000222B18D02100137875310D78202B01D19C
:100B300001F068FA22003F219032138801330B4004
:100B40002100923109888B4205D08C3411882068AD
:100B50009BB24554138070BD2C010020406A0023D5
:100B6000020010B55A321380083A138001F01CF9C4
:100B700010BDFEE7F0B58BB06B46150000220533C3
:100B800006000F00DA77012D00DC0A2509AC2900E8
:100B9000380001F051FB01006943791AC9B20B001A
:100BA0003733013CDBB2092901D83031CBB2237095
:100BB000071EECD12100300000F0CCFE0BB0F0BDE0
:100BC000F7B507000D000024C31D061D0193317801
:100BD0000A222800FFF7CEFF2B6800901B682E2109
:100BE00028009847009B0136C018019B2418B34287
:100BF000EDD1F97928000A22FFF7BCFF2018FEBDCD
:100C0000010070B56A310A780368222A33D10200E4
:100C100080245C3215889A8C64012A408568436D73
:100C2000A5420FD10469002C0CD11A800233436510
:100C300002005A321388013B9BB21380002B05D06F
:100C400000201DE05C1C44651A70F1E70268104D3D
:100C500014682C40146094682335FF35AC439460CD
:100C600020220A700B499A008C58A04209D0013307
:100C7000082BF8D1E4E70822022099690A439A6117
:100C800070BD0549054B5058D3589847D8E7C04622
:100C9000DFFEFFFF2C0100206C0100204C01002032
:100CA0000F22030913409B00024058580123D040F3
:100CB00018407047034B10B5186C002801D000F0A5
:100CC00057FE10BDF0010020034B10B5D86B002873
:100CD00001D000F04DFE10BDF0010020034B10B517
:100CE000586B002801D000F043FE10BDF001002039
:100CF000034B10B59868002801D000F039FE10BDF4
:100D0000F0010020034B10B51868002801D000F056
:100D10002FFE10BDF0010020836C10B5021F002BC8
:100D200005D0017F012902D100211000984710BD94
:100D30000023421C0DD00B4A0D33904209D00AD833
:100D4000094A0333904204D0084A0333904200D04A
:100D5000002318007047064A15239042F9D0054A2F
:100D60000133F3E7002C0140000400400020004064
:100D700000440140004801400121114B11481A680C
:100D80000A431A605A6802405A601A680E480240C4
:100D90001A601A680D4802401A605A680C480240EE
:100DA0000F205A60DA6A8243DA621A6B09480240FD
:100DB0001A635A6B8A435A6300229A607047C0468E
:100DC000001002400CB8FF08FFFFF6FEFFFFFBFF1C
:100DD000FFFFC0FFECFEFFFF0200431C06D0002017
:100DE0000856431C02D0824201D1886870470C31FA
:100DF000F5E70023421C06D118007047984201D144
:100E00004B68F9E70C310023CB565A1CF6D100236E
:100E1000F2E7024A1368013313607047C0050020EF
:100E20007FB50023042810D81B4B80215A6901F09C
:100E3000F9F9030F18212A0089020A435A615B69F4
:100E40000B400193019B9023DB05180007B000BD08
:100E5000C9020A435A615B690B400293029B0F4B24
:100E6000F3E709030A435A615B690B400393039B51
:100E70000B4BEAE749030A435A615B690B40049351
:100E8000049B084BE1E7C9030A435A615B690B40C5
:100E90000593059B044BD8E700100240000400486E
:100EA00000080048000C004800140048F0B5040099
:100EB00089B0002800D14AE188208925A749205619
:100EC000FFF797FF65570600A5492800FFF791FF38
:100ED000002800D13BE1002E00D138E133008642EA
:100EE00000D000232360002B00D130E19D4A9E4EAC
:100EF000934215D18022F368D2011343F360F36863
:100F00009A490B40F360B3691343B361B36913406B
:100F10000293029B2300002274331A701B329A75CD
:100F20000F2728093840FFF77BFF89250090655778
:100F30008B492800FFF750FF01233D40AB401022B2
:100F4000039343001340093A0240134304930323DD
:100F5000032206930309134005937F23000A1840D8
:100F600003A907902500009800F0D4FD00208835E3
:100F7000285600093840FFF753FF00902D78774935
:100F80006DB22800FFF728FF01233D40AB4010223F
:100F9000039343001340093A02401343049303238D
:100FA000032206930309134005937F23000A184088
:100FB000079003A9009800F0ADFD230074331B785F
:100FC0006B49221D9B005A50D06F0432D76F0C2200
:100FD000A2610022E26122622200E36F2568A16F14
:100FE0006D326560A1600193E360206167610092EA
:100FF0001278D2B2002A04D16C239C46A4446346E2
:101000001A702422009B1A7001232A689A43019BBC
:101010002A603B430C272A683B43564F3A40134310
:101020002B606B68544A1340184368600320AB6818
:10103000524A1340626A1343AB60336B504A034019
:10104000D05C082800D982E001F0ECF8058110811D
:1010500013818181830073685B055B0FD318494A54
:101060001B791068D8404B08C01808E04808464B68
:10107000FAE700F0FFFCA368A1685B08181801F00C
:10108000DBF880B2E860A26A6368002A49D0D10721
:1010900005D559683D480140E06A01435960910710
:1010A00005D559683A480140206B01435960510702
:1010B00005D5596837480140606B014359601107F5
:1010C00005D5596834480140A06B01435960D106E9
:1010D00005D5996831480140E06B0143996091065C
:1010E00005D599682E480140206C0143996051064E
:1010F0000FD559682B4D606C294001435960802100
:101100004903884205D1596827480140A06C014332
:101110005960120605D55A6824490A40E16C0A4311
:101120005A605A6822490A4008215A609A688A43DC
:101130009A60012219680A431A600023202200994C
:1011400023670A7021006C346E310A70237009B075
:10115000F0BD802348081B0286E7C0460836000819
:10116000203600080038014000100240FFBFFFFF9A
:101170002C010020F369FFFFFFCFFFFFFFF4FFFF0B
:1011800044350008A800002000127A00FFFFFDFF90
:10119000FFFFFEFFFFFFFBFFFF7FFFFFFFEFFFFFF4
:1011A000FFDFFFFFFFFFEFFFFFFF9FFFFFFFF7FFE7
:1011B000FFF7FFFFF0B50F270400000987B03840A4
:1011C0000E001500FFF72CFE01233C40A3400193C5
:1011D000032301A904930296039500F09BFC07B03A
:1011E000F0BD034A116813685B1A8342FBD3704752
:1011F000C005002010B50F281DD8114B1C56631CCC
:1012000019D010492000FFF74BFD0023984210D061
:101210000F2122090A40042A0FD801200C40A040C7
:10122000094B92009A18D3681B690340581E8341EA
:10123000DBB2180010BD0023FBE71B69FFDEC046D0
:1012400038360008CC0200204435000870B50D0087
:101250000F2819D80E4B1C56631C15D00D492000C1
:10126000FFF71EFD00280FD023061B0F0022042BC2
:1012700003D8094A9B00D318DA680F231C400E3BA1
:10128000A340002D01D0936170BD9362FCE7C0467E
:1012900038360008CC02002044350008F8B50E00AE
:1012A0000F282ED81B4B1C56631C2AD01A4F200027
:1012B00014373900FFF7F4FC250900280AD00F2362
:1012C0002A001A409200BF18012223409A403B682E
:1012D00093433B60032E09D8300000F0A3FF0218AF
:1012E0001316002211002000FFF764FF0F231D409A
:1012F0001C400E3BA340084AAD0055192A68134311
:101300002B60F8BD01220021EDE70222FBE700225D
:101310000121E8E738360008CC02002070B5032927
:101320000BD004290BD0022906D10F4B1A680F4BA2
:101330001A6001220E4B1A7070BD0222FAE70A4DA4
:101340000C4B2A689A42F7D964242000FFF7E6F88C
:101350000420FFF746FF013CF7D20322064B1A7028
:101360002A68064B1A60E7E7C005002078020020D3
:1013700088020020881300008C01002068020020F1
:101380000523F0B5A1B0019300230093019B013B1D
:101390000193002B00D1A1E200244C2200210DA8D2
:1013A00001F084FE04AB0B4911205C80FFF721FDA6
:1013B0000D90A04212D10023074A12680C2A05D0D2
:1013C0000B2A00D987E20C218A1AD340009AD3183D
:1013D000DBE7C04664350008040000208023DB05FD
:1013E0000E930423C2271E941293DB4C023B1B93E3
:1013F0000F3323701E9BFF371797002B1DD11F93B0
:10140000D64B984209D18020D54A8000916901438A
:101410009161936903400593059B0120FFF700FD4F
:101420000F23227808A91A400E3B93400893032308
:10143000099300230A9300F06DFB1E9BDB0600D589
:10144000BCE104230D9CA2681A4000D0B6E11E98AE
:10145000C449023B0840034303201E93A368039141
:101460000340012B00D04EE22168194203D1E3680A
:101470001B0400D447E2E368BB49159D0B40E360C1
:10148000139B6E039903149BDB030B431A99481EAD
:10149000411E88410103109803431E43119B029390
:1014A000022B00D10422199B580002933043169B53
:1014B00008430243012B05D1002D00D06AE18023AF
:1014C0005B021A43179BBB4203D018990B4302914E
:1014D0001A43E3681B9E1343E36080235B059E422F
:1014E00002D0731E062B07D80723616999436161F7
:1014F000616933400B436361E3689C490B409A4246
:1015000000D04FE1002503221F951E9B984F934367
:101510001A0001233900134311201E93FFF75CFCCE
:101520000003C00E0138102800D84AE100231DAA8C
:1015300006931378012B00D13DE701231370A268B5
:10154000520700D561E1AB40A26A1343A362802336
:101550005B059E420ED0013E062E0BD90722636921
:101560001340022B06D063699343636102236269CF
:10157000134363612B00103B012B00D828E10123AA
:1015800003211DAC23700D9B9A680A40012A07D1E4
:101590001968114200D0C5E1DA68120400D5C1E132
:1015A0001E99039A0320114002220A431E92DA6810
:1015B000D9688143D9608021986809060143996000
:1015C0006C490D689868002800DA23E10321D86887
:1015D0000A400243DA6001231E9A8A4313431E9392
:1015E000002300222270934200D0E4E60D9DAA68F9
:1015F000520700D5DFE601222270149A0292012AD6
:1016000000D011E11E9B5C4A1A4080235B0013430B
:101610001E931C2200231F9323702A60A968183A86
:101620000A431299AA60082900D035E1514A166888
:101630002B680B4000D139E180231E9A9B00134395
:101640001E93C023EA681B011A4214D1159B029312
:10165000002B10D12B681B070DD5AB685B0700D59D
:101660002CE10C226B6893436B601E9B434A1A402B
:10167000012313431E93139B0293002B01D10C33C0
:101680002B601E9B9B0503D52B6C04AA9BB2538039
:1016900001250DA8257000F029FB002809D10DA80F
:1016A00000F04CFB002804D11E9B344A13401D431C
:1016B0001E9500221DAB1A70904200D07BE60223DB
:1016C0001E9A0DA813431E9300F010FB002800D0B3
:1016D000FDE00DA800F032FB012800D16BE60123EC
:1016E0001E939F210D9B264C5A688A435A601960AD
:1016F000DA6824490A400721DA601A6992009208E0
:101700001A615A698A435A611A6A1F490A401A6261
:101710009A6A1E49D20CD2049A620A6822400A6070
:101720000E4A93420CD180220D4B9200D968184C7E
:101730000A43DA60D9682140D9609A6922409A61E7
:1017400000231F931E93984200D034E604AB02336B
:101750001B889BB230E6C046A40000200024014054
:1017600000100240FDFEFFFF1902FEFFE7FF3F836E
:1017700064350008C0050020FEF0FFFFFEFEFFFFFD
:10178000FFFF3FFF00023E8300F000F0082701400A
:10179000FFFDFFFF20211E9801431E911F990B435F
:1017A0001F938FE612221E9B93431A0010231343AC
:1017B0001E9301231F9A13431F93FCE51E9A1023C7
:1017C00025E005373818C57F112D00D9F3E5ADE6C2
:1017D000574A80211368102D15D0C9030B4313609D
:1017E000102D00D0CBE6534B5349186800F024FD70
:1017F0000A2358430690069B002B00D1BFE6069BA8
:10180000013B0693F7E70904E8E720231E9A1343F8
:101810001E93D0E50868401B022800D8D2E61222A9
:101820001E9B93431A00CAE703220793AB68134039
:10183000012B07D12A681A4200D0E3E6EB681B04AB
:1018400000D5DFE6AA683D4B1A4201D01E9AADE7EB
:101850000123AA6838491343AB60364B186800F07F
:10186000EBFC0790079B002B12D10120344A16682D
:101870002B68034000D0C5E61168891B0229F7D9FF
:1018800010211E9A11431E911F9A02431F9293E545
:10189000079B013B0793E5E7EA680C21D20700D4D8
:1018A000C4E620221E990A431E9285E51068801B1B
:1018B0000A2800D8BCE61E990422F4E720231E9AC9
:1018C00013431E9301231F9A13431F93D3E601284A
:1018D00000D006E76FE50C3A934077E5009B980847
:1018E000184B5843184BD969DB69090E1B0CDBB246
:1018F0000902C918154B89B2994200D1144900F068
:101900009BFC21B0F0BD1821E3688B430F990B437A
:10191000E360236902919B000E999B080B4302919F
:101920002361A8E520231E9A13431E93012358E642
:1019300008270140A800002040420F001700008047
:10194000C0050020C05D000000200240FFFF000035
:101950002F0C000070B505000C00081E07D000F029
:1019600059FC2B6802005B6821002800984770BD75
:101970000222036810B51969040011420DD0D9681C
:1019800011420AD0053A1A61043202779B699B071B
:1019900001D1FFF7C1F900232377042223681969D5
:1019A000114210D0D96811420DD0093A1A6107329C
:1019B00022779A69C0239B001A4202D12000FFF7C8
:1019C000ABF90023237708222368196911420ED04E
:1019D000D96811420BD0113A1A610D322277DB69B6
:1019E0009B0702D12000FFF797F9002323771022ED
:1019F00023681969114210D0D96811420DD0213ADB
:101A00001A6119322277DA69C0239B001A4202D187
:101A10002000FFF781F90023237701222368196949
:101A2000114209D0D968114206D0033A201F1A6129
:101A3000836C002B00D098478022236819691142DB
:101A400005D0D968114202D0023AFF3A1A61402209
:101A50001969114204D0D968114201D0813A1A6142
:101A600020221969114204D0D968114201D0413AAB
:101A70001A6110BD70B5144C88B004AD102221005D
:101A8000280001F02FFB210010221031684601F0E0
:101A900029FB0C220D4E73681A40082A11D10F2021
:101AA000990C01406C5C6946F26A0240895CDB0378
:101AB00005D5074800F0C0FB604308B070BD05487D
:101AC000FAE70348F9E7C0469935000800100240DC
:101AD00000127A0000093D000C4B10B55A69104203
:101AE00012D058610023012803D001334008DBB233
:101AF000F9E718225343064A181D80188168002907
:101B000002D0D2181369984710BDC04600040140A6
:101B1000F4020020F0B50B6887B002930023019116
:101B2000029ADA4001D107B0F0BD01229A40039237
:101B30000399029A0A40009200D18CE0019A102188
:101B4000526816008E43022E0ED107251D40AD00AF
:101B50000139A940DC08A4000419276A8F430199C0
:101B60000969A9400F43276203245F00BC40E44396
:101B70000568013E2540AC4603251540BD40614641
:101B80000D430560012E0FD801998668CD68264067
:101B9000BD40354385604668039915098E43012190
:101BA0000D409D4035434560C56801992C408D68C6
:101BB0008021BD4049052C43C4600A424BD001211D
:101BC000264C0326A5691E400D43A561A4699D0806
:101BD0000C400594059C0F242149AD00B6006D18FA
:101BE000B4409021AF68C905A743002488420CD0B7
:101BF0001C490134884208D01B490134884204D072
:101C00001A490334884200D1023CB44000993C4355
:101C10000E00AC60164CCD4327683E43D10301D47F
:101C20003E002E4026606768009E3E43910301D42B
:101C30003E002E406660A768009E3E43D10201D45C
:101C40003E002E40A660E668009F3743920201D412
:101C50002E403700E760013362E7C04600100240C3
:101C6000000001400004004800080048000C004843
:101C70000004014070B58901002812DB8308134A73
:101C800003249B009B18FF222040A0401400C02585
:101C9000844011408140AD005E59A6433143595103
:101CA00070BD03240F23C0B203402040A040FC3489
:101CB0002500214085408140083B054A9B089B0048
:101CC0009B18DA69AA431143D961E9E700E100E012
:101CD00000ED00E0002805DB1F2318401E3B834079
:101CE000014A13607047C04600E100E00422036827
:101CF00030B59968114201D1002030BD9968114278
:101D000006D09A68920703D4102299680A439A6011
:101D1000042409490D689A682242EDD00A68521BD2
:101D2000022AF8D91023426C134343640123826CC6
:101D30001A4382641800E0E7C0050020032103680D
:101D400030B59A680A40012A01D0002030BD1968D8
:101D5000114202D1DA681204F7D505219A680A40C7
:101D6000012A14D102219C682143996003210D4C62
:101D70001960256899681142E7D02168491B02293A
:101D8000F8D91023416C0B434364836C05E01023A6
:101D9000426C134343640123826C1A438264012022
:101DA000D4E7C046C0050020036882B0DA69D207D4
:101DB00003D59B8C9BB2019308E0DA699207F8D4B3
:101DC000DA695207F5D4DA691207F2D4019B02B03E
:101DD0007047F8B58021C0237A4A09055B00D150CD
:101DE0000F21794D2C682368DA691868114008D1F1
:101DF0002026324205D0304203D02000FEF700FFFB
:101E0000F8BD9E6800297CD001210E4003D19027A7
:101E10007F00384275D00A4205D0C50503D5196246
:101E2000E56E2943E16602210A4206D0002E04D065
:101E30001962E56E49182943E16604210A4206D079
:101E4000002E04D01962E56E02392943E1661107BC
:101E500008D5810601D4002E04D008211962E36E52
:101E60001943E166E36E002BCAD020231A4204D046
:101E7000184202D02000FEF7C3FEE26E236812076C
:101E800003D440229D68154036D01A684F4920205F
:101E90000A401A60012299689143996021006A31D1
:101EA000087099680018014222D099688143606ED9
:101EB000996000281CD0464B841C4363E37F022BAF
:101EC00004D004238363FEF749FE99E70E250368D7
:101ED0001968A94319601968056C914319601100CC
:101EE000A940C36B5960E2770022431CDA77EAE726
:101EF0002000FFF759FF83E72000FFF755FFE56655
:101F00007EE780210A422DD008422BD02200693280
:101F10001278212A00D073E7200052300288002A6C
:101F200007D11A688A431A60402219680A431A6066
:101F300066E78021A5684901E26C8D420DD12169D7
:101F400000290AD111880232C905C90D1985E26438
:101F50000388013B9BB2038052E7511CE164127875
:101F60001A85F5E740210A4200D149E7084200D12D
:101F700046E71A688A431A602300202269331A70E0
:101F800000239A00AA58944203D00133082BF8D1B9
:101F900036E7104ADBB29B009C580F4A20009B5842
:101FA0009847431C00D12BE7230022009A33943238
:101FB0001B8811687434C91823789B00E85800F016
:101FC000CBF81DE700E100E02C010020DFFEFFFF61
:101FD0005D0B0008AC0200208C02002070B5084C9C
:101FE00020008130FF300500183DEB681438002BCD
:101FF00002D00322010098472800A542F3D170BD0A
:10200000F4020020802230B584680300520194421B
:1020100005D10269002A02D10120014228D11A000B
:10202000683215780220012D22D0013810705965D0
:102030001900583108804880802149018C421AD10A
:102040001969002915D10F4819005C310880190061
:10205000002022246A31D8660C70107001221B689F
:1020600099680A439A609022196852000A431A60DC
:1020700030BDFF20E8E7002CE9D119690029F8D02C
:102080007F20E1E7FF0100000100054810B5826CE8
:102090005468002C02D03C30C27AA04710BDC04624
:1020A0007405002070B5074E04002D213000FEF7A6
:1020B000DDFC614205000A223000FEF75BFD40199D
:1020C00070BDC0467404002070B5094D094CEB6C1E
:1020D000E3602000FEF798FC002807DAE268EB6C6A
:1020E0009B1AA2689342F4D30120404270BDC046BF
:1020F000740500207404002070B5094D094CEB6C88
:10210000E3602000FEF791FC002807DAE268EB6C40
:102110009B1AA2689342F4D30120404270BDC0468E
:102120007405002074040020FA21094B10B51868CA
:10213000890000F081F800F093FEC02205491206E4
:102140000B6A00201B021B0A13430B6210BDC04622
:10215000A800002000ED00E030B5050069352B78BF
:1021600002000220202B24D10138002921D0802315
:1021700090685B01984205D11369002B02D10120C0
:10218000014216D11400683423780220012B10D0AC
:10219000D1641100012350310B804B800023212199
:1021A000D3662970237011688022086802431800E2
:1021B0000A6030BD70B50C241025A8B2013CFFF7B1
:1021C0008BFC6D00002CF8D170BD10B50420FFF71A
:1021D00083FC0820FFF780FC10BD10B50120FFF73D
:1021E0007BFC0220FFF778FC10BD10B500F070FFFB
:1021F00010BD10B500F06CFF10BD10B500F068FF09
:1022000010BD10B500F05AFF10BD10B500F056FF1C
:1022100010BDC0460023C25C0133002AFBD1581E0A
:102220007047000002B4714649084900095C490042
:102230008E4402BC7047C046002243088B4274D3D0
:1022400003098B425FD3030A8B4244D3030B8B42B7
:1022500028D3030C8B420DD3FF22090212BA030CC0
:102260008B4202D31212090265D0030B8B4219D3A1
:1022700000E0090AC30B8B4201D3CB03C01A5241C1
:10228000830B8B4201D38B03C01A5241430B8B4209
:1022900001D34B03C01A5241030B8B4201D30B03F2
:1022A000C01A5241C30A8B4201D3CB02C01A524119
:1022B000830A8B4201D38B02C01A5241430A8B42DC
:1022C00001D34B02C01A5241030A8B4201D30B02C5
:1022D000C01A5241CDD2C3098B4201D3CB01C01ADF
:1022E000524183098B4201D38B01C01A52414309E9
:1022F0008B4201D34B01C01A524103098B4201D3D7
:102300000B01C01A5241C3088B4201D3CB00C01A43
:10231000524183088B4201D38B00C01A52414308BB
:102320008B4201D34B00C01A5241411A00D20146E0
:10233000524110467047FFE701B5002000F0F0F869
:1023400002BDC0460029F7D076E7704703460B432D
:102350007FD4002243088B4274D303098B425FD39E
:10236000030A8B4244D3030B8B4228D3030C8B42CA
:102370000DD3FF22090212BA030C8B4202D31212B0
:10238000090265D0030B8B4219D300E0090AC30B85
:102390008B4201D3CB03C01A5241830B8B4201D332
:1023A0008B03C01A5241430B8B4201D34B03C01A1B
:1023B0005241030B8B4201D30B03C01A5241C30A93
:1023C0008B4201D3CB02C01A5241830A8B4201D304
:1023D0008B02C01A5241430A8B4201D34B02C01AEE
:1023E0005241030A8B4201D30B02C01A5241CDD293
:1023F000C3098B4201D3CB01C01A524183098B42DE
:1024000001D38B01C01A524143098B4201D34B01C6
:10241000C01A524103098B4201D30B01C01A524129
:10242000C3088B4201D3CB00C01A524183088B42B0
:1024300001D38B00C01A524143088B4201D34B0099
:10244000C01A5241411A00D201465241104670470B
:102450005DE0CA0F00D04942031000D34042534010
:1024600000229C4603098B422DD3030A8B4212D3D0
:10247000FC22890112BA030A8B420CD38901921102
:102480008B4208D3890192118B4204D389013AD03F
:10249000921100E08909C3098B4201D3CB01C01A14
:1024A000524183098B4201D38B01C01A5241430927
:1024B0008B4201D34B01C01A524103098B4201D315
:1024C0000B01C01A5241C3088B4201D3CB00C01A82
:1024D000524183088B4201D38B00C01A5241D9D29A
:1024E00043088B4201D34B00C01A5241411A00D21B
:1024F0000146634652415B10104601D34042002B17
:1025000000D54942704763465B1000D3404201B595
:10251000002000F005F802BD0029F8D016E770474A
:102520007047C04603B47146490840004900095E3F
:1025300049008E4403BC7047F0B5012187B00C20E0
:10254000FEF7ACFE01210720FEF7A8FE01210620C0
:10255000FEF7A4FE00210800FEF7A0FE00210720E0
:10256000FEF774FE02210A20FEF798FE02210B20DE
:10257000FEF794FEB04CE122230025000026FC3338
:102580005202AE48FF351A61DE619E615E61FEF760
:102590008DFC6B7AAA4F9B00DA5911006A326931BF
:1025A000097812780A43222A18D01F20A54AFB185E
:1025B0001A62A24A31001A642856FFF75BFB1F20FB
:1025C0002856FFF787FB6B7A9B00D85903006A33C4
:1025D0001B78202B02D19C49FFF714FD0223A36036
:1025E000FDF74AFF994E9A4BF06843600723028932
:1025F000134303810368DB689847002801D0FEF786
:10260000F0FD0025934BFA211D70934B934ABB6656
:102610003B00B0331A60924B7D6618688900FFF763
:102620000BFE8D4B80B2FB660123BB673B1DDD6754
:102630003B0080087D67FD673867A9331B78864DAE
:10264000DBB2002B1ED13A008020A8321370854ADD
:10265000800291690143916193697E4A0340059329
:10266000059B814B0C3204332800DA67FEF760FBD0
:102670000F2140B2FFF7FEFAF86EFEF759FB40B2A9
:10268000FFF728FB3B000222A9331A707749FB6E43
:102690001A688B4202D07648834208D17020824368
:1026A000786F02438B420AD07148834207D0714849
:1026B000834204D0AB4202D06F48834203D16F48BB
:1026C0000240F86F02438020824338000830C06F18
:1026D00002431A60BA6FDA623A6F9A628B4204D090
:1026E000AB4202D0644A934202D13A1DD26F1A63C0
:1026F00039000122A9315A610A70D9681143D960A1
:1027000019680A431A600C225D4B1A60FEF738FE06
:102710005C4BD861FDF756FF002819D0012856D030
:1027200000231900574A2032995004331C2BFBD147
:1027300001210C20FEF78AFD002420000134662CC4
:1027400000D1ADE0FDF7EAFE0420FEF74AFDF4E714
:1027500002254C4B4C4ADB694C49681F012831D992
:102760001000684383422DD908006843834229D86A
:10277000EDB2FDF78DFE46492000FFF7EBF8FDF7BF
:102780007BFEFDF785FE29000A222000FEF7F2F904
:10279000FDF772FE00233B493E4820311A586A4338
:1027A0005A5004331C2BF9D1002DC1D101253224FC
:1027B00020007D66FEF715FDFDF7DCFE2000FEF72C
:1027C00010FDF5E70135082DC7D10025D1E7E1213E
:1027D00002252C4B304ADB690901681F012825D9E5
:1027E00010006843834221D90800684383421DD802
:1027F000EDB2FDF74DFE29492000FFF7ABF8FDF7DC
:102800003BFEFDF745FE29000A222000FEF7B2F943
:10281000FDF732FE00231B481E4920301C315A5858
:102820006A431A5004331C2BF9D1BDE70135082D3A
:10283000D3D10025DDE7C046740400200805002040
:102840002C010020010B00087D050020B0050020B0
:102850001D1300088C010020004401404F010008B6
:10286000A800002000100240AC010020002C014014
:10287000000400400020004000480140FFFCFFFF32
:10288000040000202C020020AC0D000068100000A5
:1028900048360008F0340008680B00004D36000888
:1028A000FDF768FE01210720FEF7D0FC3B00012266
:1028B00060331A70C44BC5491B680192CB63F06842
:1028C000022503689B69984784B2F06831780368F1
:1028D000DB699847C3B20293B37A2B4200D1A3E0DD
:1028E0007388F068E31A9BB2039303681B689847E8
:1028F000039B834200DA9FE0B37AAB43B372F37A6F
:10290000022B00D1D3E0F06803899B0719D003683C
:102910009B689847B37A7F2B05D9B388E31A9BB29B
:10292000834200DB8BE1F06803689B6898470821CD
:10293000B27A0A4205D0B388E31A9BB2834200DB25
:1029400085E10425F06803892B420BD0B37A019A04
:1029500002991A40914205D02B4203D02022134203
:1029600000D177E1F06803891B0717D5B27A019B84
:1029700002991340994211D053070FD540210368A3
:102980000A4200D197E035895B69651BADB2984773
:10299000854203DB0520FFF777FB3481F37A029A47
:1029A000934249D06B461B7AB27AF3720299019B2B
:1029B0001340994206D0042300201343F480B372DD
:1029C000FFF762FBB37A019A02991A40914233D120
:1029D000F0680289920700D04FE1B27A930604D5DD
:1029E000F3681989019B490615D4530604D5F36889
:1029F0001989019B09060ED4130704D5F3681989B8
:102A0000019BC90607D40023D10604D5F3680199B8
:102A10001B895B090B4074218A43B272002B0BD1D6
:102A20000198FFF731FB07E0F27A02998A4200D160
:102A300065E71D43B5727480644D019A2B6C624C3E
:102A4000134202D123682A646B6423686A6C9B1A60
:102A5000052B10D92368EA696B6461235A430292FB
:102A6000FEF78EFC030003205843029B6421C0182C
:102A7000FFF7E2FBE861564B1B78022B5DD0032B7E
:102A800000D1B0E0012B00D0D6E0EA6B23689B1A9E
:102A9000FA22D200934200D8CEE001990620FEF738
:102AA000D5FB02234A4A13702368EB63C4E06B46EC
:102AB0001B7AF372C0E7F5881B69651BADB29847B6
:102AC000854200DA6AE74022B37A1343B37261E7C2
:102AD000F06803899B0705D5B37A1A0712D4102230
:102AE0009343B372B37A0822D90600D5D2E01A43D1
:102AF000B272F268B4801289D2051AD57822524295
:102B00001343C8E00368B5889B689847651BADB25E
:102B1000B37A8542E3DA5AB2002A02DA7F221340FE
:102B2000B3721023B27A03201343B372FFF7ACFAE7
:102B3000D8E70220FFF7A8FA4FE7AA6C23689B1A90
:102B4000FA22D200934200D8B8E0EA6C23680292DD
:102B50009A4205D023689B1A1E4A934200D89CE0F3
:102B6000FDF73FFD092800D897E0029B2268D21AA2
:102B7000194B9A4200D8A1E0019B00280EDB0623E6
:102B800064215843FFF7E2FB031CC0B2052800D9BB
:102B90000523DBB2019A9B009A4013007B668DE00F
:102BA00009281DDCFA2120688900FFF7CBFB0B4BBD
:102BB000994200D980E02068C821FFF7C3FB632950
:102BC0007AD80423EAE7C046C00500202C02002082
:102BD0008C010020B70B0000B80B0000570200006A
:102BE000FDF79CFC6AE03D4B2068DB6B3C49C01A5A
:102BF0000293FFF7A7FB08006421FFF71DFBC1B29A
:102C0000052804D80B1C052907D9052305E00A224D
:102C1000521A131CD2B2052AF7D80422DBB29B0049
:102C20009A407A6623682A6D9A4250D3029B2268A2
:102C3000D21A2C4B9A424AD8FDF70CFF3FE60220ED
:102C4000FFF722FA7F22B37A1340B3726BE68A430E
:102C5000B27276E6F388E31A9BB203930368DB68EB
:102C60009847039B834200DA7CE62022B37A28004F
:102C70001343B372FFF708FA74E65A0709D5F588CB
:102C80000368651B5B68ADB29847854200DA1FE7B1
:102C9000B37A08229343B3729FE6FDF7A2FC0028A3
:102CA00000DB7DE7FA2120688900FFF74BFBF42366
:102CB000FF336420994293D9FDF75CFCFDF791FC4A
:102CC0000028B9D13B00032260331A70ECE6FDF70F
:102CD00069FC3B0004226033F7E7C0462C02002069
:102CE0004C04000010270000102370B5514D524CC9
:102CF0002A6813432B60FFF717FA0C2162682B0038
:102D00000A4206D062680A40082A3CD16268D203AF
:102D100039D42268F82122688A43110078220A43B4
:102D20000C21226062680A40082A3AD0802022687A
:102D3000424980040A402260414A156821680142E4
:102D400030D10F20E16A8143E16261683D4808406B
:102D5000A021890301436160802120684904014367
:102D60008020216015688004216801421FD0012065
:102D70001968014220D0F0206168814361602168B8
:102D8000890121D4FEE70122022021680A432C494F
:102D900022600D6822680242BCD10A68521B022AD6
:102DA000F8D9FEE71168491B0229C7D9F9E711686C
:102DB000491B0229D8D9F4E71968814301431960F6
:102DC00019680142DED0D6E7032061681E4E8143B8
:102DD0000800022101430C20616015686168014010
:102DE000082922D11B68194A636813406360FEF703
:102DF00041FE6368164A1B061B0FD35C154CD84076
:102E00002060FFF791F9FA2120688900FFF714FA92
:102E100000F026F80423104A11680B4313600F4A90
:102E2000136A1B021B0A136270BD1168491BB14271
:102E3000D4D9A7E70020024000100240FFFFFFFEA8
:102E4000C0050020FFFFC2FF88130000FFF8FFFF4E
:102E500032350008A800002010E000E000ED00E09E
:102E6000094A431E012093420DD8C021074A084851
:102E70005360036A09061B021B0A0B43036200200E
:102E80000723906013607047FFFFFF0010E000E031
:102E900000ED00E04D4B0521180070B53030197081
:102EA000197601310170180000240830C467180039
:102EB000474A1D008C300260180048352970903058
:102EC0000131017018009C3004601800A4300260C9
:102ED0001800A83001701800B43004601800BC302D
:102EE00002601800C03001701800CC300460180077
:102EF000D43002601800D83001701D001800603511
:102F0000E430297004601D0018007835EC30297019
:102F100002601D001800FF35F030DC605A615C6211
:102F2000DA62DC635A645C65DA65DC665A670170F4
:102F30006972902518006D00595518355955183586
:102F40005955183559557631FC30FF31046082608F
:102F5000846102620463826384640265046682663B
:102F600084675A5020001B4A1B4900F066F8FA2279
:102F70001A4B92009A601A4A0A201100083119600F
:102F80001900FF3188770138487718001900FC30A4
:102F900011315C60416219005133C362114B283218
:102FA0001A631A00FE313032CC849A640C85CC85C9
:102FB0000C861A0002213C32DC875C631C875B189C
:102FC000147054709472D172DC8770BDF4020020CA
:102FD0000000111000000020DD1F00087404002014
:102FE000BC350008740500200D4885460D480E4983
:102FF0000E4A002302E0D458C4500433C4188C4253
:10300000F9D30B4A0B4C002301E013600432A242B7
:10301000FBD3FDF7B1FE00F025F8FFF78DFAFEE7D0
:10302000001000200000002010010020DC36000805
:103030001001002070060020FEE70B0010B5010013
:10304000180000F001F810BD70B5054C0500130024
:10305000201E04D00A000220290000E000BF70BD3D
:103060000000000070B500260C4D0D4C641BA41030
:10307000A64209D1002600F02FFA0A4D0A4C641B23
:10308000A410A64205D170BDB300EB589847013695
:10309000EEE7B300EB5898470136F2E7BC3600087C
:1030A000BC360008BC360008D83600080300821879
:1030B000934200D1704719700133F9E710B5034B03
:1030C0000100186800F062F810BDC046AC00002096
:1030D00010B5034B0100186800F00EF810BDC04693
:1030E000AC000020002310B59A4200D110BDCC5C8A
:1030F000C4540133F8E7000070B50500002910D072
:103100000C1F2368002B00DAE418280000F0AEF84A
:103110001D4A1368002B05D163601460280000F07D
:10312000A6F870BDA34209D9216860188342F3D183
:1031300018685B6841182160EEE713005A68002A9E
:1031400001D0A242F9D919685818A0420BD12068C1
:103150000918581819608242E0D110685268411865
:1031600019605A60DAE7A04202D90C232B60D5E738
:1031700021686018824203D11068526841182160AA
:1031800062605C60CAE7C046C4050020032370B5D6
:10319000CD1C9D43083506000C2D1ED20C25A942DE
:1031A0001DD8300000F062F8254A1468210000297B
:1031B00019D1244C2368002B03D1300000F044F8CF
:1031C00020602900300000F03FF8431C2CD10C2374
:1031D0003000336000F04BF803E0002DDFDA0C2301
:1031E0003360002070BD0B685B1B1AD40B2B03D916
:1031F0000B60CC18256003E08C420ED1636813602D
:10320000300000F034F8200007220B30231D9043DB
:10321000C31AE7D05A42E250E4E74B6863600C00FF
:10322000EEE70C004968C2E70323C41C9C43A0429C
:10323000E0D0211A300000F007F8431CDAD1C6E7CD
:10324000C4050020C8050020002370B5064C050009
:1032500008002360FDF7F6F8431C03D12368002B18
:1032600000D02B6070BDC0466C06002070477047D0
:103270000123214A1168194200D113601F4A1168C5
:10328000194200D1136001231D4A1168194200D16F
:1032900013601C4A1168194200D1136001231A4AB5
:1032A0001168194200D11360184A1168194200D1FF
:1032B00013600123164A1168194200D11360154AA0
:1032C0001168194200D113600123134A1168194291
:1032D00000D11360114A1168194200D11360012313
:1032E0000F4A1168194200D113600E4A1168194241
:1032F00000D113607047C046F8050020F405002097
:10330000F0050020EC050020E8050020E405002081
:10331000E0050020DC050020D8050020D4050020B1
:10332000D0050020CC0500200123214A1168194254
:1033300000D113601F4A1168194200D113600123A4
:103340001D4A1168194200D113601C4A11681942C4
:1033500000D1136001231A4A1168194200D1136089
:10336000184A1168194200D113600123164A1168E6
:10337000194200D11360154A1168194200D1136037
:103380000123134A1168194200D11360114A1168D0
:10339000194200D1136001230F4A1168194200D16C
:1033A00013600E4A1168194200D113607047C0467D
:1033B0002806002024060020200600201C060020ED
:1033C0001806002014060020100600200C0600201D
:1033D000080600200406002000060020FC0500204E
:1033E0000123164A1168194200D11360144A11686A
:1033F000194200D113600123124A1168194200D109
:103400001360114A1168194200D1136001230F4A59
:103410001168194200D113600D4A1168194200D198
:10342000136001230B4A1168194200D113600A4A44
:103430001168194200D113607047C0464806002049
:1034400044060020400600203C06002038060020EC
:1034500034060020300600202C0600200123164AE6
:103460001168194200D11360144A1168194200D141
:1034700013600123124A1168194200D11360114AE6
:103480001168194200D1136001230F4A11681942D3
:1034900000D113600D4A1168194200D11360012355
:1034A0000B4A1168194200D113600A4A1168194287
:1034B00000D113607047C0466806002064060020F3
:1034C000600600205C0600205806002054060020FC
:1034D000500600204C060020F8B5C046F8BC08BCD9
:1034E0009E467047F8B5C046F8BC08BC9E4670477B
:1034F000AC0D0000420E0000740E0000A60E00008D
:10350000F10E00006E0F000068100000680B000054
:10351000440C0000800C0000940C0000A80C00007B
:10352000BC0C0000100E000001000305040204039F
:103530000201000000000000000001020304060771
:103540000809000000040802000000000102030452
:10355000000000480004004800080048000C004833
:103560000014004805000000002401400380020010
:10357000110000000024014003800400FF0000004F
:103580000000000000000000010203040506070817
:10359000090A0B0C0D0E0F10110203040506070893
:1035A000090A0B0C0D0E0F1010010203040506078B
:1035B00008090A0B0C0D0E0F10000000000000009F
:1035C000000000006D0A0008B1090008450A000863
:1035D000090A00082B0A0008F7090008000000008B
:1035E0000000000041010008310100083B01000813
:1035F00035010008350100083101000827010008E5
:1036000045010008210100080900000000380140C0
:1036100012010000FF000000000000000000000098
:103620000A0000000038014012010000FF00000005
:10363000000000000000000000010203040506076E
:10364000090A0D0E404105114C69506F004C694646
:10365000650023232320000D0A0000000000000065
:10366000000000000000000000000000000000005A
:10367000000000000000000000000000000000004A
:10368000000000000000000000000000000000003A
:10369000000000000000000000000000000000002A
:1036A000000000000000000000000000000000001A
:0C36B0000000000000000000000000000E
:1036BC00E92C0008E9000008952E0008713200087A
:0C36CC0029330008E13300085D340008D9
:0436D800C100000825
:1036DC00000000000A0000000000000000000000D4
:1036EC0000000000000000000000000000000000CE
:1036FC0000000000000000000000000000000000BE
:10370C0000000000000000000000000000000000AD
:10371C00000000000000000000000000000000009D
:10372C00000000000000000000000000000000008D
:10373C00000000000000000000000000000000007D
:10374C000000000000000000000000000800000065
:10375C00000000000000000000000000000000005D
:10376C00000000000000000000000000000000004D
:10377C0000000000FF00000000127A00B0000020E2
:10378C00000000007C3600089C3600085C360008FF
:10379C00000000000000000000000000000000001D
:1037AC00000000000000000000000000000000000D
:1037BC0000000000000000000000000000000000FD
:1037CC0000000000000000000000000000000000ED
:1037DC0000000000000000000000000000000000DD
:0400000508002FE9D7
:00000001FF
