:020000040800F2
:1000000000100020452A0008952A0008952A0008BB
:1000100000000000000000000000000000000000E0
:10002000000000000000000000000000952A000809
:100030000000000000000000952A0008AF10000832
:10004000952A000800000000952A0008952A00085B
:10005000952A0008B31D0008A31D00088D1D000887
:1000600000000000952A0008952A0008952A00083B
:10007000952A0008950F0008952A00080000000046
:10008000810F000800000000000000006D0F000854
:1000900000000000590F0008450F0008952A0008CD
:1000A00000000000952A0008000000002F1A000838
:1000B0000000000000000000000000000000000040
:1000C00010B5064C2378002B07D1054B002B02D02E
:1000D000044800E000BF0123237010BD1001002080
:1000E000000000001C3C0008084B10B5002B03D09A
:1000F0000749084800E000BF07480368002B00D10B
:1001000010BD064B002BFBD09847F9E7000000001C
:10011000140100201C3C0008100100200000000019
:10012000002303817047014B18687047B00200201C
:10013000C8207047FA2080007047C82040007047F0
:100140003220704710B5080001F0ACF910BDF0B5D1
:10015000364B374C1B68227867789200D3400F22C9
:1001600085B01340FFB20293002F2FD1002B2DD06A
:100170003900042001F0EAF93900032001F0E6F922
:100180003900022001F0E2F93900012001F0DEF926
:10019000284D23780121EB5C06355E080393AB5DA7
:1001A000AD191800019301F0D1F96E7801213000EA
:1001B00001F0CCF90123039D1D4014D039000198B2
:1001C00001F09CF90121300001F098F96378029A5E
:1001D00093420EDA63780133DBB263706378032BEA
:1001E00018DC05B0F0BD0121019801F087F9290064
:1001F000E9E70021042001F0A9F90021032001F022
:10020000A5F90021022001F0A1F90021012001F04F
:100210009DF9DFE70022627023780133DBB223709F
:100220002378052BDDDD2270DBE7C046F4010020DA
:100230002C010020343C00080120704716220120C8
:10024000014B40421A60704758060020FEE7F0B5A7
:100250006E4B85B01B680C0009206D490292039318
:1002600000F015FF002800D1B1E00023694E99008D
:100270007158DAB2002902D0096888422AD00133C5
:10028000082BF4D1644D2B0074331B78072B1FD936
:10029000624B5EE090425BD11B785BB22A008932F0
:1002A00013702B0009218833197096232A009B01B3
:1002B000AB6700230832D36728002A1DEB67D3679A
:1002C00000F042FF2B0074331B78072B00D97EE02F
:1002D00074352A789200B358190069310A78202AB7
:1002E0006DD1002C6BD06A461289002A67D080201D
:1002F0009E684001864204D11869002801D1E007B8
:100300005DD4180068300578012D58D0012505709E
:100310000020D866213008703C4909680191190015
:1003200050310A804A802100180052300288002A89
:1003300015D140251A68354ED16929404ED01A0092
:100340002021693211700022683302981A703FE050
:100350000C335A68002A9DD101235B429EE7028834
:10036000013A92B2028029481A6884468025D069F1
:1003700028400CD08020400186422BD118690028EB
:1003800028D108880231C005C00D1085CCE765462C
:10039000019F2D68ED1BFA27BF00BD42E6D9116809
:1003A0001F4D294011609168A335FF35A943916025
:1003B0001A002021693211705170013A1070134AED
:1003C00003991268521A17498A4200D884E700201C
:1003D00005B0F0BD087801311085A5E7019F3068B0
:1003E000C01BFA27BF00B842A6D910680C4D2840A0
:1003F00010609068A335FF35A84390601A00202054
:10040000693210705070013A1170D8E7B0020020C4
:100410004C3D00083401002004000020643D000829
:100420005FFEFFFFE70300000020704700207047D9
:100430000120704780239B0100204B607047012002
:1004400040427047094B02005968002901D1084910
:1004500059606946586882188A4205D90C220120E1
:10046000044B40421A6070475A60FCE72C010020A0
:10047000600600205806002010B5044800F0F7FB85
:100480000021082001F062F810BDC046640400207D
:10049000F8B51A4CE12223000025194FFC33520213
:1004A0003800FF341A61DD619D615D6100F04CFE32
:1004B000637A144E9B009A5911006A3269310978A7
:1004C00012780A43222A18D01F200F490F4A995048
:1004D0000F4A29009F50205601F0FAF91F2020569C
:1004E00001F026FA637A9B00985903006A331B785F
:1004F000202B02D1074901F0B3FBF8BD64040020B2
:10050000F804002034010020790D0008B401002017
:10051000940100206D05002070B5002815DB6428CB
:1005200000DD6420062444436421200001F0FAFC2D
:10053000002304211D001E00834209DA0E009A00E8
:10054000964001333543DBB2F5E700242600250051
:100550002000642101F0CCFD0800192101F0E2FC2B
:10056000B600B040014B2843186070BDF401002074
:1005700010B5022902D0042905D010BD0F4B1A680E
:100580000F4B1A60F9E70D4B1A680E4B9A42F4D9DB
:1005900064242000FFF7C0FF042000F07AFF013C34
:1005A000F7D20021062000F0A9FF0021072000F06B
:1005B000A5FF00210C2000F0C9FFDEE7B0020020FB
:1005C000B80200208813000010B50021042000F0BC
:1005D000BDFF0021032000F0B9FF0021022000F040
:1005E000B5FF0021012000F0B1FF0022014B1A608D
:1005F00010BDC046F401002070B5144D2A68002AD1
:1006000021D0134B00201B689A4218D8AA69643085
:10061000934214D20024A200AA181668B3420FD342
:1006200051688B420CD2981B891B000101F0F0FB32
:10063000050064200621604301F074FC281870BD99
:100640000134062CE7D101204042F8E7D801002010
:10065000D40100202123F0B5A1B001930023009321
:10066000019B013B0193002B00D1A0E24C22002111
:100670000DA802F049FA00240B4904AB0C311120FB
:100680005C8000F004FD0D90A04211D10023074AC8
:1006900012680C2A05D00B2A00D985E20C218A1A8F
:1006A000D340009AD318DAE7343C0008A4000020B5
:1006B0008023DB050E930423C2271E941293DB4C88
:1006C000023B1B930F3323771E9BFF371797002B9B
:1006D0001DD11F93D64B984209D18020D54A800066
:1006E000916901439161936903400593059B012042
:1006F00000F0E4FC0F23227F08A91A400E3B934030
:1007000008930323099300230A9301F031F81E9BF9
:10071000DB0600D5BCE104230D9CA2681A4000D082
:10072000B6E11E98C449023B0840034303201E93D0
:10073000A36803910340012B00D04DE221681942C8
:1007400003D1E3681B0400D446E2E368BB49159D6E
:100750000B40E360139B6E039903149BDB030B4375
:100760001A99481E411E88410103109803431E43F5
:10077000119B0293022B00D10422199B5800029373
:100780003043169B08430243012B05D1002D00D0B6
:100790006AE180235B021A43179BBB4203D018997E
:1007A0000B4302911A43E3681B9E1343E3608023CB
:1007B0005B059E4202D0731E062B07D80723616992
:1007C00099436161616933400B436361E3689C490C
:1007D0000B409A4200D04FE1002503221F951E9B3B
:1007E000984F93431A00390001230C311343112011
:1007F0001E9300F03FFC0003C00E0138102800D803
:1008000049E100231DAA06931378012B00D13DE78F
:1008100001231370A268520700D55FE1AB40A26AC2
:100820001343A36280235B059E420ED0013E062E39
:100830000BD9072263691340022B06D063699343E7
:10084000636102236269134363612B00103B012B38
:1008500000D826E1012303211DAC23700D9B9A686B
:100860000A40012A07D11968114200D0C3E1DA68B1
:10087000120400D5BFE11E99039A03201140022201
:100880000A431E92DA68D9688143D960802198684A
:100890000906014399606C490D689868002800DAE0
:1008A00021E10321D8680A400243DA6001231E9A3D
:1008B0008A4313431E93002300222270934200D0E8
:1008C000E4E60D9DAA68520700D5DFE601222270FA
:1008D000149A0292012A00D00FE11E9B5B4A1A4033
:1008E00080235B0013431E931C2200231F9323705D
:1008F0002A60A968183A0A431299AA60082900D008
:1009000033E1514A16682B680B4000D137E1802350
:100910001E9A9B0013431E93C023EA681B011A42D0
:1009200014D1159B0293002B10D12B681B070DD5FA
:10093000AB685B0700D52AE10C226B6893436B60C0
:100940001E9B434A1A40012313431E93139B029399
:10095000002B01D10C332B601E9B9B0503D52B6C08
:1009600004AA9BB2538001250DA8257000F0ECFF6E
:10097000002809D10DA801F00FF8002804D11E9B12
:10098000334A13401D431E9500221DAB1A7090423E
:1009900000D07BE602231E9A0DA813431E9300F09D
:1009A000D3FF002800D0FBE00DA800F0F5FF0128E0
:1009B00000D16BE601231E939F210D9B254C5A68A5
:1009C0008A435A601960DA6823490A400721DA60CD
:1009D0001A69920092081A615A698A435A611A6A1E
:1009E0001E490A401A629A6A1D49D20CD2049A62C0
:1009F0000A6822400A600E4A93420CD180220D4BB5
:100A00009200D968174C0A43DA60D9682140D9604E
:100A10009A6922409A6100231F931E93984200D046
:100A200034E604AB02331B889BB230E6840000201E
:100A30000024014000100240FDFEFFFF1902FEFFEE
:100A4000E7FF3F83343C0008B0020020FEF0FFFFC8
:100A5000FEFEFFFFFFFF3FFF00023E8300F000F0BD
:100A600008270140FFFDFFFF20211E9801431E9132
:100A70001F990B431F938FE612221E9B93431A006C
:100A8000102313431E9301231F9A13431F93FDE565
:100A90001E9A102324E030373D5C112D00D9F5E576
:100AA000AFE6584A80211368102D15D0C9030B43B7
:100AB0001360102D00D0CDE6534B5449186801F057
:100AC000A7F90A2358430690069B002B00D1C1E6E4
:100AD000069B013B0693F7E70904E8E720231E9AEB
:100AE00013431E93D2E50868401B022800D8D4E6C1
:100AF00012221E9B93431A00CBE703220793AB6895
:100B00001340012B07D12A681A4200D0E5E6EB68B2
:100B10001B0400D5E1E6AA683D4B1A4201D01E9A9B
:100B2000AEE70123AA6839491343AB60364B186816
:100B300001F06EF90790079B002B12D10120354A76
:100B400016682B68034000D0C7E61168891B02298C
:100B5000F7D910211E9A11431E911F9A02431F922A
:100B600095E5079B013B0793E5E7EA680C21D2076F
:100B700000D4C6E620221E990A431E9287E510681B
:100B8000801B0A2800D8BEE61E990422F4E7202321
:100B90001E9A13431E9301231F9A13431F93D5E6F6
:100BA000012800D008E771E50C3A934079E5009BF5
:100BB0005809194B5843194BD969DB69090E1B0CAD
:100BC000DBB20902C918164B89B2994200D1154906
:100BD00001F01EF921B0F0BD1821E3688B430F9995
:100BE0000B43E360236902919B000E999B080B4322
:100BF00002912361A9E520231E9A13431E9301232A
:100C00005AE6C04608270140A800002040420F00D5
:100C100017000080B0020020C05D000000200240EC
:100C2000FFFF00002F0C0000F7B506000D000C00C0
:100C30008B180193019B671B9C4207D03368217876
:100C40001B683000984701340028F3D13800FEBDFE
:100C500002003F219A321388983001330B401380F1
:100C600013880088C01A4342584140427047037CB1
:100C7000002B04D0FE30C28D038E9A42FCD1704707
:100C80000200FE32D18C138D994207D0FC30416AAC
:100C9000C85C3F2101330B4013857047012040425F
:100CA000FBE70300FE33DA8C1B8D9A4203D0FC3045
:100CB000426AD05C704701204042FBE7FE30C38CA3
:100CC000008D4033181A3F2318407047054B10B56C
:100CD000002B06D00448FFF7F1FF002801D000E008
:100CE00000BF10BD0000000064040020F8B5020041
:100CF00001233F250374FE320400D08DC3182B401E
:100D0000158EAB42FCD025002600FC35ED6A093675
:100D10002954FF36D3853378154D9B005A5921004D
:100D200010006A3269300078127894310243212A27
:100D30001CD0270000200F4AEB181F3719641A62D5
:100D4000FF370021385600F0C3FD0020385600F070
:100D5000EFFD230029342F33FF33FF341B88216834
:100D6000C91833789B00585900F0E2FF0120F8BD04
:100D700034010020510C000870B5041E27D0030078
:100D800074331B78124A9B009858030002006933A1
:100D90006A321B7811780B43222B18D0210013786C
:100DA00075310D78202B01D100F05AFF22003F2130
:100DB0009032138801330B402100923109888B4215
:100DC00005D08C34118820689BB24554138070BDC7
:100DD00034010020406A0023020010B55A3213800B
:100DE000083A138000F00EFE10BDFEE770B5050056
:100DF0000C00081E07D000F0F9FF2B6802005B68AA
:100E000021002800984770BDF0B58BB06B461500E7
:100E10000022053306000F00DA77012D00DC0A25D9
:100E200009AC2900380000F0F3FF01006943791A8A
:100E3000C9B20B003733013CDBB2092901D830318C
:100E4000CBB22370071EECD121003000FFF7CEFF9C
:100E50000BB0F0BDF7B507000D000024C31D061D43
:100E6000019331780A222800FFF7CEFF2B6800900B
:100E70001B682E2128009847009B0136C018019B53
:100E80002418B342EDD1F97928000A22FFF7BCFFFC
:100E90002018FEBD010070B56A310A780368222A65
:100EA00033D1020080245C3215889A8C64012A4078
:100EB0008568436DA5420FD10469002C0CD11A80BE
:100EC0000233436502005A321388013B9BB2138000
:100ED000002B05D000201DE05C1C44651A70F1E772
:100EE0000268104D14682C40146094682335FF3557
:100EF000AC43946020220A700B4A99008C58A0429F
:100F000009D00133082BF8D1E4E7082202209969BF
:100F10000A439A6170BD054B5218CB58106E984722
:100F2000D8E7C046DFFEFFFF34010020B4010020F7
:100F30000F22030913409B00024058580123D04060
:100F400018407047034B10B5186C002801D000F012
:100F50003DFB10BD54020020034B10B5D86B002898
:100F600001D000F033FB10BD54020020034B10B53C
:100F7000586B002801D000F029FB10BD540200205E
:100F8000034B10B59868002801D000F01FFB10BD7E
:100F900054020020034B10B51868002801D000F05F
:100FA00015FB10BD54020020836C10B5021F002BEE
:100FB00005D0017F012902D100211000984710BD02
:100FC00010B50023421C10D00C4A0D3390420CD0B7
:100FD0000DD80B4A0333904207D00A4A033390429C
:100FE00003D0094802F064F80023180010BD074A36
:100FF00015239042F9D0064A0133F0E7002C014056
:101000000004004000200040993D000800440140D9
:10101000004801400121114B11481A680A431A6027
:101020005A6802405A601A680E4802401A601A68EC
:101030000D4802401A605A680C4802400F205A605E
:10104000DA6A8243DA621A6B094802401A635A6B01
:101050008A435A6300229A607047C04600100240DB
:101060000CB8FF08FFFFF6FEFFFFFBFFFFFFC0FF0E
:10107000ECFEFFFF0200431C06D000200856431C74
:1010800002D0824201D1886870470C31F5E7002315
:10109000421C06D118007047984201D14B68F9E70D
:1010A0000C310023CB565A1CF6D10023F2E7024A3A
:1010B0001368013313607047B00200207FB500232E
:1010C000042810D81B4B80215A6900F097FE030FAB
:1010D00018212A0089020A435A615B690B40019377
:1010E000019B9023DB05180007B000BDC9020A432D
:1010F0005A615B690B400293029B0F4BF3E70903B4
:101100000A435A615B690B400393039B0B4BEAE76D
:1011100049030A435A615B690B400493049B084BE3
:10112000E1E7C9030A435A615B690B400593059BDC
:10113000044BD8E7001002400004004800080048B3
:10114000000C004800140048F0B5040089B00028E5
:1011500012D088208925AB492056FFF798FF6557A4
:101160000600A9492800FFF792FF002801D0002EB1
:1011700004D1A64801F09CFF09B0F0BD33008642BF
:1011800000D000232360002B01D1A148F2E7A14A3F
:10119000A14E934215D18022F368D2011343F3602C
:1011A000F3689E490B40F360B3691343B361B369BD
:1011B00013400293029B2300002274331A701B32E7
:1011C0009A750F2728093840FFF778FF8925009086
:1011D00065578D492800FFF74DFF01233D40AB4087
:1011E0001022039343001340093A0240134304932F
:1011F0000323032206930309134005937F23000A68
:10120000184003A907902500009800F0B1FA0020CB
:101210008835285600093840FFF750FF00902D7898
:1012200078496DB22800FFF725FF01233D40AB4010
:101230001022039343001340093A024013430493DE
:101240000323032206930309134005937F23000A17
:101250001840079003A9009800F08AFA230074331D
:101260001B786F49221D9B005A50D06F0432D76FF4
:101270000C22A2610022E26122622200E36F256853
:10128000A16F6D326560A1600193E36020616761C9
:1012900000921278D2B2002A04D16C239C46A44456
:1012A00063461A702422009B1A7001232A689A430D
:1012B000019B2A603B430C272A683B43594F3A4025
:1012C00013432B606B68584A13401843686003202F
:1012D000AB68564A1340626A1343AB60336B544A9F
:1012E0000340D05C082800D946E700F007FF09005A
:1012F00045FF140045FF170045FF45FF45FF8600E9
:1013000073685B055B0FD3184A4A1B791068D84095
:101310004B08C01808E04808474BFAE700F0D8F936
:10132000A368A1685B08181800F072FD80B2E8603D
:10133000A26A6368002A49D0D10705D559683F4899
:101340000140E06A01435960910705D559683C485E
:101350000140206B01435960510705D55968394850
:101360000140606B01435960110705D55968364843
:101370000140A06B01435960D10605D599683348F7
:101380000140E06B01439960910605D599683048AA
:101390000140206C0143996051060FD559682D4DCD
:1013A000606C29400143596080214903884205D17E
:1013B000596829480140A06C01435960120605D5BF
:1013C0005A6826490A40E16C0A435A605A6824491F
:1013D0000A4008215A609A688A439A600122196873
:1013E0000A431A6000232022009923670A70210013
:1013F0006C346E310A702370BEE6802348081B02ED
:1014000087E7C0464C3D0008643D0008B13D000838
:10141000E13D00080038014000100240FFBFFFFF1F
:1014200034010020F369FFFFFFCFFFFFFFF4FFFF50
:10143000C03C0008A800002000127A00FFFFFDFF5A
:10144000FFFFFEFFFFFFFBFFFF7FFFFFFFEFFFFF41
:10145000FFDFFFFFFFFFEFFFFFFF9FFFFFFFF7FF34
:10146000FFF7FFFFF0B50F270400000987B03840F1
:101470000E001500FFF722FE01233C40A34001931C
:10148000032301A904930296039500F071F907B0B4
:10149000F0BD034A116813685B1A8342FBD370479F
:1014A000B002002010B50F281DD8114B1C56631C2C
:1014B00019D010492000FFF73BFD0023984210D0BF
:1014C0000F2122090A40042A0FD801200C40A04015
:1014D000094B92009A18D3681B690340581E834138
:1014E000DBB2180010BD0023FBE71B69FFDEC0461E
:1014F0007C3D0008BC020020C03C000870B50D0017
:101500000F2819D80E4B1C56631C15D00D4920000E
:10151000FFF70EFD00280FD023061B0F0022042B1F
:1015200003D8094A9B00D318DA680F231C400E3BEE
:10153000A340002D01D0936170BD9362FCE7C046CB
:101540007C3D0008BC020020C03C0008F8B50E003D
:101550000F282ED81B4B1C56631C2AD01A4F200074
:1015600014373900FFF7E4FC250900280AD00F23BF
:101570002A001A409200BF18012223409A403B687B
:1015800093433B60032E09D8300000F037FC02186B
:101590001316002211002000FFF764FF0F231D40E7
:1015A0001C400E3BA340084AAD0055192A6813435E
:1015B0002B60F8BD01220021EDE70222FBE70022AB
:1015C0000121E8E77C3D0008BC02002002220368FC
:1015D00010B51969040011420DD0D96811420AD022
:1015E000053A1A61043202779B699B0701D1FFF724
:1015F000DBFC00232377042223681969114210D0F1
:10160000D96811420DD0093A1A61073222779A69D6
:10161000C0239B001A4202D12000FFF7C5FC002323
:10162000237708222368196911420ED0D968114224
:101630000BD0113A1A610D322277DB699B0702D178
:101640002000FFF7B1FC00232377102223681969DB
:10165000114210D0D96811420DD0213A1A611932C5
:101660002277DA69C0239B001A4202D12000FFF7DB
:101670009BFC00232377012223681969114209D0BA
:10168000D968114206D0033A201F1A61836C002BDF
:1016900000D09847802223681969114205D0D96883
:1016A000114202D0023AFF3A1A61402219691142EE
:1016B00004D0D968114201D0813A1A6120221969F7
:1016C000114204D0D968114201D0413A1A6110BDCB
:1016D00070B5144C88B004AD10222100280001F030
:1016E000E6FF210010221031684601F0E0FF0C22D5
:1016F0000D4E73681A40082A11D10F20990C014031
:101700006C5C6946F26A0240895CDB0305D50748D8
:1017100000F07EFB604308B070BD0548FAE703485F
:10172000F9E7C046E03C00080010024000127A00D1
:1017300000093D000C4B10B55A69104212D0586197
:101740000023012803D001334008DBB2F9E7182257
:101750005343064A181D80188168002902D0D21808
:101760001369984710BDC04600040140E402002000
:10177000F0B50B6887B0029300230191029ADA401A
:1017800001D107B0F0BD01229A4003920399029A59
:101790000A40009200D18CE0019A10215268160094
:1017A0008E43022E0ED107251D40AD000139A94000
:1017B000DC08A4000419276A8F4301990969A9402C
:1017C0000F43276203245F00BC40E4430568013EE9
:1017D0002540AC4603251540BD4061460D430560DC
:1017E000012E0FD801998668CD682640BD4035434B
:1017F00085604668039915098E4301210D409D407F
:1018000035434560C56801992C408D688021BD40F5
:1018100049052C43C4600A424BD00121264C0326C3
:10182000A5691E400D43A561A4699D080C4005945F
:10183000059C0F242149AD00B6006D18B4409021DD
:10184000AF68C905A743002488420CD01C49013465
:10185000884208D01B490134884204D01A49033415
:10186000884200D1023CB44000993C430E00AC6079
:10187000164CCD4327683E43D10301D43E002E4091
:1018800026606768009E3E43910301D43E002E40CF
:101890006660A768009E3E43D10201D43E002E4000
:1018A000A660E668009F3743920201D42E403700BD
:1018B000E760013362E7C0460010024000000140CB
:1018C0000004004800080048000C004800040140E3
:1018D00070B58901002812DB8308134A03249B009A
:1018E0009B18FF222040A0401400C02584401140D6
:1018F0008140AD005E59A6433143595170BD032468
:101900000F23C0B203402040A040FC3425002140FA
:1019100085408140083B054A9B089B009B18DA697B
:10192000AA431143D961E9E700E100E000ED00E0DE
:10193000002805DB1F2318401E3B8340014A13602B
:101940007047C04600E100E00422036830B59968A2
:10195000114201D1002030BD9968114206D09A6829
:10196000920703D4102299680A439A600424094913
:101970000D689A682242EDD00A68521B022AF8D9F3
:101980001023426C134343640123826C1A43826424
:101990001800E0E7B00200200321036830B59A6820
:1019A0000A40012A01D0002030BD1968114202D13D
:1019B000DA681204F7D505219A680A40012A14D181
:1019C00002219C682143996003210D4C1960256810
:1019D00099681142E7D02168491B0229F8D91023E0
:1019E000416C0B434364836C05E01023426C13434A
:1019F00043640123826C1A4382640120D4E7C04609
:101A0000B0020020036882B0DA69D20703D59B8C4C
:101A10009BB2019308E0DA699207F8D4DA695207B9
:101A2000F5D4DA691207F2D4019B02B07047F8B519
:101A30008021C0237A4A09055B00D1500F21794DDE
:101A40002C682368DA691868114008D120263242D0
:101A500005D0304203D02000FFF71CFAF8BD9E6885
:101A600000297CD001210E4003D190277F0038420D
:101A700075D00A4205D0C50503D51962E56E294324
:101A8000E16602210A4206D0002E04D01962E56EFA
:101A900049182943E16604210A4206D0002E04D0E9
:101AA0001962E56E02392943E166110708D58106FE
:101AB00001D4002E04D008211962E36E1943E166B7
:101AC000E36E002BCAD020231A4204D0184202D061
:101AD0002000FFF7DFF9E26E2368120703D44022EB
:101AE0009D68154036D01A684F4920200A401A6078
:101AF000012299689143996021006A3108709968C0
:101B00000018014222D099688143606E99600028D4
:101B10001CD0464B841C4363E37F022B04D0042378
:101B20008363FFF757F999E70E2503681968A943FE
:101B300019601968056C914319601100A940C36BC5
:101B40005960E2770022431CDA77EAE72000FFF7CA
:101B500059FF83E72000FFF755FFE5667EE7802108
:101B60000A422DD008422BD0220069321278212A55
:101B700000D073E7200052300288002A07D11A688B
:101B80008A431A60402219680A431A6066E7802176
:101B9000A5684901E26C8D420DD1216900290AD165
:101BA00011880232C905C90D1985E2640388013B19
:101BB0009BB2038052E7511CE16412781A85F5E765
:101BC00040210A4200D149E7084200D146E71A689D
:101BD0008A431A602300202269331A7000239A0076
:101BE000AA58944203D00133082BF8D136E7104AA3
:101BF000DBB29B009C580F4A20009B589847431C1F
:101C000000D12BE7230022009A3394321B881168FD
:101C10007434C91823789B00E85800F089F81DE750
:101C200000E100E034010020DFFEFFFFD50D0008D9
:101C3000740100205401002070B5084C2000813050
:101C4000FF300500183DEB681438002B02D003224A
:101C5000010098472800A542F3D170BDE40200209E
:101C6000802230B5846803005201944205D1026994
:101C7000002A02D10120014228D11A0068321578C9
:101C80000220012D22D001381070596519005831F9
:101C900008804880802149018C421AD119690029A5
:101CA00015D10F4819005C3108801900002022244A
:101CB0006A31D8660C70107001221B6899680A435B
:101CC0009A609022196852000A431A6030BDFF20C2
:101CD000E8E7002CE9D119690029F8D07F20E1E775
:101CE000FF0100000100054810B5826C5468002C0B
:101CF00002D03C30C27AA04710BDC0466405002027
:101D0000FA21094B10B51868890000F081F800F03D
:101D1000D5FDC022054912060B6A00201B021B0AD2
:101D200013430B6210BDC046A800002000ED00E088
:101D300030B5050069352B7802000220202B24D114
:101D40000138002921D0802390685B01984205D199
:101D50001369002B02D10120014216D1140068340E
:101D600023780220012B10D0D164110001235031BF
:101D70000B804B8000232121D366297023701168CA
:101D800080220868024318000A6030BD70B50C2438
:101D90001025A8B2013CFFF7CDFC6D00002CF8D156
:101DA00070BD10B50420FFF7C5FC0820FFF7C2FC8A
:101DB00010BD10B50120FFF7BDFC0220FFF7BAFCF3
:101DC00010BD10B501F05EFC10BD10B501F05AFC5D
:101DD00010BD10B501F056FC10BD10B501F048FC67
:101DE00010BD10B501F044FC10BDC0460023C25C1C
:101DF0000133002AFBD1581E7047000002B471461F
:101E000049084900095C49008E4402BC7047C0463D
:101E1000002243088B4274D303098B425FD3030A29
:101E20008B4244D3030B8B4228D3030C8B420DD33C
:101E3000FF22090212BA030C8B4202D312120902CA
:101E400065D0030B8B4219D300E0090AC30B8B4208
:101E500001D3CB03C01A5241830B8B4201D38B03B6
:101E6000C01A5241430B8B4201D34B03C01A52415B
:101E7000030B8B4201D30B03C01A5241C30A8B429E
:101E800001D3CB02C01A5241830A8B4201D38B0289
:101E9000C01A5241430A8B4201D34B02C01A52412D
:101EA000030A8B4201D30B02C01A5241CDD2C3099F
:101EB0008B4201D3CB01C01A524183098B4201D31B
:101EC0008B01C01A524143098B4201D34B01C01A06
:101ED000524103098B4201D30B01C01A5241C3087E
:101EE0008B4201D3CB00C01A524183088B4201D3ED
:101EF0008B00C01A524143088B4201D34B00C01AD9
:101F00005241411A00D20146524110467047FFE744
:101F100001B5002000F0F0F802BDC0460029F7D05E
:101F200076E7704703460B437FD4002243088B4279
:101F300074D303098B425FD3030A8B4244D3030B50
:101F40008B4228D3030C8B420DD3FF22090212BA15
:101F5000030C8B4202D31212090265D0030B8B4291
:101F600019D300E0090AC30B8B4201D3CB03C01A7B
:101F70005241830B8B4201D38B03C01A5241430B56
:101F80008B4201D34B03C01A5241030B8B4201D346
:101F90000B03C01A5241C30A8B4201D3CB02C01AB1
:101FA0005241830A8B4201D38B02C01A5241430A29
:101FB0008B4201D34B02C01A5241030A8B4201D318
:101FC0000B02C01A5241CDD2C3098B4201D3CB01BF
:101FD000C01A524183098B4201D38B01C01A52416E
:101FE00043098B4201D34B01C01A524103098B4272
:101FF00001D30B01C01A5241C3088B4201D3CB005D
:10200000C01A524183088B4201D38B00C01A52413F
:1020100043088B4201D34B00C01A5241411A00D2EF
:1020200001465241104670475DE0CA0F00D0494258
:10203000031000D34042534000229C4603098B42C8
:102040002DD3030A8B4212D3FC22890112BA030A50
:102050008B420CD3890192118B4208D389019211D2
:102060008B4204D389013AD0921100E08909C30957
:102070008B4201D3CB01C01A524183098B4201D359
:102080008B01C01A524143098B4201D34B01C01A44
:10209000524103098B4201D30B01C01A5241C308BC
:1020A0008B4201D3CB00C01A524183088B4201D32B
:1020B0008B00C01A5241D9D243088B4201D34B0046
:1020C000C01A5241411A00D20146634652415B1088
:1020D000104601D34042002B00D549427047634669
:1020E0005B1000D3404201B5002000F005F802BDAE
:1020F0000029F8D016E770477047C04603B4714610
:10210000490840004900095E49008E4403BC7047FD
:10211000102370B5514D524C2A6813432B60FFF7C2
:10212000EFFD0C2162682B000A4206D062680A406B
:10213000082A3CD16268D20339D42268F821226887
:102140008A43110078220A430C21226062680A4007
:10215000082A3AD080202268424980040A4022603E
:10216000414A15682168014230D10F20E16A81435C
:10217000E16261683D480840A02189030143616034
:102180008021206849040143802021601568800473
:10219000216801421FD001201968014220D0F0209F
:1021A0006168814361602168890121D4FEE70122D1
:1021B000022021680A432C4922600D6822680242ED
:1021C000BCD10A68521B022AF8D9FEE71168491BE4
:1021D0000229C7D9F9E71168491B0229D8D9F4E7C0
:1021E000196881430143196019680142DED0D6E7BE
:1021F000032061681E4E81430800022101430C2028
:102200006160156861680140082922D11B68194A7C
:10221000636813406360FFF75BFA6368164A1B0646
:102220001B0FD35C154CD8402060FFF769FDFA21E5
:1022300020688900FFF7ECFD00F040FB0423104A02
:1022400011680B4313600F4A136A1B021B0A1362C7
:1022500070BD1168491BB142D4D9A7E700200240E4
:1022600000100240FFFFFFFEB0020020FFFFC2FF90
:1022700088130000FFF8FFFF753C0008A80000204D
:1022800010E000E000ED00E0F0B5012185B00C2089
:10229000FFF75CF901210720FFF758F9012106201B
:1022A000FFF754F900210800FFF750F902210A2036
:1022B000FFF74CF902210B20FFF748F90820002115
:1022C000FFF744F9C34CC44BE0684360052302891F
:1022D000134303810368DB689847002801D0FFF7A8
:1022E000D8F80C22BD4B1A60FEF7B4F9BC4F386029
:1022F0000A20FFF7D7F8002800D17BE10B20FFF779
:10230000D1F8002800D139E2002319003A1D995074
:1023100004331C2BFBD1A3E10135082D00D06DE166
:1023200000257AE10135082D00D02CE2002539E2A4
:10233000FEF74AF9E06803689B69984785B2E06850
:1023400021780368DB6998470222C3B20093A37A1D
:10235000134200D1A2E0E06866880368AE1B1B68E8
:10236000B6B29847864200DAA1E00222A37A9343EC
:10237000A372E37A022B00D1CCE0E06803899B07CB
:1023800019D003689B689847A37A7F2B05D9A38847
:10239000EB1A9BB2834200DB29E2E06803689B688A
:1023A00098470821A27A0A4205D0A388EB1A9BB26B
:1023B000834200DB23E20426E068038933420BD02A
:1023C0000122A37A00991A40914205D0334203D0EA
:1023D0002022134200D115E2E06803891B0717D5BC
:1023E0000123A27A00991340994211D053070FD5C7
:1023F000402103680A4200D190E026895B69AE1B48
:10240000B6B29847864203DB0520FFF76BFC2581B7
:10241000E37A009A93424AD06B461B78A27AE37221
:10242000012300991340994206D00423002013434E
:10243000E580A372FFF756FC0122A37A00991A40A7
:10244000914234D1E0680289920700D0EDE1A27A8E
:10245000930604D5E36819890123490615D4530668
:1024600004D5E3681989012309060ED4130704D59E
:10247000E36819890123C90607D40023D10604D5CE
:102480000121E3681B895B090B4074218A43A27216
:10249000002B0CD10120FFF725FC08E0E27A00991F
:1024A0008A4200D165E702221343A37265800122AC
:1024B0004C4DAB6D134202D1EB6DAA652B66EB6DF3
:1024C0002A6E9B1A0A2B0ED95F26EB6D2B663B6892
:1024D0005E43FEF7BFF803000520584364218019CE
:1024E000FFF796FC3860EB6D6E6E9E4205D0EB6D8B
:1024F0003D4A9B1B934200D8A7E1FEF77DF80138C7
:10250000082800D8A1E1EB6D9E1B384B9E4200D8F5
:10251000ADE1AAE16B461B78E372C8E7E6881B6968
:10252000AE1BB6B29847864200DA71E74022A37A22
:102530001343A37268E70222E0680389134205D0BF
:10254000A37A1A0712D410229343A372A37A082203
:10255000D90600D576E11A43A272E268A5801289F5
:10256000D2051AD57822524213436CE10368A6883B
:102570009B689847AE1BB6B2A37A8642E3DA5AB29A
:10258000002A02DA7F221340A3721023A27A0320CA
:102590001343A372FFF7A6FBD8E70220FFF7A2FBC5
:1025A00055E7092812DCFA21E86D8900FFF7B6FC2F
:1025B0000F4B994200D958E1E86DC821FFF7AEFCF6
:1025C000632900D951E104233B6250E1FDF7A4FFE8
:1025D0004DE1C046A005002071050008A4000020C0
:1025E000D401002054020020B70B0000B80B0000FB
:1025F0005702000002253B689E499F4A681F012838
:1026000000D889E608006843834200D884E61000B9
:102610006843834200D97FE6EDB2FDF739FF974E5C
:1026200097493000FEF7E2FB96493000FEF7DEFBEB
:10263000FDF722FFFDF72CFF0A2229003000FEF7EC
:10264000E3FB90493000FEF7D1FBFDF715FF0023B7
:102650008D48391D1A586A435A5004331C2BF9D13E
:1026600001210C20FEF74AFF01210620FEF746FF5C
:1026700001210720FEF742FF0026FA21834B844DFB
:10268000FB66844B3E6218687D628900FFF7C0FBE1
:1026900001237B633B0080B28008BD62F8623E6329
:1026A000BE63FE6365331A78D2B2B2421CD13900E0
:1026B000802664310A707849B60288693D3B304310
:1026C00088618A69280032400392039A734AD3636F
:1026D000FEF776FC0F2140B2FFF7FAF8B86AFEF772
:1026E0006FFC40B2FFF724F93B00022265331A70F9
:1026F0006B49BB6A1A688B4202D06A48834208D190
:1027000070208243386B02438B420AD06548834273
:1027100007D06548834204D0AB4202D0634883426D
:1027200003D163480240B86B024380208243386C77
:1027300002431A607A6BDA62FA6A9A628B4204D0B8
:10274000AB4202D0594A934201D1FA6B1A63390065
:102750000122002565315A610A70D9681143D96098
:1027600019680A431A6028000135662D00D1DFE59B
:10277000FDF7D2FE0420FEF78CFEF4E7E1220225ED
:102780003B684C491201681F012800D8CAE50800BF
:102790006843834200D8C5E510006843834200D9EE
:1027A000C0E5EDB2FDF774FE344E43493000FEF74C
:1027B0001DFB34493000FEF719FBFDF75DFEFDF708
:1027C00067FE0A2229003000FEF71EFB2D4930006B
:1027D000FEF70CFBFDF750FE00232B49381D1C3182
:1027E0005A586A431A5004331C2BF9D138E7022097
:1027F000FFF778FA7F22A37A1340A372CDE58A43CC
:10280000A272D8E5E388EB1A9BB201930368DB68F8
:102810009847019B834200DADEE52022A37A30004C
:102820001343A372FFF75EFAD6E55A0709D5E68887
:102830000368AE1B5B68B6B29847864200DA7AE658
:10284000A37A08229343A37201E6FDF7D5FE002880
:1028500000DBA6E6FA21E86D8900FFF75FFBF423B1
:10286000FF336420994200D8B0E6FDF7ADFEFEF7D5
:102870002DFA5FE5AC0D0000681000006404002034
:102880008C3D0008913D0008883C00084F0100087D
:1028900000440140A8000020001002405402002023
:1028A000002C01400004004000200040004801408E
:1028B000FFFCFFFF680B0000943D0008094A431E1F
:1028C000012093420DD8C021074A08485360036A8B
:1028D00009061B021B0A0B430362002007239060BA
:1028E00013607047FFFFFF0010E000E000ED00E024
:1028F0004D4B0521180070B5303019701976013133
:102900000170180000240830C4671800474A1D00F1
:102910008C30026018004835297090300131017008
:1029200018009C3004601800A43002601800A83021
:1029300001701800B43004601800BC300260180048
:10294000C03001701800CC3004601800D430026030
:102950001800D83001701D0018006035E43029706F
:1029600004601D0018007835EC30297002601D00ED
:102970001800FF35F030DC605A615C62DA62DC63BB
:102980005A645C65DA65DC665A6701706972902585
:1029900018006D00595518355955183559551835C1
:1029A00059557631FC30FF310460826084610262E7
:1029B00004638263846402650466826684675A5095
:1029C00020001B4A1B4900F066F8FA221A4B9200BD
:1029D0009A601A4A0A201100083119601900FF3163
:1029E00088770138487718001900FC3011315C6095
:1029F000416219005133C362114B28321A631A0025
:102A0000FE313032CC849A640C85CC850C861A0059
:102A100002213C32DC875C631C875B1814705470A5
:102A20009472D172DC8770BDE402002000001110A6
:102A300000000020391C000864040020003D00084C
:102A4000640500200D4885460D480E490E4A0023B6
:102A500002E0D458C4500433C4188C42F9D30B4A52
:102A60000B4C002301E013600432A242FBD3FEF7BB
:102A7000D1FA00F025F8FFF707FCFEE70010002070
:102A80000000002010010020B43E000810010020CA
:102A90005C060020FEE70B0010B50100180000F0F6
:102AA00001F810BD70B5054C05001300201E04D0C0
:102AB0000A000220290000E000BF70BD00000000F5
:102AC00070B500260C4D0D4C641BA410A64209D114
:102AD000002601F0A3F80A4D0A4C641BA410A6427C
:102AE00005D170BDB300EB5898470136EEE7B3004F
:102AF000EB5898470136F2E7943E0008943E0008F0
:102B0000943E0008B03E000803008218934200D1B2
:102B1000704719700133F9E7936810B5013B936072
:102B2000002B05DA9469A34208DBCBB20A2B05D04F
:102B30001368581C10601970C8B210BD00F0D2FAAA
:102B4000FBE7F8B506000F001400D518AC4201D120
:102B5000002007E021783A003000FFF7DDFF013464
:102B6000431CF3D1F8BD0000F0B59FB006000F0084
:102B700014000593002804D08369002B01D100F0D4
:102B800075FC7F4B9F425CD17768BB891B0762D580
:102B90003B69002B5FD0002306AD6B6120336B7661
:102BA0001033AB760294029C2378002B5DD1029BFC
:102BB000E31A04930DD0049B029A39003000FFF70A
:102BC000C0FF431C00D1CCE06A69049B9446634477
:102BD0006B612378002B00D1C3E001220023524215
:102BE0006A6002A95432521801342B60EB60AB606A
:102BF0001370AB6521780522624800F04DFD631C1F
:102C00009C46002835D12968CB0604D5532302AA57
:102C100020309B1818700B0704D553232B2002AAD1
:102C20009B18187023782A2B2CD000200A21099B8E
:102C30002278303A092A00D86BE000282AD009937C
:102C400028E0514B9F4201D1B7689EE74F4B9F420E
:102C50009BD1F76899E73900300000F099FA002815
:102C600099D0012040421FB0F0BD252B9FD00134E8
:102C70009AE7444B2968C01A012383400B432B6019
:102C80006446B7E7059B181D1B680590002B3ADBCF
:102C90000993644623782E2B0BD16378621C2A2B70
:102CA0003FD1059B02341A1D1B680592002B35DBB2
:102CB000079321780322364800F0EEFC002807D065
:102CC000334B2A68C01A4023834013432B600134DE
:102CD0002178631C06222F480293297600F0DCFC41
:102CE000002844D02C4B002B2FD12968059B0722AC
:102CF000C90528D59B189343083305936B69039A3C
:102D00009B186B614FE75B42EB6002230B432B6028
:102D1000BFE74B4301349B18012089E701235B4245
:102D2000C6E7002314000A201A006B6021783039AE
:102D3000092903D9002BBCD00792BAE742430134DA
:102D400052180123F2E70733D5E705AB00933A00A9
:102D5000124B2900300000E000BF0390039B0133B9
:102D6000CCD1BB895B0600D57BE70B987BE705AB35
:102D700000933A00094B2900300000F07FF8ECE79F
:102D8000543E0008003E0008743E0008343E00082F
:102D9000063E00080A3E000800000000432B000821
:102DA000F7B5150001938A680B6900900C009342F7
:102DB00000DA130022002B6043321278002A01D07F
:102DC00001332B6023689B0602D52B6802332B60EE
:102DD000062723681F4027D0230043331B785A1E41
:102DE00093412268920630D4220001994332009820
:102DF000089EB047431C25D0062320682A68E16856
:102E000003400025042B03D18D1AEB43DB171D4033
:102E1000A3682269934201DD9B1AED180027BD4289
:102E200020D1002010E00137E3682A689B1A9F42F6
:102E3000D2DA22000123193201990098089EB04786
:102E4000431CF0D101204042FEBD3020E118433147
:102E5000087021005A1C45310978A2184332023308
:102E60001170C1E7220001231A3201990098089ECF
:102E7000B047431CE6D00137D1E70000F0B58BB076
:102E800006920A0043320793059004920A7E0C00D2
:102E9000109B6E2A00D18FE017D8632A2CD008D857
:102EA000002A00D199E0582A54D0260042363270C8
:102EB00029E0642A01D0692AF7D121681A68080636
:102EC00023D5111D1960156825E0732A00D188E00B
:102ED00008D86F2A29D0702AE7D1202209680A432E
:102EE000226003E0752A20D0782ADED122007821E2
:102EF000453211706C4A30E00E001A684236111DDE
:102F0000196013683370012379E04906D9D5111D82
:102F100019600023D55E002D03DA2D23049A6D423B
:102F20001370624B0A2703932FE020681968050687
:102F300003D5081D18600D6805E04006F9D50D6839
:102F4000081D1860ADB2594B082703936F2A18D09B
:102F50000A2716E045310A70544A03921A6821681C
:102F6000101D18601568080622D5CB0702D520234E
:102F7000194321601027002D03D1202322689A4392
:102F800022602300002243331A706368A360002B81
:102F90005CDB0422216891432160002D58D1049EFE
:102FA000002B64D02600039B42361B7833705EE012
:102FB0004806DAD5ADB2D8E709681A68080605D51B
:102FC000111D1960136862691A6006E04906F7D599
:102FD000111D19601368A28A1A800023049E2361C0
:102FE00054E01A68111D19601668002162683000EB
:102FF00000F052FB002801D0801B606063682361F1
:103000000023049A137041E0236932000699059861
:10301000079DA847431C43D0236800259B070FD476
:10302000099BE06898423DDA18003BE0220001234A
:10303000193206990598079EB047431C30D00135D8
:10304000E368099A9B1A9D42F0DBE9E7002DA9D0BD
:10305000049E28003900FEF761FF039B013E5B5C84
:10306000280033703900FEF7D3FE051EF1D1082F7A
:1030700009D12368DB0706D563682269934202DC25
:103080003023013E3370049B9B1B2361079B09AADD
:1030900000932100069B0598FFF782FE431CB3D1E5
:1030A000012040420BB0F0BD223E0008113E000856
:1030B0000FB40B4B13B51C68002C05D0A369002B73
:1030C00002D1200000F0D2F905AB049AA1682000DB
:1030D0000193FFF749FD16BC08BC04B01847C04671
:1030E000AC000020F8B505000E001400002804D044
:1030F0008369002B01D100F0B9F9224B9C422DD1FC
:103100006C68A369A360A3891B0731D52369002BD1
:103110002ED023682269F7B2981A6369F6B29842F2
:1031200005DB2100280000F033F9002826D1A36830
:103130000130013BA36023685A1C22601F70636941
:10314000984204D0A389DB071AD50A2E18D1210092
:10315000280000F01DF9002812D00FE00A4B9C4215
:1031600001D1AC68CDE7094B9C42CAD1EC68C8E7F5
:103170002100280000F00CF80028CAD00126764271
:103180003000F8BD543E0008743E0008343E00088C
:10319000364B70B51D6806000C00002D05D0AB69DC
:1031A000002B02D1280000F061F9314B9C420FD175
:1031B0006C680C23E25E93B219072DD4D90611D4A2
:1031C00009230120336037331343A381404270BD8C
:1031D000284B9C4201D1AC68EBE7274B9C42E8D1DD
:1031E000EC68E6E75B0713D5616B002908D0230084
:1031F0004433994202D0300000F062FA0023636346
:103200002422A3899343A38100236360236923605D
:103210000823A2891343A3812369002B0BD1A0218A
:103220008022A389890092000B40934203D02100A1
:10323000300000F0D9F90123A289134011D00023F6
:10324000A36063695B42A361002023698342BED10E
:103250000C23E25E1306BAD540231343A381013841
:10326000B5E7920700D46369A360EDE7AC000020E6
:10327000543E0008743E0008343E0008F7B58A89C1
:1032800005000C00130760D44B68002B04DC0B6CAA
:10329000002B01DC0020FEBDE76A002FFAD00023DE
:1032A0002E682B6080235B011A4034D0606DA389A7
:1032B0005B0706D56368C01A636B002B01D0236CD3
:1032C000C01A0200216A00232800E76AB847A189D2
:1032D000431C06D12B681D2B31D82C4ADA40D3076A
:1032E0002DD50023636023692360CB0405D5431CDF
:1032F00002D12B68002B00D16065616B2E60002924
:10330000C8D023004433994202D0280000F0D8F9F5
:1033100000206063BFE70123216A2800B847431CEF
:10332000C5D12B68002BC2D01D2B01D0162B01D18B
:103330002E60AFE74023A2891343A381ABE740236C
:103340000B430120A3814042A5E70F69002FA1D0C4
:103350000B680F60DB1B01930023920700D14B69C0
:10336000A360019B002B00DC94E7019B3A00216ADB
:103370002800A66AB047002803DC4023A289134333
:10338000DFE7019B3F181B1A0193EAE70100402089
:103390000B6970B505000C00002B01D1002070BD39
:1033A000002804D08369002B01D100F05FF80B4B9B
:1033B0009C4209D16C680C22A35E002BEED0210048
:1033C0002800FFF75BFFEAE7054B9C4201D1AC68A0
:1033D000F1E7044B9C42EED1EC68ECE7543E000868
:1033E000743E0008343E000810B5024900F0B2F8FF
:1033F00010BDC04691330008002310B504000360DF
:103400004360836081814366C2810361436183615C
:10341000190008225C30FFF777FB054B24626362DA
:10342000044BA362044BE362044B236310BDC0460C
:10343000353800085D38000895380008C1380008A4
:1034400070B568254A1E55430E002900743100F0FE
:1034500081F9041E08D000212A00016046600C306A
:10346000A0606832FFF750FB200070BD836913B580
:103470000400002B28D18364C3640365134B144AF2
:103480001B6882620193984201D10123836120006D
:1034900000F020F86060200000F01CF8A060200020
:1034A00000F018F80022E06004216068FFF7A4FF34
:1034B00001220921A068FFF79FFF02221221E06884
:1034C000FFF79AFF0123A36113BDC046FC3D00082E
:1034D000E9330008F8B51E4B07001E68B369002BDE
:1034E00002D13000FFF7C2FF4836B4687368013B71
:1034F00004D53368002B07D03668F6E70C22A55EAA
:10350000002D0DD06834F2E704213800FFF798FF52
:1035100030600028F0D10C2304003B602000F8BD8F
:10352000012320005B42E3810233A38165662560AD
:10353000A560656025616561A561082229005C3090
:10354000FFF7E2FA6563A563A564E564E6E7C046B4
:10355000FC3D0008F7B5040007000026019148343F
:10356000002C01D13000FEBD6368A5680093009B6C
:10357000013B009301D52468F2E7AB89012B08D900
:103580000E22AB5E013304D029003800019B98471E
:1035900006436835EBE7000070B50E001D000E23F2
:1035A000C95E90B01400002907DA00232B60B389AC
:1035B0001B0611D48023DB000FE001AA00F0ACF958
:1035C0000028F2DBF022029B12021340054A9B18EE
:1035D0005A4253412B60EDE740230020236010B096
:1035E00070BDC04600E0FFFFF7B502268B890500DD
:1035F0000C00334206D023004733236023610123AC
:103600006361F7BD01AB6A46FFF7C6FF009907008B
:10361000280000F09FF8002808D10C22A35E9A052C
:10362000EFD4032293431E43A681E4E70F4BAB6222
:103630008023A28920601343A381009B20616361E2
:10364000019B002B0DD00E23E15E280000F076F9DF
:10365000002806D00322A38993431A0001231343B1
:10366000A381A0893843A081CBE7C046E933000895
:1036700010B5034B0100186800F06CF810BDC0468F
:10368000AC00002010B5034B0100186800F018F8DA
:1036900010BDC046AC000020C9B28218904201D1D2
:1036A0000020704703788B42FBD00130F6E70023FF
:1036B00010B59A4200D110BDCC5CC4540133F8E778
:1036C00070B50500002910D00C1F2368002B00DA0C
:1036D000E418280000F058F91D4A1368002B05D1A2
:1036E00063601460280000F050F970BDA34209D94E
:1036F000216860188342F3D118685B684118216023
:10370000EEE713005A68002A01D0A242F9D91968DD
:103710005818A0420BD12068091858181960824225
:10372000E0D110685268411819605A60DAE7A04287
:1037300002D90C232B60D5E721686018824203D19F
:10374000106852684118216062605C60CAE7C04638
:10375000B0050020032370B5CD1C9D43083506003D
:103760000C2D1ED20C25A9421DD8300000F00CF9FA
:10377000254A14682100002919D1244C2368002B04
:1037800003D1300000F044F820602900300000F040
:103790003FF8431C2CD10C233000336000F0F5F8C7
:1037A00003E0002DDFDA0C233360002070BD0B68CE
:1037B0005B1B1AD40B2B03D90B60CC18256003E0DC
:1037C0008C420ED163681360300000F0DEF82000F8
:1037D00007220B30231D9043C31AE7D05A42E25010
:1037E000E4E74B6863600C00EEE70C004968C2E751
:1037F0000323C41C9C43A042E0D0211A300000F0F7
:1038000007F8431CDAD1C6E7B0050020B405002054
:10381000002370B5064C050008002360FCF712FE7B
:10382000431C03D12368002B00D02B6070BDC04621
:103830005806002070B50C000E25495F00F0A6F870
:10384000002803DB636D1B18636570BDA389024A02
:103850001340A381F9E7C046FFEFFFFFF8B51F0053
:103860008B8905000C001600DB0505D50E23C95E0B
:103870000022022300F074F8A389054A28001340AF
:10388000A38132000E23E15E3B0000F01FF8F8BD7B
:10389000FFEFFFFF70B50C000E25495F00F060F8E8
:1038A000A389421C03D1054A1340A38170BD802225
:1038B00052011343A3816065F8E7C046FFEFFFFFA5
:1038C00010B50E23C95E00F015F810BD70B50500E7
:1038D000080011000022064C22601A00FCF7B7FC19
:1038E000431C03D12368002B00D02B6070BDC04661
:1038F00058060020002370B5064C05000800236020
:10390000FCF79DFD431C03D12368002B00D02B60E6
:1039100070BDC04658060020002370B5064C050057
:10392000080011002360FCF785FD431C03D12368C8
:10393000002B00D02B6070BD58060020002370B50E
:10394000064C050008002360FCF772FD431C03D100
:103950002368002B00D02B6070BDC04658060020A5
:1039600070B50500080011000022064C22601A0004
:10397000FCF75CFD431C03D12368002B00D02B60B7
:1039800070BDC046580600207047704770B50500EE
:10399000080011000022064C22601A00FCF744FDCA
:1039A000431C03D12368002B00D02B6070BDC046A0
:1039B000580600200123214A1168194200D11360E2
:1039C0001F4A1168194200D1136001231D4A116872
:1039D000194200D113601C4A1168194200D11360CA
:1039E00001231A4A1168194200D11360184A11685C
:1039F000194200D113600123164A1168194200D1FF
:103A00001360154A1168194200D113600123134A4B
:103A10001168194200D11360114A1168194200D18E
:103A2000136001230F4A1168194200D113600E4A36
:103A30001168194200D113607047C046E4050020A8
:103A4000E0050020DC050020D8050020D40500207A
:103A5000D0050020CC050020C8050020C4050020AA
:103A6000C0050020BC050020B80500200123214A24
:103A70001168194200D113601F4A1168194200D120
:103A8000136001231D4A1168194200D113601C4ABA
:103A90001168194200D1136001231A4A11681942B2
:103AA00000D11360184A1168194200D11360012334
:103AB000164A1168194200D11360154A116819425B
:103AC00000D113600123134A1168194200D1136019
:103AD000114A1168194200D1136001230F4A11687D
:103AE000194200D113600E4A1168194200D11360C7
:103AF0007047C04614060020100600200C06002067
:103B0000080600200406002000060020FC05002016
:103B1000F8050020F4050020F0050020EC05002049
:103B2000E80500200123164A1168194200D11360EC
:103B3000144A1168194200D113600123124A116816
:103B4000194200D11360114A1168194200D1136063
:103B500001230F4A1168194200D113600D4A116800
:103B6000194200D1136001230B4A1168194200D198
:103B700013600A4A1168194200D113607047C046A9
:103B800034060020300600202C06002028060020E5
:103B900024060020200600201C0600201806002015
:103BA0000123164A1168194200D11360144A1168A2
:103BB000194200D113600123124A1168194200D141
:103BC0001360114A1168194200D1136001230F4A92
:103BD0001168194200D113600D4A1168194200D1D1
:103BE000136001230B4A1168194200D113600A4A7D
:103BF0001168194200D113607047C0465406002076
:103C0000500600204C0600204806002044060020F4
:103C1000400600203C06002038060020F8B5C046CB
:103C2000F8BC08BC9E467047F8B5C046F8BC08BC56
:043C30009E467047F5
:103C34000100030504020403020100000500000062
:103C44000024014003800200110000000024014010
:103C540003800400FF0000000000000000000000DA
:103C64000102030405060708090A0B0C0D0E0F10C8
:103C74001100000000000000000102030406070810
:103C840009000000AC0D0000420E0000740E00009C
:103C9400A60E0000F10E00006E0F00006810000078
:103CA400680B0000440C0000800C0000940C000021
:103CB400A80C0000BC0C0000100E00000004080258
:103CC4000000000001020304000000480004004852
:103CD40000080048000C00480014004802030405D2
:103CE400060708090A0B0C0D0E0F1010010203043D
:103CF40005060708090A0B0C0D0E0F100000000042
:103D040000000000ED0C0008290C0008BD0C0008A0
:103D1400810C0008A30C00086F0C000800000000D0
:103D24000000000041010008310100083B010008C7
:103D34003501000835010008310100082701000899
:103D44004501000821010008090000000038014075
:103D540012010000FF00000000000000000000004D
:103D64000A0000000038014012010000FF000000BA
:103D74000000000000000000000102030405060723
:103D8400090A0D0E404105114C69506F000D0A00DF
:103D94004C6946650054494D3A20556E6B6E6F77F9
:103DA4006E2074696D6572204952516E00455252FD
:103DB4004F523A206174206C65617374206F6E6594
:103DC40020554152542070696E20686173206E6FD3
:103DD400207065726970686572616C0A00455252A0
:103DE4004F523A20554152542070696E73206D69C8
:103DF400736D617463680A00B0000020232D302BBA
:103E04002000686C4C0065666745464700303132D7
:103E1400333435363738394142434445460030312E
:103E2400323334353637383961626364656600008D
:103E3400000000000000000000000000000000007E
:103E4400000000000000000000000000000000006E
:103E5400000000000000000000000000000000005E
:103E6400000000000000000000000000000000004E
:103E7400000000000000000000000000000000003E
:103E8400000000000000000000000000000000002E
:103E940011210008E9000008F1280008B5390008DC
:0C3EA4006D3A0008253B0008A13B000817
:043EB000C100000845
:103EB40000000000000000000000000000000000FE
:103EC40000000000000000000000000000000000EE
:103ED40000000000000000000000000000000000DE
:103EE40000000000000000000000000000000000CE
:103EF40000000000000000000000000000000000BE
:103F040000000000000000000000000000000000AD
:103F1400000000000000000000000000000000009D
:103F24000000000000000000080000000000000085
:103F3400000000000000000000000000000000007D
:103F4400000000000000000000000000000000006D
:103F5400FF0000000A00000000127A00B0000020F8
:103F640000000000543E0008743E0008343E00087F
:103F7400000000000000000000000000000000003D
:103F8400000000000000000000000000000000002D
:103F9400000000000000000000000000000000001D
:103FA400000000000000000000000000000000000D
:103FB40000000000000000000000000000000000FD
:0400000508002A4580
:00000001FF
