:020000040800F2
:1000000000100020A1290008F1290008F1290008AA
:1000100000000000000000000000000000000000E0
:10002000000000000000000000000000F1290008AE
:100030000000000000000000F1290008C3020008D1
:10004000F129000800000000F1290008F12900084A
:10005000F1290008EF180008DF180008C918000887
:1000600000000000F1290008F1290008F12900082A
:10007000F1290008A9010008F1290008000000008A
:100080009501000800000000000000008101000848
:10009000000000006D01000859010008F129000866
:1000A00000000000F129000800000000C71400084B
:1000B0000000000000000000000000000000000040
:1000C00010B5064C2378002B07D1054B002B02D02E
:1000D000044800E000BF0123237010BD1001002080
:1000E00000000000783B0008084B10B5002B03D03F
:1000F0000749084800E000BF07480368002B00D10B
:1001000010BD064B002BFBD09847F9E7000000001C
:1001100014010020783B00081001002000000000BE
:100120000F22030913409B00024058580123D0407E
:1001300018407047002303817047014B18687047CF
:100140002C010020C8207047FA2080007047C8208A
:100150004000704732207047034B10B5186C0028E0
:1001600001D000F07FFF10BD90010020034B10B5BF
:10017000D86B002801D000F075FF10BD9001002061
:10018000034B10B5586B002801D000F06BFF10BD79
:1001900090010020034B10B59868002801D000F0B2
:1001A00061FF10BD90010020034B10B518680028B6
:1001B00001D000F057FF10BD90010020836C10B5F6
:1001C000021F002B05D0017F012902D10021100060
:1001D000984710BD10B50023421C10D00C4A0D33B7
:1001E00090420CD00DD80B4A0333904207D00A4AF4
:1001F0000333904203D0094802F008FF002318009F
:1002000010BD074A15239042F9D0064A0133F0E7A2
:10021000002C01400004004000200040083D000880
:1002200000440140004801400121114B11481A6867
:100230000A431A605A6802405A601A680E4802401F
:100240001A601A680D4802401A605A680C48024049
:100250000F205A60DA6A8243DA621A6B0948024058
:100260001A635A6B8A435A6300229A607047C046E9
:10027000001002400CB8FF08FFFFF6FEFFFFFBFF77
:10028000FFFFC0FFECFEFFFF0200431C06D0002072
:100290000856431C02D0824201D1886870470C3155
:1002A000F5E70023421C06D118007047984201D19F
:1002B0004B68F9E70C310023CB565A1CF6D10023CA
:1002C000F2E7024A13680133136070472C010020E3
:1002D0007FB50023042810D81B4B80215A6901F0F8
:1002E0002BFB030F18212A0089020A435A615B691C
:1002F0000B400193019B9023DB05180007B000BD64
:10030000C9020A435A615B690B400293029B0F4B7F
:10031000F3E709030A435A615B690B400393039BAC
:100320000B4BEAE749030A435A615B690B400493AC
:10033000049B084BE1E7C9030A435A615B690B4020
:100340000593059B044BD8E70010024000040048C9
:1003500000080048000C004800140048F0B50400F4
:1003600089B0002812D088208925AB492056FFF794
:1003700098FF65570600A9492800FFF792FF00285B
:1003800001D0002E04D1A64802F040FE09B0F0BD15
:100390003300864200D000232360002B01D1A14806
:1003A000F2E7A14AA14E934215D18022F368D2010F
:1003B0001343F360F3689E490B40F360B369134342
:1003C000B361B36913400293029B2300002274338C
:1003D0001A701B329A750F2728093840FFF778FFEB
:1003E0008925009065578D492800FFF74DFF0123AF
:1003F0003D40AB401022039343001340093A0240B2
:100400001343049303230322069303091340059324
:100410007F23000A184003A907902500009800F0E8
:10042000F3FE00208835285600093840FFF750FFBA
:1004300000902D7878496DB22800FFF725FF012341
:100440003D40AB401022039343001340093A024061
:1004500013430493032303220693030913400593D4
:100460007F23000A1840079003A9009800F0CCFEF3
:10047000230074331B786F49221D9B005A50D06FA4
:100480000432D76F0C22A2610022E26122622200B4
:10049000E36F2568A16F6D326560A1600193E36031
:1004A0002061676100921278D2B2002A04D16C23D5
:1004B0009C46A44463461A702422009B1A700123B0
:1004C0002A689A43019B2A603B430C272A683B43D6
:1004D000594F3A4013432B606B68584A13401843F6
:1004E00068600320AB68564A1340626A1343AB60EE
:1004F000336B544A0340D05C082800D946E701F02A
:100500009BFB090045FF140045FF170045FF45FF11
:1005100045FF860073685B055B0FD3184A4A1B7959
:100520001068D8404B08C01808E04808474BFAE765
:1005300000F01AFEA368A1685B08181801F006FA1B
:1005400080B2E860A26A6368002A49D0D10705D565
:1005500059683F480140E06A01435960910705D559
:1005600059683C480140206B01435960510705D54B
:10057000596839480140606B01435960110705D53E
:10058000596836480140A06B01435960D10605D532
:10059000996833480140E06B01439960910605D5A5
:1005A000996830480140206C0143996051060FD58D
:1005B00059682D4D606C29400143596080214903E1
:1005C000884205D1596829480140A06C014359600F
:1005D000120605D55A6826490A40E16C0A435A605A
:1005E0005A6824490A4008215A609A688A439A60E6
:1005F000012219680A431A60002320220099236708
:100600000A7021006C346E310A702370BEE68023BC
:1006100048081B0287E7C046C83C0008E03C0008C9
:10062000203D0008503D0008003801400010024005
:10063000FFBFFFFF24050020F369FFFFFFCFFFFF8F
:10064000FFF4FFFFCC3B0008A800002000127A0056
:10065000FFFFFDFFFFFFFEFFFFFFFBFFFF7FFFFF31
:10066000FFEFFFFFFFDFFFFFFFFFEFFFFFFF9FFF3A
:10067000FFFFF7FFFFF7FFFFF0B50F2704000009AA
:1006800087B038400E001500FFF722FE01233C40E2
:10069000A3400193032301A904930296039500F05C
:1006A000B3FD07B0F0BD034A116813685B1A8342BB
:1006B000FBD370472C01002010B50F281DD8114B1B
:1006C0001C56631C19D010492000FFF729FD002398
:1006D000984210D00F2122090A40042A0FD8012085
:1006E0000C40A040094B92009A18D3681B69034044
:1006F000581E8341DBB2180010BD0023FBE71B69C5
:10070000FFDEC046F83C0008E8010020CC3B0008B2
:1007100010B50800FFF7D0FF10BD70B50D000F2811
:1007200019D80E4B1C56631C15D00D492000FFF73D
:10073000F7FC00280FD023061B0F0022042B03D840
:10074000084A9B00D318DA680F231C400E3BA340D5
:10075000002D01D0936170BD9362FCE7F83C000866
:10076000E8010020CC3B0008F0B593B001910F28C0
:1007700000D9DBE0724B1D566B1C00D1D6E07149ED
:1007800028001431FFF7CCFC002813D06E4E002354
:1007900037002037DA57511C15D10F21694A2B0930
:1007A0000B4014329B00D318012229408A4019685B
:1007B00091431960019B032B00D9ABE0180001F0B5
:1007C000BBF8A4BCB7BA0C339542E3D1390028007A
:1007D000FFF767FD041EE0D039002800FFF754FD45
:1007E0000303DB0E023B022B44D87436F35C002B70
:1007F00007D0042B05D0082B03D00C2B01D0182BCD
:10080000CBD13D2102AE514A514F8919C00233D597
:1008100004269E40206AB0432062236A2362236A32
:10082000134207D1206A4B4B184203D1636C4A48EC
:1008300003406364236A134207D1206A454B184280
:1008400003D1012023688343236002230B70236AB2
:10085000134207D1226A3F4B1A4203D10122236877
:1008600093432360BC422FD13C4A3D4893690340E7
:10087000936131E00023C4E701269E40206AB04323
:100880002062236A2362BC4205D0364B9C4202D0D0
:10089000354B9C420AD1236A134207D1206A2D4B63
:1008A000184203D1636C2C4803406364236A1342EB
:1008B00007D1206A274B184203D1012023688343C4
:1008C000236001230B70C0E7284B9C4207D1022014
:1008D000224AD3698343D36100230B705DE7244B25
:1008E0009C4204D11D4A2348D3690340F3E71D4BC2
:1008F0009C4203D1194A20489369B8E71A4B9C429D
:10090000EAD1164A1D489369B1E700221100280078
:10091000FFF7B2FE0F222B09134015400E3AAA40F2
:1009200008499B00CB1819680A431A6013B0F0BD40
:1009300001220021EBE70222FBE700220121E6E78A
:10094000F83C0008E8010020CC3B00081111000031
:10095000002C014044040000FF7FFFFF0010024014
:10096000FFF7FFFF00440140004801400004004041
:1009700000200040FFFEFFFFFFFFFDFFFFFFFBFF2A
:10098000F0B53D4F3D4B3D0028351B682A7885B0BA
:100990009200D3400F22134002933B0029331C786E
:1009A000E4B2002C32D1029B002B2FD02100042076
:1009B000FFF7DAFE21000320FFF7D6FE2100022018
:1009C000FFF7D2FE21000120FFF7CEFE2C4B2A7844
:1009D00077339B5C2B4D5E080393AB5D01211800C0
:1009E000AD190193FFF7C0FE6E780125012130009B
:1009F000FFF7BAFE039B2B40039318D02100019808
:100A0000FFF78BFE29003000FFF787FE3B002933FC
:100A10001B78029A934210DA3A0029321378013394
:100A2000DBB213701378032B18DC05B0F0BD29007E
:100A30000198FFF772FE0399E5E700210420FFF714
:100A400093FE00210320FFF78FFE00210220FFF715
:100A50008BFE00210120FFF787FEDDE700213B0030
:100A6000117028331A780132D2B21A701A78052A16
:100A7000DBDD1970D9E7C046E80100203001002015
:100A8000CC3B0008C53B000801207047162201201E
:100A9000014B40421A6070472C060020FEE7F0B57B
:100AA0006E4B85B01B680C0009206D4902920393C0
:100AB000FFF7F7FB002800D1B1E00023694E990051
:100AC0007158DAB2002902D0096888422AD001336D
:100AD000082BF4D1644D2B0074331B78072B1FD9DE
:100AE000624B5EE090425BD11B785BB22A00893298
:100AF00013702B0009218833197096232A009B015B
:100B0000AB6700230832D36728002A1DEB67D36741
:100B1000FFF724FC2B0074331B78072B00D97EE0F1
:100B200074352A789200B358190069310A78202A5E
:100B30006DD1002C6BD06A461289002A67D08020C4
:100B40009E684001864204D11869002801D1E0075F
:100B50005DD4180068300578012D58D00125057046
:100B60000020D866213008703C49096801911900BD
:100B700050310A804A802100180052300288002A31
:100B800015D140251A68354ED16929404ED01A003A
:100B90002021693211700022683302981A703FE0F8
:100BA0000C335A68002A9DD101235B429EE70288DC
:100BB000013A92B2028029481A6884468025D06999
:100BC00028400CD08020400186422BD11869002893
:100BD00028D108880231C005C00D1085CCE76546D4
:100BE000019F2D68ED1BFA27BF00BD42E6D91168B1
:100BF0001F4D294011609168A335FF35A9439160CD
:100C00001A002021693211705170013A1070134A94
:100C100003991268521A17498A4200D884E70020C3
:100C200005B0F0BD087801311085A5E7019F306857
:100C3000C01BFA27BF00B842A6D910680C4D284047
:100C400010609068A335FF35A84390601A002020FB
:100C5000693210705070013A1170D8E72C010020F1
:100C6000C83C0008240500200C000020E03C0008DF
:100C70005FFEFFFFE7030000002070470020704781
:100C80000120704780239B0100204B6070470120AA
:100C900040427047094B0200D96A002901D1084936
:100CA000D9626946D86A82188A4205D90C22012085
:100CB000044B40421A607047DA62FCE7E80100200A
:100CC000300600202C060020F8B50026B04204DBD8
:100CD000642800DD64200626464300240F4D64216D
:100CE0002C60300000F0BCFE230004219C002F6823
:100CF000834206DA0A00A24001333A432A60DBB29B
:100D0000F4E73000642100F091FF0800192100F0A1
:100D1000A7FEA04038432860F8BDC046300100203F
:100D200010B5042919D10D4B1A680D4B9A4214D9EC
:100D300064242000FFF7C8FF0420FFF7B4FC013C47
:100D4000F7D200210620FFF7E8FC00210720FFF77B
:100D5000E4FC00210C20FFF707FD10BD2C01002052
:100D600088130000F7B506000D000C008B180193E6
:100D7000019B671B9C4207D0336821781B683000B9
:100D8000984701340028F3D13800FEBD02003F210E
:100D90009A321388983001330B40138013880088EF
:100DA000C01A4342584140427047037C002B04D094
:100DB000FE30C28D038E9A42FCD170470200FE3293
:100DC000D18C138D994207D0FC30416AC85C3F2119
:100DD00001330B401385704701204042FBE70300BD
:100DE000FE33DA8C1B8D9A4203D0FC30426AD05C11
:100DF000704701204042FBE7FE30C38C008D40333A
:100E0000181A3F2318407047054B10B5002B06D029
:100E10000448FFF7F1FF002801D000E000BF10BD3B
:100E200000000000D8030020F8B5020001233F2590
:100E30000374FE320400D08DC3182B40158EAB42D4
:100E4000FCD025002600FC35ED6A09362954FF3612
:100E5000D3853378164D9B005A59210010006A3211
:100E600069300078127894310243212A1DD0114A4A
:100E70001148270098500020D3181F371962FF37F8
:100E80000021385600F070FA0020385600F09CFA25
:100E9000230029342F33FF33FF341B882168C918FE
:100EA00033789B00585900F0E1FC0120F8BDC046A2
:100EB00024050020180200208D0D000870B5041EC6
:100EC00027D0030074331B78124A9B009858030004
:100ED000020069336A321B7811780B43222B18D039
:100EE0002100137875310D78202B01D100F004FC1E
:100EF00022003F219032138801330B4021009231B0
:100F000009888B4205D08C34118820689BB24554E7
:100F1000138070BD24050020406A0023020010B534
:100F20005A321380083A138000F0B8FA10BDFEE779
:100F3000F0B58BB06B4615000022053306000F009C
:100F4000DA77012D00DC0A2509AC2900380000F011
:100F5000FDFC01006943791AC9B20B003733013C2B
:100F6000DBB2092901D83031CBB22370071EECD196
:100F7000200000F0D9FC336802005B6821003000DB
:100F800098470BB0F0BDF7B507000D000024C31D56
:100F9000061D019331780A222800FFF7C9FF2B684C
:100FA00000901B682E2128009847009B0136C0182E
:100FB000019B2418B342EDD1F97928000A22FFF7EA
:100FC000B7FF2018FEBD010070B56A310A780368CA
:100FD000222A33D1020080245C3215889A8C640165
:100FE0002A408568436DA5420FD10469002C0CD1BD
:100FF0001A800233436502005A321388013B9BB2C8
:101000001380002B05D000201DE05C1C44651A7085
:10101000F1E702680F4D14682C4014609468233582
:10102000FF35AC43946020220A700B499A008C581B
:10103000A04209D00133082BF8D1E4E708220220AE
:1010400099690A439A6170BD0449054B5058D358B9
:101050009847D8E7DFFEFFFF240500206405002045
:10106000440500200222036810B5196904001142EA
:101070000DD0D96811420AD0053A1A6104320277BC
:101080009B699B0701D1FFF799F80023237704227E
:1010900023681969114210D0D96811420DD0093A5C
:1010A0001A61073222779A69C0239B001A4202D143
:1010B0002000FFF783F800232377082223681969AB
:1010C00011420ED0D96811420BD0113A1A610D327B
:1010D0002277DB699B0702D12000FFF76FF800231E
:1010E0002377102223681969114210D0D968114260
:1010F0000DD0213A1A6119322277DA69C0239B0098
:101100001A4202D12000FFF759F800232377012269
:1011100023681969114209D0D968114206D0033AEF
:10112000201F1A61836C002B00D09847802223680F
:101130001969114205D0D968114202D0023AFF3A2A
:101140001A6140221969114204D0D968114201D0B4
:10115000813A1A6120221969114204D0D9681142DA
:1011600001D0413A1A6110BD70B5144C88B004AD7D
:1011700010222100280002F048FA2100102210312C
:10118000684602F042FA0C220D4E73681A40082A93
:1011900011D10F20990C01406C5C6946F26A024043
:1011A000895CDB0305D5074800F0D0FB604308B03D
:1011B00070BD0548FAE70348F9E7C046593C000806
:1011C0000010024000127A0000093D000C4B10B5DF
:1011D0005A69104212D058610023012803D001330C
:1011E0004008DBB2F9E718225343064A181D80185D
:1011F0008168002902D0D2181369984710BDC046F3
:101200000004014058020020F0B50B6887B002933B
:1012100000230191029ADA4001D107B0F0BD01220A
:101220009A4003920399029A0A40009200D18CE0FE
:10123000019A1021526816008E43022E0ED1072506
:101240001D40AD000139A940DC08A4000419276A3B
:101250008F4301990969A9400F43276203245F0066
:10126000BC40E4430568013E2540AC4603251540DB
:10127000BD4061460D430560012E0FD80199866877
:10128000CD682640BD403543856046680399150901
:101290008E4301210D409D4035434560C56801994D
:1012A0002C408D688021BD4049052C43C4600A4212
:1012B0004BD00121264C0326A5691E400D43A56194
:1012C000A4699D080C400594059C0F242149AD009C
:1012D000B6006D18B4409021AF68C905A74300243B
:1012E00088420CD01C490134884208D01B49013483
:1012F000884204D01A490334884200D1023CB440E9
:1013000000993C430E00AC60164CCD4327683E4329
:10131000D10301D43E002E4026606768009E3E4304
:10132000910301D43E002E406660A768009E3E43B4
:10133000D10201D43E002E40A660E668009F3743EC
:10134000920201D42E403700E760013362E7C046C5
:10135000001002400000014000040048000800485E
:10136000000C00480004014070B58901002812DB20
:101370008308134A03249B009B18FF222040A040AF
:101380001400C025844011408140AD005E59A64341
:101390003143595170BD03240F23C0B20340204094
:1013A000A040FC342500214085408140083B054A8F
:1013B0009B089B009B18DA69AA431143D961E9E7AE
:1013C00000E100E000ED00E0002805DB1F231840ED
:1013D0001E3B8340014A13607047C04600E100E0B5
:1013E0000422036830B59968114201D1002030BD54
:1013F0009968114206D09A68920703D4102299681E
:101400000A439A60042409490D689A682242EDD083
:101410000A68521B022AF8D91023426C1343436412
:101420000123826C1A4382641800E0E72C0100203B
:101430000321036830B59A680A40012A01D00020D0
:1014400030BD1968114202D1DA681204F7D50521BE
:101450009A680A40012A14D102219C6821439960AC
:1014600003210D4C1960256899681142E7D0216865
:10147000491B0229F8D91023416C0B434364836C48
:1014800005E01023426C134343640123826C1A432A
:1014900082640120D4E7C0462C010020036882B09A
:1014A000DA69D20703D59B8C9BB2019308E0DA6915
:1014B0009207F8D4DA695207F5D4DA691207F2D440
:1014C000019B02B07047F8B58021C0237A4A090514
:1014D0005B00D1500F21794D2C682368DA691868B8
:1014E000114008D12026324205D0304203D02000DE
:1014F000FFF769FDF8BD9E6800297CD001210E40F0
:1015000003D190277F00384275D00A4205D0C50527
:1015100003D51962E56E2943E16602210A4206D02D
:10152000002E04D01962E56E49182943E1660421B2
:101530000A4206D0002E04D01962E56E0239294312
:10154000E166110708D5810601D4002E04D00821D8
:101550001962E36E1943E166E36E002BCAD02023C3
:101560001A4204D0184202D02000FFF72CFDE26E90
:101570002368120703D440229D68154036D01A68AC
:101580004F4920200A401A600122996891439960CE
:1015900021006A31087099680018014222D09968C8
:1015A0008143606E996000281CD0464B841C4363C5
:1015B000E37F022B04D004238363FFF7ADFC99E79C
:1015C0000E2503681968A94319601968056C9143D1
:1015D00019601100A940C36B5960E2770022431CD7
:1015E000DA77EAE72000FFF759FF83E72000FFF7EB
:1015F00055FFE5667EE780210A422DD008422BD0B8
:10160000220069321278212A00D073E7200052307C
:101610000288002A07D11A688A431A604022196892
:101620000A431A6066E78021A5684901E26C8D4291
:101630000DD1216900290AD111880232C905C90DCD
:101640001985E2640388013B9BB2038052E7511C79
:10165000E16412781A85F5E740210A4200D149E792
:10166000084200D146E71A688A431A602300202204
:1016700069331A7000239A00AA58944203D00133A8
:10168000082BF8D136E7104ADBB29B009C580F4A72
:1016900020009B589847431C00D12BE723002200D1
:1016A0009A3394321B8811687434C91823789B00CC
:1016B000E85800F0DBF81DE700E100E02405002019
:1016C000DFFEFFFF190F000838020020180200207B
:1016D00070B5084C20008130FF300500183DEB68E4
:1016E0001438002B02D00322010098472800A5429D
:1016F000F3D170BD58020020802230B58468030009
:101700005201944205D10269002A02D1012001420E
:1017100028D11A00683215780220012D22D0013814
:10172000107059651900583108804880802149019E
:101730008C421AD11969002915D10F4819005C3162
:1017400008801900002022246A31D8660C701070BD
:1017500001221B6899680A439A6090221968520016
:101760000A431A6030BDFF20E8E7002CE9D119696F
:101770000029F8D07F20E1E7FF010000F8B51E4CFA
:10178000E12227002300250000269437FC33520273
:101790003800FF351A61DE619E615E61FEF7DEFD95
:1017A0006B7A164A9B00D118CA6C10006A326930F5
:1017B000007812780243222A1CD01F20104ACA66E1
:1017C000104A3100D318DF602856FFF7CDFD1F20E7
:1017D0002856FFF7F9FD6B7A084A9B00D318D86C9E
:1017E00003006A331B78202B04D121000A31FF311A
:1017F000FFF782FFF8BDC046D8030020D8040020C0
:10180000BD0E0008580500200100054810B5826C87
:101810005468002C02D03C30C27AA04710BDC046AC
:10182000D804002010B5022202490348FFF79AFAB3
:1018300010BDC0466B3D0008D8030020FA21094BBB
:1018400010B51868890000F081F800F0E3FFC022AD
:10185000054912060B6A00201B021B0A13430B6288
:1018600010BDC046A800002000ED00E030B5050026
:1018700069352B7802000220202B24D10138002961
:1018800021D0802390685B01984205D11369002B19
:1018900002D10120014216D11400683423780220BD
:1018A000012B10D0D1641100012350310B804B80EB
:1018B00000232121D36629702370116880220868D3
:1018C000024318000A6030BD70B50C241025A8B280
:1018D000013CFFF77BFC6D00002CF8D170BD10B50A
:1018E0000420FFF773FC0820FFF770FC10BD10B553
:1018F0000120FFF76BFC0220FFF768FC10BD10B55C
:1019000001F06EFE10BD10B501F06AFE10BD10B5FD
:1019100001F066FE10BD10B501F058FE10BD10B507
:1019200001F054FE10BDC0460023C25C0133002A02
:10193000FBD1581E7047000002B4714649084900A7
:10194000095C49008E4402BC7047C046002243082F
:101950008B4274D303098B425FD3030A8B4244D377
:10196000030B8B4228D3030C8B420DD3FF220902B9
:1019700012BA030C8B4202D31212090265D0030B78
:101980008B4219D300E0090AC30B8B4201D3CB036E
:10199000C01A5241830B8B4201D38B03C01A5241B0
:1019A000430B8B4201D34B03C01A5241030B8B42B2
:1019B00001D30B03C01A5241C30A8B4201D3CB029D
:1019C000C01A5241830A8B4201D38B02C01A524182
:1019D000430A8B4201D34B02C01A5241030A8B4285
:1019E00001D30B02C01A5241CDD2C3098B4201D39D
:1019F000CB01C01A524183098B4201D38B01C01A1B
:101A0000524143098B4201D34B01C01A5241030991
:101A10008B4201D30B01C01A5241C3088B4201D340
:101A2000CB00C01A524183088B4201D38B00C01AED
:101A3000524143088B4201D34B00C01A5241411A14
:101A400000D20146524110467047FFE701B5002021
:101A500000F0F0F802BDC0460029F7D076E77047E5
:101A600003460B437FD4002243088B4274D30309FF
:101A70008B425FD3030A8B4244D3030B8B4228D3A0
:101A8000030C8B420DD3FF22090212BA030C8B42C6
:101A900002D31212090265D0030B8B4219D300E066
:101AA000090AC30B8B4201D3CB03C01A5241830BEB
:101AB0008B4201D38B03C01A5241430B8B4201D39B
:101AC0004B03C01A5241030B8B4201D30B03C01AC4
:101AD0005241C30A8B4201D3CB02C01A5241830A3E
:101AE0008B4201D38B02C01A5241430A8B4201D36D
:101AF0004B02C01A5241030A8B4201D30B02C01A97
:101B00005241CDD2C3098B4201D3CB01C01A5241FD
:101B100083098B4201D38B01C01A524143098B4286
:101B200001D34B01C01A524103098B4201D30B016F
:101B3000C01A5241C3088B4201D3CB00C01A524194
:101B400083088B4201D38B00C01A524143088B4259
:101B500001D34B00C01A5241411A00D201465241F2
:101B6000104670475DE0CA0F00D04942031000D311
:101B70004042534000229C4603098B422DD3030A66
:101B80008B4212D3FC22890112BA030A8B420CD376
:101B9000890192118B4208D3890192118B4204D39F
:101BA00089013AD0921100E08909C3098B4201D31F
:101BB000CB01C01A524183098B4201D38B01C01A59
:101BC000524143098B4201D34B01C01A52410309D0
:101BD0008B4201D30B01C01A5241C3088B4201D37F
:101BE000CB00C01A524183088B4201D38B00C01A2C
:101BF0005241D9D243088B4201D34B00C01A524103
:101C0000411A00D20146634652415B10104601D38F
:101C10004042002B00D54942704763465B1000D319
:101C2000404201B5002000F005F802BD0029F8D0BF
:101C300016E770477047C04603B471464908400034
:101C40004900095E49008E4403BC7047F0B501218C
:101C5000A3B00C20FEF788FD01210720FEF784FDCC
:101C600001210620FEF780FD00210800FEF77CFD23
:101C700002210A20FEF778FD02210B20FEF774FDF9
:101C800008200021FEF770FD1E4BD8681E4B02890C
:101C900043600523134303810368DB6898470028EA
:101CA00001D0FEF700FD0C22184B1A6005230193AA
:101CB0006420FEF7F8FC2123029300230393029B88
:101CC000013B0293002B00D1A6E200244C2200210C
:101CD0000FA800F0C7FE06AB0D4911205C80FEF78F
:101CE000E0FA0F90A04215D10023084A12680C2A8E
:101CF00005D00B2A00D98CE20C218A1AD340039A12
:101D0000D318DBE714050020210D00080400002093
:101D1000903B00088023DB0510930423C227209406
:101D20001493DC4C023B1D930F332371209BFF3730
:101D30001997002B1DD12193D74B984209D18020B0
:101D4000D64A8000916901439161936903400793EA
:101D5000079B0120FEF7BCFA0F2322790AA91A403B
:101D60000E3B93400A9303230B9300230C93FFF73E
:101D70004BFA209BDB0600D5BEE104230F9CA26832
:101D80001A4000D0B8E12098C549023B08400343FF
:101D900003202093A36805910340012B01D000F09C
:101DA00039FC2168194204D1E3681B0401D400F016
:101DB00031FCE368BB49179D0B40E360159B6E0344
:101DC0009903169BDB030B431C99481E411E884157
:101DD0000103129803431E43139B0493022B00D16B
:101DE00004221B9B580004933043189B0843024372
:101DF000012B05D1002D00D06AE180235B021A433C
:101E0000199BBB4203D01A990B4304911A43E36810
:101E10001D9E1343E36080235B059E4202D0731E28
:101E2000062B07D8072361699943616161693340D3
:101E30000B436361E3689C490B409A4200D04FE139
:101E4000002503222195209B984F93431A000123DC
:101E50003900134311202093FEF716FA0003C00E39
:101E60000138102800D84AE100231FAA08931378EC
:101E7000012B00D138E701231370A268520700D567
:101E800061E1AB40A26A1343A36280235B059E42DB
:101E90000ED0013E062E0BD9072263691340022B98
:101EA00006D06369934363610223626913436361EC
:101EB0002B00103B012B00D828E1012203211FAB8E
:101EC0001A700F9B9A680A40012A07D119681142BB
:101ED00000D0AEE3DA68120400D5AAE32099059A8F
:101EE0000320114002220A432092DA68D968814314
:101EF000D960802198680906014399606C490C6893
:101F00009868002800DA23E10321D8680A400243D8
:101F1000DA600123209A8A4313432093002300218F
:101F20001FAA11708B4200D0DEE60F9CA168490702
:101F300000D5D9E601211170169A04928A4200D088
:101F400010E1209B5B4A1FAD1A4080235B001343C6
:101F500020931C22002321932B702260A168183A41
:101F60000A431499A260082900D033E1504A166848
:101F700023680B4000D137E18023209A9B00134354
:101F80002093C023E2681B011A4214D1179B0493CB
:101F9000002B10D123681B070DD5A3685B0700D564
:101FA0002AE10C22636893436360209B424A1A40F3
:101FB000012313432093159B0493002B01D10C3371
:101FC0002360209B9B0503D5236C06AA9BB25380FC
:101FD00001240FA82C70FFF703FA002809D10FA8DD
:101FE000FFF726FA002804D1209B334A13401C43F4
:101FF000209400232B70984200D075E6209A02337B
:1020000013430FA82093FFF7EBF9002800D0FCE062
:102010000FA8FFF70DFA012800D165E601232093F0
:102020009F210F9B254C5A688A435A601960DA68D1
:1020300023490A400721DA601A69920092081A615E
:102040005A698A435A611A6A1E490A401A629A6A90
:102050001D49D20CD2049A620A6822400A600E4AD4
:1020600093420CD180220D4B9200D968174C0A4341
:10207000DA60D9682140D9609A6922409A610023C8
:1020800021932093984200D02EE606AB02331B88A2
:102090009BB22AE604000020002401400010024008
:1020A000FDFEFFFF1902FEFFE7FF3F83903B0008A4
:1020B0002C010020FEF0FFFFFEFEFFFFFFFF3FFFB1
:1020C00000023E8300F000F008270140FFFDFFFF03
:1020D000202120980143209121990B4321938FE6E1
:1020E0001222209B93431A001023134320930123B1
:1020F000219A13432193F7E5209A102325E0053711
:102100003818C57F112D00D9EEE5ADE6A94A80212A
:102110001368102D15D0C9030B431360102D00D088
:10212000CBE6A54BA5491868FFF710FC0A235843D6
:102130000890089B002B00D1BFE6089B013B089349
:10214000F7E70904E8E72023209A13432093CBE51F
:102150000868001B022800D8D2E61222209B934375
:102160001A00CAE703220993A3681340012B07D181
:1021700022681A4200D0E4E6E3681B0400D5E0E6DA
:10218000A2688F4B1A4201D0209AADE70123A268C2
:102190008A491343A360884B1868FFF7D7FB09905F
:1021A000099B002B12D10120864A15682368034041
:1021B00000D0C6E61168491B0229F7D91021209AE0
:1021C00011432091219A024321928EE5099B013B04
:1021D0000993E5E7E2680C21D20700D4C6E6202285
:1021E00020990A43209280E51068801B0A2800D8B5
:1021F000BEE620990422F4E72023209A134320937B
:102200000123219A13432193D5E6012800D007E743
:102210006AE50C3A934072E5039B5D09FFF7AEFA5D
:10222000694C0A2229002000FEF782FEFFF7FAFA25
:102230002000FEF7BAFD02990820FEF795FAFFF795
:102240009DFA9E21614849006843FFF77FFB604B80
:1022500060495843FFF77AFB0A2201002000FEF78D
:1022600067FEFFF7DFFA2000FEF79FFD02990820C6
:10227000FEF77AFA019B013B0193002B00D017E592
:102280000A20FEF719FA002802D00B20FEF714FAF4
:1022900001210C20FEF741FA01210620FEF73DFA4C
:1022A00001210720FEF739FA0026FA21454C4A4B56
:1022B0004A4D2365404B66601868A5608900FFF7AA
:1022C00045FB0123A361230080B28008E560206103
:1022D0006661E661266249331B78DBB2B3421ED1E8
:1022E00022008020483213703D4A800291690143E8
:1022F00091619369220003400F930F9B23000C32DE
:10230000A03328001A60FDF765FF0F2140B2FFF7E8
:102310002BF8E068FDF75EFF40B2FFF755F82300A9
:10232000022249331A702F49E3681A688B4202D09F
:102330002D48834208D170208243606902438B425A
:102340000AD02948834207D02848834204D0AB42B0
:1023500002D02748834203D126480240E069024365
:1023600080208243606A02431A60A269DA622269AD
:102370009A628B4204D0AB4202D01D4A934201D1F3
:10238000226A1A632100012249315A610A70D96810
:102390001143D96019680A431A6001980300013398
:1023A0000193662B28D0FEF78FFC0420FEF77BF903
:1023B000F3E7C04608270140A800002040420F0074
:1023C000170000802C010020D8030020C80B00005B
:1023D000E40C0000FF0F00008109000800440140E8
:1023E00000100240002C014000040040002000408A
:1023F00000480140FFFCFFFF00210420FEF7B4F974
:1024000000210320FEF7B0F900210220FEF7ACF90D
:1024100000210120FEF7A8F9002363609E4CE068CC
:1024200003689B69984785B2E06821780368DB6997
:1024300098470222A37AC6B2134200D19BE0E0681B
:1024400067880368EF1B1B68BFB29847874200DAB2
:1024500099E00222A37A9343A372E37A022B00D17C
:1024600094E00322E0680389134219D003689B6853
:102470009847A37A7F2B05D9A388EB1A9BB2834296
:1024800000DBDCE0E06803689B6898470821A27ADB
:102490000A4205D0A388EB1A9BB2834200DBD6E048
:1024A0000427E06803893B420AD00122A37A1A403C
:1024B000964205D03B4203D02022134200D1C9E00E
:1024C000E06803891B0715D50122A37A1A409642BA
:1024D00010D05A070ED5402702683B4258D02789B2
:1024E0005369EF1BBFB29847874203DB0520FFF714
:1024F0008BF92581E37AB34245D00122A17AE672B5
:102500000A40964206D0042300200B43E580A372C4
:10251000FFF77AF90122A37A1A40964233D10321B8
:10252000E06802890A4200D0A7E0A27A930604D5A7
:10253000E36819890123490614D4530604D5E368D6
:102540001989012309060DD4130704D5E3681989F5
:102550000123C90606D40023D10603D5E3681B89ED
:102560009B06DB0F74218A43A272002B0BD1012042
:10257000FFF74AF907E0E27AB24200D16DE70222A2
:102580001343A3726580FEF73FFC47E7E672FAE764
:10259000E388EB1A9BB2019313699847019B83422E
:1025A000A8DBA37A1F43A772A0E70222E068038991
:1025B000134205D0A37A1A0711D410229343A372B1
:1025C000A37A0822D90664D41A43A272E268A580CD
:1025D0001289D2051AD57822524213435AE0036871
:1025E000A6889B689847AE1BB6B2A37A8642E4DA07
:1025F0005AB2002A02DA7F221340A3721023A27A71
:1026000003201343A372FFF7FFF8D9E70220FFF777
:10261000FBF88AE71821E3688B4311990B43E360C9
:10262000236904919B0010999B080B432361FFF7DA
:10263000C0FB2023209A1343209301236FE4022040
:10264000FFF7E2F87F22A37A1340A3721AE78A43C6
:10265000A27225E7E388EB1A9BB201930368DB685B
:102660009847019B834200DA2AE72022A37A3800A8
:102670001343A372FFF7C8F822E75A0708D5E68884
:102680000368AE1B5B68B6B2984786428DDBA37ABF
:1026900008229343A37248E714050020102370B565
:1026A000514D524C2A6813432B60FFF7C7F80C2199
:1026B00062682B000A4206D062680A40082A3CD1B0
:1026C0006268D20339D42268F82122688A43110053
:1026D00078220A430C21226062680A40082A3AD014
:1026E00080202268424980040A402260414A1568DD
:1026F0002168014230D10F20E16A8143E1626168C3
:102700003D480840A0218903014361608021206881
:10271000490401438020216015688004216801423A
:102720001FD001201968014220D0F0206168814348
:1027300061602168890121D4FEE70122022021681D
:102740000A432C4922600D6822680242BCD10A6803
:10275000521B022AF8D9FEE71168491B0229C7D982
:10276000F9E71168491B0229D8D9F4E719688143B0
:102770000143196019680142DED0D6E70320616881
:102780001E4E81430800022101430C206160156840
:1027900061680140082922D11B68194A6368134007
:1027A0006360FEF7E1FC6368164A1B061B0FD35CEF
:1027B000154CD8402060FFF741F8FA2120688900C5
:1027C000FFF7C4F800F026F80423104A11680B4301
:1027D00013600F4A136A1B021B0A136270BD116853
:1027E000491BB142D4D9A7E70020024000100240A3
:1027F000FFFFFFFE2C010020FFFFC2FF8813000037
:10280000FFF8FFFF493C0008A800002010E000E0AE
:1028100000ED00E0094A431E012093420DD8C0217B
:10282000074A08485360036A09061B021B0A0B4348
:10283000036200200723906013607047FFFFFF00D2
:1028400010E000E000ED00E04E4B0521180070B5EF
:1028500030301970197601310170180000240830E9
:10286000C4671800484A1D008C30026018004835C3
:10287000297090300131017018009C3004601800FC
:10288000A43002601800A83001701800B430046051
:102890001800BC3002601800C03001701800CC3045
:1028A00004601800D43002601800D83001701D0098
:1028B00018006035E430297004601D001800783578
:1028C000EC30297002601D001800FF35F030DC602C
:1028D0005A615C62DA62DC635A645C65DA65DC6604
:1028E0005A6701706972902518006D0059551835A6
:1028F000595518355955183559557631FC30FF3131
:10290000046082608461026204638263846402659D
:102910000466826684675A5020001C4A1C4900F0F5
:1029200068F8FA221B4B92009A601B4A0A20110099
:10293000083119601900FF3188770138487718008D
:102940001900FC301131416219005C605133C362DF
:10295000124B2832FE311A631A00CC840C85CC85C8
:102960000C86022130329A64DC875C631C871A0073
:102970005B18DC8701233C3214705470D17293725F
:1029800070BDC04658020020000011100000002059
:10299000D1160008D80300207C3C0008D804002091
:1029A0000D4885460D480E490E4A002302E0D458D2
:1029B000C4500433C4188C42F9D30B4A0B4C002387
:1029C00001E013600432A242FBD3FDF72DFC00F0BE
:1029D00025F8FFF73BF9FEE700100020000000207B
:1029E00010010020283E00081001002030060020C1
:1029F000FEE70B0010B50100180000F001F810BD53
:102A000070B5054C05001300201E04D00A000220FA
:102A1000290000E000BF70BD0000000070B5002676
:102A20000C4D0D4C641BA410A64209D1002601F0E8
:102A3000A3F80A4D0A4C641BA410A64205D170BD30
:102A4000B300EB5898470136EEE7B300EB589847D0
:102A50000136F2E7083E0008083E0008083E00087C
:102A6000243E000803008218934200D17047197079
:102A70000133F9E7936810B5013B9360002B05DA49
:102A80009469A34208DBCBB20A2B05D01368581C0B
:102A900010601970C8B210BD00F0D2FAFBE7F8B5AB
:102AA00006000F001400D518AC4201D1002007E049
:102AB00021783A003000FFF7DDFF0134431CF3D1E9
:102AC000F8BD0000F0B59FB006000F00140005939C
:102AD000002804D08369002B01D100F075FC7F4BE6
:102AE0009F425CD17768BB891B0762D53B69002B8D
:102AF0005FD0002306AD6B6120336B761033AB766D
:102B00000294029C2378002B5DD1029BE31A04936C
:102B10000DD0049B029A39003000FFF7C0FF431C20
:102B200000D1CCE06A69049B944663446B612378CE
:102B3000002B00D1C3E00122002352426A6002A9A7
:102B40005432521801342B60EB60AB601370AB65EC
:102B500021780522624800F04DFD631C9C46002848
:102B600035D12968CB0604D5532302AA20309B18FF
:102B700018700B0704D553232B2002AA9B1818703A
:102B800023782A2B2CD000200A21099B2278303A66
:102B9000092A00D86BE000282AD0099328E0514B7D
:102BA0009F4201D1B7689EE74F4B9F429BD1F76888
:102BB00099E73900300000F099FA002899D00120F7
:102BC00040421FB0F0BD252B9FD001349AE7444B03
:102BD0002968C01A012383400B432B606446B7E782
:102BE000059B181D1B680590002B3ADB0993644672
:102BF00023782E2B0BD16378621C2A2B3FD1059BA7
:102C000002341A1D1B680592002B35DB07932178CF
:102C10000322364800F0EEFC002807D0334B2A6828
:102C2000C01A4023834013432B6001342178631C76
:102C300006222F480293297600F0DCFC002844D0BD
:102C40002C4B002B2FD12968059B0722C90528D5BD
:102C50009B189343083305936B69039A9B186B6128
:102C60004FE75B42EB6002230B432B60BFE74B4314
:102C700001349B18012089E701235B42C6E700234A
:102C800014000A201A006B6021783039092903D911
:102C9000002BBCD00792BAE74243013452180123FB
:102CA000F2E70733D5E705AB00933A00124B290052
:102CB000300000E000BF0390039B0133CCD1BB89FF
:102CC0005B0600D57BE70B987BE705AB00933A00EA
:102CD000094B2900300000F07FF8ECE7C83D000800
:102CE000743D0008E83D0008A83D00087A3D000852
:102CF0007E3D0008000000009F2A0008F7B515007F
:102D000001938A680B6900900C00934200DA13006B
:102D100022002B6043321278002A01D001332B604D
:102D200023689B0602D52B6802332B600627236895
:102D30001F4027D0230043331B785A1E934122683B
:102D4000920630D42200019943320098089EB04781
:102D5000431C25D0062320682A68E168034000252B
:102D6000042B03D18D1AEB43DB171D40A3682269A6
:102D7000934201DD9B1AED180027BD4220D10020AF
:102D800010E00137E3682A689B1A9F42D2DA2200DA
:102D90000123193201990098089EB047431CF0D1D5
:102DA00001204042FEBD3020E1184331087021006F
:102DB0005A1C45310978A218433202331170C1E719
:102DC000220001231A3201990098089EB047431C43
:102DD000E6D00137D1E70000F0B58BB006920A00CB
:102DE00043320793059004920A7E0C00109B6E2AD2
:102DF00000D18FE017D8632A2CD008D8002A00D140
:102E000099E0582A54D026004236327029E0642ACC
:102E100001D0692AF7D121681A68080623D5111D47
:102E20001960156825E0732A00D188E008D86F2A58
:102E300029D0702AE7D1202209680A43226003E0E2
:102E4000752A20D0782ADED12200782145321170EF
:102E50006C4A30E00E001A684236111D1960136882
:102E60003370012379E04906D9D5111D196000237B
:102E7000D55E002D03DA2D23049A6D421370624B48
:102E80000A2703932FE020681968050603D5081D5B
:102E900018600D6805E04006F9D50D68081D18603A
:102EA000ADB2594B082703936F2A18D00A2716E0B2
:102EB00045310A70544A03921A682168101D18603F
:102EC0001568080622D5CB0702D5202319432160B7
:102ED0001027002D03D1202322689A43226023006B
:102EE000002243331A706368A360002B5CDB04226A
:102EF000216891432160002D58D1049E002B64D09D
:102F00002600039B42361B7833705EE04806DAD514
:102F1000ADB2D8E709681A68080605D5111D196011
:102F2000136862691A6006E04906F7D5111D196039
:102F30001368A28A1A800023049E236154E01A6851
:102F4000111D1960166800216268300000F052FB04
:102F5000002801D0801B6060636823610023049A0D
:102F6000137041E02369320006990598079DA84730
:102F7000431C43D0236800259B070FD4099BE068BE
:102F800098423DDA18003BE02200012319320699ED
:102F90000598079EB047431C30D00135E368099A75
:102FA0009B1A9D42F0DBE9E7002DA9D0049E280082
:102FB0003900FEF751FD039B013E5B5C2800337036
:102FC0003900FEF7C3FC051EF1D1082F09D1236893
:102FD000DB0706D563682269934202DC3023013E99
:102FE0003370049B9B1B2361079B09AA009321005C
:102FF000069B0598FFF782FE431CB3D10120404297
:103000000BB0F0BD963D0008853D00080FB40B4B9A
:1030100013B51C68002C05D0A369002B02D1200039
:1030200000F0D2F905AB049AA16820000193FFF7E4
:1030300049FD16BC08BC04B01847C046AC000020CF
:10304000F8B505000E001400002804D08369002B99
:1030500001D100F0B9F9224B9C422DD16C68A369D3
:10306000A360A3891B0731D52369002B2ED02368C9
:103070002269F7B2981A6369F6B2984205DB21001B
:10308000280000F033F9002826D1A3680130013B65
:10309000A36023685A1C22601F706369984204D0A1
:1030A000A389DB071AD50A2E18D12100280000F0C9
:1030B0001DF9002812D00FE00A4B9C4201D1AC68E8
:1030C000CDE7094B9C42CAD1EC68C8E72100280033
:1030D00000F00CF80028CAD0012676423000F8BD76
:1030E000C83D0008E83D0008A83D0008364B70B513
:1030F0001D6806000C00002D05D0AB69002B02D125
:10310000280000F061F9314B9C420FD16C680C2310
:10311000E25E93B219072DD4D90611D409230120F8
:10312000336037331343A381404270BD284B9C4228
:1031300001D1AC68EBE7274B9C42E8D1EC68E6E7AD
:103140005B0713D5616B002908D0230044339942F3
:1031500002D0300000F062FA002363632422A389C6
:103160009343A38100236360236923600823A2891A
:103170001343A3812369002B0BD1A0218022A389B3
:10318000890092000B40934203D02100300000F0F0
:10319000D9F90123A289134011D00023A3606369E8
:1031A0005B42A361002023698342BED10C23E25E0F
:1031B0001306BAD540231343A3810138B5E792071C
:1031C00000D46369A360EDE7AC000020C83D0008AF
:1031D000E83D0008A83D0008F7B58A8905000C0005
:1031E000130760D44B68002B04DC0B6C002B01DC54
:1031F0000020FEBDE76A002FFAD000232E682B6066
:1032000080235B011A4034D0606DA3895B0706D52B
:103210006368C01A636B002B01D0236CC01A0200D4
:10322000216A00232800E76AB847A189431C06D118
:103230002B681D2B31D82C4ADA40D3072DD500231B
:10324000636023692360CB0405D5431C02D12B683E
:10325000002B00D16065616B2E600029C8D023006F
:103260004433994202D0280000F0D8F9002060636E
:10327000BFE70123216A2800B847431CC5D12B684A
:10328000002BC2D01D2B01D0162B01D12E60AFE731
:103290004023A2891343A381ABE740230B430120C2
:1032A000A3814042A5E70F69002FA1D00B680F60F2
:1032B000DB1B01930023920700D14B69A360019BA4
:1032C000002B00DC94E7019B3A00216A2800A66AE3
:1032D000B047002803DC4023A2891343DFE7019BAA
:1032E0003F181B1A0193EAE7010040200B6970B5F3
:1032F00005000C00002B01D1002070BD002804D077
:103300008369002B01D100F05FF80B4B9C4209D17F
:103310006C680C22A35E002BEED021002800FFF782
:103320005BFFEAE7054B9C4201D1AC68F1E7044B37
:103330009C42EED1EC68ECE7C83D0008E83D00088F
:10334000A83D000810B5024900F0B2F810BDC04613
:10335000ED320008002310B5040003604360836071
:1033600081814366C2810361436183611900082240
:103370005C30FFF777FB054B24626362044BA3626A
:10338000044BE362044B236310BDC0469137000831
:10339000B9370008F13700081D38000870B56825F6
:1033A0004A1E55430E002900743100F081F9041EB5
:1033B00008D000212A00016046600C30A06068320D
:1033C000FFF750FB200070BD836913B50400002B8C
:1033D00028D18364C3640365134B144A1B6882625B
:1033E0000193984201D101238361200000F020F86D
:1033F0006060200000F01CF8A060200000F018F8C9
:103400000022E06004216068FFF7A4FF0122092187
:10341000A068FFF79FFF02221221E068FFF79AFFE2
:103420000123A36113BDC046703D00084533000869
:10343000F8B51E4B07001E68B369002B02D130009F
:10344000FFF7C2FF4836B4687368013B04D53368A0
:10345000002B07D03668F6E70C22A55E002D0DD0B4
:103460006834F2E704213800FFF798FF3060002845
:10347000F0D10C2304003B602000F8BD01232000A4
:103480005B42E3810233A38165662560A5606560C8
:1034900025616561A561082229005C30FFF7E2FA29
:1034A0006563A563A564E564E6E7C046703D000872
:1034B000F7B504000700002601914834002C01D123
:1034C0003000FEBD6368A5680093009B013B00933C
:1034D00001D52468F2E7AB89012B08D90E22AB5E37
:1034E000013304D029003800019B98470643683512
:1034F000EBE7000070B50E001D000E23C95E90B012
:103500001400002907DA00232B60B3891B0611D4AD
:103510008023DB000FE001AA00F0ACF90028F2DB09
:10352000F022029B12021340054A9B185A42534153
:103530002B60EDE740230020236010B070BDC04633
:1035400000E0FFFFF7B502268B8905000C0033422F
:1035500006D0230047332360236101236361F7BD55
:1035600001AB6A46FFF7C6FF00990700280000F08C
:103570009FF8002808D10C22A35E9A05EFD40322FD
:1035800093431E43A681E4E70F4BAB628023A289DD
:1035900020601343A381009B20616361019B002B8A
:1035A0000DD00E23E15E280000F076F9002806D049
:1035B0000322A38993431A0001231343A381A08903
:1035C0003843A081CBE7C0464533000810B5034B14
:1035D0000100186800F06CF810BDC046AC00002077
:1035E00010B5034B0100186800F018F810BDC04674
:1035F000AC000020C9B28218904201D1002070476F
:1036000003788B42FBD00130F6E7002310B59A42D5
:1036100000D110BDCC5CC4540133F8E770B505008F
:10362000002910D00C1F2368002B00DAE4182800B2
:1036300000F058F91D4A1368002B05D1636014602F
:10364000280000F050F970BDA34209D92168601824
:103650008342F3D118685B6841182160EEE71300DC
:103660005A68002A01D0A242F9D919685818A04214
:103670000BD120680918581819608242E0D11068EF
:103680005268411819605A60DAE7A04202D90C2347
:103690002B60D5E721686018824203D11068526818
:1036A0004118216062605C60CAE7C0468405002062
:1036B000032370B5CD1C9D43083506000C2D1ED28A
:1036C0000C25A9421DD8300000F00CF9254A1468D9
:1036D0002100002919D1244C2368002B03D130008C
:1036E00000F044F820602900300000F03FF8431C4F
:1036F0002CD10C233000336000F0F5F803E0002DEE
:10370000DFDA0C233360002070BD0B685B1B1AD41A
:103710000B2B03D90B60CC18256003E08C420ED133
:1037200063681360300000F0DEF8200007220B30E1
:10373000231D9043C31AE7D05A42E250E4E74B6896
:1037400063600C00EEE70C004968C2E70323C41C69
:103750009C43A042E0D0211A300000F007F8431C3F
:10376000DAD1C6E78405002088050020002370B563
:10377000064C050008002360FDF78CFA431C03D1BA
:103780002368002B00D02B6070BDC0462C060020A3
:1037900070B50C000E25495F00F0A6F8002803DB89
:1037A000636D1B18636570BDA389024A1340A38132
:1037B000F9E7C046FFEFFFFFF8B51F008B89050052
:1037C0000C001600DB0505D50E23C95E002202237E
:1037D00000F074F8A389054A28001340A381320041
:1037E0000E23E15E3B0000F01FF8F8BDFFEFFFFF86
:1037F00070B50C000E25495F00F060F8A389421CEB
:1038000003D1054A1340A38170BD802252011343A6
:10381000A3816065F8E7C046FFEFFFFF10B50E23F8
:10382000C95E00F015F810BD70B505000800110064
:103830000022064C22601A00FDF731F9431C03D127
:103840002368002B00D02B6070BDC0462C060020E2
:10385000002370B5064C050008002360FDF717FA39
:10386000431C03D12368002B00D02B6070BDC046E1
:103870002C060020002370B5064C0500080011003E
:103880002360FDF7FFF9431C03D12368002B00D010
:103890002B6070BD2C060020002370B5064C05007F
:1038A00008002360FDF7ECF9431C03D12368002BCB
:1038B00000D02B6070BDC0462C06002070B50500FE
:1038C000080011000022064C22601A00FDF7D6F90C
:1038D000431C03D12368002B00D02B6070BDC04671
:1038E0002C0600207047704770B5050008001100D5
:1038F0000022064C22601A00FDF7BEF9431C03D1DA
:103900002368002B00D02B6070BDC0462C06002021
:103910000123214A1168194200D113601F4A11681E
:10392000194200D1136001231D4A1168194200D1C8
:1039300013601C4A1168194200D1136001231A4A0E
:103940001168194200D11360184A1168194200D158
:1039500013600123164A1168194200D11360154AF9
:103960001168194200D113600123134A11681942EA
:1039700000D11360114A1168194200D1136001236C
:103980000F4A1168194200D113600E4A116819429A
:1039900000D113607047C046B8050020B405002070
:1039A000B0050020AC050020A8050020A4050020DB
:1039B000A00500209C05002098050020940500200B
:1039C000900500208C0500200123214A116819422E
:1039D00000D113601F4A1168194200D113600123FE
:1039E0001D4A1168194200D113601C4A116819421E
:1039F00000D1136001231A4A1168194200D11360E3
:103A0000184A1168194200D113600123164A11683F
:103A1000194200D11360154A1168194200D1136090
:103A20000123134A1168194200D11360114A116829
:103A3000194200D1136001230F4A1168194200D1C5
:103A400013600E4A1168194200D113607047C046D6
:103A5000E8050020E4050020E0050020DC0500204A
:103A6000D8050020D4050020D0050020CC0500207A
:103A7000C8050020C4050020C0050020BC050020AA
:103A80000123164A1168194200D11360144A1168C3
:103A9000194200D113600123124A1168194200D162
:103AA0001360114A1168194200D1136001230F4AB3
:103AB0001168194200D113600D4A1168194200D1F2
:103AC000136001230B4A1168194200D113600A4A9E
:103AD0001168194200D113607047C04608060020E3
:103AE0000406002000060020FC050020F805002048
:103AF000F4050020F0050020EC0500200123164A03
:103B00001168194200D11360144A1168194200D19A
:103B100013600123124A1168194200D11360114A3F
:103B20001168194200D1136001230F4A116819422C
:103B300000D113600D4A1168194200D113600123AE
:103B40000B4A1168194200D113600A4A11681942E0
:103B500000D113607047C0462806002024060020CC
:103B6000200600201C060020180600201406002055
:103B7000100600200C060020F8B5C046F8BC08BCB2
:103B80009E467047F8B5C046F8BC08BC9E467047D4
:103B90000500000000240140038002001100000025
:103BA0000024014003800400FF000000000000002A
:103BB000000000000102030405060708090A0B0CB7
:103BC0000D0E0F1011040302010000000004080292
:103BD0000000000001020304000000480004004847
:103BE00000080048000C00480014004804000000D1
:103BF0000020004012840000060000000004004085
:103C000012810000070000000004004012010100C2
:103C100009000000002C0140120201000A0000000F
:103C2000002C01401282010011000000000400403D
:103C300012010200FF000000000000000000000070
:103C400004080C010003050402000000000000004D
:103C50000001020304060708090203040506070819
:103C6000090A0B0C0D0E0F101001020304050607C4
:103C700008090A0B0C0D0E0F1000000000000000D8
:103C800000000000290E0008650D0008F90D00086D
:103C9000BD0D0008DF0D0008AB0D0008000000009E
:103CA0000000000055010008450100084F01000810
:103CB0004901000849010008450100083B010008CE
:103CC0001107000835010008090000000038014014
:103CD00012010000FF0000000000000000000000D2
:103CE0000A0000000038014012010000FF0000003F
:103CF00000000000000000000001020304050607A8
:103D0000090A0D0E4041051154494D3A20556E6B7C
:103D10006E6F776E2074696D6572204952516E0026
:103D20004552524F523A206174206C656173742081
:103D30006F6E6520554152542070696E2068617322
:103D4000206E6F207065726970686572616C0A0020
:103D50004552524F523A20554152542070696E7369
:103D6000206D69736D617463680A000D0A000000BC
:103D7000B0000020232D302B2000686C4C006566BD
:103D800067454647003031323334353637383941AC
:103D900042434445460030313233343536373839C2
:103DA00061626364656600000000000000000000BE
:103DB0000000000000000000000000000000000003
:103DC00000000000000000000000000000000000F3
:103DD00000000000000000000000000000000000E3
:103DE00000000000000000000000000000000000D3
:103DF00000000000000000000000000000000000C3
:083E00000000000000000000BA
:103E08009D260008E9000008492800081139000823
:0C3E1800C9390008813A0008FD3A000892
:043E2400C1000008D1
:103E2800000000000A000000FF0000000000000081
:103E3800000000000000000000000000000000007A
:103E4800000000000000000000000000000000006A
:103E5800000000000000000000000000000000005A
:103E6800000000000000000000000000000000004A
:103E7800000000000000000000000000000000003A
:103E8800000000000000000000000000000000002A
:103E9800000000000000000000000000000000001A
:103EA8000800000000000000000000000000000002
:103EB80000000000000000000000000000000000FA
:103EC800000000000000000000127A00B00000208E
:103ED80000000000C83D0008E83D0008A83D0008B3
:103EE80000000000000000000000000000000000CA
:103EF80000000000000000000000000000000000BA
:103F080000000000000000000000000000000000A9
:103F18000000000000000000000000000000000099
:103F28000000000000000000000000000000000089
:04000005080029A125
:00000001FF
