:020000040800F2
:10000000001000203D0300088D0300088D03000848
:1000100000000000000000000000000000000000E0
:100020000000000000000000000000008D03000838
:1000300000000000000000008D030008EB05000830
:100040008D030008000000008D0300088D030008E8
:100050008D03000871230008812300089123000804
:10006000000000008D0300088D0300088D030008C8
:100070008D030008E50700088D030008000000005C
:10008000F907000800000000000000000D0800084B
:10009000000000002108000835080008D108000809
:1000A000000000008D03000800000000210A000885
:1000B0000000000000000000000000000000000040
:1000C00010B5064C2378002B07D1054B002B02D02E
:1000D000044800E000BF0123237010BD1000002081
:1000E000000000001C250008084B10B5002B03D0B1
:1000F0000749084800E000BF07480368002B00D10B
:1001000010BD064B002BFBD09847F9E7000000001C
:10011000140000201C250008100000200000000032
:1001200002B4714649084900095C49008E4402BC8A
:100130007047C046002243088B4274D303098B42A8
:100140005FD3030A8B4244D3030B8B4228D3030CA7
:100150008B420DD3FF22090212BA030C8B4202D349
:100160001212090265D0030B8B4219D300E0090A71
:10017000C30B8B4201D3CB03C01A5241830B8B427A
:1001800001D38B03C01A5241430B8B4201D34B0363
:10019000C01A5241030B8B4201D30B03C01A5241C8
:1001A000C30A8B4201D3CB02C01A5241830A8B424D
:1001B00001D38B02C01A5241430A8B4201D34B0236
:1001C000C01A5241030A8B4201D30B02C01A52419A
:1001D000CDD2C3098B4201D3CB01C01A524183094E
:1001E0008B4201D38B01C01A524143098B4201D388
:1001F0004B01C01A524103098B4201D30B01C01AB3
:100200005241C3088B4201D3CB00C01A524183082C
:100210008B4201D38B00C01A524143088B4201D359
:100220004B00C01A5241411A00D2014652411046B9
:100230007047FFE701B5002000F006F802BDC04698
:100240000029F7D076E770477047C04610B5002404
:10025000084B0121E05C013400F09EF8042CF7D13A
:10026000054C0121207800F097F82078012100F05A
:10027000D1F810BD040000200800002010B5124C79
:100280000121207800F0C6F80021607800F0C2F863
:10029000FA20800000F0E0F82078002100F0BAF8A1
:1002A0000121607800F0B6F8FA20800000F0D4F860
:1002B00000F0CEF8054B984204D9054B0021187880
:1002C00000F0A8F810BDC046040000201027000070
:1002D000080000200F2330B591B0089300230D9340
:1002E0000F93A023022401259B0304A804940795DF
:1002F0000C940E9301F0DEF9002800D0FEE70723EE
:1003000002900390290068460194009301F0E6FBF7
:10031000041E00D0FEE701F077FCFA218900FFF708
:1003200009FF00F0F7FB042000F01CFC0120220074
:100330002100404200F0B2FB11B030BD0D488546AF
:100340000D480E490E4A002302E0D458C45004332D
:10035000C4188C42F9D30B4A0B4C002301E0136004
:100360000432A242FBD300F0BBF902F0A9F801F07D
:10037000C9FFFEE700100020000000201000002050
:10038000442600081000002008040020FEE710B5F5
:1003900000F052F910BD704770B50D000F2827D836
:1003A000184B1C56631C23D0174E2000310000F060
:1003B00061F800280CD01549200000F080F90028D1
:1003C00002D0200000F0DEF83100200000F068F8D4
:1003D000032D09D82800FFF7A3FE02110C0F0022FD
:1003E0001100200000F009F90949200000F04CF844
:1003F00070BD01220021F4E70222FBE70022012167
:10040000EFE7C046D82500082C000020542500083E
:100410004000002070B50D000F2814D80A4B1C5660
:10042000631C10D00949200000F024F800280AD0ED
:100430000F262009304000F03FF801213440A14050
:100440002A0000F0F1F870BDD82500084000002017
:1004500010B500F0C5F810BD70B5041E09D000F04D
:10046000BFF80500FFF797FF00F0BAF8401B844281
:10047000F8D870BD0F22030913409B000240585862
:100480000123D040184070470F2203091340104049
:100490000E3A82409B00CB1819680A431A607047D5
:1004A0000F220309134010400E3A82409B00CB18E4
:1004B00019689143196070470023042802D8024B41
:1004C0008000C35818007047E82500087FB5002356
:1004D000042810D81B4B80215A69FFF721FE030F17
:1004E00018212A0089020A435A615B690B40019373
:1004F000019B9023DB05180007B000BDC9020A4329
:100500005A615B690B400293029B0F4BF3E70903AF
:100510000A435A615B690B400393039B0B4BEAE769
:1005200049030A435A615B690B400493049B084BDF
:10053000E1E7C9030A435A615B690B400593059BD8
:10054000044BD8E7001002400004004800080048AF
:10055000000C00480014004810B5064900F0A9F846
:100560000303DB0E023B0020022B01D8024AD05CC1
:1005700010BDC04654250008FC25000810B500F049
:10058000DFF810BDF0B5144F91B03900060000F04F
:1005900065F80090002818D03000FFF7DDFF040058
:1005A000182812D80D4B0125C340DB070DD53900A3
:1005B000300000F07EF8000D2100284207D0684688
:1005C00001F064FC684601F025FB11B0F0BD6846FF
:1005D00001F0F2FBF6E7C0465425000811110001B6
:1005E00010B500F055FA10BD704710B500F048FA8C
:1005F00000F0C7FAFFF7F8FF10BDF0B50F270400B1
:10060000000987B038400E001500FFF75FFF012397
:100610003C40A3400193032301A904930296039550
:1006200000F0D6FA07B0F0BD10B589B2002A00D0AC
:10063000012200F07DFB10BD10B500F011FAFFF7AC
:1006400049FE10BD0023CB565A1C01D1002002E008
:10065000834201D1486870470C31F3E710B500239D
:10066000421C02D0FFF7EEFF0300180010BD4B68DC
:10067000002B02D10120404203E0834202D100203E
:10068000085670470C31F2E710B5002802D0FFF78A
:10069000EEFF10BD01204042FBE70023CB565A1C61
:1006A00001D1180002E0834201D1886870470C3103
:1006B000F3E710B5421C01D0FFF7EFFF10BD002398
:1006C000421C04D118007047984206D00C31002318
:1006D000CB565A1CF8D10023F4E70123F2E70000BF
:1006E0000121114B11481A680A431A605A680240E6
:1006F0005A601A680E4802401A601A680D48024093
:100700001A605A680C4802400F205A60DA6A824325
:10071000DA621A6B094802401A635A6B8A435A63B9
:1007200000229A607047C046001002400CB8FF08D3
:10073000FFFFF6FEFFFFFBFFFFFFC0FFECFEFFFF2A
:100740000368144A934205D1134A144993690B4034
:10075000936107E0124A934205D102210E4AD36900
:100760008B43D36170470F4A934204D10A4A0E4922
:10077000D3690B40F5E70D4A934203D1064A0C4971
:100780009369E4E70B4A9342ECD1034A0A4993691F
:10079000DDE7C046002C014000100240FFF7FFFFDC
:1007A0000004004000200040FFFEFFFF0044014025
:1007B000FFFFFDFF00480140FFFFFBFF836C10B50A
:1007C000021F002B05D0017F012902D1002110005A
:1007D000984710BD0438836C10B5002B00D09847A3
:1007E00010BD0000034B10B51868002801D001F0BF
:1007F00034FA10BD54000020034B10B5986800284F
:1008000001D001F02AFA10BD54000020034B10B5AE
:10081000586B002801D001F020FA10BD54000020D0
:10082000034B10B5D86B002801D001F016FA10BDAB
:1008300054000020034B10B5186C002801D001F0C3
:100840000CFA10BD54000020836870B504009A4271
:1008500015D1030005004F335C35012910D1060086
:1008600000227C3632701A70836D934200D0984714
:10087000802332789B042900200000F0F1FA70BD3B
:1008800001221A7080231F329B04290000F034FBE0
:10089000F5E7436D10B50400002B0CD001004F317B
:1008A0000978012907D1028D1F31891AC9B200299F
:1008B00001D05C309847200000F06AFB10BD0300B7
:1008C00010B550331B78002B01D100F061FB10BD37
:1008D000044B10B51C68200000F06EFB200000F0F7
:1008E000A2FE10BDAC00002010B50123002809D0E5
:1008F00074300378044A9B00985801F016FB2138A5
:1009000043424341D8B210BD3401002070B5041EEB
:1009100020D0050074352B780F4A9B0099500F4A60
:100920000600985000208A3602220021305600F03E
:10093000B5F80020305600F0E1F8230094349A33E3
:100940001B8821680648C9182B7801229B0018587B
:1009500001F0B2FA70BDC046F4000020140100207E
:100960003401002010B5082200280AD000230649CF
:100970009C006458DAB2A04203D00133082BF7D1AF
:100980001A00100010BDC0463401002010B5FFF75A
:10099000E9FF072805D8034B034A8000C358805855
:1009A000984710BDB4000020D400002010B5FFF718
:1009B000D9FF072817D80C4B8000C4580B4BC358DD
:1009C00020009847431C0ED0230022009A33943213
:1009D0001B8811687434C918237805489B000122CC
:1009E000185801F069FA10BD14010020F40000202D
:1009F00034010020036882B0DA69D20703D59B8CEA
:100A00009BB2019308E0DA699207F8D4DA695207D9
:100A1000F5D4DA691207F2D4019B02B070470000E6
:100A200010B51B2000F090F8024B186801F002FB93
:100A300010BDC04634010020704710B5040001F01D
:100A4000E3F8FA218900FFF775FB00F063F8012055
:100A500000222100404200F021F8002010BD0000DB
:100A60001023064A10B5116803200B431360FFF7EB
:100A7000E4FFFFF7E1FF002010BDC0460020024068
:100A8000024A1368013313607047C0460404002013
:100A9000014B18687047C0460404002070B58901F6
:100AA000002812DB8308134A03249B009B18FF22B3
:100AB0002040A0401400C025844011408140AD007A
:100AC0005E59A6433143595170BD03240F23C0B270
:100AD00003402040A040FC34250021408540814057
:100AE000083B054A9B089B009B18DA69AA431143FF
:100AF000D961E9E700E100E000ED00E0002805DB56
:100B00001F2318401E3B8340014A13607047C046B4
:100B100000E100E0094A431E012093420DD8C021A4
:100B2000074A08485360036A09061B021B0A0B4365
:100B3000036200200723906013607047FFFFFF00EF
:100B400010E000E000ED00E0002807DB1F23C022DA
:100B500018401E3B8340024952008B507047C046EC
:100B600000E100E0054B1A68042802D11043186028
:100B7000704704218A431A60FAE7C04610E000E09B
:100B8000704710B5FFF7FCFF10BD70B5841CE37F04
:100B9000022B04D004238363033B180070BD0E2195
:100BA0000368056C1A688A431A6001221968914328
:100BB00019601100A940C36B5960E27700248318C3
:100BC000426BDC771300A242E7D090472300E4E7B2
:100BD000F0B50B6887B0029300230191029ADA40C6
:100BE00001D107B0F0BD01229A4003920399029A05
:100BF0000A40009200D18CE0019A10215268160040
:100C00008E43022E0ED107251D40AD000139A940AB
:100C1000DC08A4000419276A8F4301990969A940D7
:100C20000F43276203245F00BC40E4430568013E94
:100C30002540AC4603251540BD4061460D43056087
:100C4000012E0FD801998668CD682640BD403543F6
:100C500085604668039915098E4301210D409D402A
:100C600035434560C56801992C408D688021BD40A1
:100C700049052C43C4600A424BD00121264C03266F
:100C8000A5691E400D43A561A4699D080C4005940B
:100C9000059C0F242149AD00B6006D18B440902189
:100CA000AF68C905A743002488420CD01C49013411
:100CB000884208D01B490134884204D01A490334C1
:100CC000884200D1023CB44000993C430E00AC6025
:100CD000164CCD4327683E43D10301D43E002E403D
:100CE00026606768009E3E43910301D43E002E407B
:100CF0006660A768009E3E43D10201D43E002E40AC
:100D0000A660E668009F3743920201D42E40370068
:100D1000E760013362E7C046001002400000014076
:100D20000004004800080048000C0048000401408E
:100D3000002A01D0816170478162FCE7044B10B545
:100D40005A69104202D0586101F0FCFA10BDC04649
:100D50000004014003689A69920701D500229A6253
:100D600001229969114202D199690A439A61704737
:100D700030B504680648656889052840039D890DDB
:100D80002B43194312040A430243626030BDC0463C
:100D9000009800FC10B5436B174C0422A34202D00C
:100DA000164CA34215D10023114200D0B8331122B2
:100DB0000A40112A01D17F3213431222114091427D
:100DC00001D14E3213430268116800200B431360B7
:100DD00010BD0023114200D0B833CA0701D5F2225A
:100DE00013438A0701D5F422134312221140914282
:100DF000E9D10E32E6E7C046611500083914000853
:100E000010B50023CA0708D5030041331A782823F8
:100E10001A401A33282A00D0B0338A0708D50200B6
:100E20002824413212782240A24217D1442213438F
:100E30004A0701D5B822134311220A40112A01D1D1
:100E40007F32134312221140914201D14E3213439B
:100E500001680A6800209A430A6010BDF422E6E7A0
:100E6000F7B50600009228220193413633780F002F
:100E7000040013400121934237D1002F35D0009B4D
:100E8000002B32D0250004314035FFF7B9FF2B7815
:100E90000221012B29D001232B7033782A2B02D178
:100EA0002000FFF7ADFF29233370230020224233B7
:100EB0001A7000232268636451680D480140516034
:100EC0006946098867626185618D21850199E162C2
:100ED000084961639169C90301D50821D1610521E0
:100EE0002B702000FFF756FF00210800FEBDC04612
:100EF000FF7FFFFF69120008F7B506000092282265
:100F000001934136337804000F00134001209342CF
:100F100038D1002936D0009B002B33D02500062184
:100F200020004035FFF76CFF2B780220012B29D0E1
:100F3000012129703378292B02D12000FFF760FFAF
:100F40002A2333702300202242331A7000232268A0
:100F5000636451680C4801405160694609886762C2
:100F60006185618D21850199E1620849616391691B
:100F7000C90301D40821D1612B7006212000FFF79D
:100F800009FF0020FEBDC046FF7FFFFF6912000879
:100F9000020010B5413211780223202907D12633EF
:100FA0001370044B1C394363FFF7F4FE0023180051
:100FB00010BDC04669120008036810B599691A6827
:100FC000436B002B00D0984710BD704770477047A7
:100FD0007047030070B5002542331D70013B1A783D
:100FE0000400292A0DD1013A1A702123012103633B
:100FF000FFF706FF230040331D702000FFF7E7FFD7
:1010000070BD1A782A2AFBD1023A1A7022230221D3
:101010000363FFF7F5FE230040331D702000FFF748
:10102000D7FFEDE7174B10B5C3620023020003633F
:101030000400202041321070537004226363114277
:1010400011D0636A591C61622168496A1970238D45
:10105000002B08D0013B2385638D013B9BB2638548
:10106000636C1A43626407212000FFF7C9FE102257
:1010700023682000DA612300002240331A70FFF752
:1010800008FC10BD0000FFFF70477047704700006C
:101090000200002370B50500423213702F4A41351B
:1010A000C2624385436C0400194341642B78282BAA
:1010B00005D02B78292B02D02B782A2B22D1032183
:1010C0002000FFF79DFE28232B7000232363244B71
:1010D0008022210063632368D2011E6840311640DC
:1010E0001A681AD01F4802401A60A06B1E4B436357
:1010F00000230B70FFF749FD002802D0A06B436B63
:10110000984770BD0721FFF77BFE2B78602B01D03D
:1011100020232B7000232363DAE7802000020240A3
:101120000DD01A68114802401A60E06B0E4B436301
:101130000E70FFF72AFD0028E3D0E06BDFE72B7885
:10114000602B06D1403B2B7020000A70FFF79EFFFA
:10115000D7E70A702000FFF7B2FBD2E70000FFFFDD
:1011600069120008FFBFFFFF81160008FF7FFFFF25
:10117000F8B5040020228027250003680E00DA61FC
:10118000183ADA610721FFF73BFE23683F025A68ED
:1011900033493A435A605A6820000A405A60FFF7C0
:1011A000D9FD216841350B685B0402D40B683B42D2
:1011B00007D02B78212B34D1A36B1B685B689BB2C3
:1011C0006385638D002B03D00423626C1343636437
:1011D0000422164210D0636A496A581C6062197072
:1011E000238D002B08D0013B2385638D013B9BB2EF
:1011F0006385636C1A4362642200002342322363D6
:1012000013706363636C002B0DD0616C2000FFF7DB
:101210003FFF2B78282B03D131002000FFF702FF7E
:10122000F8BDE36BC9E72200E06A0E49403288420C
:1012300007D0E1622021200029701370FFF729FBFD
:10124000EEE72021287829701370222803D120008E
:10125000FFF7BEFEE4E72000FFF7B9FEE0E7C04677
:1012600000E800FE0000FFFF0300F0B54033170068
:101270001A78040085B00D000220012A26D0012230
:101280001A700F32114240D017423ED0638D002BAE
:1012900034D18023E26A9B049A4202D0E26A9A42E5
:1012A00016D1230041331B78282B11D129002000AF
:1012B000FFF7B8FE20231D4205D01F4203D02900AE
:1012C0002000FFF755FF00204034207005B0F0BD2E
:1012D000E16A584A236891420DD0220041321278C7
:1012E000292A08D1193ADA612000FFF733FD2000DE
:1012F000FFF76FFEDEE71022DA61DBE72368DA61D1
:101300000423626C13436364D4E70422154219D0AA
:10131000174217D0638D002B0CD0636A5A1C62628F
:101320002268526A1A70238D013B2385638D013B2D
:101330009BB26385638D002BBCD1E26A3D4B9A4220
:10134000D5D1B7E70820054250D007424ED0220041
:101350002821413212780A402168282A42D18E6918
:101360008B69D6321B0C1A4001928A68CB68F6034F
:101370000393230040330093E368F60F022B28D138
:101380009205930D019A0293DB095A40130006223D
:10139000134013D1A26C9446012294446246A26485
:1013A000A26C022A00D085E7009AA364C86113707A
:1013B000029A31002000FFF747FA7BE70421200062
:1013C000FFF71EFD0023009A1370039AFE331A40A4
:1013D000EFE704212000FFF713FD0023009A1370AC
:1013E000019AE6E70022C8611A7063E702231D42F2
:1013F00000D15FE71F4200D15CE7638D002B0DD069
:10140000636A2268591C61621B789362638D013B99
:101410009BB26385238D013B23854BE78023E26AE2
:101420005B049A4200D162E7E36A002B00D15EE7D9
:1014300040E7C0460000FFFF70B504004034257847
:101440000223012D18D0013B23700F3319421CD009
:101450001A421AD0030041331B78212B0ED1836B23
:101460001B6810215B685A4253410268DBB2D161AC
:10147000002B05D000232370180070BDC36BEFE76D
:101480000423426C13434364F4E70823194204D055
:101490001A4202D00268D361ECE720231942E9D056
:1014A0001A42E7D0FFF764FEE4E700002022036859
:1014B00010B5DA615A680400274802405A600022D9
:1014C00022636263254AE2621022114204D0DA618B
:1014D0000423626C134363642000FFF73BFC032189
:1014E0002000FFF78DFC636C002B04D122004132F9
:1014F0001178602904D1616C2000FFF7C9FD10BD8F
:101500001178212912D101391170220021004232B3
:101510001078403113700B70402803D12000FFF782
:10152000B3FDECE72000FFF750FDE8E71178222932
:10153000E5D1023911702200210042321078403189
:1015400013700B70402803D12000FFF79EFDD6E7F3
:101550002000FFF73BFDD2E700E800FE0000FFFFA0
:1015600037B5050040352B7804000220012B15D03B
:1015700001232B700F33194211D01A420FD0226869
:101580001221D361626C0C3B134363642000FFF7AC
:1015900001FC2000FFF7DEFB002028703EBD0B069B
:1015A00038D540231A4235D022681168994311601A
:1015B000618D002929D05168638D8905890DFF2B24
:1015C0001BD9FF23238580235B040020228D0090FC
:1015D000D2B22000FFF7CCFB638D228D9B1A9BB209
:1015E0006385230041331A7823681968222A09D1B8
:1015F000802212020A431A60CEE7638D238580237E
:101600009B04E2E78022D201F4E719002000FFF7F3
:101610003FFDC1E720231942BED01A42BCD02000B2
:10162000FFF744FFB8E770B5802503686D0099693E
:101630001A68294206D0140604D50124466C3443A6
:101640004464DD618025ED00294206D0140604D5EE
:101650000824466C34434464DD618024A4002142A4
:1016600006D0120604D50222416C0A434264DC61B2
:101670000B23426C1A4202D0416CFFF709FD70BD8A
:101680008023406A1B02026810B551680B43536007
:101690000023826B5363C26B5363030041331A7898
:1016A000602A04D1403A1A70FFF7F0FC10BDFFF732
:1016B00006F9FBE7F0B5036885B00500DB072FD41A
:1016C0002B689B0700D581E02B681B0700D5BCE089
:1016D0002B685B0700D5DFE02B68DB061AD56A694B
:1016E000B54C0423012A00D04BE1616B02260B4369
:1016F0006363636B1A436263FFF7CAF90700636BA6
:10170000334200D136E1F821626BAB698A43DB00DA
:1017100013436363296A002900D059E1002013E0D4
:101720000C21A54C62680A40042A06D063680B406D
:10173000082B0BD16368DB0308D523689B03BFD557
:101740006B68002BBCD1012005B0F0BD6B68012B8C
:1017500013D1802322685B0213432360FFF798F9BB
:1017600080260700B60223683342A9D1FFF790F91B
:10177000C01B6428F7D90320E6E7002B16D12368A5
:101780008E4A80261340236023688D4AB602134098
:101790002360FFF77DF907002368334200D18FE70C
:1017A000FFF776F9C01B6428F6D9E4E7052B05D1CD
:1017B00080232268DB0213432360CAE723687F4A41
:1017C0001340236023687E4A1340C6E70C227A4CFC
:1017D0006368134206D063681340082B10D1636816
:1017E000DB030DD423689B0702D5EB68012BAAD13C
:1017F000F82122682B698A43DB001343236063E7E7
:10180000EA680123002A0FD02268022613432360CE
:10181000FFF73EF9070023683342E9D1FFF738F9B3
:10182000C01B0228F7D9A6E7226802269A43226045
:10183000FFF72EF907002368334200D144E7FFF792
:1018400027F9C01B0228F6D995E7EA6901235A4C0B
:10185000002A10D0626A022613436362FFF718F968
:101860000700636A334200D032E7FFF711F9C01B6B
:101870000228F6D97FE7626A02269A436262FFF77E
:1018800007F90700636A334200D121E7FFF700F947
:10189000C01B0228F6D96EE780220021464C520573
:1018A000E3690091134208D1E3691343E361E369FB
:1018B00013400393039B012300938027414E7F0035
:1018C00033683B4206D0AB68012B13D1226A134325
:1018D000236230E033683B433360FFF7D9F801906F
:1018E00033683B42EFD1FFF7D3F8019BC01A64285D
:1018F000F6D940E70122002B14D1236A0227934333
:101900002362236A033293432362FFF7C1F8060080
:10191000236A3B4225D0FFF7BBF82B4B801B984234
:10192000F6D928E7052B0BD1216A013B0B43236233
:10193000236A1A432262FFF7ABF8022706000DE084
:10194000236A934304222362236A9343C0E7FFF789
:101950009FF81D4B801B984200D90CE7236A3B423D
:10196000F5D0009B012B00D0B6E6E369174A13407F
:10197000E361B1E6FFF78CF8C01B022800D8BEE691
:10198000F9E6053203D1626B9A436263BBE6626B90
:101990000226134301226363636B93436363FFF780
:1019A00077F80700636B334200D1B3E6FFF770F8B6
:1019B000C01B0228F6D9DEE600100240FFFFFEFF42
:1019C000FFFFFBFF0070004088130000FFFFFFEFE8
:1019D0000C22264C012063681340082B00D1B3E68B
:1019E0002368234A1340236002292FD1FFF750F8C0
:1019F00080260700B6042368334221D10F22E36A10
:101A00009343EA6A1343E362696AAB6A62680B4311
:101A1000184980250A4013436360802322685B04D1
:101A200013432360FFF734F80600AD0423682B420C
:101A300000D073E6FFF72CF8801B0228F6D99AE64F
:101A4000FFF726F8C01B0228D5D994E6FFF720F847
:101A500080250600AD0423682B4200D15EE6FFF727
:101A600017F8801B0228F6D985E6C0460010024010
:101A7000FFFFFFFEFFFFC2FF70B5144C88B01022BD
:101A80002100684600F040FD210004AD1022103115
:101A9000280000F039FD0C220D4E73681A40082A08
:101AA00011D10F206A46990C0140545CF26A024041
:101AB000A95CDB0305D50748FEF73CFB604308B093
:101AC00070BD0548FAE70348F9E7C0463425000829
:101AD0000010024000127A0000093D00F7B5012213
:101AE000434C060023680F0013408B421CD332681E
:101AF000930723D4D30729D4012322681A4097429D
:101B000067D333683B4C5B076AD4FFF7B5FF636864
:101B1000394A1B061B0FD35CD840384B1860032092
:101B2000FEF78BFF002008E0236893430B432360FC
:101B3000236813409942DAD00120FEBDF0202D49E0
:101B40004B688343B06803434B60D3E7294D726809
:101B50002B68012A1AD19B03EED503216B688B43B6
:101B600013436B60FEF794FF73680190012B15D14E
:101B70000C226B681340042BBED0FEF789FF019B3B
:101B8000C01A1F4B9842F3D90320D6E7022A02D18C
:101B90009B01E2D4D0E79B07DFD4CDE7022B12D024
:101BA0000C226B681342A7D0FEF772FF019BC01A8C
:101BB000134B9842F4D9E7E7FEF76AFF019BC01A7E
:101BC0000F4B9842E0D80C226B681340082BF3D1DE
:101BD00092E722689A43226022681A42ACD190E7C9
:101BE0006368084A1340F268134363608DE7C04698
:101BF0000020024000100240FF2500080C000020D9
:101C000088130000FFF8FFFF014B18687047C046BB
:101C10000C00002070B5050002233D352B700368D1
:101C20000A4A196A0400114207D1196A084A114286
:101C300003D101211A688A431A602000FEF79EFC36
:101C400000203C342870207070BDC0461111000087
:101C5000440400007047704770470222036810B5C3
:101C60001969040011420ED0D96811420BD0053A0F
:101C70001A619B69043202779B0700D179E0FFF774
:101C8000E9FF00232377042223681969114210D049
:101C9000D96811420DD0093A1A61073222779A6940
:101CA000C0239B0020001A4269D0FFF7D3FF002316
:101CB000237708222368196911420ED0D96811428E
:101CC0000BD0113A1A61DB690D32227720009B0795
:101CD0005BD0FFF7BFFF0023237710222368196929
:101CE000114210D0D96811420DD0213A1A6119322F
:101CF0002277DA69C0239B0020001A424BD0FFF7FD
:101D0000A9FF00232377012223681969114207D014
:101D1000D968114204D0033A1A612000FEF75AFD37
:101D2000802223681969114208D0D968114205D070
:101D3000023AFF3A1A61200000F0ADF84022236811
:101D40001969114207D0D968114204D0813A1A6149
:101D50002000FFF781FF202223681969114207D074
:101D6000D968114204D0413A1A61200000F092F87B
:101D700010BDFEF723FD2000FFF76DFF81E7FEF7A2
:101D80001DFD2000FFF767FF91E7FEF717FD20001C
:101D9000FFF761FF9FE7FEF711FD2000FFF75BFFF4
:101DA000AFE710B501248C408A40036AA343036265
:101DB000036A1A43026210BD10B5040000220068D5
:101DC000FFF7EFFF2368124A1249934205D0124AE7
:101DD000934202D0114A93420AD11A6A0A4207D1A9
:101DE000186A0F4A104203D15A6C0E4802405A64D6
:101DF0001A6A0A4207D1196A094A114203D101211C
:101E00001A688A431A6001233D340020237010BDF4
:101E1000002C014011110000004401400048014025
:101E200044040000FF7FFFFF10B504248C408A406B
:101E3000036AA3430362036A1A43026210BD0000EF
:101E400010B5040000220068FFF7EEFF23680C497C
:101E50001A6A0A4207D1186A0A4A104203D15A6C18
:101E6000094802405A641A6A0A4207D1196A054AA7
:101E7000114203D101211A688A431A60002010BD63
:101E80001111000044040000FF7FFFFF10B5FFF7B1
:101E9000D7FF10BD70477047036806491A686A305B
:101EA0000A401A609A682331FF318A439A602023DE
:101EB00003707047DFFEFFFF70B5060069363378A8
:101EC00004000220202B24D10138002921D0002A2F
:101ED0001FD08023A5685B019D4204D12369002B9C
:101EE00001D1014215D1250068352B780220012B44
:101EF0000FD023005033E1645A801A80002321223E
:101F00002168E366327008685F32024318002B7064
:101F10000A6070BD406A0023020010B55A32138077
:101F2000083A1380FEF766FD10BD03006A3069337E
:101F30001B78007818437047030030B569331B786D
:101F400002000220212B0FD1140052342388116883
:101F50009BB2002B09D10A687E3082430A6040227E
:101F6000086802430A60002030BD80209568400167
:101F7000D36C85420DD1106900280AD1188802332C
:101F8000C005C00D0885D3642388013B9BB2238024
:101F9000E9E7581CD0641B780B85F5E740210268FF
:101FA00010B513688B4313600300202269331A7045
:101FB000FEF7FCFC002010BD020070B56A321178FB
:101FC000036822292DD1010080245C310D88998C71
:101FD000640129408568436DA5421ED10469002C27
:101FE0001BD1198002334365010000245A310B884C
:101FF000013B9BB20B80A3420DD103680C4D1968C5
:102000002940196099682335FF35A9439960202339
:102010001370FEF7BBFC200070BD5C1C446519709A
:10202000E2E70822996902240A439A61F3E7C0466D
:10203000DFFEFFFF0F2270B504000068C36901686E
:102040001A4008D120252B4205D0294203D0200078
:10205000FFF7B2FF70BD8568002A60D001221540ED
:1020600003D190267600314259D0134205D0CE05D7
:1020700003D50262E66E3243E2660222134206D0C4
:10208000002D04D00262E66E92183243E26604220A
:10209000134206D0002D04D00262E66E023A3243AB
:1020A000E2661A0708D58A0601D4002D04D008225A
:1020B0000262E06E0243E266E26E002ACAD020228B
:1020C000134204D0114202D02000FFF775FFE36EE7
:1020D00020001B0704D423689D6840231D401AD0AC
:1020E000FFF7DAFE402123689A680A420FD09A6807
:1020F000606E8A439A60002809D0134B4363FEF751
:1021000044FD0028A6D0606E436B9847A2E72000EC
:10211000FEF770FC9EE7FEF76DFCE5669AE780220D
:10212000134205D0114203D02000FFF705FF91E7CD
:102130004022134200D18DE7114200D18AE72000EE
:10214000FFF72CFF86E7C046151F000802003F215D
:102150009A321388983001330B401380138800881B
:10216000C01A4342584140427047FE30C38C008D34
:102170004033181A3F23184070470300FE33DA8CAF
:102180001B8D9A4203D0FC30426AD05C704701201C
:102190004042FBE70200FE32D18C138D994207D0FA
:1021A000FC30416AC85C3F2101330B401385704706
:1021B00001204042FBE700000123020070B53F25EB
:1021C0000374FE32D48DE3182B40158EAB42FCD045
:1021D0000500FC35ED6A94302955D3850400FEF7DF
:1021E00083FB002803D103492000FEF78FFB012069
:1021F00070BDC0464D210008037C002B04D0FE308A
:10220000C28D038E9A42FCD170470000054B10B579
:10221000002B06D00448FFF7A8FF002801D000E0FB
:1022200000BF10BD000000005401002001000300A9
:102230000022FC3111334B625130ED33DA841A85C0
:10224000C862DA851A867047002370B54360FA23A6
:1022500005009B0083600F4B0400083303600E4BA6
:102260000E00FF35984209D10C4B5A7AAA771B7A97
:102270006B772000FFF7DAFF200070BD08493000BF
:10228000FEF702FA0749A8773000FEF7FDF96877F4
:10229000EFE7C0461026000854010020D8250008AA
:1022A000A8250008C025000810B502490248FFF71C
:1022B000CBFF10BD0038014054010020F7B50600E7
:1022C0000D000C008B180193019B671B9C4207D0EB
:1022D000336821781B683000984701340028F3D117
:1022E0003800FEBD836810B50400002B02D0032225
:1022F00001009847200010BD704710B5FEF747F861
:1023000010BD000010B5FFF7F7FFFDF79FFFFDF7C9
:10231000B5FF034B002BFAD0FFF778FFF7E7C04675
:102320000D22000870B5064C20008130FF300500FA
:102330001438183DFFF7D6FF2800A542F7D170BD2D
:1023400084020020002310B5012803D00133400887
:10235000DBB2F9E718214B43044A181D10188168B5
:10236000002902D0D2181369984710BD84020020BA
:1023700010B50120FEF7E2FC0220FEF7DFFC10BDE5
:1023800010B50420FEF7DAFC0820FEF7D7FC10BDDC
:1023900070B50C241025A8B2013CFEF7CFFC6D00EF
:1023A000002CF8D170BD0000364B70B505211C0023
:1023B000197019763034013121701C000020083466
:1023C000E0671C00304A1D008C3422601C00483538
:1023D00029709034013121701C009C3420601C0055
:1023E000A43422601C00A83421701C00B434206086
:1023F0001C00BC3422601C00C03421701C00CC3492
:1024000020601C00D43422601C00D83421701D00D0
:102410001C006035E434297020601D001C007835F4
:10242000EC34297022601D001C00FF35F0345A6125
:10243000DA625A64DA655A67D8605862D8635865B8
:10244000D8662170697290251C006D0059551835A9
:10245000595518355955183559557631FC34FF31D1
:10246000A2602262A2632265A2665A502060A06127
:102470002063A0642066A067044A054900F00AF8BA
:1024800070BDC04684020020000011100000002032
:10249000252300080B0010B50100180000F002F819
:1024A00010BD000070B5054C05001300201E04D0BF
:1024B0000A000220290000E000BF70BD00000000FB
:1024C00070B500260C4D0D4C641BA410A64209D11A
:1024D000002600F023F80A4D0A4C641BA410A64203
:1024E00005D170BDB300EB5898470136EEE7B30055
:1024F000EB5898470136F2E73026000830260008EE
:102500003026000840260008002310B59A4200D16A
:1025100010BDCC5CC4540133F8E70000F8B5C046E8
:10252000F8BC08BC9E467047F8B5C046F8BC08BC6D
:042530009E4670470C
:1025340002030405060708090A0B0C0D0E0F101000
:102544000102030405060708090A0B0C0D0E0F10FF
:102554000400000000200040128400000600000077
:102564000004004012810000070000000004004045
:102574001201010009000000002C014012020100B8
:102584000A000000002C014012820100110000002A
:102594000004004012010200FF00000000000000DF
:1025A400000000000A000000003801401201000091
:1025B400FF0000000000000000000000090000000F
:1025C4000038014012010000FF000000000000007C
:1025D400000000000001020304050607090A0D0EAD
:1025E400404105110000004800040048000800486C
:1025F400000C00480014004804080C00000000000F
:10260400000000010203040607080900000000009E
:1026140000000000B9210008BD2200086B21000859
:0C262400952100087B210008F921000826
:10263000FB220008E9000008A9220008A9230008DD
:04264000C1000008CD
:1026440000000000010203040C00000000127A00E4
:040000050800033DAF
:00000001FF
