:020000040800F2
:100000000010002051270008A1270008A1270008A0
:1000100000000000000000000000000000000000E0
:10002000000000000000000000000000A127000800
:100030000000000000000000A12700081B1D0008B0
:10004000A127000800000000A1270008A127000840
:10005000A1270008DF180008CF180008B918000809
:1000600000000000A1270008A1270008A127000820
:10007000A127000821190008A1270008000000009E
:100080001F19000800000000000000001D190008F2
:10009000000000001B19000819190008A12700081A
:1000A00000000000A127000800000000BB140008A9
:1000B0000000000000000000000000000000000040
:1000C00010B5064C2378002B07D1054B002B02D02E
:1000D000044800E000BF0123237010BD1001002080
:1000E0000000000028390008084B10B5002B03D091
:1000F0000749084800E000BF07480368002B00D10B
:1001000010BD064B002BFBD09847F9E7000000001C
:100110001401002028390008100100200000000010
:100120000F22030913409B00024058580123D0407E
:100130001840704710B50F281CD8104B1C56631C74
:1001400018D00F492000FFF7EBFF002398420FD093
:100150000F2122090A40042A0ED801200C40A04099
:10016000084B9200D3581B690340581E8341DBB2F1
:10017000180010BD0023FBE71B69FFDE9C3A000856
:100180002C0100204039000800230381704710B57E
:100190000800FFF7CFFF10BD014B18687047C0463D
:1001A00098010020C8207047FA2080007047C820BE
:1001B00040007047322070477FB50023042810D8D4
:1001C0001B4B80215A6901F0B7FD030F18212A004B
:1001D00089020A435A615B690B400193019B90239A
:1001E000DB05180007B000BDC9020A435A615B690C
:1001F0000B400293029B0F4BF3E709030A435A613A
:100200005B690B400393039B0B4BEAE749030A43EB
:100210005A615B690B400493049B084BE1E7C903F7
:100220000A435A615B690B400593059B044BD8E771
:10023000001002400004004800080048000C00487C
:1002400000140048F0B507000024A1B04C220021A2
:100250000DA802F0DFFADD4904AB14313800DC8070
:1002600001F0A7FB0D90A04200D1F4E18023DB0553
:100270000E930423C2221293023B1B93D44B1E9471
:100280001F701E9BFF3217920292A3421DD11F9333
:10029000D04B984209D18020CF4A80009169014318
:1002A0009161936903400693069B0F24380920400F
:1002B000FFF782FF032301223C40A2400993002361
:1002C00008A908920A9300F0A5FF1E9BDB0600D543
:1002D000B8E104230D9CA2681A4000D0B2E11E9838
:1002E000BE49023B0840034303201E93A3680391C9
:1002F0000340012B00D034E22168194203D1E368A6
:100300001B0400D42DE2E368B549159D0B40E36062
:10031000139B6E039903149BDB030B431A99481E2E
:10032000411E88410103109803431E43119B019312
:10033000022B00D10422199B580001933043169BD5
:1003400008430243012B05D1002D00D066E1802334
:100350005B021A43179B02998B4203D018990B43F7
:1003600001911A43E3681B9E1343E36080235B05FE
:100370009E4202D0731E062B07D80723616999435A
:100380006161616933400B436361E36895490B40E8
:100390009A4200D04AE1002503221F951E9B8B49FB
:1003A00093431A0001231431134338001E9301F0C4
:1003B000F3FA0003C00E0138102800D845E10023ED
:1003C0001DAF07933B78012B00D144E101233B7023
:1003D000A268520700D55DE1AB40A26A1343A36255
:1003E00080235B059E420ED0013E062E0BD90722CC
:1003F00063691340022B06D0636993436361022350
:100400006269134363612B00103B012B00D824E188
:10041000012303220D9C3B70A3681340012B07D1DD
:1004200022681A4200D0ABE1E3681B0400D5A7E1C3
:100430001E9A039B03211A40022313431E93E36871
:10044000E2688A43E2608022A16812060A43664994
:10045000A2600868A268002A00DA20E10322E168AD
:1004600013400B43E3601E9B93431A000123134385
:100470001E93002300223A70934200D0EBE0A26862
:10048000520700D5E7E001223A70149A0192012A3E
:1004900000D00EE11E9B554A00201A4080235B00CD
:1004A00013431E931C231F9038702360A268183BCF
:1004B00012991343A360082900D033E14A4A156812
:1004C0002068084000D137E180231E9A9B00134327
:1004D0001E93C023E2681B011A4214D1159B01939D
:1004E000002B10D123681B070DD5A3685B0700D52F
:1004F0002AE10C226368934363601E9B3C4A1A40C6
:10050000012313431E93139B0193002B01D10C3342
:1005100023601E9B9B0503D5236C04AA9BB2D3804A
:1005200001240DA83C7000F055FF002809D10DA84A
:1005300000F078FF002804D11E9B2D4A13401C4375
:100540001E9400233B70984200D084E01E9A023330
:1005500013430DA81E9300F03DFF002800D0FCE0DF
:100560000DA800F05FFF012875D001231E939F2185
:100570000D9B204C5A688A435A601960DA681E49FC
:100580000A400721DA601A69920092081A615A69D2
:100590008A435A611A6A19490A401A629A6A1849C2
:1005A000D20CD2049A620A6822400A60094A934235
:1005B0002BD18022084B9200D968124C0A43DA6092
:1005C000D9682140D9609A6922401DE0403900086D
:1005D000040000200024014000100240FDFEFFFF47
:1005E0001902FEFFE7FF3F8398010020FEF0FFFFA6
:1005F000FEFEFFFFFFFF3FFF00023E8300F000F022
:1006000008270140FFFDFFFF9A6100231F931E93FF
:10061000984220D104ABD88880B27DE020211E987A
:1006200001431E911F990B431F9393E612221E9BB9
:1006300093431A00102313431E9301231F9A13435D
:100640001F9308E01E9A102326E0504B38331D5CA0
:10065000112D00D8B3E600205EE04D4B80211A68D2
:10066000102D15D0C9030A431A60102D00D0CFE613
:10067000484B4949186801F069FB0A235843079021
:10068000079B002B00D1C3E6079B013B0793F7E7CD
:100690000904E8E720231E9A13431E93DBE70A6848
:1006A000121A022A00D8D5E612221E9B93431A0082
:1006B000C9E703220893A3681340012B07D12268DE
:1006C0001A4200D0E6E6E3681B0400D5E2E6A26821
:1006D000324B1A4201D01E9AACE70123A2682E4980
:1006E0001343A3602B4B186801F030FB0890089B64
:1006F000002B13D101212A4B1D682068084000D02F
:10070000C8E61A68521B022AF7D910221E9B1A4308
:100710001E921F9B0B431F9321B0F0BD089B013B12
:100720000893E4E7E3680C21DB0700D4C6E6202346
:100730001E9A13431E93EFE713685B1B0A2B00D826
:10074000BEE61E9A0423F4E720231E9A13431E9349
:1007500001231F9A13431F93D5E6012800D17AE79E
:1007600005E71821E3688B430F990B43E360236986
:1007700001919B000E999B080B4301912361C2E5F7
:1007800020231E9A13431E93012373E64039000869
:1007900008270140A800002040420F0017000080F9
:1007A0009801002070B50D000F2818D80D4B1C566D
:1007B000631C14D00C492000FFF7B2FC00280ED0B7
:1007C0000F22230913400021042B02D807499B0064
:1007D000595801231440A340002D01D08B6170BDF6
:1007E0008B62FCE79C3A00082C010020403900088D
:1007F000F0B593B001910F2800D9DDE0734B1D5681
:100800006B1C00D1D8E0724F280039001431FFF77B
:1008100087FC002812D000236E4E4C369A57511C8C
:1008200015D10F213A002B090B4014329B00D3182D
:10083000012229408A40196891431960019B032BCA
:1008400000D9AEE0180001F077FAA7BEB9BC0C33AE
:100850009542E3D13100280001F0ABF8041EE0D04E
:100860003100280001F098F80303DB0E023B022B55
:1008700047D8594A0132D318DB7F002B07D0042B0D
:1008800005D0082B03D00C2B01D0182BC9D153490C
:1008900002AE8C463D21524A8919C00233D5042646
:1008A0009E40206AB0432062236A2362236A134277
:1008B00007D1206A4B4B184203D1636C4A4803406E
:1008C0006364236A134207D1206A464B184203D15E
:1008D000012023688343236002230B70236A1342A1
:1008E00007D1226A3F4B1A4203D101222368934366
:1008F000236064452FD13D4A3D489369034093618D
:1009000031E00023C3E701269E40206AB043206205
:10091000236A2362644505D0364B9C4202D0364B95
:100920009C420AD1236A134207D1206A2D4B1842F8
:1009300003D1636C2C4803406364236A134207D1DC
:10094000206A284B184203D1012023688343236087
:1009500001230B70C0E7294B9C4207D10220234A98
:10096000D3698343D36100230B705AE7244B9C4225
:1009700004D11E4A2348D3690340F3E71D4B9C4230
:1009800003D11A4A20489369B8E71B4B9C42EAD12D
:10099000164A1E489369B1E700221100280001F0B1
:1009A000A5F90F222B0913409B00FF1801231540C6
:1009B000AB403A6813433B6013B0F0BD0122002105
:1009C000ECE70222FBE700220121E7E79C3A00085E
:1009D0002C01002040390008C0390008002C0140DB
:1009E0001111000044040000FF7FFFFF00100240CF
:1009F000FFF7FFFF004401400048014000040040B1
:100A000000200040FFFEFFFFFFFFFDFFFFFFFBFF99
:100A10000120704716220120014B40421A607047A6
:100A200078050020FEE7F0B56F4B85B01B680C0021
:100A300009206E490292039300F0BBFF002800D109
:100A4000B2E000236A4E99007158DAB2002902D050
:100A5000096888422BD00133082BF4D1654D2B0057
:100A600078331B78072B20D9634B5FE090425CD131
:100A70001B785BB22A008D3213702B0009228C3355
:100A80001A7096232A009B012900EB670023083285
:100A90008831281D0B60C367D36700F09AFF2B00D5
:100AA00078331B78072B00D97EE078352A789200BE
:100AB000B358190069310A78202A6DD1002C6BD007
:100AC0006A461289002A67D080209E6840018642CB
:100AD00004D11869002801D1E0075DD418006830FE
:100AE0000578012D58D0012505700020D8662130E9
:100AF00008703D4909680191190050310A804A8007
:100B00002100180052300288002A15D140251A68A9
:100B1000354ED16929404ED01A002021693211701A
:100B20000022683302981A703FE00C335A68002A9A
:100B30009CD101235B429DE70288013A92B2028078
:100B400029481A6884468025D06928400CD0802026
:100B5000400186422BD11869002828D1088802312B
:100B6000C005C00D1085CCE76546019F2D68ED1BC3
:100B7000FA27BF00BD42E6D91168204D2940116017
:100B80009168A335FF35A94391601A00202169328D
:100B900011705170013A1070134A03991268521A79
:100BA00017498A4200D884E7002005B0F0BD0878D4
:100BB00001311085A5E7019F3068C01BFA27BF00EF
:100BC000B842A6D910680D4D284010609068A33532
:100BD000FF35A84390601A002020693210705070D1
:100BE000013A1170D8E7C046980100206C3A00081D
:100BF0007004002004000020843A00085FFEFFFF1C
:100C0000E703000000207047002070470120704774
:100C100080239B0100204B607047012040427047B9
:100C2000094B0200996A002901D108499962694675
:100C3000986A82188A4205D90C220120044B40424E
:100C40001A6070479A62FCE72C01002080050020A2
:100C50007805002010B500210420FFF7C9FD002110
:100C60000320FFF7C5FD00210220FFF7C1FD002191
:100C70000120FFF7BDFD10BDF8B50500FFF7EAFF45
:100C8000114C0121230023335D5D29346E08A75DDB
:100C9000A41901263800FFF7ABFD6478012120007C
:100CA000FFF7A6FD354008D000213800FFF77AFD98
:100CB00031002000FFF776FDF8BD31003800FFF766
:100CC00071FD2900F5E7C046C039000870B501295B
:100CD00015D1154C2578FFF7BDFF022D10D0042D3E
:100CE00013D023780133DBB22370042B10D0052BF3
:100CF00011D0022B03D101210620FFF753FD70BD57
:100D000000210620FFF74EFDEBE700210720F9E761
:100D100001210720F1E70020FFF7AEFF00210C20A2
:100D2000FFF766FDEBE7C0469C01002010B50A20E6
:100D3000FFF700FA03000020834205D00B30FFF7D5
:100D4000F9F9431E9841013010BD70B505000C0043
:100D5000081E07D000F0E8FF2B6802005B68210046
:100D60002800984770BDC046F7B506000D000C007E
:100D70008B180193019B671B9C4207D03368217835
:100D80001B683000984701340028F3D13800FEBDBD
:100D900002003F219A321388983001330B401380B0
:100DA00013880088C01A4342584140427047037C70
:100DB000002B04D0FE30C28D038E9A42FCD17047C6
:100DC0000200FE32D18C138D994207D0FC30416A6B
:100DD000C85C3F2101330B4013857047012040421E
:100DE000FBE70300FE33DA8C1B8D9A4203D0FC3004
:100DF000426AD05C704701204042FBE7FE30C38C62
:100E0000008D4033181A3F2318407047054B10B52A
:100E1000002B06D00448FFF7F1FF002801D000E0C6
:100E200000BF10BD0000000024030020F8B5020040
:100E300001233F250374FE320400D08DC3182B40DC
:100E4000158EAB42FCD025002600FC35ED6A093634
:100E50002954FF36D3853378194D9B005A59210008
:100E600010006A3269300078127894310243212AE6
:100E700024D0144A1448270098500020D3181F3754
:100E80001962FF373856002100F074FA0023FB5630
:100E9000002B06DB1F2213401E3A9A4013000B4A18
:100EA0001360230029342F33FF33FF341B8821685C
:100EB000C91833789B00E85800F0D0FC0120F8BD39
:100EC0007004002058010020910D000800E100E0AE
:100ED00070B5041E27D0030074331B78124A9B00A0
:100EE00098580300020069336A321B7811780B436B
:100EF000222B18D02100137875310D78202B01D1C9
:100F000000F0F4FB22003F219032138801330B40A4
:100F10002100923109888B4205D08C3411882068D9
:100F20009BB24554138070BD70040020406A0023BA
:100F3000020010B55A321380083A138000F0A8FA64
:100F400010BDFEE7F0B58BB06B46150000220533EF
:100F500006000F00DA77012D00DC0A2509AC290014
:100F6000380000F0F3FE01006943791AC9B20B00A2
:100F70003733013CDBB2092901D83031CBB22370C1
:100F8000071EECD121003000FFF7DFFE0BB0F0BDF3
:100F9000F7B507000D000024C31D061D019331782D
:100FA0000A222800FFF7CEFF2B6800901B682E2135
:100FB00028009847009B0136C018019B2418B342B3
:100FC000EDD1F97928000A22FFF7BCFF2018FEBDF9
:100FD000010070B56A310A780368222A33D1020011
:100FE00080245C3215889A8C64012A408568436DA0
:100FF000A5420FD10469002C0CD11A80023343653D
:1010000002005A321388013B9BB21380002B05D09B
:1010100000201DE05C1C44651A70F1E70268104D69
:1010200014682C40146094682335FF35AC439460F9
:1010300020220A700B499A008C58A04209D0013333
:10104000082BF8D1E4E70822022099690A439A6143
:1010500070BD0549054B5058D3589847D8E7C0464E
:10106000DFFEFFFF70040020B00400209004002089
:101070000222036810B51969040011420DD0D96825
:1010800011420AD0053A1A61043202779B699B0724
:1010900001D100F046FC002323770422236819695C
:1010A000114210D0D96811420DD0093A1A610732A5
:1010B00022779A69C0239B001A4202D1200000F0D7
:1010C00030FC0023237708222368196911420ED0CF
:1010D000D96811420BD0113A1A610D322277DB69BF
:1010E0009B0702D1200000F01CFC00232377102274
:1010F00023681969114210D0D96811420DD0213AE4
:101100001A6119322277DA69C0239B001A4202D190
:10111000200000F006FC00232377012223681969D0
:10112000114209D0D968114206D0033A201F1A6132
:10113000836C002B00D098478022236819691142E4
:1011400005D0D968114202D0023AFF3A1A61402212
:101150001969114204D0D968114201D0813A1A614B
:1011600020221969114204D0D968114201D0413AB4
:101170001A6110BD70B5144C88B004AD1022210066
:10118000280002F01AF9210010221031684602F0FE
:1011900014F90C220D4E73681A40082A11D10F2041
:1011A000990C01406C5C6946F26A0240895CDB0381
:1011B00005D5074800F0CAFD604308B070BD05487A
:1011C000FAE70348F9E7C046FD390008001002407D
:1011D00000127A0000093D000C4B10B55A6910420C
:1011E00012D058610023012803D001334008DBB23C
:1011F000F9E718225343064A181D80188168002910
:1012000002D0D2181369984710BDC04600040140AF
:10121000A4010020F0B50B6887B002930023019170
:10122000029ADA4001D107B0F0BD01229A40039240
:101230000399029A0A40009200D18CE0019A102191
:10124000526816008E43022E0ED107251D40AD00B8
:101250000139A940DC08A4000419276A8F430199C9
:101260000969A9400F43276203245F00BC40E4439F
:101270000568013E2540AC4603251540BD4061464A
:101280000D430560012E0FD801998668CD68264070
:10129000BD40354385604668039915098E43012199
:1012A0000D409D4035434560C56801992C408D68CF
:1012B0008021BD4049052C43C4600A424BD0012126
:1012C000264C0326A5691E400D43A561A4699D080F
:1012D0000C400594059C0F242149AD00B6006D1803
:1012E000B4409021AF68C905A743002488420CD0C0
:1012F0001C490134884208D01B490134884204D07B
:101300001A490334884200D1023CB44000993C435E
:101310000E00AC60164CCD4327683E43D10301D488
:101320003E002E4026606768009E3E43910301D434
:101330003E002E406660A768009E3E43D10201D465
:101340003E002E40A660E668009F3743920201D41B
:101350002E403700E760013362E7C04600100240CC
:10136000000001400004004800080048000C00484C
:101370000004014070B58901002812DB8308134A7C
:1013800003249B009B18FF222040A0401400C0258E
:10139000844011408140AD005E59A643314359510C
:1013A00070BD03240F23C0B203402040A040FC3492
:1013B0002500214085408140083B054A9B089B0051
:1013C0009B18DA69AA431143D961E9E700E100E01B
:1013D00000ED00E00422036830B59968114201D1A4
:1013E000002030BD9968114206D09A68920703D454
:1013F000102299680A439A60042409490D689A6882
:101400002242EDD00A68521B022AF8D91023426CFE
:10141000134343640123826C1A4382641800E0E79B
:10142000980100200321036830B59A680A40012A18
:1014300001D0002030BD1968114202D1DA681204CF
:10144000F7D505219A680A40012A14D102219C6827
:101450002143996003210D4C196025689968114258
:10146000E7D02168491B0229F8D91023416C0B43AE
:101470004364836C05E01023426C134343640123EF
:10148000826C1A4382640120D4E7C0469801002090
:10149000036882B0DA69D20703D59B8C9BB20193B3
:1014A00008E0DA699207F8D4DA695207F5D4DA6904
:1014B0001207F2D4019B02B07047F8B58021C02317
:1014C0007A4A09055B00D1500F21794D2C682368B9
:1014D000DA691868114008D12026324205D030421E
:1014E00003D02000FFF774FDF8BD9E6800297CD072
:1014F00001210E4003D190277F00384275D00A4267
:1015000005D0C50503D51962E56E2943E1660221C0
:101510000A4206D0002E04D01962E56E491829430C
:10152000E16604210A4206D0002E04D01962E56E5D
:1015300002392943E166110708D5810601D4002E3E
:1015400004D008211962E36E1943E166E36E002BB3
:10155000CAD020231A4204D0184202D02000FFF73C
:1015600037FDE26E2368120703D440229D681540C0
:1015700036D01A684F4920200A401A600122996823
:101580009143996021006A310870996800180142FE
:1015900022D099688143606E996000281CD0464B28
:1015A000841C4363E37F022B04D004238363FFF78F
:1015B000BDFC99E70E2503681968A94319601968ED
:1015C000056C914319601100A940C36B5960E27723
:1015D0000022431CDA77EAE72000FFF759FF83E790
:1015E0002000FFF755FFE5667EE780210A422DD0F7
:1015F00008422BD0220069321278212A00D073E7EA
:10160000200052300288002A07D11A688A431A60E3
:10161000402219680A431A6066E78021A5684901DB
:10162000E26C8D420DD1216900290AD11188023264
:10163000C905C90D1985E2640388013B9BB203808B
:1016400052E7511CE16412781A85F5E740210A42FD
:1016500000D149E7084200D146E71A688A431A6078
:101660002300202269331A7000239A00AA5894425A
:1016700003D00133082BF8D136E7104ADBB29B00C8
:101680009C580F4A20009B589847431C00D12BE7D9
:10169000230022009A3394321B8811687434C918CD
:1016A00023789B00E85800F0D9F81DE700E100E03E
:1016B00070040020DFFEFFFF2D0F000878010020DE
:1016C0005801002070B5084C20008130FF30050023
:1016D000183DEB681438002B02D003220100984714
:1016E0002800A542F3D170BDA4010020802230B5AE
:1016F000846803005201944205D10269002A02D194
:101700000120014228D11A00683215780220012DEB
:1017100022D001381070596519005831088048806E
:10172000802149018C421AD11969002915D10F482D
:1017300019005C3108801900002022246A31D86623
:101740000C70107001221B6899680A439A609022FD
:10175000196852000A431A6030BDFF20E8E7002CE8
:10176000E9D119690029F8D07F20E1E7FF010000E5
:10177000F8B5224CE12227002300260000259437EB
:10178000FC3352023800FF361A61DD619D615D61F4
:1017900000F01FF9737A1A4A9B00D118CA6C100026
:1017A0006A326930007812780243222A25D01F203D
:1017B000144ACA66144A2900D318DF603056FFF76E
:1017C000D9FD1F23F356AB4206DB1F2213401E3AFE
:1017D0009A4013000D4A13602300FF335B7A084AD6
:1017E0009B00D318D86C03006A331B78202B04D1DC
:1017F00021000A31FF31FFF779FFF8BD24030020F3
:1018000024040020D10E0008A404002000E100E020
:101810000100054810B5826C5468002C02D03C30A1
:10182000C27AA04710BDC04624040020FA21094B0B
:1018300010B51868890000F089FA00F0CDFCC022CC
:10184000054912060B6A00201B021B0A13430B6298
:1018500010BDC046A800002000ED00E030B5050036
:1018600069352B7802000220202B24D10138002971
:1018700021D0802390685B01984205D11369002B29
:1018800002D10120014216D11400683423780220CD
:10189000012B10D0D1641100012350310B804B80FB
:1018A00000232121D36629702370116880220868E3
:1018B000024318000A6030BD70B50C241025A8B290
:1018C000013CFFF789FC6D00002CF8D170BD10B50C
:1018D0000420FFF781FC0820FFF77EFC10BD10B547
:1018E0000120FFF779FC0220FFF776FC10BD10B550
:1018F00001F04EFD10BD10B501F04AFD10BD10B550
:1019000001F046FD10BD10B501F038FD10BD10B559
:1019100001F034FD10BDC0467047704770477047F6
:101920007047836C10B5021F002B05D0017F012981
:1019300002D100211000984710BD0121104B114821
:101940001A680A431A605A6802405A601A680E48B8
:1019500002401A601A680D4802401A605A680C4822
:1019600002400F205A60DA6A8243DA621A6B094831
:1019700002401A635A6B8A435A6300229A60704786
:10198000001002400CB8FF08FFFFF6FEFFFFFBFF50
:10199000FFFFC0FFECFEFFFF0200431C06D000204B
:1019A0000856431C02D0824201D1886870470C312E
:1019B000F5E70023421C06D118007047984201D178
:1019C0004B68F9E70C310023CB565A1CF6D10023A3
:1019D000F2E7F0B5040089B0002812D088208925EC
:1019E000AA492056FFF7E5FF65570600A8492800D9
:1019F000FFF7DFFF002801D0002E04D1A54801F039
:101A0000DDF909B0F0BD3300864200D00023236029
:101A1000002B01D1A048F2E7A04AA14E934215D174
:101A20008022F368D2011343F360F3689D490B40B1
:101A3000F360B3691343B361B36913400293029B2C
:101A40002300002274331A701B329A750F2728095D
:101A50003840FEF7B1FB8925009065578C49280076
:101A6000FFF79AFF01233D40AB4010220393430050
:101A70001340093A024013430493032303220693BD
:101A80000309134005937F23000A184003A9079018
:101A900025000098FFF7BEFB002088352856000976
:101AA0003840FEF789FB00902D7878496DB2280008
:101AB000FFF772FF01233D40AB4010220393430028
:101AC0001340093A0240134304930323032206936D
:101AD0000309134005937F23000A1840079003A9C8
:101AE0000098FFF797FB230074331B786E49221D83
:101AF0009B005A50D06F0432D76F0C22A261002293
:101B0000E26122622200E36F2568A16F6D32656099
:101B1000A1600193E3602061676100921278D2B204
:101B2000002A04D16C239C46A44463461A702422E4
:101B3000009B1A7001232A689A43019B2A603B4349
:101B40000C272A683B43594F3A4013432B606B687C
:101B5000574A1340184368600320AB68554A134046
:101B6000626A1343AB60336B534A0340D05C08286E
:101B700000D946E700F060FA090045FF140045FF70
:101B8000170045FF45FF45FF860073685B055B0F47
:101B9000D3184A4A1B791068D8404B08C01808E08F
:101BA0004808474BFAE7FFF7E5FAA368A1685B0826
:101BB000181800F0CBF880B2E860A26A6368002AC7
:101BC00049D0D10705D559683E480140E06A014334
:101BD0005960910705D559683B480140206B014386
:101BE0005960510705D5596838480140606B014379
:101BF0005960110705D5596835480140A06B01436C
:101C00005960D10605D5996832480140E06B01431F
:101C10009960910605D599682F480140206C0143D1
:101C2000996051060FD559682C4D606C29400143CD
:101C3000596080214903884205D1596828480140EC
:101C4000A06C01435960120605D55A6825490A401F
:101C5000E16C0A435A605A6823490A4008215A60D5
:101C60009A688A439A60012219680A431A6000231D
:101C70002022009923670A7021006C346E310A70AB
:101C80002370BEE6802348081B0287E76C3A0008F1
:101C9000843A0008C13A0008F13A000800380140CF
:101CA00000100240FFBFFFFF70040020F369FFFF38
:101CB000FFCFFFFFFFF4FFFFAC3A0008A8000020B1
:101CC00000127A00FFFFFDFFFFFFFEFFFFFFFBFF9B
:101CD000FF7FFFFFFFEFFFFFFFDFFFFFFFFFEFFFD4
:101CE000FFFF9FFFFFFFF7FFFFF7FFFFF0B50F2795
:101CF0000400000987B038400E001500FEF75CFABA
:101D000001233C40A3400193032301A904930296BD
:101D10000395FFF77FFA07B0F0BD024A136801335D
:101D200013607047980100200023C25C0133002A31
:101D3000FBD1581E7047000002B4714649084900A3
:101D4000095C49008E4402BC7047C046002243082B
:101D50008B4274D303098B425FD3030A8B4244D373
:101D6000030B8B4228D3030C8B420DD3FF220902B5
:101D700012BA030C8B4202D31212090265D0030B74
:101D80008B4219D300E0090AC30B8B4201D3CB036A
:101D9000C01A5241830B8B4201D38B03C01A5241AC
:101DA000430B8B4201D34B03C01A5241030B8B42AE
:101DB00001D30B03C01A5241C30A8B4201D3CB0299
:101DC000C01A5241830A8B4201D38B02C01A52417E
:101DD000430A8B4201D34B02C01A5241030A8B4281
:101DE00001D30B02C01A5241CDD2C3098B4201D399
:101DF000CB01C01A524183098B4201D38B01C01A17
:101E0000524143098B4201D34B01C01A524103098D
:101E10008B4201D30B01C01A5241C3088B4201D33C
:101E2000CB00C01A524183088B4201D38B00C01AE9
:101E3000524143088B4201D34B00C01A5241411A10
:101E400000D20146524110467047FFE701B500201D
:101E500000F0F0F802BDC0460029F7D076E77047E1
:101E600003460B437FD4002243088B4274D30309FB
:101E70008B425FD3030A8B4244D3030B8B4228D39C
:101E8000030C8B420DD3FF22090212BA030C8B42C2
:101E900002D31212090265D0030B8B4219D300E062
:101EA000090AC30B8B4201D3CB03C01A5241830BE7
:101EB0008B4201D38B03C01A5241430B8B4201D397
:101EC0004B03C01A5241030B8B4201D30B03C01AC0
:101ED0005241C30A8B4201D3CB02C01A5241830A3A
:101EE0008B4201D38B02C01A5241430A8B4201D369
:101EF0004B02C01A5241030A8B4201D30B02C01A93
:101F00005241CDD2C3098B4201D3CB01C01A5241F9
:101F100083098B4201D38B01C01A524143098B4282
:101F200001D34B01C01A524103098B4201D30B016B
:101F3000C01A5241C3088B4201D3CB00C01A524190
:101F400083088B4201D38B00C01A524143088B4255
:101F500001D34B00C01A5241411A00D201465241EE
:101F6000104670475DE0CA0F00D04942031000D30D
:101F70004042534000229C4603098B422DD3030A62
:101F80008B4212D3FC22890112BA030A8B420CD372
:101F9000890192118B4208D3890192118B4204D39B
:101FA00089013AD0921100E08909C3098B4201D31B
:101FB000CB01C01A524183098B4201D38B01C01A55
:101FC000524143098B4201D34B01C01A52410309CC
:101FD0008B4201D30B01C01A5241C3088B4201D37B
:101FE000CB00C01A524183088B4201D38B00C01A28
:101FF0005241D9D243088B4201D34B00C01A5241FF
:10200000411A00D20146634652415B10104601D38B
:102010004042002B00D54942704763465B1000D315
:10202000404201B5002000F005F802BD0029F8D0BB
:1020300016E770477047C04603B471464908400030
:102040004900095E49008E4403BC704703B47146E1
:10205000490840004900095A49008E4403BC7047B2
:10206000102370B5514D524C2A6813432B60FFF773
:10207000DDFB0C2162682B000A4206D062680A4030
:10208000082A3CD16268D20339D42268F821226838
:102090008A43110078220A430C21226062680A40B8
:1020A000082A3AD080202268424980040A402260EF
:1020B000414A15682168014230D10F20E16A81430D
:1020C000E16261683D480840A021890301436160E5
:1020D0008021206849040143802021601568800424
:1020E000216801421FD001201968014220D0F02050
:1020F0006168814361602168890121D4FEE7012282
:10210000022021680A432C4922600D68226802429D
:10211000BCD10A68521B022AF8D9FEE71168491B94
:102120000229C7D9F9E71168491B0229D8D9F4E770
:10213000196881430143196019680142DED0D6E76E
:10214000032061681E4E81430800022101430C20D8
:102150006160156861680140082922D11B68194A2D
:10216000636813406360FFF705F86368164A1B064F
:102170001B0FD35C154CD8402060FFF757FBFA21AA
:1021800020688900FFF7E2FD00F026F80423104ADA
:1021900011680B4313600F4A136A1B021B0A136278
:1021A00070BD1168491BB142D4D9A7E70020024095
:1021B00000100240FFFFFFFE98010020FFFFC2FF5A
:1021C00088130000FFF8FFFFED390008A800002089
:1021D00010E000E000ED00E0094A431E01209342B8
:1021E0000DD8C021074A08485360036A09061B023C
:1021F0001B0A0B43036200200723906013607047A3
:10220000FFFFFF0010E000E000ED00E0F7B5012166
:102210000C20FEF7EDFA01210720FEF7E9FA012173
:102220000620FEF7E5FA00210800FEF7E1FA022198
:102230000A20FEF7DDFA02210B20FEF7D9FA002171
:102240000820FEF7D5FA01210C20FEF7ABFABF4CAF
:10225000BF4AE36800255A600A23BE4A1360E8B209
:10226000FEF70AFDBC4E326833689B1A312BFBD94E
:102270000135062DF3D1FEF7EDFC00233371B64D89
:10228000287904280AD8FFF7E1FE0500BD00C20046
:10229000D6000501FEF74AFDFEF7EEFCE0680226D7
:1022A00003689B69984785B2E06821780368DB6919
:1022B0009847C3B20093A37A334200D111E1E0689A
:1022C00067880368EF1B1B68BFB29847874200DA34
:1022D0000FE1A37AB343A372E37A022B00D10BE19F
:1022E000E06803899B0719D003689B689847A37A25
:1022F0007F2B05D9A388EB1A9BB2834200DB4EE10A
:10230000E06803689B6898470821A27A0A4205D0D2
:10231000A388EB1A9BB2834200DB48E10426E06805
:10232000038933420BD00122A37A00991A409142CB
:1023300005D0334203D020273B4200D13AE1E06888
:1023400003891B0717D50123A27A009913409942EC
:1023500011D053070FD5402703683A4200D1CFE090
:1023600026895B69AE1BB6B29847864203DB05201F
:10237000FFF74EFA2581E37A009A934200D1B8E044
:102380006B4601221B78A17AE372009B0A409342BC
:1023900006D0042300200B43E580A372FFF738FA30
:1023A0000122A37A00991A40914200D0A1E0E0688E
:1023B0000289920700D00FE1A27A930604D5E36860
:1023C00019890123490614D4530604D5E3681989F1
:1023D000012309060DD4130704D5E36819890123E5
:1023E000C90606D40023D10603D5E3681B899B06E2
:1023F000DB0F74218A43A272002B7AD10120FFF7F0
:1024000007FA76E0FEF792FC0330C0B244E70520FD
:10241000FDF718FF4F4B02001B680C2B04D00B2B51
:1024200006D80C21CB1ADA4030205043800AECE762
:102430000C3B9A40F8E71120FDF704FF454B0600DE
:102440001B680C2B04D00B2B21D80C22D31ADE4096
:1024500006207043800AC0B2FEF70EFCFFF788F931
:102460003E4F0A2231003800FEF76CFD3C4938002F
:10247000FEF76BFC3800FEF79AFC00210820FEF7FF
:10248000B7F92A682B689B1A092BFBD906E70C3B86
:102490009E40DDE7314E3000FEF7B0FC002808D04A
:1024A0003000FEF78DFC0621FFF7C0FDC8B2FEF735
:1024B000E3FBAA682B689B1AFA225200934200D8C9
:1024C000ECE62B68AB60FFF753F926493000FEF7C6
:1024D0003CFC3000FEF76BFC00210820FEF788F979
:1024E000DCE6E27A00998A4200D1F5E61E43A67244
:1024F0006580FEF78BFCC2E66B461B78E372F8E75B
:10250000E6881B69AE1BB6B29847864200DA32E70E
:10251000A37A1F43A7722AE7E06803899B0705D5C2
:10252000A37A1A0720D410229343A372A37A082215
:10253000D9065DD41A43A272E268A5801289D20539
:1025400029D578225242134353E0C046600400204C
:10255000CD0C0008A40000209801002024030020D6
:10256000B83A0008BB3A00080368A6889B689847F9
:10257000AE1BB6B2A37A8642D5DA5AB2002A02DA84
:102580007F221340A3721023A27A03201343A37265
:10259000FFF73EF9CAE70220FFF73AF90CE70220FD
:1025A000FFF736F97F22A37A1340A372A8E68A4385
:1025B000A272B3E6E388EB1A9BB201930368DB686F
:1025C0009847019B834200DAB9E6A37A30001F43A3
:1025D000A772FFF71DF9B2E65A0708D5E688036827
:1025E000AE1B5B68B6B29847864295DBA37A082299
:1025F0009343A372E0E6C0464E4B0521180070B528
:10260000303019701976013101701800002408303B
:10261000C4671800484A1D008C3002601800483515
:10262000297090300131017018009C30046018004E
:10263000A43002601800A83001701800B4300460A3
:102640001800BC3002601800C03001701800CC3097
:1026500004601800D43002601800D83001701D00EA
:1026600018006035E430297004601D0018007835CA
:10267000EC30297002601D001800FF35F030DC607E
:102680005A615C62DA62DC635A645C65DA65DC6656
:102690005A6701706972902518006D0059551835F8
:1026A000595518355955183559557631FC30FF3183
:1026B00004608260846102620463826384640265F0
:1026C0000466826684675A5020001C4A1C4900F048
:1026D00068F8FA221B4B92009A601B4A0A201100EC
:1026E000083119601900FF318877013848771800E0
:1026F0001900FC301131416219005C605133C36232
:10270000124B2832FE311A631A00CC840C85CC851A
:102710000C86022130329A64DC875C631C871A00C5
:102720005B18DC8701233C3214705470D1729372B1
:1027300070BDC046A4010020000011100000002060
:10274000C516000824030020203A000824040020B5
:102750000D4885460D480E490E4A002302E0D45824
:10276000C4500433C4188C42F9D30B4A0B4C0023D9
:1027700001E013600432A242FBD3FFF7DEF800F061
:1027800025F8FFF743FDFEE70010002000000020C1
:1027900010010020C43B0008100100207C0500202F
:1027A000FEE70B0010B50100180000F001F810BDA5
:1027B00070B5054C05001300201E04D00A0002204D
:1027C000290000E000BF70BD0000000070B50026C9
:1027D0000C4D0D4C641BA410A64209D1002601F03B
:1027E000A3F80A4D0A4C641BA410A64205D170BD83
:1027F000B300EB5898470136EEE7B300EB58984723
:102800000136F2E7A43B0008A43B0008A43B000803
:10281000C03B000803008218934200D17047197032
:102820000133F9E7936810B5013B9360002B05DA9B
:102830009469A34208DBCBB20A2B05D01368581C5D
:1028400010601970C8B210BD00F0D2FAFBE7F8B5FD
:1028500006000F001400D518AC4201D1002007E09B
:1028600021783A003000FFF7DDFF0134431CF3D13B
:10287000F8BD0000F0B59FB006000F0014000593EE
:10288000002804D08369002B01D100F075FC7F4B38
:102890009F425CD17768BB891B0762D53B69002BDF
:1028A0005FD0002306AD6B6120336B761033AB76BF
:1028B0000294029C2378002B5DD1029BE31A0493BF
:1028C0000DD0049B029A39003000FFF7C0FF431C73
:1028D00000D1CCE06A69049B944663446B61237821
:1028E000002B00D1C3E00122002352426A6002A9FA
:1028F0005432521801342B60EB60AB601370AB653F
:1029000021780522624800F04DFD631C9C4600289A
:1029100035D12968CB0604D5532302AA20309B1851
:1029200018700B0704D553232B2002AA9B1818708C
:1029300023782A2B2CD000200A21099B2278303AB8
:10294000092A00D86BE000282AD0099328E0514BCF
:102950009F4201D1B7689EE74F4B9F429BD1F768DA
:1029600099E73900300000F099FA002899D0012049
:1029700040421FB0F0BD252B9FD001349AE7444B55
:102980002968C01A012383400B432B606446B7E7D4
:10299000059B181D1B680590002B3ADB09936446C4
:1029A00023782E2B0BD16378621C2A2B3FD1059BF9
:1029B00002341A1D1B680592002B35DB0793217822
:1029C0000322364800F0EEFC002807D0334B2A687B
:1029D000C01A4023834013432B6001342178631CC9
:1029E00006222F480293297600F0DCFC002844D010
:1029F0002C4B002B2FD12968059B0722C90528D510
:102A00009B189343083305936B69039A9B186B617A
:102A10004FE75B42EB6002230B432B60BFE74B4366
:102A200001349B18012089E701235B42C6E700239C
:102A300014000A201A006B6021783039092903D963
:102A4000002BBCD00792BAE742430134521801234D
:102A5000F2E70733D5E705AB00933A00124B2900A4
:102A6000300000E000BF0390039B0133CCD1BB8951
:102A70005B0600D57BE70B987BE705AB00933A003C
:102A8000094B2900300000F07FF8ECE7643B0008B8
:102A9000103B0008843B0008443B0008163B00083C
:102AA0001A3B0008000000004F280008F7B5150089
:102AB00001938A680B6900900C00934200DA1300BE
:102AC00022002B6043321278002A01D001332B60A0
:102AD00023689B0602D52B6802332B6006272368E8
:102AE0001F4027D0230043331B785A1E934122688E
:102AF000920630D42200019943320098089EB047D4
:102B0000431C25D0062320682A68E168034000257D
:102B1000042B03D18D1AEB43DB171D40A3682269F8
:102B2000934201DD9B1AED180027BD4220D1002001
:102B300010E00137E3682A689B1A9F42D2DA22002C
:102B40000123193201990098089EB047431CF0D127
:102B500001204042FEBD3020E118433108702100C1
:102B60005A1C45310978A218433202331170C1E76B
:102B7000220001231A3201990098089EB047431C95
:102B8000E6D00137D1E70000F0B58BB006920A001D
:102B900043320793059004920A7E0C00109B6E2A24
:102BA00000D18FE017D8632A2CD008D8002A00D192
:102BB00099E0582A54D026004236327029E0642A1F
:102BC00001D0692AF7D121681A68080623D5111D9A
:102BD0001960156825E0732A00D188E008D86F2AAB
:102BE00029D0702AE7D1202209680A43226003E035
:102BF000752A20D0782ADED1220078214532117042
:102C00006C4A30E00E001A684236111D19601368D4
:102C10003370012379E04906D9D5111D19600023CD
:102C2000D55E002D03DA2D23049A6D421370624B9A
:102C30000A2703932FE020681968050603D5081DAD
:102C400018600D6805E04006F9D50D68081D18608C
:102C5000ADB2594B082703936F2A18D00A2716E004
:102C600045310A70544A03921A682168101D186091
:102C70001568080622D5CB0702D520231943216009
:102C80001027002D03D1202322689A4322602300BD
:102C9000002243331A706368A360002B5CDB0422BC
:102CA000216891432160002D58D1049E002B64D0EF
:102CB0002600039B42361B7833705EE04806DAD567
:102CC000ADB2D8E709681A68080605D5111D196064
:102CD000136862691A6006E04906F7D5111D19608C
:102CE0001368A28A1A800023049E236154E01A68A4
:102CF000111D1960166800216268300000F052FB57
:102D0000002801D0801B6060636823610023049A5F
:102D1000137041E02369320006990598079DA84782
:102D2000431C43D0236800259B070FD4099BE06810
:102D300098423DDA18003BE022000123193206993F
:102D40000598079EB047431C30D00135E368099AC7
:102D50009B1A9D42F0DBE9E7002DA9D0049E2800D4
:102D60003900FFF779F8039B013E5B5C2800337064
:102D70003900FEF7EBFF051EF1D1082F09D12368BA
:102D8000DB0706D563682269934202DC3023013EEB
:102D90003370049B9B1B2361079B09AA00932100AE
:102DA000069B0598FFF782FE431CB3D101204042E9
:102DB0000BB0F0BD323B0008213B00080FB40B4BB9
:102DC00013B51C68002C05D0A369002B02D120008C
:102DD00000F0D2F905AB049AA16820000193FFF737
:102DE00049FD16BC08BC04B01847C046AC00002022
:102DF000F8B505000E001400002804D08369002BEC
:102E000001D100F0B9F9224B9C422DD16C68A36925
:102E1000A360A3891B0731D52369002B2ED023681B
:102E20002269F7B2981A6369F6B2984205DB21006D
:102E3000280000F033F9002826D1A3680130013BB7
:102E4000A36023685A1C22601F706369984204D0F3
:102E5000A389DB071AD50A2E18D12100280000F01B
:102E60001DF9002812D00FE00A4B9C4201D1AC683A
:102E7000CDE7094B9C42CAD1EC68C8E72100280085
:102E800000F00CF80028CAD0012676423000F8BDC8
:102E9000643B0008843B0008443B0008364B70B597
:102EA0001D6806000C00002D05D0AB69002B02D177
:102EB000280000F061F9314B9C420FD16C680C2363
:102EC000E25E93B219072DD4D90611D4092301204B
:102ED000336037331343A381404270BD284B9C427B
:102EE00001D1AC68EBE7274B9C42E8D1EC68E6E700
:102EF0005B0713D5616B002908D023004433994246
:102F000002D0300000F062FA002363632422A38918
:102F10009343A38100236360236923600823A2896C
:102F20001343A3812369002B0BD1A0218022A38905
:102F3000890092000B40934203D02100300000F042
:102F4000D9F90123A289134011D00023A36063693A
:102F50005B42A361002023698342BED10C23E25E61
:102F60001306BAD540231343A3810138B5E792076E
:102F700000D46369A360EDE7AC000020643B000867
:102F8000843B0008443B0008F7B58A8905000C0023
:102F9000130760D44B68002B04DC0B6C002B01DCA6
:102FA0000020FEBDE76A002FFAD000232E682B60B8
:102FB00080235B011A4034D0606DA3895B0706D57E
:102FC0006368C01A636B002B01D0236CC01A020027
:102FD000216A00232800E76AB847A189431C06D16B
:102FE0002B681D2B31D82C4ADA40D3072DD500236E
:102FF000636023692360CB0405D5431C02D12B6891
:10300000002B00D16065616B2E600029C8D02300C1
:103010004433994202D0280000F0D8F900206063C0
:10302000BFE70123216A2800B847431CC5D12B689C
:10303000002BC2D01D2B01D0162B01D12E60AFE783
:103040004023A2891343A381ABE740230B43012014
:10305000A3814042A5E70F69002FA1D00B680F6044
:10306000DB1B01930023920700D14B69A360019BF6
:10307000002B00DC94E7019B3A00216A2800A66A35
:10308000B047002803DC4023A2891343DFE7019BFC
:103090003F181B1A0193EAE7010040200B6970B545
:1030A00005000C00002B01D1002070BD002804D0C9
:1030B0008369002B01D100F05FF80B4B9C4209D1D2
:1030C0006C680C22A35E002BEED021002800FFF7D5
:1030D0005BFFEAE7054B9C4201D1AC68F1E7044B8A
:1030E0009C42EED1EC68ECE7643B0008843B0008AE
:1030F000443B000810B5024900F0B2F810BDC046CC
:103100009D300008002310B5040003604360836015
:1031100081814366C2810361436183611900082292
:103120005C30FFF777FB054B24626362044BA362BC
:10313000044BE362044B236310BDC04641350008D5
:1031400069350008A1350008CD35000870B568253F
:103150004A1E55430E002900743100F081F9041E07
:1031600008D000212A00016046600C30A06068325F
:10317000FFF750FB200070BD836913B50400002BDE
:1031800028D18364C3640365134B144A1B688262AD
:103190000193984201D101238361200000F020F8BF
:1031A0006060200000F01CF8A060200000F018F81B
:1031B0000022E06004216068FFF7A4FF01220921DA
:1031C000A068FFF79FFF02221221E068FFF79AFF35
:1031D0000123A36113BDC0460C3B0008F530000875
:1031E000F8B51E4B07001E68B369002B02D13000F2
:1031F000FFF7C2FF4836B4687368013B04D53368F3
:10320000002B07D03668F6E70C22A55E002D0DD006
:103210006834F2E704213800FFF798FF3060002897
:10322000F0D10C2304003B602000F8BD01232000F6
:103230005B42E3810233A38165662560A56065601A
:1032400025616561A561082229005C30FFF7E2FA7B
:103250006563A563A564E564E6E7C0460C3B00082A
:10326000F7B504000700002601914834002C01D175
:103270003000FEBD6368A5680093009B013B00938E
:1032800001D52468F2E7AB89012B08D90E22AB5E89
:10329000013304D029003800019B98470643683564
:1032A000EBE7000070B50E001D000E23C95E90B064
:1032B0001400002907DA00232B60B3891B0611D400
:1032C0008023DB000FE001AA00F0ACF90028F2DB5C
:1032D000F022029B12021340054A9B185A425341A6
:1032E0002B60EDE740230020236010B070BDC04686
:1032F00000E0FFFFF7B502268B8905000C00334282
:1033000006D0230047332360236101236361F7BDA7
:1033100001AB6A46FFF7C6FF00990700280000F0DE
:103320009FF8002808D10C22A35E9A05EFD403224F
:1033300093431E43A681E4E70F4BAB628023A2892F
:1033400020601343A381009B20616361019B002BDC
:103350000DD00E23E15E280000F076F9002806D09B
:103360000322A38993431A0001231343A381A08955
:103370003843A081CBE7C046F530000810B5034BB9
:103380000100186800F06CF810BDC046AC000020C9
:1033900010B5034B0100186800F018F810BDC046C6
:1033A000AC000020C9B28218904201D100207047C1
:1033B00003788B42FBD00130F6E7002310B59A4228
:1033C00000D110BDCC5CC4540133F8E770B50500E2
:1033D000002910D00C1F2368002B00DAE418280005
:1033E00000F058F91D4A1368002B05D16360146082
:1033F000280000F050F970BDA34209D92168601877
:103400008342F3D118685B6841182160EEE713002E
:103410005A68002A01D0A242F9D919685818A04266
:103420000BD120680918581819608242E0D1106841
:103430005268411819605A60DAE7A04202D90C2399
:103440002B60D5E721686018824203D1106852686A
:103450004118216062605C60CAE7C046D004002069
:10346000032370B5CD1C9D43083506000C2D1ED2DC
:103470000C25A9421DD8300000F00CF9254A14682B
:103480002100002919D1244C2368002B03D13000DE
:1034900000F044F820602900300000F03FF8431CA1
:1034A0002CD10C233000336000F0F5F803E0002D40
:1034B000DFDA0C233360002070BD0B685B1B1AD46D
:1034C0000B2B03D90B60CC18256003E08C420ED186
:1034D00063681360300000F0DEF8200007220B3034
:1034E000231D9043C31AE7D05A42E250E4E74B68E9
:1034F00063600C00EEE70C004968C2E70323C41CBC
:103500009C43A042E0D0211A300000F007F8431C91
:10351000DAD1C6E7D0040020D4040020002370B51F
:10352000064C050008002360FDF77AFB431C03D11D
:103530002368002B00D02B6070BDC04678050020AA
:1035400070B50C000E25495F00F0A6F8002803DBDB
:10355000636D1B18636570BDA389024A1340A38184
:10356000F9E7C046FFEFFFFFF8B51F008B890500A4
:103570000C001600DB0505D50E23C95E00220223D0
:1035800000F074F8A389054A28001340A381320093
:103590000E23E15E3B0000F01FF8F8BDFFEFFFFFD8
:1035A00070B50C000E25495F00F060F8A389421C3D
:1035B00003D1054A1340A38170BD802252011343F9
:1035C000A3816065F8E7C046FFEFFFFF10B50E234B
:1035D000C95E00F015F810BD70B5050008001100B7
:1035E0000022064C22601A00FDF71DFA431C03D18D
:1035F0002368002B00D02B6070BDC04678050020EA
:10360000002370B5064C050008002360FDF705FB9C
:10361000431C03D12368002B00D02B6070BDC04633
:1036200078050020002370B5064C05000800110045
:103630002360FDF7EDFA431C03D12368002B00D073
:103640002B6070BD78050020002370B5064C050086
:1036500008002360FDF7DAFA431C03D12368002B2E
:1036600000D02B6070BDC0467805002070B5050005
:10367000080011000022064C22601A00FDF7C4FA6F
:10368000431C03D12368002B00D02B6070BDC046C3
:10369000780500207047704770B5050008001100DC
:1036A0000022064C22601A00FDF7ACFA431C03D13D
:1036B0002368002B00D02B6070BDC0467805002029
:1036C0000123214A1168194200D113601F4A116871
:1036D000194200D1136001231D4A1168194200D11B
:1036E00013601C4A1168194200D1136001231A4A61
:1036F0001168194200D11360184A1168194200D1AB
:1037000013600123164A1168194200D11360154A4B
:103710001168194200D113600123134A116819423C
:1037200000D11360114A1168194200D113600123BE
:103730000F4A1168194200D113600E4A11681942EC
:1037400000D113607047C04604050020000500202A
:10375000FC040020F8040020F4040020F004002001
:10376000EC040020E8040020E4040020E004002031
:10377000DC040020D80400200123214A11681942EA
:1037800000D113601F4A1168194200D11360012350
:103790001D4A1168194200D113601C4A1168194270
:1037A00000D1136001231A4A1168194200D1136035
:1037B000184A1168194200D113600123164A116892
:1037C000194200D11360154A1168194200D11360E3
:1037D0000123134A1168194200D11360114A11687C
:1037E000194200D1136001230F4A1168194200D118
:1037F00013600E4A1168194200D113607047C04629
:1038000034050020300500202C050020280500206C
:1038100024050020200500201C050020180500209C
:1038200014050020100500200C05002008050020CC
:103830000123164A1168194200D11360144A116815
:10384000194200D113600123124A1168194200D1B4
:103850001360114A1168194200D1136001230F4A05
:103860001168194200D113600D4A1168194200D144
:10387000136001230B4A1168194200D113600A4AF0
:103880001168194200D113607047C04654050020EA
:10389000500500204C05002048050020440500206C
:1038A000400500203C050020380500200123164A71
:1038B0001168194200D11360144A1168194200D1ED
:1038C00013600123124A1168194200D11360114A92
:1038D0001168194200D1136001230F4A116819427F
:1038E00000D113600D4A1168194200D11360012301
:1038F0000B4A1168194200D113600A4A1168194233
:1039000000D113607047C046740500207005002088
:103910006C0500206805002064050020600500207B
:103920005C05002058050020F8B5C046F8BC08BC6E
:103930009E467047F8B5C046F8BC08BC9E46704726
:10394000000000480004004800080048000C00483F
:10395000001400480500000000240140038002001C
:10396000110000000024014003800400FF0000005B
:103970000000000000000000010203040506070823
:10398000090A0B0C0D0E0F101100000004000000BE
:1039900000200040128400000600000000040040E7
:1039A0001281000007000000000400401201010025
:1039B00009000000002C0140120201000A00000072
:1039C000002C0140128201001100000000040040A0
:1039D00012010200FF0000000000000000000000D3
:1039E00004080C01000305040204030201000000A6
:1039F0000000000000010203040607080902030496
:103A000005060708090A0B0C0D0E0F101001020322
:103A10000405060708090A0B0C0D0E0F1000000024
:103A200000000000000000002D0E0008690D0008D5
:103A3000FD0D0008C10D0008E30D0008AF0D0008E2
:103A40000000000000000000B5010008A50100080A
:103A5000AF010008A9010008A9010008A50100089C
:103A6000990100088F010008890100080900000081
:103A70000038014012010000FF00000000000000BB
:103A8000000000000A0000000038014012010000A0
:103A9000FF00000000000000000000000001020321
:103AA00004050607090A0D0E40410511000408022D
:103AB00000000000010203040D0A0070696E670A2D
:103AC000004552524F523A206174206C6561737404
:103AD000206F6E6520554152542070696E206861D8
:103AE00073206E6F207065726970686572616C0A10
:103AF000004552524F523A20554152542070696E3F
:103B000073206D69736D617463680A00B0000020F2
:103B1000232D302B2000686C4C00656667454647B6
:103B20000030313233343536373839414243444539
:103B300046003031323334353637383961626364A8
:103B400065660000000000000000000000000000AA
:103B50000000000000000000000000000000000065
:103B60000000000000000000000000000000000055
:103B70000000000000000000000000000000000045
:103B80000000000000000000000000000000000035
:103B90000000000000000000000000000000000025
:043BA0000000000021
:103BA40061200008E9000008F9250008C136000872
:0C3BB4007937000831380008AD380008EF
:043BC000C100000838
:103BC40000000000FF0000000000000000000000F2
:103BD40000000000000000000000000000000000E1
:103BE40000000000000000000000000000000000D1
:103BF40000000000000000000000000000000000C1
:103C040000000000000000000000000000000000B0
:103C140000000000000000000000000000000000A0
:103C24000000000000000000000000000000000090
:103C34000000000000000000000000000800000078
:103C44000000000000000000000000000000000070
:103C54000000000000000000000000000000000060
:103C6400000000000A00000000127A00B0000020EA
:103C740000000000643B0008843B0008443B00084B
:103C84000000000000000000000000000000000030
:103C94000000000000000000000000000000000020
:103CA4000000000000000000000000000000000010
:103CB4000000000000000000000000000000000000
:103CC40000000000000000000000000000000000F0
:040000050800275177
:00000001FF
