:020000040800F2
:1000000000100020F52800084529000845290008AF
:1000100000000000000000000000000000000000E0
:10002000000000000000000000000000452900085A
:100030000000000000000000452900086D0E0008C7
:10004000452900080000000045290008452900084E
:10005000452900082F0E00081F0E0008090E000891
:10006000000000004529000845290008452900082E
:10007000452900086D080008452900080000000017
:100080006B0800080000000000000000690800087C
:1000900000000000670800086508000845290008FE
:1000A0000000000045290008000000005F0600086D
:1000B0000000000000000000000000000000000040
:1000C00010B5064C2378002B07D1054B002B02D02E
:1000D000044800E000BF0123237010BDB0000020E1
:1000E00000000000442C0008084B10B5002B03D082
:1000F0000749084800E000BF07480368002B00D10B
:1001000010BD064B002BFBD09847F9E7000000001C
:10011000B4000020442C0008AC00002000000000C7
:10012000F7B506000D000C008B180193019B671BAF
:100130009C4207D0336821781B683000984701340F
:100140000028F3D13800FEBD02003F219A32138807
:10015000983001330B40138013880088C01A434243
:10016000584140427047037C002B04D0FE30C28DC2
:10017000038E9A42FCD170470200FE32D18C138D5F
:10018000994207D0FC30416AC85C3F2101330B40E3
:100190001385704701204042FBE70300FE33DA8CF1
:1001A0001B8D9A4203D0FC30426AD05C704701201C
:1001B0004042FBE7FE30C38C008D4033181A3F23CA
:1001C00018407047054B10B5002B06D00448FFF7C8
:1001D000F1FF002801D000E000BF10BD00000000CA
:1001E00010030020002303817047014B18687047FB
:1001F0005C040020C8207047FA2080007047C820A7
:100200004000704732207047F8B5020001233F25B7
:100210000374FE320400D08DC3182B40158EAB4200
:10022000FCD025002600FC35ED6A09362954FF363E
:10023000D3853378194D9B005A59200011006A323A
:1002400069310978127894300A43212A24D014495C
:10025000144A27009950144A1F3798500020FF373E
:100260003856002101F026FC0023FB56002B06DB4C
:100270001F2213401E3A9A4013000C4A13602300B9
:1002800029342F33FF33FF341B882168C918337892
:100290009B00E85801F03CFD0120F8BDD000002093
:1002A0004901000810010020F000002000E100E0FA
:1002B00070B5041E27D0030074331B78124A9B00CC
:1002C00098580300020069336A321B7811780B4397
:1002D000222B18D02100137875310D78202B01D1F5
:1002E00001F076FC22003F219032138801330B404D
:1002F0002100923109888B4205D08C341188206806
:100300009BB24554138070BDD000002010B508008A
:1003100001F02CFD10BDFEE770B502250024FF356D
:10032000013D002D04D00E2000F0EAFD2418F7E76F
:10033000200A70BD10B50448FFF715FF0021082002
:1003400000F09CFD10BDC04610030020F8B51F4C06
:10035000E122230026000025FC3352021C48FF3610
:100360001A61DD619D615D6100F0D9FA737A194F00
:100370009B00DA5911006A326931097812780A4310
:10038000222A21D01F201449144A99501049144A96
:1003900099503056290001F08DFB1F23F356AB42D4
:1003A00006DB1F2213401E3A9A4013000D4A1360C9
:1003B000FF34637A9B00F85803006A331B78202BC4
:1003C00002D1094901F004FCF8BDC0461003002029
:1003D000A4030020D0000020B10200086401002026
:1003E0004401002000E100E01904002010B50021C4
:1003F000032000F043FD0021022000F03FFD00211A
:10040000080000F03BFD0021012000F037FD10BD89
:10041000F8B50500FFF7EAFF104C012165192D7CA6
:1004200016346E08A75DA4190126380000F026FDD9
:1004300064780121200000F021FD354008D0002122
:10044000380001F0BFFC3100200001F0BBFCF8BD1A
:100450003100380001F0B6FC2900F5E75C2C0008FB
:1004600070B50E00012927D11B4C2578FFF7BEFF80
:10047000052D13D0062D18D0032D03D10021062001
:1004800001F0A0FC20780130C0B2207003380428AD
:1004900012D801F0C7FC0D1112171A003100042008
:1004A00000F0ECFC00210420EAE700210720E7E748
:1004B0000121062001F086FC70BD0021042000F01F
:1004C000DDFCF9E701210720F4E70020FFF7A0FF9A
:1004D00000210C20F3E7C0468401002010B50A205B
:1004E00001F044FC03000020834205D00B3001F0F2
:1004F0003DFC431E9841013010BD70B505000C0055
:10050000081E07D001F086FC2B6802005B68210002
:100510002800984770BDF0B58BB06B4615000022DF
:10052000053306000F00DA77012D00DC0A2509AC3F
:100530002900380001F080FC01006943791AC9B232
:100540000B003733013CDBB2092901D83031CBB283
:100550002370071EECD121003000FFF7CEFF0BB057
:10056000F0BDF7B507000D000024C31D061D019363
:1005700031780A222800FFF7CEFF2B6800901B6815
:100580002E2128009847009B0136C018019B241893
:10059000B342EDD1F97928000A22FFF7BCFF2018F9
:1005A000FEBDC04610B507480400183CE368143887
:1005B000002B02D0032201009847034B20009C42ED
:1005C000F2D110BD100300209001002001207047DF
:1005D00016220120014B40421A607047340500206A
:1005E000FEE70020704700207047012070478023FD
:1005F0009B0100204B6070470120404270470A4B2E
:1006000002001968002901D1084919606946186873
:1006100082188A4205D90C220120054B40421A60FB
:1006200070471A60FCE7C046CC0000203805002067
:1006300034050020036882B0DA69D20703D59B8CA9
:100640009BB2019308E0DA699207F8D4DA6952079D
:10065000F5D4DA691207F2D4019B02B07047F8B5FD
:100660008021C0237B4A09055B00D1500F217A4DC0
:100670006C682368DA691868114008D12026324274
:1006800005D0304203D0200000F090FFF8BD9E68F6
:1006900000297CD001210E4003D190277F003842F1
:1006A00075D00A4205D0C50503D51962E56E294308
:1006B000E16602210A4206D0002E04D01962E56EDE
:1006C00049182943E16604210A4206D0002E04D0CD
:1006D0001962E56E02392943E166110708D58106E2
:1006E00001D4002E04D008211962E36E1943E1669B
:1006F000E36E002BCAD020231A4204D0184202D045
:10070000200000F053FFE26E2368120703D440225A
:100710009D68154036D01A68504920200A401A605A
:10072000012299689143996021006A3108709968A3
:100730000018014222D099688143606E99600028B8
:100740001CD0474B841C4363E37F022B04D004235B
:10075000836300F0A5FE99E70E2503681968A94395
:1007600019601968056C914319601100A940C36BA9
:100770005960E2770022431CDA77EAE72000FFF7AE
:1007800059FF83E72000FFF755FFE5667EE78021EC
:100790000A422DD008422BD0220069321278212A39
:1007A00000D073E7200052300288002A07D11A686F
:1007B0008A431A60402219680A431A6066E780215A
:1007C000A5684901E26C8D420DD1216900290AD149
:1007D00011880232C905C90D1985E2640388013BFD
:1007E0009BB2038052E7511CE16412781A85F5E749
:1007F00040210A4200D149E7084200D146E71A6881
:100800008A431A602300202269331A7000232A1DAC
:10081000990089588C4203D00133082BF8D135E771
:10082000DBB29B00EB185C6A5B6C20009847431CB2
:1008300000D12BE7230022009A3394321B881168E1
:100840007434C91823789B00ED18686801F060FAC9
:100850001CE7C04600E100E0CC000020DFFEFFFF07
:10086000A114000870477047704770477047836C49
:1008700010B5021F002B05D0017F012902D10021F4
:100880001000984710BD0121104B11481A680A4307
:100890001A605A6802405A601A680E4802401A608C
:1008A0001A680D4802401A605A680C4802400F202E
:1008B0005A60DA6A8243DA621A6B094802401A63A4
:1008C0005A6B8A435A6300229A60704700100240B4
:1008D0000CB8FF08FFFFF6FEFFFFFBFFFFFFC0FFA6
:1008E000ECFEFFFF0200431C06D000200856431C0C
:1008F00002D0824201D1886870470C31F5E70023AD
:10090000421C06D118007047984201D14B68F9E7A4
:100910000C310023CB565A1CF6D10023F2E7F0B578
:10092000040089B0002800D14BE188208925A8491E
:100930002056FFF7E4FF65570600A6492800FFF799
:10094000DEFF002800D13CE1002E00D139E1330068
:10095000864200D000232360002B00D131E19E4A63
:100960009E4E934215D18022F368D2011343F36067
:10097000F3689B490B40F360B3691343B361B369F8
:1009800013400293029B2300002274331A701B321F
:100990009A750F272809384000F0B8FD8925009086
:1009A00065578C492800FFF79DFF01233D40AB4070
:1009B0001022039343001340093A02401343049367
:1009C0000323032206930309134005937F23000AA0
:1009D000184003A907902500009800F007FF0020A9
:1009E000883528560009384000F090FD00902D7899
:1009F00077496DB22800FFF775FF01233D40AB40FA
:100A00001022039343001340093A02401343049316
:100A10000323032206930309134005937F23000A4F
:100A20001840079003A9009800F0E0FE23007433FB
:100A30001A786C4B92009B18221D5A60D06F0432BA
:100A4000D76F0C22A2610022E26122622200E36FD2
:100A50002568A16F6D326560A1600193E36020613C
:100A6000676100921278D2B2002A04D16C239C46AE
:100A7000A44463461A702422009B1A7001232A683A
:100A80009A43019B2A603B430C272A683B43564FFD
:100A90003A4013432B606B68544A13401843686014
:100AA0000320AB68524A1340626A1343AB60336B56
:100AB000504A0340D05C082800D982E001F0B2F926
:100AC0000581108113818181830073685B055B0F51
:100AD000D318494A1B791068D8404B08C01808E061
:100AE0004808464BFAE700F031FEA368A1685B08AE
:100AF000181801F0A1F980B2E860A26A6368002AC0
:100B000049D0D10705D559683D480140E06A014305
:100B10005960910705D559683A480140206B014357
:100B20005960510705D5596837480140606B01434A
:100B30005960110705D5596834480140A06B01433D
:100B40005960D10605D5996831480140E06B0143F1
:100B50009960910605D599682E480140206C0143A3
:100B6000996051060FD559682B4D606C294001439F
:100B7000596080214903884205D1596827480140BE
:100B8000A06C01435960120605D55A6824490A40F1
:100B9000E16C0A435A605A6822490A4008215A60A7
:100BA0009A688A439A60012219680A431A600023EE
:100BB0002022009923670A7021006C346E310A707C
:100BC000237009B0F0BD802348081B0286E7C046A9
:100BD0005C2D0008742D0008003801400010024010
:100BE000FFBFFFFFCC000020F369FFFFFFCFFFFF37
:100BF000FFF4FFFF762C0008A800002000127A0006
:100C0000FFFFFDFFFFFFFEFFFFFFFBFFFF7FFFFF7B
:100C1000FFEFFFFFFFDFFFFFFFFFEFFFFFFF9FFF84
:100C2000FFFFF7FFFFF7FFFFF0B5704B85B01B68C4
:100C30000C0009206E4902920393FFF760FE002822
:100C400000D1B3E000226B4E351D91004959D3B25B
:100C5000002902D0096888422AD00132082AF4D13A
:100C6000654D2B0074331B78072B1FD9634B5FE056
:100C700090425CD11B785BB22A00893213702B0042
:100C800009218833197096232A009B01AB67002342
:100C90000832D36728002A1DEB67D367FFF73FFEB2
:100CA0002B0074331B78072B00D97FE074352B7829
:100CB0009B00F6187368190069310A78202A6DD1F3
:100CC000002C6BD06A461289002A67D080209E686B
:100CD0004001864204D11869002801D1E0075DD4A3
:100CE000180068300578012D58D0012505700020C6
:100CF000D866213008703D490968019119005031CA
:100D00000A804A802100180052300288002A15D13A
:100D100040251A68354ED16929404ED01A0020214D
:100D2000693211700022683302981A703FE00C3368
:100D30005A68002A9CD101235B429DE70288013A50
:100D400092B2028029481A6884468025D0692840DA
:100D50000CD08020400186422BD11869002828D170
:100D600008880231C005C00D1085CCE76546019F9B
:100D70002D68ED1BFA27BF00BD42E6D91168204D52
:100D8000294011609168A335FF35A94391601A008D
:100D90002021693211705170013A1070134A039981
:100DA0001268521A17498A4200D884E7002005B019
:100DB000F0BD087801311085A5E7019F3068C01BA0
:100DC000FA27BF00B842A6D910680D4D2840106020
:100DD0009068A335FF35A84390601A00202069323F
:100DE00010705070013A1170D8E7C0465C040020C2
:100DF0005C2D0008CC00002004000020742D0008A9
:100E00005FFEFFFFE703000070B50C241025A8B2B9
:100E1000013C00F0CDFC6D00002CF8D170BD10B588
:100E2000042000F0C5FC082000F0C2FC10BD10B585
:100E3000012000F0BDFC022000F0BAFC10BDF0B5AE
:100E40000F270400000987B038400E00150000F09D
:100E50005DFB01233C40A3400193032301A90493BC
:100E60000296039500F0C2FC07B0F0BD024A136879
:100E7000013313607047C0465C040020F8B50F00D2
:100E800011282DD81B4B1C56631C29D01A4E20004C
:100E9000310000F081FB250900280AD00F232A0029
:100EA0001A409200B618012223409A4033689343B7
:100EB0003360032F09D8380000F0B4FF021813166E
:100EC000002211002000FFF7BAFF0F231D401C4035
:100ED0000E3BA340094AAD00AD182A6813432B60AE
:100EE000F8BD01220021EDE70222FBE700220121EB
:100EF000E8E7C046342D00083001002080040020BF
:100F0000F0B500249FB0112820D8022800D80F3057
:100F1000104B00241F567B1C18D04C2221000BA81C
:100F200001F04AFD02AB0C493800DC80FFF7E7FC1A
:100F30000B90A04214D10024084B5B680C2B05D009
:100F40000B2B00D987E20C22D31ADC4020001FB003
:100F5000F0BDC046342D0008842C0008A0000020FD
:100F60008023DB050C930423C22510931C94023BC1
:100F70001993D94E1C9BFF3515953770002B1ED148
:100F80001D93D64B984209D18020D54A80009169A3
:100F900001439161936903400493049B0F24380932
:100FA000204000F0B3FA0123327806A92240934092
:100FB0000693032307930023089300F017FC1C9B60
:100FC000DB0600D5BAE104230B9CA2681A4000D0CE
:100FD000B4E11C98C349023B0840034303201C931F
:100FE000A36801910340012B00D037E22168194228
:100FF00003D1E3681B0400D430E2E368BA49139ECE
:101000000B40E360119B9903129BDB030B437103BD
:101010008C461899481E411E884101030E980343CF
:10102000604603430F980090022800D104221798CD
:10103000009040001843149B08430243012B05D144
:10104000002E00D066E180235B021A43159BAB4261
:1010500003D016990B4300911A43E368199E13437A
:10106000E36080235B059E4202D0731E062B07D8E7
:101070000723616999436161616933400B4363618F
:10108000E3689A490B409A4200D04BE100250322C5
:101090001D951C9B964993431A0001233800134366
:1010A0001C93FFF71FFC0003C00E0138102800D866
:1010B00047E100231BAF05933B78012B00D13AE7B2
:1010C00001233B70A268520700D55EE1AB40A26AE3
:1010D0001343A36280235B059E420ED0013E062E81
:1010E0000BD9072263691340022B06D0636993432F
:1010F000636102236269134363612B00103B012B80
:1011000000D825E1012303220B9D3B70AB681340FF
:10111000012B07D12A681A4200D0AEE1EB681B040C
:1011200000D5AAE11C9A019B03211A400223134314
:101130001C93EB68EA688A43EA608022A968120679
:101140000A436C49AA600868AA68002A00DA21E10B
:101150000322E96813400B43EB601C9B93431A0086
:10116000012313431C93002300223A70934200D0C2
:10117000E1E6AA68520700D5DDE601223A70129A2C
:101180000092012A00D00FE11C9B5B4A00241A4008
:1011900080235B0013431C931C231D943C702B6025
:1011A000AA68183B10991343AB60082900D033E1BB
:1011B000504A10682C680C4000D137E180231C9AFB
:1011C0009B0013431C93C023EA681B011A4214D1ED
:1011D000139B0093002B10D12B681B070DD5AB6818
:1011E0005B0700D52AE10C226B6893436B601C9B64
:1011F000424A1A40012313431C93119B0093002B76
:1012000001D10C332B601C9B9B0503D52B6C02AAD0
:101210009BB2D38001240BA83C7000F07BFC00281B
:1012200009D10BA800F09EFC002804D11C9B334A76
:1012300013401C431C9400233B70984200D07AE674
:101240001C9A023313430BA81C9300F063FC002884
:1012500000D0FCE00BA800F085FC012800D16AE674
:1012600001231C939F210B9B254C5A688A435A608B
:101270001960DA6823490A400721DA601A69920086
:1012800092081A615A698A435A611A6A1E490A40C9
:101290001A629A6A1D49D20CD2049A620A682240E4
:1012A0000A600E4A93420CD180220D4B9200D968FD
:1012B000174C0A43DA60D9682140D9609A69224004
:1012C0009A6100231D931C93984200D033E602AB31
:1012D000DC88A4B230E6C046A00000200024014013
:1012E00000100240FDFEFFFF1902FEFFE7FF3F83F3
:1012F000842C00085C040020FEF0FFFFFEFEFFFFD0
:10130000FFFF3FFF00023E8300F000F0082701408E
:10131000FFFDFFFF20211C9801431C911D990B43E9
:101320001D9393E612221C9B93431A001023134330
:101330001C9301231D9A13431D93FCE51C9A102353
:1013400025E0514B30331D5C112D00D9F3E5B0E69B
:101350004E4B80211A68102D15D0C9030A431A601C
:10136000102D00D0CEE64A4B4A49186800F064FDC3
:101370000A2358430590059B002B00D1C2E6059B2C
:10138000013B0593F7E70904E8E720231C9A134380
:101390001C93D0E50A68121A022A00D8D4E6122259
:1013A0001C9B93431A00CAE703220693AB681340C1
:1013B000012B07D12A681A4200D0E5E6EB681B042E
:1013C00000D5E1E6AA68344B1A4201D01C9AADE779
:1013D0000123AA682F491343AB602D4B186800F016
:1013E0002BFD0690069B002B12D101212B4B186878
:1013F0002C680C4000D0C7E61A68121A022AF7D9E6
:1014000010221C9B1A431C921D9B0B431D9393E5BA
:10141000069B013B0693E5E7EB680C21DB0700D454
:10142000C6E620231C9A13431C9385E513681B1AF8
:101430000A2B00D8BEE61C9A0423F4E720231C9A4A
:1014400013431C9301231D9A13431D93D5E60128D2
:1014500000D007E76FE50C3B9C4077E51821E36877
:101460008B430D990B43E360236900919B000C991A
:101470009B080B4300912361BFE520231C9A134373
:101480001C93012370E6C046842C00080827014005
:10149000A800002040420F00170000805C040020DC
:1014A000406A0023020010B55A321380083A1380B4
:1014B000FFF7C0F810BD70B5060000F0CBFB0028A8
:1014C0001DD120250E4B0F4CD86123692B4323617E
:1014D000402322691343236100F0BCFB2369AB4323
:1014E000236100280BD12369103D2B432361064B58
:1014F000B6B21E8000F0AEFB2369AB43236170BD22
:10150000600400200020024000F8FF1F7FB5002388
:10151000042810D81B4B80215A6900F083FC030F6C
:1015200018212A0089020A435A615B690B40019322
:10153000019B9023DB05180007B000BDC9020A43D8
:101540005A615B690B400293029B0F4BF3E709035F
:101550000A435A615B690B400393039B0B4BEAE719
:1015600049030A435A615B690B400493049B084B8F
:10157000E1E7C9030A435A615B690B400593059B88
:10158000044BD8E70010024000040048000800485F
:10159000000C0048001400480F22030913409B0070
:1015A000024058580123D04018407047010070B5E0
:1015B0006A310A780368222A33D1020080245C321F
:1015C00015889A8C64012A408568436DA5420FD125
:1015D0000469002C0CD11A800233436502005A3290
:1015E0001388013B9BB21380002B05D000201DE027
:1015F0005C1C44651A70F1E70268104D14682C40B9
:10160000146094682335FF35AC43946020220A703F
:101610000B499A008C58A04209D00133082BF8D10D
:10162000E4E70822022099690A439A6170BD054BDC
:101630009918096AD0588847D8E7C046DFFEFFFFEF
:10164000D0000020440100200222036810B519696F
:10165000040011420DD0D96811420AD0053A1A612E
:10166000043202779B699B0701D1FFF700F9002341
:101670002377042223681969114210D0D9681142D6
:101680000DD0093A1A61073222779A69C0239B006C
:101690001A4202D12000FFF7EAF80023237708223C
:1016A0002368196911420ED0D96811420BD0113A42
:1016B0001A610D322277DB699B0702D12000FFF708
:1016C000D6F800232377102223681969114210D01D
:1016D000D96811420DD0213A1A6119322277DA699C
:1016E000C0239B001A4202D12000FFF7C0F800235C
:1016F0002377012223681969114209D0D968114260
:1017000006D0033A201F1A61836C002B00D0984743
:10171000802223681969114205D0D968114202D08C
:10172000023AFF3A1A6140221969114204D0D9687D
:10173000114201D0813A1A6120221969114204D064
:10174000D968114201D0413A1A6110BD70B5144CEC
:1017500088B004AD10222100280001F035F92100E5
:1017600010221031684601F02FF90C220D4E7368DB
:101770001A40082A11D10F20990C01406C5C69466F
:10178000F26A0240895CDB0305D5074800F054FB90
:10179000604308B070BD0548FAE70348F9E7C04662
:1017A000C52C00080010024000127A0000093D001C
:1017B0000C4B10B55A69104212D058610023012811
:1017C00003D001334008DBB2F9E718225343064A3D
:1017D000181D80188168002902D0D2181369984713
:1017E00010BDC0460004014090010020F0B50B6818
:1017F00087B0029300230191029ADA4001D107B029
:10180000F0BD01229A4003920399029A0A40009285
:1018100000D18CE0019A1021526816008E43022EEE
:101820000ED107251D40AD000139A940DC08A400F8
:101830000419276A8F4301990969A9400F43276258
:1018400003245F00BC40E4430568013E2540AC46EC
:1018500003251540BD4061460D430560012E0FD89C
:1018600001998668CD682640BD403543856046684D
:10187000039915098E4301210D409D403543456074
:10188000C56801992C408D688021BD4049052C43D5
:10189000C4600A424BD00121264C0326A5691E4094
:1018A0000D43A561A4699D080C400594059C0F2477
:1018B0002149AD00B6006D18B4409021AF68C9054C
:1018C000A743002488420CD01C490134884208D028
:1018D0001B490134884204D01A490334884200D19C
:1018E000023CB44000993C430E00AC60164CCD4322
:1018F00027683E43D10301D43E002E40266067682E
:10190000009E3E43910301D43E002E406660A768CE
:10191000009E3E43D10201D43E002E40A660E66800
:10192000009F3743920201D42E403700E760013315
:1019300062E7C04600100240000001400004004879
:1019400000080048000C004800040140062270B561
:10195000114CBB25E3691340022B03D01135042B36
:1019600000D0223D00F076F9002813D120260B4B41
:10197000D8612369334323614023226913432361E0
:1019800000F068F92369B3432361002802D1E8B26B
:10199000FFF791FD70BDC0460020024060040020AA
:1019A000F7B505000120404C20762B6803423ED05D
:1019B000AB683E4E01936B68376A834220D100F0DA
:1019C00049F9002819D1E061FFF7C0FF002814D1C0
:1019D000019B32699F431023FFB213433361FF2FF2
:1019E00005D0334A13891F40178100F033F91022C4
:1019F000336993433361002819D000232376FEBD59
:101A000000F028F90028F8D1E061FFF79FFF0028D7
:101A1000F3D1019B32693B43DFB21023134333619F
:101A2000FF2FE4D0224B1A8917431F81DDE72B6873
:101A30009B0704D5287BFFF73EFD0028DDD12B68EE
:101A40005B0718D56B7B019300F004F90028D4D113
:101A50001027164EE0613369019A3B4333618823B6
:101A60001A431300124A538000F0F4F83369BB4361
:101A700033610028C1D12B681B07BED52B690193A8
:101A80002E7D00F0E7F80028B7D11027074DE06160
:101A90002B69B6B23B432B61019B1E8000F0DAF844
:101AA0002B69BB432B61A8E76004002000200240A3
:101AB00000F8FF1F70B58901002812DB8308134A64
:101AC00003249B009B18FF222040A0401400C02547
:101AD000844011408140AD005E59A64331435951C5
:101AE00070BD03240F23C0B203402040A040FC344B
:101AF0002500214085408140083B054A9B089B000A
:101B00009B18DA69AA431143D961E9E700E100E0D3
:101B100000ED00E00422036830B59968114201D15C
:101B2000002030BD9968114206D09A68920703D40C
:101B3000102299680A439A60042409490D689A683A
:101B40002242EDD00A68521B022AF8D91023426CB7
:101B5000134343640123826C1A4382641800E0E754
:101B60005C0400200321036830B59A680A40012A0A
:101B700001D0002030BD1968114202D1DA68120488
:101B8000F7D505219A680A40012A14D102219C68E0
:101B90002143996003210D4C196025689968114211
:101BA000E7D02168491B0229F8D91023416C0B4367
:101BB0004364836C05E01023426C134343640123A8
:101BC000826C1A4382640120D4E7C0465C04002082
:101BD000802230B5846803005201944205D1026925
:101BE000002A02D10120014228D11A00683215785A
:101BF0000220012D22D0013810705965190058318A
:101C000008804880802149018C421AD11969002935
:101C100015D10F4819005C310880190000202224DA
:101C20006A31D8660C70107001221B6899680A43EB
:101C30009A609022196852000A431A6030BDFF2052
:101C4000E8E7002CE9D119690029F8D07F20E1E705
:101C5000FF010000184970B50A000124174B184E07
:101C6000DD6CC868204221D12020CC68044200D01D
:101C7000C8601021D068084002D1D168490714D546
:101C80001020D4680021044204D0DC6E02312143CC
:101C9000D96601000424D068204204D00120DD6E02
:101CA00021432843D8660120D16070BDD86C401B09
:101CB000B042D6D90320F8E70020024010040020EB
:101CC00050C300000100054810B5826C5468002C18
:101CD00002D03C30C27AA04710BDC046100400209C
:101CE000FA21094B10B51868890000F0A5F800F03A
:101CF000DFFAC022054912060B6A00201B021B0AEC
:101D000013430B6210BDC046A800002000ED00E0A8
:101D100030B5050069352B7802000220202B24D134
:101D20000138002921D0802390685B01984205D1B9
:101D30001369002B02D10120014216D1140068342E
:101D400023780220012B10D0D164110001235031DF
:101D50000B804B8000232121D366297023701168EA
:101D600080220868024318000A6030BD70B511284F
:101D70001FD8124D2B004C331C56631C19D0104930
:101D800020007031FFF708FC002398420FD00F218C
:101D900022090A40042A0ED801200C40A0409200DB
:101DA000AA18136E1B690340581E8341DBB218004A
:101DB00070BD0023FBE71B69FFDEC046E82C00086E
:101DC0001004002070B50D0011281BD80F4E3300F1
:101DD0004C331C56631C15D00D4920007031FFF7A1
:101DE000DBFB00280ED00F22230913400021042B17
:101DF00002D89B00F318196E01231440A340002D54
:101E000001D08B6170BD8B62FCE7C046E82C0008F6
:101E1000100400200023C25C0133002AFBD1581EAD
:101E20007047000002B4714649084900095C490046
:101E30008E4402BC7047C046002243088B4274D3D4
:101E400003098B425FD3030A8B4244D3030B8B42BB
:101E500028D3030C8B420DD3FF22090212BA030CC4
:101E60008B4202D31212090265D0030B8B4219D3A5
:101E700000E0090AC30B8B4201D3CB03C01A5241C5
:101E8000830B8B4201D38B03C01A5241430B8B420D
:101E900001D34B03C01A5241030B8B4201D30B03F6
:101EA000C01A5241C30A8B4201D3CB02C01A52411D
:101EB000830A8B4201D38B02C01A5241430A8B42E0
:101EC00001D34B02C01A5241030A8B4201D30B02C9
:101ED000C01A5241CDD2C3098B4201D3CB01C01AE3
:101EE000524183098B4201D38B01C01A52414309ED
:101EF0008B4201D34B01C01A524103098B4201D3DB
:101F00000B01C01A5241C3088B4201D3CB00C01A47
:101F1000524183088B4201D38B00C01A52414308BF
:101F20008B4201D34B00C01A5241411A00D20146E4
:101F3000524110467047FFE701B5002000F0F0F86D
:101F400002BDC0460029F7D076E7704703460B4331
:101F50007FD4002243088B4274D303098B425FD3A2
:101F6000030A8B4244D3030B8B4228D3030C8B42CE
:101F70000DD3FF22090212BA030C8B4202D31212B4
:101F8000090265D0030B8B4219D300E0090AC30B89
:101F90008B4201D3CB03C01A5241830B8B4201D336
:101FA0008B03C01A5241430B8B4201D34B03C01A1F
:101FB0005241030B8B4201D30B03C01A5241C30A97
:101FC0008B4201D3CB02C01A5241830A8B4201D308
:101FD0008B02C01A5241430A8B4201D34B02C01AF2
:101FE0005241030A8B4201D30B02C01A5241CDD297
:101FF000C3098B4201D3CB01C01A524183098B42E2
:1020000001D38B01C01A524143098B4201D34B01CA
:10201000C01A524103098B4201D30B01C01A52412D
:10202000C3088B4201D3CB00C01A524183088B42B4
:1020300001D38B00C01A524143088B4201D34B009D
:10204000C01A5241411A00D201465241104670470F
:102050005DE0CA0F00D04942031000D34042534014
:1020600000229C4603098B422DD3030A8B4212D3D4
:10207000FC22890112BA030A8B420CD38901921106
:102080008B4208D3890192118B4204D389013AD043
:10209000921100E08909C3098B4201D3CB01C01A18
:1020A000524183098B4201D38B01C01A524143092B
:1020B0008B4201D34B01C01A524103098B4201D319
:1020C0000B01C01A5241C3088B4201D3CB00C01A86
:1020D000524183088B4201D38B00C01A5241D9D29E
:1020E00043088B4201D34B00C01A5241411A00D21F
:1020F0000146634652415B10104601D34042002B1B
:1021000000D54942704763465B1000D3404201B599
:10211000002000F005F802BD0029F8D016E770474E
:102120007047C04603B47146490840004900095A47
:1021300049008E4403BC7047102370B5514D524C7A
:102140002A6813432B60FFF7CBFD0C2162682B003C
:102150000A4206D062680A40082A3CD16268D2036B
:1021600039D42268F82122688A43110078220A4370
:102170000C21226062680A40082A3AD08020226836
:10218000424980040A402260414A156821680142A0
:1021900030D10F20E16A8143E16261683D48084027
:1021A000A021890301436160802120684904014323
:1021B0008020216015688004216801421FD0012021
:1021C0001968014220D0F020616881436160216874
:1021D000890121D4FEE70122022021680A432C490B
:1021E00022600D6822680242BCD10A68521B022A92
:1021F000F8D9FEE71168491B0229C7D9F9E7116828
:10220000491B0229D8D9F4E71968814301431960B1
:1022100019680142DED0D6E7032061681E4E814373
:102220000800022101430C206160156861680140CB
:10223000082922D11B68194A636813406360FFF7BD
:1022400085FA6368164A1B061B0FD35C154CD840F1
:102250002060FFF745FDFA2120688900FFF7ECFDBB
:1022600000F026F80423104A11680B4313600F4A4C
:10227000136A1B021B0A136270BD1168491BB1422D
:10228000D4D9A7E70020024000100240FFFFFFFE64
:102290005C040020FFFFC2FF88130000FFF8FFFF6F
:1022A0005C2C0008A800002010E000E000ED00E039
:1022B000094A431E012093420DD8C021074A08480D
:1022C0005360036A09061B021B0A0B4303620020CA
:1022D0000723906013607047FFFFFF0010E000E0ED
:1022E00000ED00E0F0B501218FB00C20FEF7C6FD37
:1022F00001210720FEF7C2FD01210620FEF7BEFDE9
:1023000000210D20FEF7BAFD02210A20FEF7B6FDDE
:1023100002210B20FEF7B2FD00210820FEF7AEFDE2
:1023200001210420FEF7AAFD00210420FFF74AFD49
:1023300001210C20FFF746FDC54CC64AE368002585
:102340005A600C22C44B1A60E8B2FEF761F8C34B26
:102350001A68C24B1B689B1A312BFAD90135062D1E
:10236000F2D1FEF743F80022BD4B1A70BC4D28781D
:10237000013805280BD8FFF7D5FE0600BF00C400C2
:10238000CD0042014701FEF7A9F8FEF741F8E068E9
:10239000022603689B69984785B2E0682178036844
:1023A000DB699847C3B20093A37A334200D171E14D
:1023B000E06867880368EF1B1B68BFB298478742D5
:1023C00000DA6FE1A37AB343A372E37A022B00D160
:1023D00072E1E06803899B0719D003689B689847FE
:1023E000A37A7F2B05D9A388EB1A9BB2834200DB2B
:1023F000A6E1E06803689B6898470821A27A0A4230
:1024000005D0A388EB1A9BB2834200DBA0E104262F
:10241000E068038933420BD00122A37A00991A4065
:10242000914205D0334203D020273B4200D192E1B4
:10243000E06803891B0717D50123A27A009913408E
:10244000994211D053070FD5402703683A4200D173
:1024500036E126895B69AE1BB6B29847864203DB3C
:102460000520FFF72FFC2581E37A009A934200D1E3
:1024700018E16B4601221B78A17AE372009B0A40A7
:10248000934206D0042300200B43E580A372FFF79C
:1024900019FC0122A37A00991A40914200D001E16F
:1024A000E0680289920700D067E1A27A930604D51A
:1024B000E36819890123490614D4530604D5E36857
:1024C0001989012309060DD4130704D5E368198976
:1024D0000123C90606D40023D10603D5E3681B896E
:1024E0009B06DB0F74218A43A272002B00D0D9E037
:1024F0000120FFF7E7FBD5E0FDF7F0FF0330C0B2A6
:1025000043E70520FEF7FCFC302358435549FFF70D
:1025100093FCF4E7FDF700FF0600062051497043E5
:10252000FFF78AFCC0B2FDF773FFFDF70FFF4E4FB8
:102530000A2231003800FDF7EEFF4C493800FDF764
:10254000DCFFFDF7F7FE6B78002B00D01FE70121C1
:10255000A37AE27A0B409A4200D018E71025013D99
:10256000002D03D0FDF7D8FE3618F8E7404B3609AA
:10257000069302AB1E7508233E4908AA0C913E4DF6
:10258000310A0293117508932B691B0622D53B4A29
:102590003B4B6A606B60296989051BD4AA60AB60FC
:1025A000FFF7D4F9002815D1364B1B7E012B02D042
:1025B00002A8FFF7F5F9334B1B7E012B02D008A8C8
:1025C000FFF7EEF92B69304A13402B6180232A690B
:1025D00013432B61FDF7BAFE2C493800FDF78DFF40
:1025E0000A2231003800FDF796FF20493800FDF738
:1025F00084FFFDF79FFE0122194B5A70C7E60420A5
:10260000FEF77EFC062380E7174E3000FDF7D2FD73
:10261000002808D03000FDF7AFFD0621FFF77CFD54
:10262000C8B2FDF7F5FE0D4B6A681B689B1AFA22CB
:102630005200934200D8AAE6084B1B686B60FDF776
:1026400085FE13493000FDF758FFFDF773FE9EE647
:102650004C04002061040008A40000205C04002059
:1026600084010020FF0F0000100300208C2D0008C3
:1026700004F8FF1F06F8FF1F0020024023016745F2
:10268000AB89EFCD60040020FFFDFFFF8F2D000818
:10269000962D0008E27A00998A4200D195E61E4301
:1026A000A67265803C4B1A683B4B1B689B1A042B37
:1026B000FAD9FDF787FD59E66B461B78E372F1E71F
:1026C000E6881B69AE1BB6B29847864200DACBE6B5
:1026D000A37A1F43A772C3E6E06803899B0705D569
:1026E000A37A1A0711D410229343A372A37A082263
:1026F000D9064ED41A43A272E268A5801289D20587
:102700001AD578225242134344E00368A6889B6896
:102710009847AE1BB6B2A37A8642E4DA5AB2002AD0
:1027200002DA7F221340A3721023A27A03201343FC
:10273000A372FFF7C7FAD9E70220FFF7C3FAB4E69E
:102740000220FFF7BFFA7F22A37A1340A37250E65C
:102750008A43A2725BE6E388EB1A9BB2019303689B
:10276000DB689847019B834200DA61E6A37A300078
:102770001F43A772FFF7A6FA5AE65A0708D5E6885C
:102780000368AE1B5B68B6B298478642A4DBA37AA7
:1027900008229343A37288E65C0400204E4B052177
:1027A000180070B5303019701976013101701800B9
:1027B00000240830C4671800484A1D008C300260AD
:1027C00018004835297090300131017018009C3094
:1027D00004601800A43002601800A83001701800CE
:1027E000B43004601800BC3002601800C0300170C2
:1027F0001800CC3004601800D43002601800D830C3
:1028000001701D0018006035E430297004601D005F
:1028100018007835EC30297002601D001800FF3573
:10282000F030DC605A615C62DA62DC635A645C65D9
:10283000DA65DC665A6701706972902518006D00D0
:102840005955183559551835595518355955763142
:10285000FC30FF3104608260846102620463826341
:10286000846402650466826684675A5020001C4AAC
:102870001C4900F068F8FA221B4B92009A601B4A30
:102880000A201100083119601900FF3188770138DA
:10289000487718001900FC3011315C604162190062
:1028A0005133C362124B28321A631A003032FE31A0
:1028B0009A641A00CC840C85CC850C860D213C32A0
:1028C00011700B39DC875C631C875B185470947241
:1028D000D172DC8770BDC04690010020000011104D
:1028E00000000020A505000810030020E82C0008C7
:1028F000100400200D4885460D480E490E4A00235D
:1029000002E0D458C4500433C4188C42F9D30B4AA3
:102910000B4C002301E013600432A242FBD3FDF70D
:10292000B2FF00F025F8FFF7DDFCFEE70010002005
:1029300000000020AC000020BC2D0008B0000020EA
:1029400038050020FEE70B0010B50100180000F06C
:1029500001F810BD70B5054C05001300201E04D011
:102960000A000220290000E000BF70BD0000000046
:1029700070B500260C4D0D4C641BA410A64209D165
:10298000002600F05FF90A4D0A4C641BA410A64211
:1029900005D170BDB300EB5898470136EEE7B300A0
:1029A000EB5898470136F2E79C2D00089C2D000853
:1029B0009C2D0008B82D000803008218934200D116
:1029C000704719700133F9E7002310B59A4200D11E
:1029D00010BDCC5CC4540133F8E700000123214A48
:1029E0001168194200D113601F4A1168194200D1C1
:1029F000136001231D4A1168194200D113601C4A5B
:102A00001168194200D1136001231A4A1168194252
:102A100000D11360184A1168194200D113600123D4
:102A2000164A1168194200D11360154A11681942FB
:102A300000D113600123134A1168194200D11360B9
:102A4000114A1168194200D1136001230F4A11681D
:102A5000194200D113600E4A1168194200D1136067
:102A60007047C046C0040020BC040020B804002009
:102A7000B4040020B0040020AC040020A80400200E
:102A8000A4040020A00400209C040020980400203E
:102A9000940400200123214A1168194200D11360D7
:102AA0001F4A1168194200D1136001231D4A1168A1
:102AB000194200D113601C4A1168194200D11360F9
:102AC00001231A4A1168194200D11360184A11688B
:102AD000194200D113600123164A1168194200D12E
:102AE0001360154A1168194200D113600123134A7B
:102AF0001168194200D11360114A1168194200D1BE
:102B0000136001230F4A1168194200D113600E4A65
:102B10001168194200D113607047C046F0040020CC
:102B2000EC040020E8040020E4040020E00400207D
:102B3000DC040020D8040020D4040020D0040020AD
:102B4000CC040020C8040020C40400200123164A3D
:102B50001168194200D11360144A1168194200D15A
:102B600013600123124A1168194200D11360114AFF
:102B70001168194200D1136001230F4A11681942EC
:102B800000D113600D4A1168194200D1136001236E
:102B90000B4A1168194200D113600A4A11681942A0
:102BA00000D113607047C046100500200C050020BE
:102BB000080500200405002000050020FC0400207A
:102BC000F8040020F40400200123164A1168194279
:102BD00000D11360144A1168194200D11360012317
:102BE000124A1168194200D11360114A1168194242
:102BF00000D1136001230F4A1168194200D11360FC
:102C00000D4A1168194200D1136001230B4A116863
:102C1000194200D113600A4A1168194200D11360A9
:102C20007047C046300500202C05002028050020F4
:102C300024050020200500201C0500201805002088
:102C400014050020F8B5C046F8BC08BC9E46704785
:0C2C5000F8B5C046F8BC08BC9E467047B2
:102C5C000000000000000000010203040607080940
:102C6C000100030504020302000100040802000035
:102C7C0000000102030400000400000000240140D5
:102C8C000300020005000000002401400380020044
:102C9C00110000000024014003800400FF0000002C
:102CAC0000000000000000000102030405060708F4
:102CBC00090A0B0C0D0E0F10110203040506070870
:102CCC00090A0B0C0D0E0F10100102030405060768
:102CDC0008090A0B0C0D0E0F10000000000000007C
:102CEC00000000000902000821010008B5010008DD
:102CFC00790100089B010008670100080000000032
:102D0C000000000005020008F5010008FF010008A2
:102D1C00F9010008F9010008F5010008EB010008B1
:102D2C000D030008E5010008000102030405060775
:102D3C00090A0D0E40411104051100000000004865
:102D4C000004004800080048000C0048001400482B
:102D5C00090000000038014012010000FF000000D3
:102D6C0000000000000000000A00000000380140D4
:102D7C0012010000FF000000000000000000000035
:102D8C000D0A0043616C203A200070696E670A00DE
:102D9C0039210008E90000089D270008DD290008FA
:0C2DAC00952A00084D2B0008C92B0008D8
:042DB800C10000084E
:102DBC000000000000000000000000000000000007
:102DCC0000000000000000000000000000000000F7
:102DDC0000000000000000000000000000000000E7
:102DEC0000000000000000000000000000000000D7
:102DFC0000000000000000000000000000000000C7
:102E0C0000000000000000000000000000000000B6
:102E1C0000000000000000000000000000000000A6
:102E2C00000000000000000008000000000000008E
:102E3C000000000000000000000000000000000086
:102E4C000000000000000000000000000000000076
:0C2E5C00FF0000000A00000000127A00D5
:04000005080028F5D2
:00000001FF
