:020000040800F2
:1000000000100020E92800083929000839290008D3
:1000100000000000000000000000000000000000E0
:100020000000000000000000000000003929000866
:10003000000000000000000039290008CF1B000864
:100040003929000800000000392900083929000872
:1000500039290008C71D0008B71D0008A11D0008A8
:100060000000000039290008392900083929000852
:1000700039290008D51700083929000800000000B8
:10008000D31700080000000000000000D11700088E
:1000900000000000CF170008CD170008392900081C
:1000A000000000003929000800000000C315000806
:1000B0000000000000000000000000000000000040
:1000C00010B5064C2378002B07D1054B002B02D02E
:1000D000044800E000BF0123237010BD1001002080
:1000E00000000000C03A0008084B10B5002B03D0F8
:1000F0000749084800E000BF07480368002B00D10B
:1001000010BD064B002BFBD09847F9E7000000001C
:1001100014010020C03A0008100100200000000077
:100120000F22030913409B00024058580123D0407E
:100130001840704710B50F281CD8104B1C56631C74
:1001400018D00F492000FFF7EBFF002398420FD093
:100150000F2122090A40042A0ED801200C40A04099
:10016000084B9200D3581B690340581E8341DBB2F1
:10017000180010BD0023FBE71B69FFDEE43B00080D
:100180002C010020D83A000800230381704710B5E5
:100190000800FFF7CFFF10BD014B18687047C0463D
:1001A000CC040020C8207047FA2080007047C82087
:1001B00040007047322070477FB50023042810D8D4
:1001C0001B4B80215A6901F023FE030F18212A00DE
:1001D00089020A435A615B690B400193019B90239A
:1001E000DB05180007B000BDC9020A435A615B690C
:1001F0000B400293029B0F4BF3E709030A435A613A
:100200005B690B400393039B0B4BEAE749030A43EB
:100210005A615B690B400493049B084BE1E7C903F7
:100220000A435A615B690B400593059B044BD8E771
:10023000001002400004004800080048000C00487C
:1002400000140048F0B507000024A1B04C220021A2
:100250000DA802F0ABFBDD4904AB14313800DC80A3
:1002600001F001FB0D90A04200D1F4E18023DB05F9
:100270000E930423C2221293023B1B93D44B1E9471
:100280001F701E9BFF3217920292A3421DD11F9333
:10029000D04B984209D18020CF4A80009169014318
:1002A0009161936903400693069B0F24380920400F
:1002B000FFF782FF032301223C40A2400993002361
:1002C00008A908920A9300F075FF1E9BDB0600D573
:1002D000B8E104230D9CA2681A4000D0B2E11E9838
:1002E000BE49023B0840034303201E93A3680391C9
:1002F0000340012B00D034E22168194203D1E368A6
:100300001B0400D42DE2E368B549159D0B40E36062
:10031000139B6E039903149BDB030B431A99481E2E
:10032000411E88410103109803431E43119B019312
:10033000022B00D10422199B580001933043169BD5
:1003400008430243012B05D1002D00D066E1802334
:100350005B021A43179B02998B4203D018990B43F7
:1003600001911A43E3681B9E1343E36080235B05FE
:100370009E4202D0731E062B07D80723616999435A
:100380006161616933400B436361E36895490B40E8
:100390009A4200D04AE1002503221F951E9B8B49FB
:1003A00093431A0001231431134338001E9301F0C4
:1003B0004DFA0003C00E0138102800D845E1002393
:1003C0001DAF07933B78012B00D144E101233B7023
:1003D000A268520700D55DE1AB40A26A1343A36255
:1003E00080235B059E420ED0013E062E0BD90722CC
:1003F00063691340022B06D0636993436361022350
:100400006269134363612B00103B012B00D824E188
:10041000012303220D9C3B70A3681340012B07D1DD
:1004200022681A4200D0ABE1E3681B0400D5A7E1C3
:100430001E9A039B03211A40022313431E93E36871
:10044000E2688A43E2608022A16812060A43664994
:10045000A2600868A268002A00DA20E10322E168AD
:1004600013400B43E3601E9B93431A000123134385
:100470001E93002300223A70934200D0EBE0A26862
:10048000520700D5E7E001223A70149A0192012A3E
:1004900000D00EE11E9B554A00201A4080235B00CD
:1004A00013431E931C231F9038702360A268183BCF
:1004B00012991343A360082900D033E14A4A156812
:1004C0002068084000D137E180231E9A9B00134327
:1004D0001E93C023E2681B011A4214D1159B01939D
:1004E000002B10D123681B070DD5A3685B0700D52F
:1004F0002AE10C226368934363601E9B3C4A1A40C6
:10050000012313431E93139B0193002B01D10C3342
:1005100023601E9B9B0503D5236C04AA9BB2D3804A
:1005200001240DA83C7000F0D9FF002809D10DA8C6
:1005300000F0FCFF002804D11E9B2D4A13401C43F1
:100540001E9400233B70984200D084E01E9A023330
:1005500013430DA81E9300F0C1FF002800D0FCE05B
:100560000DA800F0E3FF012875D001231E939F2101
:100570000D9B204C5A688A435A601960DA681E49FC
:100580000A400721DA601A69920092081A615A69D2
:100590008A435A611A6A19490A401A629A6A1849C2
:1005A000D20CD2049A620A6822400A60094A934235
:1005B0002BD18022084B9200D968124C0A43DA6092
:1005C000D9682140D9609A6922401DE0D83A0008D4
:1005D000040000200024014000100240FDFEFFFF47
:1005E0001902FEFFE7FF3F83CC040020FEF0FFFF6F
:1005F000FEFEFFFFFFFF3FFF00023E8300F000F022
:1006000008270140FFFDFFFF9A6100231F931E93FF
:10061000984220D104ABD88880B27DE020211E987A
:1006200001431E911F990B431F9393E612221E9BB9
:1006300093431A00102313431E9301231F9A13435D
:100640001F9308E01E9A102326E0504B38331D5CA0
:10065000112D00D8B3E600205EE04D4B80211A68D2
:10066000102D15D0C9030A431A60102D00D0CFE613
:10067000484B4949186801F0D5FB0A2358430790B5
:10068000079B002B00D1C3E6079B013B0793F7E7CD
:100690000904E8E720231E9A13431E93DBE70A6848
:1006A000121A022A00D8D5E612221E9B93431A0082
:1006B000C9E703220893A3681340012B07D12268DE
:1006C0001A4200D0E6E6E3681B0400D5E2E6A26821
:1006D000324B1A4201D01E9AACE70123A2682E4980
:1006E0001343A3602B4B186801F09CFB0890089BF8
:1006F000002B13D101212A4B1D682068084000D02F
:10070000C8E61A68521B022AF7D910221E9B1A4308
:100710001E921F9B0B431F9321B0F0BD089B013B12
:100720000893E4E7E3680C21DB0700D4C6E6202346
:100730001E9A13431E93EFE713685B1B0A2B00D826
:10074000BEE61E9A0423F4E720231E9A13431E9349
:1007500001231F9A13431F93D5E6012800D17AE79E
:1007600005E71821E3688B430F990B43E360236986
:1007700001919B000E999B080B4301912361C2E5F7
:1007800020231E9A13431E93012373E6D83A0008D0
:1007900008270140A800002040420F0017000080F9
:1007A000CC04002070B50D000F2818D80D4B1C5636
:1007B000631C14D00C492000FFF7B2FC00280ED0B7
:1007C0000F22230913400021042B02D807499B0064
:1007D000595801231440A340002D01D08B6170BDF6
:1007E0008B62FCE7E43B00082C010020D83A0008AB
:1007F000F8B50E000F282ED81B4B1C56631C2AD0B0
:100800001A4F200014373900FFF78AFC2509002809
:100810000AD00F232A001A409200BF180122234059
:100820009A403B6893433B60032E09D8300001F0A7
:10083000EFFA0218131600221100200001F0B0F99F
:100840000F231D401C400E3BA340084AAD00551924
:100850002A6813432B60F8BD01220021EDE7022234
:10086000FBE700220121E8E7E43B00082C0100201F
:100870000120704716220120014B40421A60704748
:1008800098050020FEE7F0B56F4B85B01B680C00A3
:1008900009206E490292039300F0E5FF002800D181
:1008A000B2E000236A4E99007158DAB2002902D0F2
:1008B000096888422BD00133082BF4D1654D2B00F9
:1008C00078331B78072B20D9634B5FE090425CD1D3
:1008D0001B785BB22A008D3213702B0009228C33F7
:1008E0001A7096232A009B012900EB670023083227
:1008F0008831281D0B60C367D36700F0C4FF2B004D
:1009000078331B78072B00D97EE078352A7892005F
:10091000B358190069310A78202A6DD1002C6BD0A8
:100920006A461289002A67D080209E68400186426C
:1009300004D11869002801D1E0075DD4180068309F
:100940000578012D58D0012505700020D86621308A
:1009500008703D4909680191190050310A804A80A8
:100960002100180052300288002A15D140251A684B
:10097000354ED16929404ED01A00202169321170BC
:100980000022683302981A703FE00C335A68002A3C
:100990009CD101235B429DE70288013A92B202801A
:1009A00029481A6884468025D06928400CD08020C8
:1009B000400186422BD11869002828D108880231CD
:1009C000C005C00D1085CCE76546019F2D68ED1B65
:1009D000FA27BF00BD42E6D91168204D29401160B9
:1009E0009168A335FF35A94391601A00202169322F
:1009F00011705170013A1070134A03991268521A1B
:100A000017498A4200D884E7002005B0F0BD087875
:100A100001311085A5E7019F3068C01BFA27BF0090
:100A2000B842A6D910680D4D284010609068A335D3
:100A3000FF35A84390601A00202069321070507072
:100A4000013A1170D8E7C046CC040020B43B00083E
:100A50005801002004000020CC3B00085FFEFFFF8F
:100A6000E703000000207047002070470120704716
:100A700080239B0100204B6070470120404270475B
:100A8000094B0200996A002901D108499962694617
:100A9000986A82188A4205D90C220120044B4042F0
:100AA0001A6070479A62FCE72C010020A005002024
:100AB0009805002070B5022500240C26FF35013D65
:100AC000002D0FD01120FFF7BDFB074B1B680C2B2F
:100AD00003D00B2B03D8F31AD8402418EFE70C3BB4
:100AE0009840FAE7200A70BDA400002010B5044821
:100AF00000F005F900210820FFF77AFE10BDC0467E
:100B000080030020F8B51F4CE122230026000025B9
:100B1000FC3352021C48FF361A61DD619D615D6144
:100B200000F0B1FE737A194F9B00DA5911006A3256
:100B30006931097812780A43222A21D01F201449EA
:100B4000144A99501049144A99503056290000F01F
:100B500095FC1F23F356AB4206DB1F2213401E3ABF
:100B60009A4013000D4A1360FF34637A9B00F858D3
:100B700003006A331B78202B02D1094901F042F8A7
:100B8000F8BDC04680030020140400205801002056
:100B90001D0E0008D8010020B801002000E100E08F
:100BA0008904002010B500210420FFF721FE002158
:100BB0000320FFF71DFE00210220FFF719FE002190
:100BC0000120FFF715FE10BDF8B50500FFF7EAFF9D
:100BD000114C0121230049335D5D4F346E08A75D40
:100BE000A41901263800FFF703FE647801212000D4
:100BF000FFF7FEFD354008D000213800FFF7D2FD99
:100C000031002000FFF7CEFDF8BD31003800FFF7BE
:100C1000C9FD2900F5E7C046D83A000870B501299A
:100C200015D1154C2578FFF7BDFF032D10D0052DEC
:100C300013D023780133DBB22370052B10D0062BA1
:100C400011D0032B03D101210620FFF7ABFD70BDAE
:100C500000210620FFF7A6FDEBE700210720F9E7BA
:100C600001210720F1E70020FFF7AEFF00210C2053
:100C7000FFF7BEFDEBE7C046F801002010B50A20E3
:100C8000FFF758FA03000020834205D00B30FFF72E
:100C900051FA431E9841013010BD70B505000C009B
:100CA000081E07D001F0ACF82B6802005B68210039
:100CB0002800984770BDC046F7B506000D000C002F
:100CC0008B180193019B671B9C4207D033682178E6
:100CD0001B683000984701340028F3D13800FEBD6E
:100CE00002003F219A321388983001330B40138061
:100CF00013880088C01A4342584140427047037C21
:100D0000002B04D0FE30C28D038E9A42FCD1704776
:100D10000200FE32D18C138D994207D0FC30416A1B
:100D2000C85C3F2101330B401385704701204042CE
:100D3000FBE70300FE33DA8C1B8D9A4203D0FC30B4
:100D4000426AD05C704701204042FBE7FE30C38C12
:100D5000008D4033181A3F2318407047054B10B5DB
:100D6000002B06D00448FFF7F1FF002801D000E077
:100D700000BF10BD0000000080030020F8B5020095
:100D800001233F250374FE320400D08DC3182B408D
:100D9000158EAB42FCD025002600FC35ED6A0936E5
:100DA0002954FF36D3853378194D9B005A592100B9
:100DB00010006A3269300078127894310243212A97
:100DC00023D027000020134AEB181F3719641A623A
:100DD000FF373856002100F051FB0023FB56002B53
:100DE00006DB1F2213401E3A9A4013000A4A136082
:100DF000230029342F33FF33FF341B882168C9189F
:100E000033789B00E85800F09DFF0120F8BDC046F4
:100E100058010020E10C000800E100E070B5041E5C
:100E200027D0030074331B78124A9B0098580300A4
:100E3000020069336A321B7811780B43222B18D0D9
:100E40002100137875310D78202B01D100F0DAFEE6
:100E500022003F219032138801330B402100923150
:100E600009888B4205D08C34118820689BB2455488
:100E7000138070BD58010020406A0023020010B5A5
:100E80005A321380083A138000F086FB10BDFEE74B
:100E9000F0B58BB06B4615000022053306000F003D
:100EA000DA77012D00DC0A2509AC2900380000F0B2
:100EB000B9FF01006943791AC9B20B003733013C0D
:100EC000DBB2092901D83031CBB22370071EECD137
:100ED00021003000FFF7E1FE0BB0F0BDF7B50700D1
:100EE0000D000024C31D061D019331780A2228003D
:100EF000FFF7CEFF2B6800901B682E212800984733
:100F0000009B0136C018019B2418B342EDD1F9793A
:100F100028000A22FFF7BCFF2018FEBD010070B5B3
:100F20006A310A780368222A33D1020080245C32B5
:100F300015889A8C64012A408568436DA5420FD1BB
:100F40000469002C0CD11A800233436502005A3226
:100F50001388013B9BB21380002B05D000201DE0BD
:100F60005C1C44651A70F1E70268104D14682C404F
:100F7000146094682335FF35AC43946020220A70D6
:100F80000B4A99008C58A04209D00133082BF8D1A4
:100F9000E4E70822022099690A439A6170BD054B73
:100FA0005218CB58106E9847D8E7C046DFFEFFFFB7
:100FB00058010020D801002070B5060000F064FE42
:100FC00000281DD120250F4B0F4CD86123692B43DE
:100FD0002361402322691343236100F055FE2369F6
:100FE000AB43236100280BD12369103D2B432361C0
:100FF000064BB6B21E8000F047FE2369AB43236167
:1010000070BDC046D00400200020024000F8FF1F41
:101010000222036810B51969040011420DD0D96885
:1010200011420AD0053A1A61043202779B699B0784
:1010300001D100F0D0FB0023237704222368196933
:10104000114210D0D96811420DD0093A1A61073205
:1010500022779A69C0239B001A4202D1200000F037
:10106000BAFB0023237708222368196911420ED0A6
:10107000D96811420BD0113A1A610D322277DB691F
:101080009B0702D1200000F0A6FB0023237710224B
:1010900023681969114210D0D96811420DD0213A44
:1010A0001A6119322277DA69C0239B001A4202D1F1
:1010B000200000F090FB00232377012223681969A8
:1010C000114209D0D968114206D0033A201F1A6193
:1010D000836C002B00D09847802223681969114245
:1010E00005D0D968114202D0023AFF3A1A61402273
:1010F0001969114204D0D968114201D0813A1A61AC
:1011000020221969114204D0D968114201D0413A14
:101110001A6110BD70B5144C88B004AD10222100C6
:10112000280002F016FA210010221031684602F061
:1011300010FA0C220D4E73681A40082A11D10F20A4
:10114000990C01406C5C6946F26A0240895CDB03E1
:1011500005D5074800F066FE604308B070BD05483D
:10116000FAE70348F9E7C0463B3B0008001002409D
:1011700000127A0000093D000C4B10B55A6910426C
:1011800012D058610023012803D001334008DBB29C
:10119000F9E718225343064A181D80188168002970
:1011A00002D0D2181369984710BDC0460004014010
:1011B00000020020F0B50B6887B002930023019174
:1011C000029ADA4001D107B0F0BD01229A400392A1
:1011D0000399029A0A40009200D18CE0019A1021F2
:1011E000526816008E43022E0ED107251D40AD0019
:1011F0000139A940DC08A4000419276A8F4301992A
:101200000969A9400F43276203245F00BC40E443FF
:101210000568013E2540AC4603251540BD406146AA
:101220000D430560012E0FD801998668CD682640D0
:10123000BD40354385604668039915098E430121F9
:101240000D409D4035434560C56801992C408D682F
:101250008021BD4049052C43C4600A424BD0012186
:10126000264C0326A5691E400D43A561A4699D086F
:101270000C400594059C0F242149AD00B6006D1863
:10128000B4409021AF68C905A743002488420CD020
:101290001C490134884208D01B490134884204D0DB
:1012A0001A490334884200D1023CB44000993C43BF
:1012B0000E00AC60164CCD4327683E43D10301D4E9
:1012C0003E002E4026606768009E3E43910301D495
:1012D0003E002E406660A768009E3E43D10201D4C6
:1012E0003E002E40A660E668009F3743920201D47C
:1012F0002E403700E760013362E7C046001002402D
:10130000000001400004004800080048000C0048AC
:1013100000040140062270B5114CBB25E36913405F
:10132000022B03D01135042B00D0223D00F0ACFC81
:10133000002813D120260B4BD86123693343236146
:10134000402322691343236100F09EFC2369B343C9
:101350002361002802D1E8B2FFF72EFE70BDC0461F
:1013600000200240D0040020F7B505000120404CC9
:1013700020762B6803423ED0AB683E4E01936B68EB
:10138000376A834220D100F07FFC002819D1E06148
:10139000FFF7C0FF002814D1019B32699F4310233F
:1013A000FFB213433361FF2F05D0334A13891F4027
:1013B000178100F069FC10223369934333610028E0
:1013C00019D000232376FEBD00F05EFC0028F8D182
:1013D000E061FFF79FFF0028F3D1019B32693B4397
:1013E000DFB2102313433361FF2FE4D0224B1A895D
:1013F00017431F81DDE72B689B0704D5287BFFF788
:10140000DBFD0028DDD12B685B0718D56B7B0193D2
:1014100000F03AFC0028D4D11027164EE061336961
:10142000019A3B43336188231A431300124A5380C5
:1014300000F02AFC3369BB4333610028C1D12B681B
:101440001B07BED52B6901932E7D00F01DFC0028E3
:10145000B7D11027074DE0612B69B6B23B432B6132
:10146000019B1E8000F010FC2B69BB432B61A8E799
:10147000D00400200020024000F8FF1F70B5890151
:10148000002812DB8308134A03249B009B18FF22C9
:101490002040A0401400C025844011408140AD0090
:1014A0005E59A6433143595170BD03240F23C0B286
:1014B00003402040A040FC3425002140854081406D
:1014C000083B054A9B089B009B18DA69AA43114315
:1014D000D961E9E700E100E000ED00E004220368E3
:1014E00030B59968114201D1002030BD9968114290
:1014F00006D09A68920703D4102299680A439A602A
:10150000042409490D689A682242EDD00A68521BEA
:10151000022AF8D91023426C134343640123826CDE
:101520001A4382641800E0E7CC040020032103681A
:1015300030B59A680A40012A01D0002030BD1968F0
:10154000114202D1DA681204F7D505219A680A40DF
:10155000012A14D102219C682143996003210D4C7A
:101560001960256899681142E7D02168491B022952
:10157000F8D91023416C0B434364836C05E01023BE
:10158000426C134343640123826C1A43826401203A
:10159000D4E7C046CC040020036882B0DA69D207E1
:1015A00003D59B8C9BB2019308E0DA699207F8D4CB
:1015B000DA695207F5D4DA691207F2D4019B02B056
:1015C0007047F8B58021C0237A4A09055B00D150E5
:1015D0000F21794D2C682368DA691868114008D109
:1015E0002026324205D0304203D02000FFF796FC7F
:1015F000F8BD9E6800297CD001210E4003D19027C0
:101600007F00384275D00A4205D0C50503D519625E
:10161000E56E2943E16602210A4206D0002E04D07D
:101620001962E56E49182943E16604210A4206D091
:10163000002E04D01962E56E02392943E1661107D4
:1016400008D5810601D4002E04D008211962E36E6A
:101650001943E166E36E002BCAD020231A4204D05E
:10166000184202D02000FFF759FCE26E23681207EF
:1016700003D440229D68154036D01A684F49202077
:101680000A401A60012299689143996021006A31E9
:10169000087099680018014222D099688143606EF1
:1016A000996000281CD0464B841C4363E37F022BC7
:1016B00004D004238363FFF7DFFB99E70E2503685B
:1016C0001968A94319601968056C914319601100E4
:1016D000A940C36B5960E2770022431CDA77EAE73E
:1016E0002000FFF759FF83E72000FFF755FFE5666D
:1016F0007EE780210A422DD008422BD02200693299
:101700001278212A00D073E7200052300288002A84
:1017100007D11A688A431A60402219680A431A607E
:1017200066E78021A5684901E26C8D420DD12169EF
:1017300000290AD111880232C905C90D1985E26450
:101740000388013B9BB2038052E7511CE16412788D
:101750001A85F5E740210A4200D149E7084200D145
:1017600046E71A688A431A602300202269331A70F8
:1017700000239A00AA58944203D00133082BF8D1D1
:1017800036E7104ADBB29B009C580F4A20009B585A
:101790009847431C00D12BE7230022009A33943250
:1017A0001B8811687434C91823789B00E85800F02E
:1017B000C9FA1DE700E100E058010020DFFEFFFF4D
:1017C000790E0008980100207801002070477047CA
:1017D000704770477047836C10B5021F002B05D00F
:1017E000017F012902D100211000984710BD01217D
:1017F000104B11481A680A431A605A6802405A602E
:101800001A680E4802401A601A680D4802401A60B1
:101810005A680C4802400F205A60DA6A8243DA6242
:101820001A6B094802401A635A6B8A435A630022B2
:101830009A607047001002400CB8FF08FFFFF6FEE8
:10184000FFFFFBFFFFFFC0FFECFEFFFF0200431C9A
:1018500006D000200856431C02D0824201D188687D
:1018600070470C31F5E70023421C06D11800704781
:10187000984201D14B68F9E70C310023CB565A1C32
:10188000F6D10023F2E7F0B5040089B0002812D0A9
:1018900088208925AA492056FFF7E5FF65570600ED
:1018A000A8492800FFF7DFFF002801D0002E04D14F
:1018B000A54801F04FFB09B0F0BD3300864200D0CF
:1018C00000232360002B01D1A048F2E7A04AA14EDB
:1018D000934215D18022F368D2011343F360F36879
:1018E0009D490B40F360B3691343B361B36913407F
:1018F0000293029B2300002274331A701B329A75E4
:101900000F2728093840FEF757FC892500906557B6
:101910008C492800FFF79AFF01233D40AB4010227D
:10192000039343001340093A0240134304930323F3
:10193000032206930309134005937F23000A1840EE
:1019400003A9079025000098FFF734FC0020883594
:10195000285600093840FEF72FFC00902D78784972
:101960006DB22800FFF772FF01233D40AB4010220B
:10197000039343001340093A0240134304930323A3
:10198000032206930309134005937F23000A18409E
:10199000079003A90098FFF70DFC230074331B7810
:1019A0006E49221D9B005A50D06F0432D76F0C2213
:1019B000A2610022E26122622200E36F2568A16F2A
:1019C0006D326560A1600193E36020616761009200
:1019D0001278D2B2002A04D16C239C46A4446346F8
:1019E0001A702422009B1A7001232A689A43019BD3
:1019F0002A603B430C272A683B43594F3A40134324
:101A00002B606B68574A1340184368600320AB682B
:101A1000554A1340626A1343AB60336B534A034029
:101A2000D05C082800D946E700F072FB090045FFAA
:101A3000140045FF170045FF45FF45FF860073680A
:101A40005B055B0FD3184A4A1B791068D8404B08D6
:101A5000C01808E04808474BFAE7FFF75BFBA368AC
:101A6000A1685B08181800F0DDF980B2E860A26A8E
:101A70006368002A49D0D10705D559683E4801401E
:101A8000E06A01435960910705D559683B48014018
:101A9000206B01435960510705D55968384801400A
:101AA000606B01435960110705D5596835480140FD
:101AB000A06B01435960D10605D5996832480140B1
:101AC000E06B01439960910605D599682F48014064
:101AD000206C0143996051060FD559682C4D606CFC
:101AE00029400143596080214903884205D1596842
:101AF00028480140A06C01435960120605D55A6878
:101B000025490A40E16C0A435A605A6823490A4051
:101B100008215A609A688A439A60012219680A4328
:101B20001A6000232022009923670A7021006C3478
:101B30006E310A702370BEE6802348081B0287E7D7
:101B4000B43B0008CC3B0008043C0008343C0008CF
:101B50000038014000100240FFBFFFFF5801002085
:101B6000F369FFFFFFCFFFFFFFF4FFFF5B3B0008C0
:101B7000A800002000127A00FFFFFDFFFFFFFEFF1C
:101B8000FFFFFBFFFF7FFFFFFFEFFFFFFFDFFFFF19
:101B9000FFFFEFFFFFFF9FFFFFFFF7FFFFF7FFFFD5
:101BA000F0B50F270400000987B038400E0015007B
:101BB000FEF702FB01233C40A3400193032301A94C
:101BC000049302960395FFF7F5FA07B0F0BD024AB9
:101BD0001368013313607047CC04002070B5084CC3
:101BE00020008130FF300500183DEB681438002BD1
:101BF00002D00322010098472800A542F3D170BD0E
:101C000000020020802230B5846803005201944213
:101C100005D10269002A02D10120014228D11A000F
:101C2000683215780220012D22D0013810705965D4
:101C30001900583108804880802149018C421AD10E
:101C40001969002915D10F4819005C310880190065
:101C5000002022246A31D8660C70107001221B68A3
:101C600099680A439A609022196852000A431A60E0
:101C700030BDFF20E8E7002CE9D119690029F8D030
:101C80007F20E1E7FF010000184970B50A00012438
:101C9000174B184EDD6CC868204221D12020CC683B
:101CA000044200D0C8601021D068084002D1D16839
:101CB000490714D51020D4680021044204D0DC6EFA
:101CC00002312143D96601000424D068204204D0A7
:101CD0000120DD6E21432843D8660120D16070BD0C
:101CE000D86C401BB042D6D90320F8E70020024050
:101CF0008004002050C300000100054810B5826C2C
:101D00005468002C02D03C30C27AA04710BDC046B7
:101D100080040020FA21094B10B51868890000F0F2
:101D200081F800F0C5FAC022054912060B6A0020AE
:101D30001B021B0A13430B6210BDC046A800002003
:101D400000ED00E030B5050069352B780200022077
:101D5000202B24D10138002921D0802390685B01F9
:101D6000984205D11369002B02D10120014216D1FE
:101D70001400683423780220012B10D0D1641100A4
:101D8000012350310B804B8000232121D366297021
:101D90002370116880220868024318000A6030BD71
:101DA00070B50C241025A8B2013CFFF7E5F96D00D1
:101DB000002CF8D170BD10B50420FFF7DDF9082024
:101DC000FFF7DAF910BD10B50120FFF7D5F90220B1
:101DD000FFF7D2F910BD10B501F0A6FB10BD10B58C
:101DE00001F0A2FB10BD10B501F09EFB10BD10B5B7
:101DF00001F090FB10BD10B501F08CFB10BDC0468A
:101E00000023C25C0133002AFBD1581E704700003A
:101E100002B4714649084900095C49008E4402BC7D
:101E20007047C046002243088B4274D303098B429B
:101E30005FD3030A8B4244D3030B8B4228D3030C9A
:101E40008B420DD3FF22090212BA030C8B4202D33C
:101E50001212090265D0030B8B4219D300E0090A64
:101E6000C30B8B4201D3CB03C01A5241830B8B426D
:101E700001D38B03C01A5241430B8B4201D34B0356
:101E8000C01A5241030B8B4201D30B03C01A5241BB
:101E9000C30A8B4201D3CB02C01A5241830A8B4240
:101EA00001D38B02C01A5241430A8B4201D34B0229
:101EB000C01A5241030A8B4201D30B02C01A52418D
:101EC000CDD2C3098B4201D3CB01C01A5241830941
:101ED0008B4201D38B01C01A524143098B4201D37B
:101EE0004B01C01A524103098B4201D30B01C01AA6
:101EF0005241C3088B4201D3CB00C01A5241830820
:101F00008B4201D38B00C01A524143088B4201D34C
:101F10004B00C01A5241411A00D2014652411046AC
:101F20007047FFE701B5002000F0F0F802BDC046A1
:101F30000029F7D076E7704703460B437FD4002291
:101F400043088B4274D303098B425FD3030A8B424D
:101F500044D3030B8B4228D3030C8B420DD3FF22B7
:101F6000090212BA030C8B4202D31212090265D085
:101F7000030B8B4219D300E0090AC30B8B4201D338
:101F8000CB03C01A5241830B8B4201D38B03C01A7F
:101F90005241430B8B4201D34B03C01A5241030BF6
:101FA0008B4201D30B03C01A5241C30A8B4201D3A7
:101FB000CB02C01A5241830A8B4201D38B02C01A52
:101FC0005241430A8B4201D34B02C01A5241030AC9
:101FD0008B4201D30B02C01A5241CDD2C3098B42AE
:101FE00001D3CB01C01A524183098B4201D38B012B
:101FF000C01A524143098B4201D34B01C01A5241CE
:1020000003098B4201D30B01C01A5241C3088B4212
:1020100001D3CB00C01A524183088B4201D38B00FD
:10202000C01A524143088B4201D34B00C01A52419F
:10203000411A00D201465241104670475DE0CA0F76
:1020400000D04942031000D34042534000229C4636
:1020500003098B422DD3030A8B4212D3FC22890140
:1020600012BA030A8B420CD3890192118B4208D316
:10207000890192118B4204D389013AD0921100E078
:102080008909C3098B4201D3CB01C01A524183098C
:102090008B4201D38B01C01A524143098B4201D3B9
:1020A0004B01C01A524103098B4201D30B01C01AE4
:1020B0005241C3088B4201D3CB00C01A524183085E
:1020C0008B4201D38B00C01A5241D9D243088B42B4
:1020D00001D34B00C01A5241411A00D20146634657
:1020E00052415B10104601D34042002B00D54942BB
:1020F000704763465B1000D3404201B5002000F0FA
:1021000005F802BD0029F8D016E770477047C046B1
:1021100003B47146490840004900095E49008E44F5
:1021200003BC704703B47146490840004900095A8E
:1021300049008E4403BC7047102370B5514D524C7A
:102140002A6813432B60FFF7E5FD0C2162682B0022
:102150000A4206D062680A40082A3CD16268D2036B
:1021600039D42268F82122688A43110078220A4370
:102170000C21226062680A40082A3AD08020226836
:10218000424980040A402260414A156821680142A0
:1021900030D10F20E16A8143E16261683D48084027
:1021A000A021890301436160802120684904014323
:1021B0008020216015688004216801421FD0012021
:1021C0001968014220D0F020616881436160216874
:1021D000890121D4FEE70122022021680A432C490B
:1021E00022600D6822680242BCD10A68521B022A92
:1021F000F8D9FEE71168491B0229C7D9F9E7116828
:10220000491B0229D8D9F4E71968814301431960B1
:1022100019680142DED0D6E7032061681E4E814373
:102220000800022101430C206160156861680140CB
:10223000082922D11B68194A636813406360FEF7BE
:1022400069FF6368164A1B061B0FD35C154CD84008
:102250002060FFF75FFDFA2120688900FFF7E2FDAB
:1022600000F026F80423104A11680B4313600F4A4C
:10227000136A1B021B0A136270BD1168491BB1422D
:10228000D4D9A7E70020024000100240FFFFFFFE64
:10229000CC040020FFFFC2FF88130000FFF8FFFFFF
:1022A0002B3B0008A800002010E000E000ED00E05B
:1022B000094A431E012093420DD8C021074A08480D
:1022C0005360036A09061B021B0A0B4303620020CA
:1022D0000723906013607047FFFFFF0010E000E0ED
:1022E00000ED00E0F0B501218FB00C20FEF780FA80
:1022F00001210720FEF77CFA01210620FEF778FA7B
:1023000000210800FEF774FA02210A20FEF770FA95
:1023100002210B20FEF76CFA00210820FEF768FA74
:1023200001210C20FEF73EFAC74CC84AE36800259D
:102330005A600C23C64A1360E8B2FEF745FCC54A52
:10234000116813685B1A312BFBD90135062DF3D1C7
:10235000FEF728FC0022C04B1A70BF4D28780138C8
:1023600004280AD8FFF7DEFE0500BE00C300D8002F
:102370004D01FEF783FCFEF727FCE06802260368A8
:102380009B69984785B2E06821780368DB699847C4
:10239000C3B20093A37A334200D177E1E068678843
:1023A0000368EF1B1B68BFB29847874200DA75E1EC
:1023B000A37AB343A372E37A022B00D177E1E068FA
:1023C00003899B0719D003689B689847A37A7F2BE2
:1023D00005D9A388EB1A9BB2834200DBABE1E0682E
:1023E00003689B6898470821A27A0A4205D0A3880F
:1023F000EB1A9BB2834200DBA5E10426E068038967
:1024000033420BD00122A37A00991A40914205D0A1
:10241000334203D020273B4200D197E1E068038993
:102420001B0717D50123A27A00991340994211D0B6
:1024300053070FD5402703683A4200D13BE1268974
:102440005B69AE1BB6B29847864203DB0520FFF7F7
:1024500053FC2581E37A009A934200D11EE16B463A
:1024600001221B78A17AE372009B0A40934206D0B6
:10247000042300200B43E580A372FFF73DFC0122FB
:10248000A37A00991A40914200D007E1E0680289DE
:10249000920700D06CE1A27A930604D5E36819890B
:1024A0000123490614D4530604D5E368198901238E
:1024B00009060DD4130704D5E36819890123C90659
:1024C00006D40023D10603D5E3681B899B06DB0FE6
:1024D00074218A43A272002B00D0DFE00120FFF7B5
:1024E0000BFCDBE0FEF7CAFB0330C0B243E705207C
:1024F000FDF7A8FE564B1B680C2B04D00B2B08D8FD
:102500000C22D31AD840302354495843FFF78AFC91
:10251000EBE70C3B9840F6E7FEF7CCFA0600062006
:102520004E497043FFF77EFCC0B2FEF74DFBFEF74D
:10253000E9FA4B4F0A2231003800FEF7A9FC49495D
:102540003800FEF7AAFBFEF7D1FA6B78002B00D01B
:1025500013E70121A37AE27A0B409A4200D00CE7FC
:102560001025013D002D03D0FEF7A4FA3618F8E738
:102570003D4B3609069302AB1E7508233B4908AA5A
:102580000C913B4D310A0293117508932B691B0680
:1025900022D5384A384B6A606B60296989051BD49B
:1025A000AA60AB60FEF7B6FE002815D1334B1B7E48
:1025B000012B02D002A8FEF7D7FE304B1B7E012B69
:1025C00002D008A8FEF7D0FE2B692D4A13402B61DC
:1025D00080232A6913432B61FEF794FA29493800B6
:1025E000FEF75BFB0A2231003800FEF751FC1D4963
:1025F0003800FEF752FBFEF779FA0122164B5A70AB
:10260000BBE6174E3000FEF7A1FB002808D03000D3
:10261000FEF77EFB0621FFF775FDC8B2FEF7D4FA80
:102620000C4A696813685B1AFA2149008B4200D88A
:10263000A3E613686B60FEF765FA13493000FEF7F6
:102640002CFBFEF753FA98E6BC0400201D0C000892
:10265000A4000020CC040020F8010020FF0F00009F
:1026600080030020F43B000804F8FF1F06F8FF1F5A
:102670000020024023016745AB89EFCDD004002044
:10268000FFFDFFFFF73B0008FE3B0008E27A0099E0
:102690008A4200D18FE61E43A67265803C4A1168CB
:1026A00013685B1A042BFBD9FEF758FB55E66B4603
:1026B0001B78E372F2E7E6881B69AE1BB6B2984757
:1026C000864200DAC6E6A37A1F43A772BEE6E06838
:1026D00003899B0705D5A37A1A0711D410229343C7
:1026E000A372A37A0822D9064ED41A43A272E268D2
:1026F000A5801289D2051AD578225242134344E0AC
:102700000368A6889B689847AE1BB6B2A37A864238
:10271000E4DA5AB2002A02DA7F221340A3721023AD
:10272000A27A03201343A372FFF7E6FAD9E7022047
:10273000FFF7E2FAAFE60220FFF7DEFA7F22A37A84
:102740001340A3724BE68A43A27256E6E388EB1A63
:102750009BB201930368DB689847019B834200DAD0
:102760005CE6A37A30001F43A772FFF7C5FA55E66F
:102770005A0708D5E6880368AE1B5B68B6B298476F
:102780008642A4DBA37A08229343A37283E6C04661
:10279000CC0400204D4B0521180070B53030197065
:1027A000197601310170180000240830C467180040
:1027B000474A1D008C30026018004835297090305F
:1027C0000131017018009C3004601800A4300260D0
:1027D0001800A83001701800B43004601800BC3034
:1027E00002601800C03001701800CC30046018007E
:1027F000D43002601800D83001701D001800603518
:10280000E430297004601D0018007835EC30297020
:1028100002601D001800FF35F030DC605A615C6218
:10282000DA62DC635A645C65DA65DC665A670170FB
:102830006972902518006D0059551835595518358D
:102840005955183559557631FC30FF310460826096
:102850008461026204638263846402650466826642
:1028600084675A5020001B4A1B4900F066F8FA2280
:102870001A4B92009A601A4A0A2011000831196016
:102880001900FF3188770138487718001900FC30AB
:1028900011315C60416219005133C362114B28321F
:1028A0001A631A00FE313032CC849A640C85CC85D0
:1028B0000C861A0002213C32DC875C631C875B18A3
:1028C000147054709472D172DC8770BD00020020C5
:1028D0000000111000000020DD1B00088003002014
:1028E000683B0008800400200D4885460D480E49CD
:1028F0000E4A002302E0D458C4500433C4188C425A
:10290000F9D30B4A0B4C002301E013600432A242BE
:10291000FBD3FEF76CFF00F025F8FFF7E3FCFEE7C2
:10292000001000200000002010010020083D0008D9
:10293000100100209C050020FEE70B0010B50100EF
:10294000180000F001F810BD70B5054C050013002B
:10295000201E04D00A000220290000E000BF70BD44
:102960000000000070B500260C4D0D4C641BA41037
:10297000A64209D1002601F0A3F80A4D0A4C641BB7
:10298000A410A64205D170BDB300EB58984701369C
:10299000EEE7B300EB5898470136F2E7E83C000851
:1029A000E83C0008E83C0008043D000803008218E9
:1029B000934200D1704719700133F9E7936810B55D
:1029C000013B9360002B05DA9469A34208DBCBB28C
:1029D0000A2B05D01368581C10601970C8B210BDBE
:1029E00000F0D2FAFBE7F8B506000F001400D51886
:1029F000AC4201D1002007E021783A003000FFF717
:102A0000DDFF0134431CF3D1F8BD0000F0B59FB0E9
:102A100006000F0014000593002804D08369002BE2
:102A200001D100F075FC7F4B9F425CD17768BB8978
:102A30001B0762D53B69002B5FD0002306AD6B619D
:102A400020336B761033AB760294029C2378002BF4
:102A50005DD1029BE31A04930DD0049B029A3900C6
:102A60003000FFF7C0FF431C00D1CCE06A69049B33
:102A7000944663446B612378002B00D1C3E00122AC
:102A8000002352426A6002A95432521801342B606A
:102A9000EB60AB601370AB6521780522624800F0F3
:102AA0004DFD631C9C46002835D12968CB0604D512
:102AB000532302AA20309B1818700B0704D5532308
:102AC0002B2002AA9B18187023782A2B2CD00020C8
:102AD0000A21099B2278303A092A00D86BE00028A5
:102AE0002AD0099328E0514B9F4201D1B7689EE755
:102AF0004F4B9F429BD1F76899E73900300000F0B7
:102B000099FA002899D0012040421FB0F0BD252B32
:102B10009FD001349AE7444B2968C01A01238340AF
:102B20000B432B606446B7E7059B181D1B68059097
:102B3000002B3ADB0993644623782E2B0BD1637864
:102B4000621C2A2B3FD1059B02341A1D1B6805927B
:102B5000002B35DB079321780322364800F0EEFC8A
:102B6000002807D0334B2A68C01A40238340134300
:102B70002B6001342178631C06222F4802932976AA
:102B800000F0DCFC002844D02C4B002B2FD129680E
:102B9000059B0722C90528D59B1893430833059345
:102BA0006B69039A9B186B614FE75B42EB600223F2
:102BB0000B432B60BFE74B4301349B18012089E78F
:102BC00001235B42C6E7002314000A201A006B6051
:102BD00021783039092903D9002BBCD00792BAE7F4
:102BE0004243013452180123F2E70733D5E705AB1E
:102BF00000933A00124B2900300000E000BF039020
:102C0000039B0133CCD1BB895B0600D57BE70B98D6
:102C10007BE705AB00933A00094B2900300000F038
:102C20007FF8ECE7A83C0008543C0008C83C0008CA
:102C3000883C00085A3C00085E3C00080000000088
:102C4000E7290008F7B5150001938A680B69009021
:102C50000C00934200DA130022002B6043321278FA
:102C6000002A01D001332B6023689B0602D52B6814
:102C700002332B60062723681F4027D023004333ED
:102C80001B785A1E93412268920630D42200019983
:102C900043320098089EB047431C25D00623206885
:102CA0002A68E16803400025042B03D18D1AEB4309
:102CB000DB171D40A3682269934201DD9B1AED18C2
:102CC0000027BD4220D1002010E00137E3682A68C8
:102CD0009B1A9F42D2DA22000123193201990098EF
:102CE000089EB047431CF0D101204042FEBD302079
:102CF000E1184331087021005A1C45310978A218A7
:102D0000433202331170C1E7220001231A320199C4
:102D10000098089EB047431CE6D00137D1E7000079
:102D2000F0B58BB006920A004332079305900492E7
:102D30000A7E0C00109B6E2A00D18FE017D8632A00
:102D40002CD008D8002A00D199E0582A54D0260067
:102D50004236327029E0642A01D0692AF7D121680D
:102D60001A68080623D5111D1960156825E0732A15
:102D700000D188E008D86F2A29D0702AE7D1202214
:102D800009680A43226003E0752A20D0782ADED140
:102D900022007821453211706C4A30E00E001A682A
:102DA0004236111D196013683370012379E049061A
:102DB000D9D5111D19600023D55E002D03DA2D230E
:102DC000049A6D421370624B0A2703932FE0206828
:102DD0001968050603D5081D18600D6805E0400652
:102DE000F9D50D68081D1860ADB2594B082703933B
:102DF0006F2A18D00A2716E045310A70544A039208
:102E00001A682168101D18601568080622D5CB07BE
:102E100002D52023194321601027002D03D1202340
:102E200022689A4322602300002243331A706368A9
:102E3000A360002B5CDB0422216891432160002DFC
:102E400058D1049E002B64D02600039B42361B7889
:102E500033705EE04806DAD5ADB2D8E709681A6883
:102E6000080605D5111D1960136862691A6006E02D
:102E70004906F7D5111D19601368A28A1A8000232C
:102E8000049E236154E01A68111D19601668002120
:102E90006268300000F052FB002801D0801B6060A7
:102EA000636823610023049A137041E023693200B0
:102EB00006990598079DA847431C43D02368002521
:102EC0009B070FD4099BE06898423DDA18003BE06D
:102ED00022000123193206990598079EB047431C2A
:102EE00030D00135E368099A9B1A9D42F0DBE9E78F
:102EF000002DA9D0049E28003900FFF719F8039B84
:102F0000013E5B5C280033703900FEF78BFF051E25
:102F1000F1D1082F09D12368DB0706D56368226940
:102F2000934202DC3023013E3370049B9B1B2361E0
:102F3000079B09AA00932100069B0598FFF782FED4
:102F4000431CB3D1012040420BB0F0BD763C0008D9
:102F5000653C00080FB40B4B13B51C68002C05D062
:102F6000A369002B02D1200000F0D2F905AB049A2E
:102F7000A16820000193FFF749FD16BC08BC04B00E
:102F80001847C046AC000020F8B505000E0014003C
:102F9000002804D08369002B01D100F0B9F9224B3D
:102FA0009C422DD16C68A369A360A3891B0731D50E
:102FB0002369002B2ED023682269F7B2981A63691F
:102FC000F6B2984205DB2100280000F033F9002812
:102FD00026D1A3680130013BA36023685A1C2260FC
:102FE0001F706369984204D0A389DB071AD50A2EA3
:102FF00018D12100280000F01DF9002812D00FE0A0
:103000000A4B9C4201D1AC68CDE7094B9C42CAD126
:10301000EC68C8E72100280000F00CF80028CAD0AE
:10302000012676423000F8BDA83C0008C83C0008E4
:10303000883C0008364B70B51D6806000C00002D5A
:1030400005D0AB69002B02D1280000F061F9314BAB
:103050009C420FD16C680C23E25E93B219072DD409
:10306000D90611D409230120336037331343A381D8
:10307000404270BD284B9C4201D1AC68EBE7274B26
:103080009C42E8D1EC68E6E75B0713D5616B002949
:1030900008D023004433994202D0300000F062FA95
:1030A000002363632422A3899343A38100236360E5
:1030B000236923600823A2891343A3812369002B7A
:1030C0000BD1A0218022A389890092000B4093425A
:1030D00003D02100300000F0D9F90123A289134068
:1030E00011D00023A36063695B42A36100202369C0
:1030F0008342BED10C23E25E1306BAD540231343AC
:10310000A3810138B5E7920700D46369A360EDE7B6
:10311000AC000020A83C0008C83C0008883C00081F
:10312000F7B58A8905000C00130760D44B68002BA3
:1031300004DC0B6C002B01DC0020FEBDE76A002FD5
:10314000FAD000232E682B6080235B011A4034D014
:10315000606DA3895B0706D56368C01A636B002B9B
:1031600001D0236CC01A0200216A00232800E76AFC
:10317000B847A189431C06D12B681D2B31D82C4A96
:10318000DA40D3072DD50023636023692360CB0485
:1031900005D5431C02D12B68002B00D16065616B03
:1031A0002E600029C8D023004433994202D0280061
:1031B00000F0D8F900206063BFE70123216A2800EE
:1031C000B847431CC5D12B68002BC2D01D2B01D0A2
:1031D000162B01D12E60AFE74023A2891343A381B0
:1031E000ABE740230B430120A3814042A5E70F69D1
:1031F000002FA1D00B680F60DB1B01930023920707
:1032000000D14B69A360019B002B00DC94E7019B7C
:103210003A00216A2800A66AB047002803DC402350
:10322000A2891343DFE7019B3F181B1A0193EAE7CA
:10323000010040200B6970B505000C00002B01D186
:10324000002070BD002804D08369002B01D100F05C
:103250005FF80B4B9C4209D16C680C22A35E002BDB
:10326000EED021002800FFF75BFFEAE7054B9C4208
:1032700001D1AC68F1E7044B9C42EED1EC68ECE77D
:10328000A83C0008C83C0008883C000810B502496A
:1032900000F0B2F810BDC04635320008002310B56A
:1032A000040003604360836081814366C2810361DF
:1032B00043618361190008225C30FFF777FB054BFF
:1032C00024626362044BA362044BE362044B2363F6
:1032D00010BDC046D936000801370008393700084C
:1032E0006537000870B568254A1E55430E00290051
:1032F000743100F081F9041E08D000212A00016019
:1033000046600C30A0606832FFF750FB200070BDB3
:10331000836913B50400002B28D18364C36403655B
:10332000134B144A1B6882620193984201D1012316
:103330008361200000F020F86060200000F01CF89D
:10334000A060200000F018F80022E060042160680E
:10335000FFF7A4FF01220921A068FFF79FFF0222C7
:103360001221E068FFF79AFF0123A36113BDC04655
:10337000503C00088D320008F8B51E4B07001E684F
:10338000B369002B02D13000FFF7C2FF4836B468A2
:103390007368013B04D53368002B07D03668F6E725
:1033A0000C22A55E002D0DD06834F2E70421380010
:1033B000FFF798FF30600028F0D10C2304003B6039
:1033C0002000F8BD012320005B42E3810233A3818A
:1033D00065662560A560656025616561A561082257
:1033E00029005C30FFF7E2FA6563A563A564E56434
:1033F000E6E7C046503C0008F7B504000700002689
:1034000001914834002C01D13000FEBD6368A568ED
:103410000093009B013B009301D52468F2E7AB8940
:10342000012B08D90E22AB5E013304D029003800ED
:10343000019B984706436835EBE7000070B50E0026
:103440001D000E23C95E90B01400002907DA002386
:103450002B60B3891B0611D48023DB000FE001AA87
:1034600000F0ACF90028F2DBF022029B12021340BC
:10347000054A9B185A4253412B60EDE74023002038
:10348000236010B070BDC04600E0FFFFF7B5022614
:103490008B8905000C00334206D02300473323609C
:1034A000236101236361F7BD01AB6A46FFF7C6FFE5
:1034B00000990700280000F09FF8002808D10C228E
:1034C000A35E9A05EFD4032293431E43A681E4E74B
:1034D0000F4BAB628023A28920601343A381009B22
:1034E00020616361019B002B0DD00E23E15E28005B
:1034F00000F076F9002806D00322A38993431A002E
:1035000001231343A381A0893843A081CBE7C046A0
:103510008D32000810B5034B0100186800F06CF8FC
:1035200010BDC046AC00002010B5034B0100186868
:1035300000F018F810BDC046AC000020C9B28218D7
:10354000904201D10020704703788B42FBD00130BC
:10355000F6E7002310B59A4200D110BDCC5CC454EC
:103560000133F8E770B50500002910D00C1F23685F
:10357000002B00DAE418280000F058F91D4A1368FF
:10358000002B05D163601460280000F050F970BD75
:10359000A34209D9216860188342F3D118685B6897
:1035A00041182160EEE713005A68002A01D0A242B8
:1035B000F9D919685818A0420BD120680918581871
:1035C00019608242E0D110685268411819605A604F
:1035D000DAE7A04202D90C232B60D5E721686018F6
:1035E000824203D1106852684118216062605C60B9
:1035F000CAE7C046F0040020032370B5CD1C9D43EC
:10360000083506000C2D1ED20C25A9421DD830000D
:1036100000F00CF9254A14682100002919D1244C26
:103620002368002B03D1300000F044F8206029000B
:10363000300000F03FF8431C2CD10C2330003360E5
:1036400000F0F5F803E0002DDFDA0C2333600020F2
:1036500070BD0B685B1B1AD40B2B03D90B60CC1805
:10366000256003E08C420ED163681360300000F0E7
:10367000DEF8200007220B30231D9043C31AE7D049
:103680005A42E250E4E74B6863600C00EEE70C003E
:103690004968C2E70323C41C9C43A042E0D0211A1E
:1036A000300000F007F8431CDAD1C6E7F004002030
:1036B000F4040020002370B5064C050008002360C8
:1036C000FDF7DEF9431C03D12368002B00D02B60EB
:1036D00070BDC0469805002070B50C000E25495FEE
:1036E00000F0A6F8002803DB636D1B18636570BD4E
:1036F000A389024A1340A381F9E7C046FFEFFFFF09
:10370000F8B51F008B8905000C001600DB0505D5F8
:103710000E23C95E0022022300F074F8A389054A33
:1037200028001340A38132000E23E15E3B0000F02D
:103730001FF8F8BDFFEFFFFF70B50C000E25495FC5
:1037400000F060F8A389421C03D1054A1340A3810D
:1037500070BD802252011343A3816065F8E7C04623
:10376000FFEFFFFF10B50E23C95E00F015F810BD86
:1037700070B50500080011000022064C22601A00F6
:10378000FDF781F8431C03D12368002B00D02B6088
:1037900070BDC04698050020002370B5064C05009A
:1037A00008002360FDF769F9431C03D12368002B4F
:1037B00000D02B6070BDC04698050020002370B576
:1037C000064C0500080011002360FDF751F9431C69
:1037D00003D12368002B00D02B6070BD980500201A
:1037E000002370B5064C050008002360FDF73EF984
:1037F000431C03D12368002B00D02B6070BDC04652
:103800009805002070B50500080011000022064C44
:1038100022601A00FDF728F9431C03D12368002B0E
:1038200000D02B6070BDC0469805002070477047DF
:1038300070B50500080011000022064C22601A0035
:10384000FDF710F9431C03D12368002B00D02B6037
:1038500070BDC046980500200123214A1168194215
:1038600000D113601F4A1168194200D1136001236F
:103870001D4A1168194200D113601C4A116819428F
:1038800000D1136001231A4A1168194200D1136054
:10389000184A1168194200D113600123164A1168B1
:1038A000194200D11360154A1168194200D1136002
:1038B0000123134A1168194200D11360114A11689B
:1038C000194200D1136001230F4A1168194200D137
:1038D00013600E4A1168194200D113607047C04648
:1038E00024050020200500201C05002018050020CC
:1038F00014050020100500200C05002008050020FC
:103900000405002000050020FC040020F80400202D
:103910000123214A1168194200D113601F4A11681E
:10392000194200D1136001231D4A1168194200D1C8
:1039300013601C4A1168194200D1136001231A4A0E
:103940001168194200D11360184A1168194200D158
:1039500013600123164A1168194200D11360154AF9
:103960001168194200D113600123134A11681942EA
:1039700000D11360114A1168194200D1136001236C
:103980000F4A1168194200D113600E4A116819429A
:1039900000D113607047C046540500205005002038
:1039A0004C0500204805002044050020400500206B
:1039B0003C0500203805002034050020300500209B
:1039C0002C050020280500200123164A1168194201
:1039D00000D11360144A1168194200D11360012309
:1039E000124A1168194200D11360114A1168194234
:1039F00000D1136001230F4A1168194200D11360EE
:103A00000D4A1168194200D1136001230B4A116855
:103A1000194200D113600A4A1168194200D113609B
:103A20007047C04674050020700500206C0500201A
:103A30006805002064050020600500205C0500206A
:103A4000580500200123164A1168194200D113605D
:103A5000144A1168194200D113600123124A1168F7
:103A6000194200D11360114A1168194200D1136044
:103A700001230F4A1168194200D113600D4A1168E1
:103A8000194200D1136001230B4A1168194200D179
:103A900013600A4A1168194200D113607047C0468A
:103AA00094050020900500208C050020880500204A
:103AB00084050020800500207C050020780500207A
:103AC000F8B5C046F8BC08BC9E467047F8B5C0467D
:083AD000F8BC08BC9E467047DB
:103AD800000000480004004800080048000C0048A6
:103AE8000014004805000000002401400380020083
:103AF800110000000024014003800400FF000000C2
:103B08000000000000000000010203040506070889
:103B1800090A0B0C0D0E0F10110100030504020415
:103B28000302010000000000000000010203040677
:103B380007080902030405060708090A0B0C0D0EFD
:103B48000F10100102030405060708090A0B0C0DE3
:103B58000E0F100004080200000000010203040018
:103B680000000000000000007D0D0008B90C0008EE
:103B78004D0D0008110D0008330D0008FF0C00085A
:103B88000000000000000000B5010008A5010008C1
:103B9800AF010008A9010008A9010008A501000853
:103BA800990100088F010008890100080900000038
:103BB8000038014012010000FF0000000000000072
:103BC800000000000A000000003801401201000057
:103BD800FF000000000000000000000000010203D8
:103BE80004050607090A0D0E404105110D0A004398
:103BF800616C203A200070696E670A004552524F86
:103C0800523A206174206C65617374206F6E652070
:103C1800554152542070696E20686173206E6F2080
:103C28007065726970686572616C0A004552524F1E
:103C3800523A20554152542070696E73206D697351
:103C48006D617463680A0000B0000020232D302BDA
:103C58002000686C4C006566674546470030313285
:103C680033343536373839414243444546003031DC
:103C7800323334353637383961626364656600003B
:103C8800000000000000000000000000000000002C
:103C9800000000000000000000000000000000001C
:103CA800000000000000000000000000000000000C
:103CB80000000000000000000000000000000000FC
:103CC80000000000000000000000000000000000EC
:103CD80000000000000000000000000000000000DC
:103CE80039210008E900000895270008593800081C
:0C3CF80011390008C9390008453A0008DD
:043D0400C1000008F2
:103D080000000000FF0000000000000000000000AC
:103D1800000000000000000000000000000000009B
:103D2800000000000000000000000000000000008B
:103D3800000000000000000000000000000000007B
:103D4800000000000000000000000000000000006B
:103D5800000000000000000000000000000000005B
:103D6800000000000000000000000000000000004B
:103D78000000000000000000000000000800000033
:103D8800000000000000000000000000000000002B
:103D9800000000000000000000000000000000001B
:103DA800000000000A00000000127A00B0000020A5
:103DB80000000000A83C0008C83C0008883C000837
:103DC80000000000000000000000000000000000EB
:103DD80000000000000000000000000000000000DB
:103DE80000000000000000000000000000000000CB
:103DF80000000000000000000000000000000000BB
:103E080000000000000000000000000000000000AA
:04000005080028E9DE
:00000001FF
